:0200000460009A
:100000004643464200000156000000000101020084
:1000100000000000000000000000000000000000E0
:1000200000000000000000000000000000000000D0
:1000300000000000000000000000000000000000C0
:1000400000000000010403000000000000000000A8
:100050000000200000000000000000000000000080
:100060000000000000000000000000000000000090
:100070000000000000000000000000000000000080
:10008000EB04180A063204260000000000000000FD
:10009000050404240000000000000000000000002F
:1000A0000000000000000000000000000000000050
:1000B0000604000000000000000000000000000036
:1000C0000000000000000000000000000000000030
:1000D00020041808000000000000000000000000DC
:1000E0000000000000000000000000000000000010
:1000F0000000000000000000000000000000000000
:1001000000000000000000000000000000000000EF
:100110000204180804200000000000000000000095
:1001200000000000000000000000000000000000CF
:10013000600400000000000000000000000000005B
:1001400000000000000000000000000000000000AF
:10015000000000000000000000000000000000009F
:10016000000000000000000000000000000000008F
:10017000000000000000000000000000000000007F
:10018000000000000000000000000000000000006F
:10019000000000000000000000000000000000005F
:1001A000000000000000000000000000000000004F
:1001B000000000000000000000000000000000003F
:1001C000000100000010000001000000000000001D
:1001D000000000000000000000000000000000001F
:1001E000000000000000000000000000000000000F
:1001F00000000000000000000000000000000000FF
:10020000D4D4D4D4D4D4D4D4D4D4D4D4D4D4D4D4AE
:10100000D10020400020006000000000000000002F
:1010100020100060001000600000000000000000D0
:10102000000000606412010000000000EFBEADDEB1
:10103000124880F3088812481249016000F036F81F
:10104000114812490022814201D004C0FBE7104838
:101050001049114A814202D008CA08C0FAE70F4875
:101060004FF47001026842EA01020260BFF34F8F41
:10107000BFF36F8F00F014F800DE00000040002086
:1010800008ED00E000400020005000209C8A002075
:10109000B84200204C4400206412016088ED00E05A
:1010A00041F22B3CC0F2000C6047D4D4204840F2FF
:1010B0009C41884219D040F24C418842CCBF1D4A25
:1010C0001D4A1E4B5360136823F0800313601C48B5
:1010D0001C49C1BF1C480A0C8264C1F30F01416462
:1010E000016C41F00401016402E0184815490160F7
:1010F0001748184A824205D01749814202D008CACF
:1011000008C0FAE71548164A824205D015498142BF
:1011100002D008CA08C0FAE71348144A824205D030
:101120001349814202D008CA08C0FAE7704700009C
:10113000240400000080034000C00B4020C528D9D3
:1011400000C00A40AAAAFAFF00400E4060004F44C7
:1011500000000000B822006030CB000000400020FA
:1011600000200060B842002000002020E8ED006070
:101170007C242020D4D4D4D4D4D4D4D4D4D4D4D49F
:10118000D4D4D4D4D4D4D4D4D4D4D4D4D4D4D4D41F
:10119000D4D4D4D4D4D4D4D4D4D4D4D4D4D4D4D40F
:1011A000D4D4D4D4D4D4D4D4D4D4D4D4D4D4D4D4FF
:1011B000D4D4D4D4D4D4D4D4D4D4D4D4D4D4D4D4EF
:1020000000400020311000601369000011CB000077
:10201000136900001369000013690000000000004C
:102020000000000000000000000000001369000034
:10203000136900000000000013690000890100001E
:1020400013690000136900001369000013690000A0
:102050001369000013690000136900001369000090
:102060001369000013690000136900001369000080
:102070001369000013690000136900001369000070
:1020800013690000000000000000000000000000D4
:102090001369000013690000136900001369000050
:1020A0001369000013690000136900001369000040
:1020B0001369000013690000136900001369000030
:1020C0001369000013690000136900001369000020
:1020D000136900001369000013690000010000008B
:1020E0001369000013690000136900001369000000
:1020F00013690000136900001369000013690000F0
:1021000013690000136900001369000013690000DF
:1021100000000000136900000000000013690000C7
:1021200013690000136900001369000013690000BF
:10213000136900001369000000000000136900002B
:10214000136900001369000013690000136900009F
:102150001369000013690000000000000000000087
:10216000136900001369000013690000136900007F
:10217000136900001369000013690000136900006F
:10218000136900001369000013690000136900005F
:10219000136900001369000013690000136900004F
:1021A000136900001369000013690000136900003F
:1021B000136900001369000013690000136900002F
:1021C000136900001369000013690000000000009B
:1021D000136900001369000013690000136900000F
:1021E00013690000136900001369000013690000FF
:1021F00013690000136900001369000013690000EF
:10220000136900009D0100001369000013690000BC
:1022100013690000136900001369000013690000CE
:1022200013690000136900001369000013690000BE
:10223000136900001369000013690000000000002A
:10224000000000001369000013690000136900001A
:10225000136900001369000013690000136900008E
:10226000136900001369000013690000136900007E
:10227000136900001369000013690000136900006E
:10228000136900001369000013690000136900005E
:10229000136900001369000013690000136900004E
:1022A00013690000136900001369000000000000BA
:0822B00013690000136900002E
:1022B800F0B503AF4DF8048D86B009F012FA45F277
:1022C8000001C2F200010C6894F8741049B304F1DB
:1022D80075010022D1E84F3F012B20D1C1E8432FDF
:1022E800002BF7D140F24941BFF35F8FC0F20001E4
:1022F8006A46019141F25461C2F220018046009180
:102308000021049194F87010CDE9022279B10329D3
:1023180034D040F64420C2F220000BF0E7FDBFF3B2
:102328002F8F09F0E2F906B05DF8048BF0BD206844
:10233800016819B10021C4E9010110E0012041F24E
:10234800546184F870000020BFF35F8F84F8740034
:1023580040F24940C2F22001C0F2000038E0D0E962
:102368000001012201F01F0102FA01F1C0F88C10EE
:10237800002084F86C004FF4FA70E06004F10C005F
:1023880002A900F071F8F0B994F86C00032807D19D
:1023980094F86800032804BF94F86500032804D063
:1023A800D4E901010131A160D9E7D4E90C500668EC
:1023B80009F070F9BFF35F8F2968C1B10A698E42CD
:1023C8000FD12A6013E0DDE90010032284F87020A1
:1023D800C9688847404609F088F906B05DF8048B5B
:1023E800F0BD22B196420ED113461A690A6109F06E
:1023F8005CF9206C002184F8641000281EBFC168B5
:10240800606C8847CCE711690029F0D08E4210D063
:102418000A69002AEBD09642E6D011690029E6D075
:102428008E4206D00A69002AE1D013469642EAD1C4
:10243800DBE70B461146D8E780B56F4648F688209B
:10244800C2F20000BDE8804002F066BA42F2C04025
:10245800C2F22000006820B180B56F468047BDE811
:102468008040002009F041B9F0B503AF2DE9000B19
:1024780086B0044690F860008846C0B1032840F052
:10248800F68094F85C00E8B1032840F0F68094F8F0
:10249800591004F11400002968D0032940F0F38092
:1024A800414601F019FB002841D00321A7E0256827
:1024B80048F688260020C2F2000684F85C00C4E9C9
:1024C800016501E0D4E901654FF0000909F0B6F8AB
:1024D800014684F8599066654219002D18BF511CB1
:1024E800C4E9030104F11400E162224642F8301FF6
:1024F800002182F828103379002B00F0A6802346AB
:10250800012543F8341F83F824501D4645F81C1F45
:1025180003F11801C3E9053343E9082143E90665D6
:1025280043E90465414601F0D7FA0028BDD1A16C02
:102538000A684AB1097B00291CBF002184F8581099
:1025480094F8581009BB4EE000218046D4E90950A0
:1025580084F85810066809F09DF8BFF35F8F296862
:1025680069B10A698E4204D12A6008E0E16A666DA1
:10257800BBE722B1964217D113461A690A6109F0DE
:1025880094F8404694F8581069B38046D4E9095045
:10259800066809F07FF8BFF35F8F296801B30A69FD
:1025A8008E4217D12A601BE011690029E7D08E42BC
:1025B80048D00A69002AE2D09642DDD01169002984
:1025C800DDD08E423ED00A69002AD8D01346964202
:1025D800EAD1D2E722B196421BD113461A690A61A1
:1025E80009F063F84046616B002284F8582029B14D
:1025F800CA680546A16B084690472846012184F819
:10260800601084F85C1084F8591006B0BDE8000B1F
:10261800F0BD11690029E3D08E4210D00A69002A62
:10262800DED09642D9D011690029D9D08E4206D081
:102638000A69002AD4D013469642EAD1CEE70B465F
:102648001146CBE70B46114697E70120049101900C
:1026580040F6CC30C2F22000039140F6D43100900D
:102668000420C2F22001029068460BF084FC40F678
:102678002400C2F220000BF039FC40F6F430C2F21C
:1026880020000BF033FC40F6E430C2F220000BF0DF
:102698002DFC80B56F46084640F63401C2F2200191
:1026A8000222BDE880400AF0F9B880B56F4645F2CD
:1026B80000000121C2F200008068BFF35F8F80F83C
:1026C800691080BD80B56F4645F200000121C2F255
:1026D8000000C068BFF35F8F80F8091180BD80B526
:1026E8006F4645F200000121C2F200004068BFF3C6
:1026F8005F8F80F8691080BD80B56F4645F2000095
:102708000121C2F200000068BFF35F8F80F87510E6
:102718004EF20420CEF200008021016080BD00004E
:1027280080B56F4682B00A4610F8011BDFE801F059
:1027380003411F300E5240F636011046C2F2200106
:102748000D2202B0BDE880400AF094B9019040F62D
:102758007C0040F68C01C2F2200000901046C2F2C4
:10276800200101AB032209F072FF02B080BD019085
:1027780040F6640040F67401C2F220000090104652
:10278800C2F2200101AB022209F061FF02B080BD54
:10279800019040F6640040F67601C2F220000090F5
:1027A8001046C2F2200101AB052209F050FF02B029
:1027B80080BD019040F6440040F65401C2F220006A
:1027C80001AB00901046C2F220010F2209F03FFF32
:1027D80002B080BD40F68F011046C2F220010C22E3
:1027E80002B0BDE880400AF045B9F0B503AF4DF836
:1027F80004BD8CB00A4600F1080140F6BC0C0B91F0
:1028080004210BAB0DF1200EC2F2200C8EE80A1049
:10281800031D022440F6F10C40F6AC0E40F6F90513
:1028280040F69C06CDE9001040F6CC01CDE9044302
:1028380040F6D9031046C2F2200CC2F2200EC2F2B2
:102848002005C2F22006C2F22001C2F220030522AE
:10285800CDE90265CDE906EC09F0CEFF0CB05DF8D4
:1028680004BBF0BD80B56F4682B0019040F6FC0015
:102878000A4640F60C11C2F2200001AB0090104647
:10288800C2F22001052209F0E2FE02B080BD80B547
:102898006F4682B0019040F6FC000A4640F61111DE
:1028A800C2F2200001AB00901046C2F220010722BC
:1028B80009F0CDFE02B080BD80B56F46ADF55C7DF8
:1028C80045F2000242F2904A9AA810AC011DC2F2E9
:1028D80000024FF00008C2F2200A039104F114012B
:1028E80001300191009001E0BFF32F8FD2F808B0BA
:1028F8009BF8680010B30BF16900D0E84F1F01295D
:102908001AD1C0E8418F0029F7D140F2FB30BFF35C
:102918005F8FC0F2000008A9099041F25460C2F22A
:102928002000CDF8488008909BF86400CDE910118C
:10293800002840F0F68010E0BFF32F8FD2F8049003
:1029480099F86800002840F00381D2F80CB09BF891
:102958000801002840F06782C8E708F0C2FE8146F7
:10296800002008F0BBFEDAF81C00022833D148F634
:102978009420C2F200000068002800F0CA8040F6E7
:102988007010C2F2200008F0BBFF042340F668165E
:10299800D0E90012C2F220068068A7930123CDE98E
:1029A800A888A69340F64414A0919B90781E9AA9F3
:1029B800C2F22004A5960E26A496A3949D9410AC6A
:1029C800A293A192CDF87C829E96CDF870829A93BC
:1029D80008F0B5FF9DE004A8514601221E2303F02C
:1029E80022FD9DF81000012830D19DF81100DFE884
:1029F80010F090000600E703E7030C01F7009DF8CC
:102A080012008DF8680148F69420C2F200000068B0
:102A180000287ED049F61520C0F200001B905AA865
:102A28001A9040F6E410C2F2200008F069FF1AAECE
:102A38000123D0E900128068CDE9A63640F6DC16FD
:102A4800CDF8A482C2F22006A893ABE79AA8514613
:102A5800059D03F03BF89DF86802012855D01AAC93
:102A68000099FF2220460BF07FFDB5F5807F80F0AE
:102A780090835AA821462A460AF015FD5AAA07CA81
:102A8800002840F68010C2F2200018BF0D221792CD
:102A980018BF014648F694201691C2F2000000685B
:102AA800022831D942F6EB40C0F200000B9016A87C
:102AB8000A9040F6A810C2F2200008F021FFD0E9E1
:102AC80000120AAE80680123CDE9663640F6A016EA
:102AD8000DF5C07C40F64415C2F2200603248CE8AC
:102AE80016005AA9C2F22005CDE95A30781E65961B
:102AF8000E26CDF8A481689364966395CDE95E6847
:102B0800CDE95C8508F01BFF10AC42F2904AC2F296
:102B1800200A484608F0E9FD01208BF86080CBF8D0
:102B2800000058462146FFF79FFCE0B3DDE9081096
:102B380003228BF86420C968884745F20002C2F274
:102B48000002D2F8049099F8680000283FF4FDAE1E
:102B580009F16900D0E84F1F01291AD1C0E8418F57
:102B68000029F7D140F22F40BFF35F8FC0F2000079
:102B7800CDF81880099041F25460C2F22000089004
:102B880008A8CDE9040099F86400002840F03281D3
:102B98007FE0BFF32F8FD2F80CB09BF80801002814
:102BA80040F04181A2E69BF8600003287FF4D5AE8F
:102BB8009BF85C00032804BF9BF8590003287FF4A6
:102BC800CCAEDBE90950046808F064FDBFF35F8F01
:102BD800296800294AD00A698C422FD12A6045E029
:102BE80048F69420C2F200000068002891D040F610
:102BF8003420C2F2200008F083FE042340F62C267D
:102C0800D0E90012C2F22006C6E648F69420C2F2C5
:102C18000000006800283FF47CAF40F60820C2F2AC
:102C2800200008F06DFED0E9001240F6002680680A
:102C38000423A7930123C2F22006B0E6B2B11346DB
:102C4800944211D0116989B18C4209D00A696AB1DC
:102C5800944208D0116949B18C4201D00A69EDE764
:102C68000B46114600E013461A690A6108F01DFD7B
:102C7800DBF8340042F2904A10ACC2F2200A002875
:102C88008BF858803FF469AEC168DBF83800884794
:102C980063E608F026FD0546002008F01FFD42F215
:102CA80080419AA8C2F2200101F0E0F9284608F014
:102CB8001CFDDDF80CE00AAADDF868C29EE87B007E
:102CC8007BC210AC5FEACC7000F08B800DF1280C51
:102CD80021469CE87D007DC148F69420C2F20000A0
:102CE800006810AC022837D940F23B50C0F200000F
:102CF800CDE95C4049F61520C0F200005B900198D0
:102D08005A9040F63410C2F2200008F0F9FDD0E9DC
:102D180000125AAB80680226CDE9A66340F6241358
:102D2800CDE99B080120A89640F64416C2F220037C
:102D3800CDE99F819A90781E9AA9A5930E23C2F295
:102D480020060325CDF8A482A493A396CDE9A12556
:102D5800CDE99D6308F0F3FD40F23B5016A9C0F29F
:102D680000005AAACDE9184049F61520C0F2000023
:102D7800CDF868821790019816900220CDE95B0182
:102D880041F2B0015D9040F62410C2F22000C2F278
:102D980020015A909AA8CDF8788109F026F900BB4D
:102DA8001AAC03994FF480729A9E20460BF056FD98
:102DB80045F20000C2F20000C56805F58470D0E84D
:102DC8004F1F59B9BFF35F8F0122C0E8412F002977
:102DD80000F0A281D0E84F1F0029F5D0BFF32F8F54
:102DE80010AC42F2904AFA20C2F2200A89F86080B8
:102DF800C9F8000004A94846FFF736FB002800F090
:102E0800BC80DDE90810032289F86420C968884776
:102E180045F20002C2F20002D2F80CB09BF8080199
:102E280000283FF463AD0BF20910D0E84F1F0129C9
:102E38007FF45AADC0E8418F0029F6D1BFF35F8F08
:102E48009BF80401C00740F0B5819AA859464FF491
:102E580082720BF003FD08F044FC0546002008F0E0
:102E68003DFCDAF81C00022836D148F69420C2F25C
:102E780000000068002800F0868140F65420C2F265
:102E8800200008F03DFD90E80610204640F6681442
:102E9800C2F220040423259440F644140DF1800E58
:102EA80027930123C2F220048EE81E001DA90E26D6
:102EB80081E850010446781E1AA9CDE9288826938E
:102EC8002496CDF87080CDE91A3C08F038FDDAF880
:102ED8001C00022800F057815AA8FF2102950BF028
:102EE80045FDDDF86892B9F1000F75D0039E1AA868
:102EF8005AA94FF0000E06EB090C334613F9015B93
:102F0800B5F1FF3FEAB20BDDBEF1FF0F00F04A81D9
:102F180001F80E200EF1010E1E466345EED14BE07E
:102F2800757802F01F03E02A05F03F0517D3B4783F
:102F3800F02A04F03F0444EA851517D3F27803F029
:102F4800070302F03F0242EA851242EA8342B2F5E1
:102F5800881F31D0331DBEF1FF0FD9D122E145EAD8
:102F68008312B31CBEF1FF0FD2D11BE145EA033235
:102F7800F31CBEF1FF0FCBD114E199F860000328D0
:102F88007FF487AE99F85C00032804BF99F85900CC
:102F980003287FF47EAED9E90960056808F07AFB5A
:102FA800BFF35F8F3168002900F0DF800A698D4226
:102FB80040F0C3803260D8E0FF220BF04FFC42F2B1
:102FC800904A10ACC2F2200AB9F1100F08D3039846
:102FD800494609F0A0FF07E01AA8FF210BF0C6FC3C
:102FE800039849460AF005FA1AA90246504602F023
:102FF800AFFE029DC2B2062A35D148F69420C2F22D
:103008000000006803286DD342F66B50C0F2000040
:1030180011909AA8109040F68C20C2F2200008F077
:103028006FFC40F68426D0E9001280680123C2F2C2
:10303800200640F6441C25962646CDE9263403246E
:103048004FF00E0EC2F2200C22943446CDF8A48024
:103058002893CDF890E0CDF88CC02192CDE91F815E
:10306800CDE91DCE36E08DF8280048F694208DF87D
:103078002910C2F200000068A0B340F27140C0F20B
:10308800000011900AA8109040F6BC20C2F220005F
:1030980008F036FC40F6B426D0E900120123C2F24B
:1030A800200680684FF00E0C25962646CDE926347A
:1030B80040F64414C2F220040DF1840ECDF8A48029
:1030C8002893CDF890C08EE81C00CDE91D4C3446FD
:1030D800CDE91F811B90781E1AA9CDF870801A932C
:1030E80008F02DFC284608F000FB01208BF80401AD
:1030F80041F25460BFF35F8F8BF80881C2F2200061
:10310800C16840F21540C0F20000884745F200024D
:10311800C2F20002FFF7EABB281D21464FF4807275
:10312800BFF35F8F2E600BF099FB85F804810120B7
:10313800BFF35F8F85F8090152E6B2B11346954295
:1031480011D0116989B18D4209D00A696AB19542D5
:1031580008D0116949B18D4201D00A69EDE70B46E3
:10316800114600E013461A690A6108F09EFAD9F878
:10317800340089F8588000283FF48BADC168D9F82D
:103188003800884785E540F66420C2F220000AF03E
:103198005DFC40F6B8130020C2F220032946FF2246
:1031A8000AF0C7FB40F6CC22FF20C2F22002FF2122
:1031B8000AF0B0FE40F64420C2F220000AF096FE63
:1031C800FEDEF0B503AF2DE9000FADF2347D08AC9B
:1031D800204605F04DFB0DF2745521464FF4E07280
:1031E80028460BF03BFB78A8294601F0E3FBDDE914
:1031F80082A07C9E07908D9806904EF21000CEF229
:103208000000DDF8FC81DDF8B8B2849C016821F08B
:1032180001010160016841F00401016042F2BF71DF
:10322800C0F209014160016841F0020101600168D2
:1032380041F00101016048F688210120C2F2000135
:10324800BFF35F8F08710021BFF35F8FCDF848157A
:103258000421CDF844150321CDF840154FF47A61C7
:10326800CDF8341548F23461C2F2000101F212427D
:10327800BFF35F8FD2E84F1FC2E8430F002BF9D18D
:10328800BFF35F8F49BB48F234654FF48061C2F2E7
:10329800000528460BF06AFB08F0FCF90DF5A8615B
:1032A8008146284604F05EFBA0B9079848F23462CC
:1032B8000DF23453C2F2000201217A94CDE978A0CC
:1032C80078A802F081F845F619504FF0000AC0F2CC
:1032D80000000790484608F0E8F9BAF1000F40F0FE
:1032E80051810DF5A56543F20062C0F26E12594690
:1032F800284600F0F0FF44F240292846C0F20F09A2
:10330800494600F00EFEDDF82855D5F800A02868DB
:1033180040F080402860286840F080502860286885
:10332800C00109D42868C0015CBF28685FEAC010E2
:1033380002D42868C001F2D500202C688DF8E0017D
:103348000DF5A56078A900F04BFCE86A296B2963A4
:103358000F21E862286861F306002860A00007D5FD
:10336800012078A98DF8E0010DF5A56000F038FC82
:103378005FEACA1010D4286820F0805028602868B6
:10338800C00109D52868C00144BF28685FEAC01099
:1033980002D52868C001F2D40DF5A56078A90025EA
:1033A8008DF8E05100F01CFC0DF2345B06994A469A
:1033B800584601F012FD3068072105220DF5F07915
:1033C80020F4B8600B2340303060706861F30B0064
:1033D800706048F26410C4F21F00016862F30301D0
:1033E8000160D8F8041041F48061C8F804104168FD
:1033F80062F303014160D8F804000A21424640F410
:103408000060C8F80400306820F001003060B0683F
:1034180040F02000B060F06820F02000F0603068D4
:1034280020F400703060306840F002003060B0680E
:1034380040F00100B060F06820F00100F060B06872
:1034480040F00200B060F06820F00200F060B06860
:1034580040F00400B060F06820F00400F060CDE9AE
:10346800008140F2933002A961C14846594602F0F2
:103478004FFE7F98022800F09A80CE460DF5A86C82
:10348800BEE87B0062467BC29EE87B007BC245F2B9
:103498000001C2F200018A6802F16803D3E84F0F05
:1034A80048B90126BFF35F8FC3E8406F50B1D3E836
:1034B8004F0F0028F8D040F62830BFF32F8FC2F204
:1034C80020001EE00020BFF35F8F82F86400012314
:1034D800BFF35F8F82F86930496801F16802D2E86A
:1034E8004F0F40B9BFF35F8FC2E8403FB0B1D2E899
:1034F8004F0F0028F8D040F61830BFF32F8FC2F2D4
:10350800200040F6DC23009040F6EC20C2F22003B5
:10351800C2F2200078AA2B210AF0A2FA0020BFF3F9
:103528005F8F81F864000120BFF35F8F81F8690025
:10353800BCE87E0048467EC09CE87E007EC00DF553
:10354800A56284AB07CA07C342F29040C2F22000CA
:10355800B9E87E007EC099E87E007EC084AB42F266
:10356800C040C2F22000079E0ECB066042F28040A7
:10357800C2F220000EC008F0A3F80DF2347DBDE8B9
:10358800000FF0BD079840F658337A94C2F2200332
:10359800CDE978A040F66830C2F22000009040F6ED
:1035A800EC20C2F2200078AA2B210AF059FABDF8C3
:1035B800E00140F63833ADF8400540F64830C2F235
:1035C80020000DF5A862009040F6EC20C2F2200021
:1035D800C2F220032B210AF043FA80B56F46ADF5FD
:1035E8001E7D08F06BF848F690200121C2F2000019
:1035F800802201704EF22740CEF200006021017057
:103608004EF20411CEF2000148F69C240A60F02222
:1036180080F84A204FF40030886045F2000100200D
:10362800C2F2000101AAADF878000A601FAAADF83D
:103638008401C2F20004CA6062AAADF8F0018A608F
:10364800ADF85C027DA8486044F20000C2F20000B8
:10365800A04203D908F03CF8A04203D9FFF7B1FD16
:10366800FFF72AF901210020999140F63041C2F272
:1036780020019C909B900420989140F644219A90B8
:1036880098A8C2F220010AF076FCF0B503AF2DE944
:10369800000F89B0016861B1012927D040F6384090
:1036A80040F66042C2F22000C2F2200225210AF050
:1036B8004FFC90F83410054641B103291DD195F807
:1036C8003010C1B103291ED1E96A2AE0D5E90136D3
:1036D8000021D5E90302C5E9053605F11C0307C336
:1036E800914216D30120286085F83400032009B0E0
:1036F800BDE8000FF0BDA96A12E040F67040C2F2C2
:1037080020000AF0F3FB40F68040C2F220000AF0E5
:10371800EDFB481C28626969002085F83000A96221
:10372800E96249684A69D20400F103814A68CA6DAE
:1037380012F4F81F00F0088105F114044B6F0126FC
:1037480016CC85F830600E68182108911021079171
:103758000821069100210591A11A0429894628BF4C
:103768004FF004090EB9022934D2944200F0CC80FB
:1037780005A96FF0030000EB890601EB890CF04303
:1037880010F00C0F00F08E8001F1040EA2421FBF52
:10379800059800F01F0023FA00F002F8010B18BF8B
:1037A800AA6116F00C0F7CD0A2421FBF069800F049
:1037B8001F0023FA00F002F8010B01F1080E06F0D1
:1037C8000C0018BFAA61042840F0A48071460C2E92
:1037D8006AD299E005A94FEA590601EB890C701ED7
:1037E8004FF00008032841D3CDE90069ACF1040685
:1037F8000495A1F11005CDE90243012455F8109F65
:103808004FF6FE70631E05F1040EC3F6FF7083EADF
:103818000001D6F800804FF6FD7046F81099C3F6FF
:10382800FF709EE8004A5CF821A04CF8219083EADA
:1038380000015CF821004CF821B04FF6FC71C3F68A
:10384800FF71C5E9008A594014F103085CF821307A
:103858004CF821E0C5E9020304F104000446CDD187
:10386800DDE9033505A9DDE90194009E6FEA08004A
:1038780051F828A05CF820E0012E41F828E04CF827
:1038880020A03FF475AF6FF0010001EB8801A0EBB9
:1038980008004E685CF820E04CF82060C1F804E0AD
:1038A80066E771460C2E2FD3A2421FBF086800F0AE
:1038B8001F0023FA00F002F8010B18BFAA61A24208
:1038C8001FBF486800F01F0023FA00F002F8010B40
:1038D80018BFAA61A2421FBF886800F01F0023FA20
:1038E80000F002F8010B18BFAA61A2421FBFC86806
:1038F80000F01F0023FA00F002F8010B01F110019B
:1039080018BFAA616145CFD1D5E908129142FFF4E9
:1039180000AFE7E60C31A2421FBF079800F01F0076
:1039280023FA00F002F8010B18BFAA610C2EBBD2D3
:10393800EAE70120022185F8340085F83000296083
:1039480009B0BDE8000FF0BD032085F8340085F804
:103958003000042009B0BDE8000FF0BDD0B502AFBB
:10396800016819B1012923D10320D0BD90F8341082
:1039780041B1032927D190F83010B9B1032928D1D2
:10398800C16A34E000F1040C0269002100F1140E50
:103998009CE81810C0E908128EE8181091421ED34E
:1039A8000121016080F834100320D0BD816A1DE038
:1039B80040F6384040F66042C2F22000C2F22002CF
:1039C80025210AF0C5FA40F69040C2F220000AF01C
:1039D8008DFA40F6A040C2F220000AF087FA0131C1
:1039E80001624169002280F830208162C162496821
:1039F8004A69120560D44A68C96D01F01F01D2B244
:103A0800914262D2D0E905C3012180F83010D0F884
:103A18001CE0DCF80010F1B1002173451CBF13F85D
:103A2800011B8361002273451EBF13F8012B8361BC
:103A380012021143002273451EBF13F8012B836144
:103A480012041143002273451EBF13F8012B836132
:103A58001206114328E0002173451CBF13F8011B0F
:103A68008361002473451A461EBF1A4612F8014B9B
:103A78008261734518BF44EA012100247245134648
:103A88001EBF134613F8014B8361724518BF44EA01
:103A98000121002273451EBF1C4614F8012B8461C6
:103AA800734518BF42EA0121DCF804205166D0E9C9
:103AB8000812914293D373E7012180F8341080F8FB
:103AC8003010022101600020D0BD032180F834109D
:103AD80080F830100420D0BDF0B503AF2DE9000FF9
:103AE80081B080460C6807F0A9FDD8F800603168FD
:103AF800451AB5F1FF3F04DDE80F01B0BDE8000F3E
:103B0800F0BDD8F80400D0F800B0DBF800000028B9
:103B1800F2D1D4E90010096888470446DBF80000B0
:103B28008946366800281EBFC168DBF8040088474C
:103B38000020D8F808A0CBF810008BF80C00CBE9CF
:103B48000049CBF8086007F0A5FDBFF35F8FDAF8EE
:103B5800001009B3DBF808208B68D31A1AD40B6954
:103B68008BB39E68961B26D4196931B38E68961B51
:103B780025D40B693BB39E68961B1CD41969E1B127
:103B88008E68961B1BD40B69EBB19E68961B1E466C
:103B9800EAD516E0CBF81010CAF800B007F085FD9A
:103BA800D8F80C00C0F800B007F03EFDE80F01B0EF
:103BB800BDE8000FF0BD1E4603E0194603E00E46BF
:103BC8001946CBF81060C1F810B007F06EFDD8F8B0
:103BD8000C00C0F800B0E80F01B0BDE8000FF0BD60
:103BE800F0B503AF2DE9000F81B0D0F800C0DCF8C4
:103BF80000000090DCF8000040F08040CCF80000A5
:103C0800DCF8000040F08050CCF80000DCF8000040
:103C1800C0010CD4DCF80000C0015CBFDCF8000077
:103C28005FEAC01003D4DCF80000C001EED5DCF870
:103C380000004FF0000820F00050CCF80000CCF84D
:103C48002880CCF82480DCF8000010F07F0278D0BF
:103C580000F0030E00244FF0000A042A41D300F0BC
:103C68007C0940F68C0B40F6880340F684054FF437
:103C7800086000220CEB02060AF1040A4032D14522
:103C8800C6F88040C6F88440C6F88840C6F88C401C
:103C98004CF8004000F11000C6F89040C6F8944077
:103CA800C6F89840C6F89C404CF8054005F1100548
:103CB800C6F8A040C6F8A440C6F8A840C6F8AC406C
:103CC8004CF8034003F11003C6F8B040C6F8B440FE
:103CD800C6F8B840C6F8BC404CF80B400BF1100BC6
:103CE800C8D1BEF1000F2CD00CF180024FEA0A14A3
:103CF80000230CF50860135102EB0A14BEF1010F02
:103D08006360A360E36040F82A301AD00AF1010426
:103D1800BEF1020F4FEA0415535102EB04156B6014
:103D2800AB60EB6040F824300BD00AF102030025A9
:103D38001E01955102EB031255609560D56040F85D
:103D48002350CCF81080CCF84880DCF82C00DCF844
:103D58003020CCF83020CCF82C00DCF800000A78B1
:103D680000F07F08F2B1DCF8000040F00050CCF819
:103D78000000DCF8000080000CD4DCF800008000B3
:103D88005CBFDCF800005FEA800003D4DCF80000C8
:103D98008000EED5DCF8000080005FD400224245A8
:103DA8006DD3A0E0B8F1000F00F09D800CF508621B
:103DB8000CF180034FEA980E4FEA580B4FF00009B8
:103DC8004FF080414FF00064002610E04FF08C6007
:103DD800764538BF4FF088601860DCF8340001EA97
:103DE80080301060013610330432B0457BD05E4518
:103DF800ECD31C60C3F80490C3F80890C3F80C9087
:103E0800DCF8000080000FD5DCF800001E25DCF887
:103E180034A000F07F0005EADA55451B083D451B34
:103E2800A8BFE8B28642DDD3202E07D2DCF82800EE
:103E38000125B5402843CCF82800D3E7DCF824A0B6
:103E480006F01F0520460C46012101FA05F521461A
:103E580004464AEA0500CCF82400C3E7DCF8000071
:103E68001E23DCF8342003EAD25300F07F02D01A74
:103E780008388242A4BF101AC2B2424533D20CEBB2
:103E880002104FF00063803001264FF01E0E0AE04A
:103E9800DCF8284006FA02F52C43CCF82840013219
:103EA800103090451FD00360DCF80040A4000ED508
:103EB800DCF80040DCF8345004F07F040EEAD555F5
:103EC800651B083D651BA8BFECB2A242E7D3202AB8
:103ED800DED302F01F05DCF8244006FA05F52C4372
:103EE800CCF82440DBE70098C00116D4DCF80000C9
:103EF80020F08050CCF80000DCF80000C0010CD5A0
:103F0800DCF80000C00144BFDCF800005FEAC01024
:103F180003D5DCF80000C001EED401B0BDE8000F05
:103F2800F0BDF0B503AF2DE9000F81B0D0F80480E3
:103F38000446894608460022414604F0AAFE054682
:103F4800484641462A46002304F091FE26688246E8
:103F580030680090306840F080403060306840F051
:103F6800805030603068C00109D43068C0015CBF3F
:103F780030685FEAC01002D43068C001F2D54FF053
:103F8800000B062D24D3012502E00135052C1FD98D
:103F9800484641462A4604F07CFE04461A28F4D2D4
:103FA8004846414622462B4604F061FE82450146BA
:103FB800A4F10C0238BF5146072A5A4638BF2A4690
:103FC800504588BF5A468A4638BF2A469346DCE79A
:103FD800B9F1000F44D01BF1010041D2B8FBF9F14F
:103FE800B1FBF0F00538142898BFBAF5967F03D9CD
:103FF8000098C0011FD52FE040F6D04240F624516A
:10400800C2F22002C2F2200152F8202040F6785372
:1040180051F82010C2F2200353F8200042EA0B6244
:104028001143736808434BF6F071194008437060F8
:104038000098C00110D4306820F08050306030689B
:10404800C00109D53068C00144BF30685FEAC010BC
:1040580002D53068C001F2D401B0BDE8000FF0BD50
:1040680040F6C040C2F2200009F02DFFF0B503AFC2
:104078002DE9000F89B00E688A46316802908900E0
:1040880002D44FF000080DE033681E22716B03F074
:104098007F0802EAD151A8EB010108398845A8BF79
:1040A800A8EB010830689AF808B000F07F05AB4526
:1040B80006D902990020086009B0BDE8000FF0BDDC
:1040C8004FF0030906F18000039015E030681E22C6
:1040D800716B00F07F0B02EAD151ABEB010008389D
:1040E8008345A8BFABEB000BA9F101098AF808B01A
:1040F8005FEA09604BD1DCE7F06A316B51EA0002F4
:1041080029D0B1FA81F1002801F1200118BFB0FAD5
:1041180080F1C1F140005FFA8BF1C0B281421AD33D
:104128003068800002D44FF0000B0DE030681E228A
:10413800716B00F07F0B02EAD151ABEB010008383C
:104148008345A8BFABEB000BA9F101098AF808B0B9
:104158005FEA0960ADD03068800008D55FFA88F062
:104168005FFA8BF181423CBF8AF80880C3465FFA48
:104178008BF0A8420BD330688000A7D44FF0000B17
:10418800A9F101098AF808B05FEA096091D00BF03B
:104198003F01726AC1F120004FF0010EB36AB1F11C
:1041A80020042EFA00F00EFA01F158BF0EFA04F0BE
:1041B80058BF002102400B404FF0010C1A4308D0B1
:1041C8000BF1010B8AF808B05FFA8BF0A84293D97B
:1041D8006FE7726AB36A104019400843F0D1039A36
:1041E8005FFA8BF0010152F801E00B2101EA1E6130
:1041F80004310629E4D103990EF47023B3F5802F16
:1042080001EB00114A6801928A688CBFCB680023D1
:1042180007F8273C20284FEA124407F82D4C4FEAAC
:10422800126412BA07F82E4C4FEA13244FEA1242CE
:1042380007F8284C4FEA13444FEA136327F82C2C4D
:104248004FF0806207F8294C07F82A3C0A60B168E9
:1042580005D2316B0CFA00F00843306306E00BF02E
:104268001F01F06A0CFA01F10843F0624FEA1E40A0
:1042780000F00F02092A25D2A7F12600A7F12E0186
:104288005446CDF800E0C24604F013FD17F8260C9A
:1042980010B9D046A24693E7029C57F8250C57F868
:1042A800211CE06001202060009817F81D2C606038
:1042B80001982275216184F818B0A06009B0BDE8A2
:1042C800000FF0BD40F6B0431146C2F220030020B3
:1042D800082209F02EFBB0B502AF84B0044648F2BC
:1042E800C400C4F21F000D46016821F00F010160EF
:1042F800016841F010010160416821F00F0141603F
:10430800416841F0100141600121C0F88C13286810
:1043180020F000402860286840F080402860286825
:1043280040F0805028600020CDE900528DF8080048
:104338002868C00109D42868C0015CBF28685FEA02
:10434800C01002D42868C001F2D5686840F008009F
:104358006860286840F0804028602868C00209D555
:104368002868C00244BF28685FEAC02002D52868D0
:10437800C002F2D4286840F00070286028688001E4
:1043880009D52868800144BF28685FEA801002D5F3
:1043980028688001F2D42868C00109D42868C001BF
:1043A8005CBF28685FEAC01002D42868C001F2D553
:1043B8002868A7F1090140F08C6040F43320286098
:1043C800286820F408402860686B40F4E02068639F
:1043D800002007F8090C6846FFF702FC286820F05F
:1043E800805028602868C00109D52868C00144BFEA
:1043F80028685FEAC01002D52868C001F2D49DE899
:10440800070007C404B0B0BDF0B503AF2DE9000B39
:1044180082B0D1E900690446D1F8088090F83400E8
:10442800012801D1206834E007F055F9054607F066
:1044380045F92068E9072CD1002854D14FF0FF3006
:104448006D4620603068009004F1200001902846F5
:10445800D8F8008099F8006005F0D1FD284605F0ED
:104468008BFD2846314605F0A2FD2846012105F0BE
:10447800F7FD2846414605F0DEFD284605F0CDFD4E
:1044880020680130206007F01BF902B0BDE8000B7E
:10449800F0BD40BB4FF0FF306D46206030680090A3
:1044A80004F1200001902846D8F8008099F80060AF
:1044B80005F0A5FD284605F05FFD2846314605F0C4
:1044C80076FD2846012105F0CBFD2846414605F03A
:1044D800B2FD284605F0A1FD20680130206002B039
:1044E800BDE8000BF0BD40F6DC50C2F2200009F038
:1044F800EEF8F0B503AF2DE9000F85B004468868E3
:10450800002840F0868092F821B04FF0FF3001F18A
:104518000C068860002091468846CDE9000B029081
:10452800304600210122002306F00AFC0D46D8F887
:104538000810C00701F10101C8F8081040F0818097
:10454800002966D14FF0FF308021C8F8080000200C
:10455800CDE9000B012202903046802306F0F0FBE3
:104568008A46D8F80810C00701F10101C8F80810F8
:104578007BD1D8F80000002851D14FF0FF30002936
:10458800C8F8000051D1C8F80800304606F0A7FB6B
:10459800D8F808000130C8F808004CD34FF0FF30B5
:1045A8008021C8F8080004F12400BFF35F8FC8F821
:1045B8004460BFF35F8F0AF0D9F9C4F8DC60AC46F9
:1045C800B9E86E0004F1B4006EC099E86E006EC0E0
:1045D80008F144010020A161E160042184F8E200AF
:1045E800C4E92B00C4F8A400A4F81F0084F81EA096
:1045F800A4F81CB0A4F8130084F812C0A4F810B0F2
:104608002080A4F8E310A4F8E00005B0BDE8000F8E
:10461800F0BD40F6EC60C2F2200009F058F840F610
:104628001C70C2F2200009F052F840F60C70C2F279
:10463800200009F04CF840F6FC60C2F2200009F0B6
:1046480046F840F65C7040F63C73C2F22000A7F1D1
:104658001E02009040F61C60C2F22000C2F2200345
:10466800202107F81E5C09F0FBF940F64C7040F673
:104678003C73C2F22000A7F11D02009040F61C60B6
:10468800C2F22000C2F22003202107F81DAC09F075
:10469800E7F9F0B503AF2DE9000F85B005460868C6
:1046A800002840F0A68091F804B00C4688680BF109
:1046B80001012171002840F096804FF0FF3004F18D
:1046C8000C069146A060FF20082103220290CDE944
:1046D8000021304680210022802306F031FB8A46E3
:1046E800A168C00701F10101A16040F0888020683D
:1046F80000287ED194F80480002908F10100207177
:1047080071D14FF0FF300221A0600020CDE90019DF
:104718000021029030460022002306F011FBA26817
:10472800C00702F10102A2607DD1002A5BD14FF0DF
:10473800FF300391A060002102200291CDE9000919
:10474800304680210022802306F0FAFAC00701BF14
:1047580085F82CB085F82D8040F2FF30A5F80F00C1
:1047680001BF85F80EA00820A88104F1440201BF0A
:10477800AA604FF40073A5F8273085F8261001BF0A
:10478800A5F824902A62A5F81B30039901BFA976E1
:10479800A5F818906A614FF4FA5101BF2960A16821
:1047A8000022AA7101BFA880EA85481CA06002BF48
:1047B80005B0BDE8000FF0BDA06840F63C73A7F156
:1047C8001D0207F81D1C0130A06040F67C70C2F283
:1047D8002003C2F220000F21009040F66C70C2F254
:1047E800200009F03DF940F6EC60C2F2200008F024
:1047F8006EFF40F62C70C2F2200008F068FF40F609
:104808008C7040F63C73C2F22000A7F11F020090A2
:1048180040F66C70C2F22000C2F220030F2107F8A4
:104828001FAC09F01DF940F67C7040F63C73C2F2EB
:104838002000A7F11E02009040F66C7007F81E1CBD
:10484800C2F22000C2F220030F2109F009F980B555
:104858006F46FEDEF0B503AF4DF8048D84B001ACB1
:104868000546204607F08CFD40F69C7803AEC2F260
:104878002008204631464246039507F0FDFC681C97
:10488800039020463146424607F0F6FCA81C0390E8
:1048980020463146424607F0EFFCE81C03902046CC
:1048A8003146424607F0E8FC281D03902046314671
:1048B800424607F0E1FC681D039020463146424617
:1048C80007F0DAFCA81D039020463146424607F05F
:1048D800D3FCE81D039020463146424607F0CCFC45
:1048E800204607F039FD04B05DF8048BF0BD80B5B3
:1048F8006F46007840F63C620B4641F26C01C2F20A
:104908002001C2F2200251F8201052F82020184647
:10491800BDE8804008F0AEB8F0B503AF2DE9000758
:10492800804606F065FE02E061685046884706F05A
:10493800B1FEBFF35F8F0546D8F800609EB3D6F886
:10494800089006F07BFEB168401AB0F1FF3F6FEAAD
:1049580000014FEAD171317317DD3069C8F80000E2
:10496800D6E90010096888470446307B05F0010045
:104978008A4606F09AFE002CD6D106F05FFEA0EB20
:104988000900B0F1FF3FD2DC0AE005F0010006F0B3
:104998008CFE06F053FEA0EB0900B0F1FF3FC6DC29
:1049A800BDE80007F0BD2846BDE80007BDE8F040B7
:1049B80006F07BBEF0B503AF2DE9000FB3B08A4611
:1049C800044601F1340038310AF1540203F0C8FCFE
:1049D800DAF8C80004F048F9DAF82801016841F06B
:1049E80001010160DAF82811086820F00200086067
:1049F8000020C1F80801C1F81801C1F828011C916C
:104A0800C1F83801DAF8C0B0DBF8000020F0010086
:104A1800CBF80000DBF8000040F40040CBF80000C1
:104A2800DBF8000000040CD5DBF80000000444BFEC
:104A3800DBF800005FEA004003D5DBF80000000463
:104A4800EED43F20CBF80800DBF8000020F001008E
:104A5800CBF80000DAF8C450286820F0010028607C
:104A6800286840F4004028602868000409D52868B0
:104A7800000444BF28685FEA004002D528680004A3
:104A8800F2D43F2040F26341A860286820F001007A
:104A98002860DAF80060DAF85C011B90B06C40F02E
:104AA8000100B064706C08437064706C012161F39C
:104AB80083007064706C20F080007064B06C40F00B
:104AC8002000B064706C40F440407064706C40F436
:104AD80044707064B06C40F08000B064B06D000742
:104AE80009D0B06D00071CBFB06D5FEA007002D03E
:104AF800B06D0007F2D1B06C40F2634140F0200085
:104B0800B064706C20F440407064706C20F44470A1
:104B180000F588707064DAF80480D8F8480040F02E
:104B28000100C8F84800D8F844000843C8F8440011
:104B3800D8F84400012161F38300C8F84400D8F88C
:104B4800440020F08000C8F84400D8F8480040F03D
:104B58002000C8F84800D8F8440040F44040C8F89D
:104B68004400D8F8440040F44470C8F84400D8F829
:104B7800480040F08000C8F84800D8F858000007FE
:104B88000CD0D8F8580000071CBFD8F858005FEAC6
:104B9800007003D0D8F858000007EED1D8F84800C4
:104BA80002220F2340F02000C8F84800D8F844003B
:104BB80020F44040C8F84400D8F8440020F4447079
:104BC80000F58870C8F84400DAF87C111DA803F0D5
:104BD800FBFFDAF868112FA84FF4805204F009F9A6
:104BE800DAF89C000990DAF8A4000890DAF8A8002E
:104BF8000790DAF8AC000690DAF884010490DAF845
:104C080090010390DAF89801DAE91712029004F596
:104C18009E7004F026F9DAE90D014FF47042DAF8D3
:104C280030314FF00F0EDAF888C0CDE91910DAF8F4
:104C380054001890DAF880000590DAF8E000179030
:104C4800DAF8E8001690DAF8F0001590DAF8F400CF
:104C58001490DAF8F8001390DAF8FC001290DAF8F9
:104C680000010F90DAF804010D90DAF808010C90B1
:104C7800DAF80C011190DAF810010E90DAF8140144
:104C88001090DAF818010B90DAF81C010A90DAF89B
:104C980084000190A3F88C21A3F88EE1DAF834118E
:104CA800A1F88C21A1F88EE1DAF83801A0F88C215E
:104CB800A0F88EE1DAF83C91A9F88C21A9F88EE1E8
:104CC800DDF86CE0C4E904B500F1C0050EF134026A
:104CD8000EF1500EC4E9376800F59076C4E9CFE2CA
:104CE80001F1C00E029A2263039AE262049AA26258
:104CF800069A6262079A22621C9AC4E92800C4F8DC
:104D0800D0C009F1600CC4E90022C4E90222099A62
:104D1800A261089AE261019AC4F8CC20059AC4F805
:104D2800C82009F59072C4F8C42009F1C002C4F87B
:104D3800C02000F1600204F1A800C4E92E9C80E8BC
:104D4800640203F1C00003F16002C4E9202004F109
:104D58009000179A01F16006226401F5907C169A7A
:104D680003F590756264159A80E842400D98A26434
:104D7800149A20660C98E264139A60660A98226571
:104D8800129AA0660F986265109AE0660E98A2655E
:104D9800119A20670B98E265189AE263199AC4E998
:104DA8002251C4E91D03DAE90A01C4E9350104F115
:104DB800E400A2631DA91A9A62634822C4F89CC041
:104DC800E36709F04BFD2FAB04F5967C0FCB8CE81D
:104DD8000F0033B0BDE8000FF0BDF0B503AF4DF8DC
:104DE80004BD054648F24010C4F21F000C46416855
:104DF800032363F303014160416841F010014160FE
:104E08000021C0F8E813066863F303060660066825
:104E180046F010060660C0F8E413866863F30306DC
:104E28008660836843F010038360C0F8E0130221B2
:104E3800206961F3010020612069C00709D0206959
:104E4800C0071CBF20695FEAC07002D02069C00794
:104E5800F2D12069012120F002002061206940F48C
:104E68004070206103206062606800F01F0001FA52
:104E780000F0C0F34300A06521612669206920F095
:104E8800010020612069C00709D02069C0071CBF44
:104E980020695FEAC07002D02069C007F2D142F6EB
:104EA80000101146C0F2DE7003F078FF01BA2164E9
:104EB8004FF6FF71884321690022C5E90024A860E4
:104EC80066F3000121615DF804BBF0BD80B56F4653
:104ED80041F28C000021C2F2200080BD80B56F46EF
:104EE80080BD80B56F468A680068930105D4520179
:104EF80007D4BDE8804006F017BFBDE8804006F043
:104F0800DBBFBDE8804007F01EB880B56F468A68F1
:104F18000068930105D4520107D4BDE8804006F02B
:104F2800D1BEBDE8804006F075BFBDE8804006F000
:104F38009ABFB0B502AF88B0006841F2EB0341F206
:104F4800C8040DF11C0E0A4607900521C2F2200381
:104F5800C2F22004083041F2D80C0325CDE90243FF
:104F680041F2E803CDE9041E40F6D101C2F2200C5B
:104F7800CDE900501046C2F22001C2F220030422FB
:104F8800CDF818C007F0ECFB08B0B0BD80B56F468F
:104F98000068BDE88040FFF75DBC80B56F460A46F3
:104FA800D0E90001BDE8804006F078BE80B56F46C4
:104FB8008A68930105D4520107D4BDE8804006F001
:104FC80081BEBDE8804006F025BFBDE8804006F000
:104FD8004ABFF0B503AF4DF8048D86B091E8705123
:104FE80041F2B0016A461346C2F2200183E87051CB
:104FF80006F0FBFF06B05DF8048BF0BD80B56F4688
:1050080080BD80B56F46084641F29C01C2F220017E
:105018001222BDE8804007F02DBD80B56F460A46D4
:1050280050F8041BBDE8804006F0A9BCF0B503AFFA
:105038004DF804BD82B0802908D20268FE2A13D92F
:105048000124204602B05DF804BBF0BD01AB002589
:105058008A09B5EBD12F019510D142F0C0028DF825
:1050680004205D1C02222AE0531C03601044002423
:105078000171204602B05DF804BBF0BD4FF6FE7C1E
:105088000C0BC0F2FF3CB5EB114F6CF39F1208D12B
:105098008DF8052044F0E0028DF804209D1C0322C1
:1050A8000DE0DD1C6FF00F038DF80620042243EAA3
:1050B80091436CF39F148DF805408DF8043002235A
:1050C800002463F39F11036829709D18FF2D88BF82
:1050D8000124B6D8C11806460B1D01A9184609F0C7
:1050E80043FA3560204602B05DF804BBF0BDB0B5A8
:1050F80002AF03689C18FF2C07D832B10344054659
:105108000433184609F030FA2C600020FF2C88BFC1
:105118000120B0BDF0B503AF4DF804BD90F83010D4
:1051280071B1032916D100F1180C90F82C40D0E980
:1051380004E19CE80C105CB1032C11D1846A17E0DF
:10514800D0E900E10023D0E9022C63450ED369E0E1
:10515800446A0DE041F2F000C2F2200008F0C6FEF9
:1051680041F20010C2F2200008F0C0FE013374467C
:10517800606845692D0500F1DD804568C06D00F067
:105188001F00EDB2A84251D2DEF80000F8B10020AD
:10519800914218BF11F8010B002491421CBF11F86D
:1051A800014B24022043002491421CBF11F8014BFB
:1051B80024042043002491421CBF11F8014B24060B
:1051C8002043DEF8044060666345CFD32AE0002020
:1051D800914218BF11F8010B002591420C461CBFE3
:1051E8000C4614F8015B914218BF45EA00200021E3
:1051F800944225461CBF254615F8011B944218BF4A
:1052080041EA00200024954229461CBF294611F88E
:10521800014B954218BF44EA0020DEF8044060665E
:105228006345A3D303205DF804BBF0BD65687DE04A
:105238006868ED6D05F01F05C0B285421ED365682C
:105248006869000576D46868EE6D06F01F06C0B27E
:10525800864213D3686900056CD46868EE6D06F061
:105268001F06C0B2864209D36869000562D468681F
:10527800EE6D06F01F06C0B2864257D2DEF8000077
:10528800D0B1914214BF11F8010B002091421ABF0E
:1052980011F8014B24020024204391421ABF11F84F
:1052A800015B2D040025284391421ABF11F8016BB8
:1052B80036060026304328E0914214BF11F8010B4E
:1052C8000020914203D00C4614F8015B01E0002550
:1052D8000C46914218BF45EA0020944203D0254667
:1052E80015F8011B01E000212546944218BF41EA48
:1052F8000020954203D0294611F8014B01E0002413
:105308002946954218BF44EA0020DEF80440634568
:105318006066BFF487AFDEF80450013374466869ED
:1053280000054FF000007FF583AF04E068690005D1
:105338007FF57EAF00205DF804BBF0BDF0B503AF8C
:105348004DF8048DA2B041F28C02014600200DF107
:105358001808C2F220020190049068460092702258
:10536800CDE90200404609F079FA08F1380602ACA6
:1053780040462146FEF7F2FAC5B2032D1BD330464C
:105388002146FEF782F9C0B2032811D3042D18BFB5
:105398000428EDD00698012801BF1498022106912F
:1053A800012807D040F6CC50C2F2200008F04EFB8E
:1053B800054600E00325DDE90010C968884728464E
:1053C80022B05DF8048BF0BDF0B503AF2DE9000FF6
:1053D800E1B0884648F64C21C2F20001D0F800C07E
:1053E800D0F808E046F200000A60C2F2000041F27C
:1053F800381146188DF80780BFF35F8F56E8001FF5
:1054080041F0004546E80054002CF7D10029BFF3CD
:105418005F8F00F1ED8048F200060125C2F2000618
:1054280006F5A062BFF35F8FD2E84F4FC2E8415F35
:105438000029F9D1002CBFF35F8F40F0CE8041F2F4
:105448003811CDE95E620144559000F5865200F5A9
:1054580080500DF5AA7B5B9106214FF00009CDE93C
:10546800561058465A919A46CDE958120121CDE96D
:105478005CCEADF8809103F0AAFEBBE87C104146F3
:105488000DF1080808F10400A0E87C109BE87C10E6
:1054980080E87C1001208DF83C004046CDF808904B
:1054A80004F0EDFF0DF1070056904AA855A9559054
:1054B8004046CDF82891CDF85CA1FEF7A5FF48F24B
:1054C800045A4FF48060C2F2000A4146AAF8040068
:1054D8000AF10C00CAF80890CAF800905CC95CC0D0
:1054E8007CC97CC091E87C0051467CC040464FF4A2
:1054F8000072CAF84490FFF7CCF8B8E87E0048F686
:105508005020C2F200007EC098E87E007EC03220A3
:1055180010ACCDF84E010220C4F200004BAACDF821
:105528004A011020ADF8480145F62400C2F2DD70AA
:105538005146519009204E9041F21010C2F22000BD
:10554800CDF83C914D902046CDF82C91FEF7D1FF37
:10555800479D8121284604F017FE2846012104F0C2
:1055680013FE2846822104F00FFE2846022104F08B
:105578000BFE2846832104F007FE2846032104F089
:1055880003FE2846842104F0FFFD2846042104F088
:10559800FBFD2846852104F0F7FD2846052104F087
:1055A800F3FD2846862104F0EFFD2846062104F085
:1055B800EBFD2846872104F0E7FD2846072104F083
:1055C800E3FD48F24C502146C2F20000E82209F0FF
:1055D80045F961B0BDE8000FF0BD40F65C6040F6EB
:1055E800DC62C2F22000C2F22002202108F012FA86
:1055F80040F6EC5040F60C62C2F22000C2F22002E3
:105608001F2108F007FA002A04BF03207047F0B5ED
:1056180003AF2DE9000F91B0D3000026B6EB134F6E
:1056280004D0022011B0BDE8000FF0BD054604A863
:1056380089461946904603F097FB0498022805D13D
:105648009DF8140011B0BDE8000FF0BD9DF81E00D4
:10565800697A02900391D5E900E49DF820209DF82D
:105668001F309DF81CB0BDF81A60DDF814C095F81D
:1056780008A06169090500F18080CDE9003228465B
:105688006368E26D02F01F02DBB29A424CD26FF3FC
:105698001F36029A46EA0C615FEA887641EA8B5126
:1056A80041EA8241009A41EA4251019A41EA025193
:1056B800039A41EACE5141EACA7141EA82714FEA3E
:1056C800980241F4002121664FF000018DF8401046
:1056D8004FF0010118BF01EB9802CDE9040904A8B5
:1056E80009EB080107920691FFF714FDC0B20328E1
:1056F80048D169684A69D00409D5012011B0BDE8CC
:10570800000FF0BD4A69D0044FF001008AD410059B
:1057180033D4D001F6D44868C86DC006F2D103204E
:1057280011B0BDE8000FF0BD6269120525D46268AA
:10573800E16D01F01F01D2B29142A8D36169090558
:105748001BD46168E26D02F01F02C9B28A429ED37F
:105758006169090511D46168E26D02F01F02C9B2DE
:105768008A4294D36169090507D46168E26D02F041
:105778001F02C9B28A42D7D289E7002011B0BDE81A
:10578800000FF0BD6C68039005F10A00A169029151
:10579800D4F81C90D4F820A0D4F824B0216B01913F
:1057A8002146D4F8348003F014FBA26D0226216947
:1057B800236966F3010323612369DB0709D02369A1
:1057C800DB071CBF23695FEAC37302D02369DB07C9
:1057D800F2D1236900BA23F002032361236943F459
:1057E80040732361029BA361C4F81C90C4F820A0F5
:1057F800C4F824B0019B2363C4F834802064A265F4
:10580800206961F30000206168684FF4C05141616C
:10581800039811B0BDE8000FF0BDF0B503AF2DE956
:10582800000FA5B0002B00F09680DC000026B6EB38
:10583800144F01D002250BE1824609A8884621466B
:105848001646994603F090FA0998022803D19DF864
:1058580028505046FCE09DF8310007909DF8300034
:1058680004900A98039098F80900089098F808009E
:105878000690D8E9000505909DF834209DF833304E
:105888009DF83240BDF82EC068690005504600F109
:105898009380CDE9004341460292B6466B68EC6DB1
:1058A80004F01F04DBB29C424B465AD203986FF3B4
:1058B8001F3C049A9C074CEA006040EA8250079A11
:1058C80040EAC240009A40EA8240019A40EA4250C7
:1058D800029A40EA0250059A40EAC250069A40EA03
:1058E800C270089A40EA827028664FF000004FF0B4
:1058F80001024FEA93058DF8900018BF02EB93055B
:105908000EEB030217AB1A92CDE90C2509AA83E81E
:1059180003408DF8580082E8034009A81B95FFF75B
:105928000DFDC5B2032D49D1D8F804104C69E00427
:10593800504600F18C804B463246012503E04C6905
:10594800E60400F18580260536D4E601F7D44E68D2
:10595800CE6DF606F3D1C0E9002325B0BDE8000FEF
:10596800F0BD6C69240527D46C68D5F85CB00BF0E1
:105978001F02E4B2A24299D36A6912051CD46A686C
:10598800EC6D04F01F04D2B294428FD36A691205F9
:1059980012D46A68EC6D04F01F04D2B29442FFF48A
:1059A80085AF6A69120507D46A68EC6D04F01F04B4
:1059B800D2B29442D5D279E7002549E0D8F804401C
:1059C80008F10A00A1690891E1690791D4F820B0AB
:1059D800616A0691216B05912146D4F8349003F051
:1059E800F8F9A26D02262169236966F30103236190
:1059F8002369DB0709D02369DB071CBF23695FEA3A
:105A0800C37302D02369DB07F2D1236900BA23F0FC
:105A180002032361236943F440732361089BA36154
:105A2800079BE361C4F820B0069B6362059B236370
:105A3800C4F834902064A265206961F300002061F5
:105A4800D8F804004FF4C0514161504600E00125E8
:105A580000210571016025B0BDE8000FF0BD0068A8
:105A68000A460178022907D141F21D111046C2F2F7
:105A78002001092206F0FEBF80B56F4682B0019072
:105A880041F2281040F6E901C2F2200001AB009073
:105A98001046C2F22001042206F0D9FD02B080BDF2
:105AA80080B56F4600680A4641F2191141F21B138E
:105AB800C2F22001C2F2200300780028104618BF65
:105AC80019460222BDE8804006F0D4BFF0B503AF06
:105AD8002DE9000FC3B00D4682466846FF2108F045
:105AE80045FF284600F058FEC2B2062A40F0BA80A8
:105AF800D5E90201012401F01F0105F11C0BA7F1F2
:105B08002602022304FA01F1C0F88810132027F8AE
:105B1800260C41A85946FFF780FE4198002800F05E
:105B28009E80D5E9022303F01F03429904FA03F388
:105B38000129C2F8843040F2A08044780126D5E9D2
:105B48000201A7F1260201F01F01022306FA01F162
:105B5800C0F88810102027F8260C41A85946FFF7EE
:105B68005CFE419800287AD0D5E9022303F01F0390
:105B7800429906FA03F30129C2F884307DD9D5E9A0
:105B8800021202F01F02407806FA02F2C1F88820D9
:105B980041A98DF805018D208DF80401584602228F
:105BA800FFF731FDC1B203295BD1D5E9020101F04C
:105BB8001F0106FA01F1C0F884103CB3A7F12609C9
:105BC8006E464FF00108D5E902014A4601F01F016F
:105BD800022308FA01F1C0F88810002027F8260CE3
:105BE80041A85946FFF719FE4198C0B3D5E90223E9
:105BF80003F01F03429908FA03F30129C2F884301D
:105C08003BD94078013C06F8010BDCD1D5E902010B
:105C1800012401F01F01022204FA01F1C0F88810E2
:105C28008D2041A9ADF804015846FFF7ECFCC1B23C
:105C3800032916D1D5E90201FF2201F01F0104FA58
:105C480001F1C0F884100AF10100694608F08CFCE3
:105C580000208AF8000043B0BDE8000FF0BD9DF8B1
:105C6800081104208AF8010001208AF802108AF835
:105C7800000043B0BDE8000FF0BD41F2381201202A
:105C8800C2F2200208F046F9B0B502AF84B004466B
:105C9800D0E9020101F01F010125A7F11202022338
:105CA80005FA01F1C0F888100C2027F8120C04F14D
:105CB8001C0102A8FFF7B1FD029880B1D4E90223C4
:105CC80003F01F03039905FA03F30229C2F884308D
:105CD8000CD34078062141EA002004B0B0BD9DF8FD
:105CE8000C00042141EA002004B0B0BD41F2381292
:105CF8000120C2F2200208F00DF9B0B502AF82B05F
:105D08000446D0E9020303F01F03012505FA03F353
:105D1800C0F8883041F0800007F80A0C04F11C0034
:105D2800A7F10A0107F8092C0222FFF76CFCC1B29F
:105D380003290AD1D4E9020202F01F0205FA02F28D
:105D4800C0F88420062002B0B0BD042002B0B0BD67
:105D5800F0B503AF2DE9000F83B004468B46D0E9B8
:105D68000201012601F01F0104F11C059046A7F16C
:105D7800260206FA01F10223C0F8881001A8294674
:105D880027F8266CFFF749FD019800283ED0D4E992
:105D9800022303F01F03029906FA03F30129C2F84C
:105DA800843040F2F1804078C043800704D1052058
:105DB80003B0BDE8000FF0BDD4E90201A7F1260247
:105DC80001F01F01022306FA01F1C0F88810122021
:105DD80027F8260C01A82946FFF71FFD0198A8B14E
:105DE800D4E9020202F01F02029906FA02F201291E
:105DF800C0F8842040F2C88094F8290068B1204691
:105E080000F0C9F8C2B2062AD2D10CE09DF80810F9
:105E1800042003B0BDE8000FF0BD204600F019F9DA
:105E2800C2B2062AC4D1D4E902014FF0010901F037
:105E38001F01022209FA01F1C0F8881048F2811006
:105E480001A9ADF804002846FFF7DDFBC1B203291C
:105E580040F09580D4E9020101F01F0109FA01F12F
:105E6800C0F8841094F8290084F8289018B12046C6
:105E780000F091F802E0204600F0EBF8C2B2062AE2
:105E880096D1D4E90201022201F01F0109FA01F1B9
:105E9800C0F88810922001A9ADF804002846FFF741
:105EA800B2FBC1B203296AD1D4E90201022201F08E
:105EB8001F0109FA01F1C0F88410D4E9020101F0C8
:105EC8001F0109FA01F1C0F888108D2001A9ADF869
:105ED80004002846FFF797FBC1B203294FD1D4E944
:105EE8000201012201F01F0102FA01F10022C0F8AB
:105EF800841020462221FFF700FFC2B2062A7FF451
:105F080057AFB8F1000F29D00DF104094FF0000A7E
:105F1800BAF1FF0F22D0D4E9020101F01F011BF8EA
:105F28000A2006FA01F1C0F8881080208DF80520B3
:105F380049468DF8040028460222FFF764FBC1B2E7
:105F480003291CD1D4E902010AF1010A01F01F0159
:105F5800D04506FA01F1C0F88410D9D12046222193
:105F68004246FFF7CAFEC2B2062A7FF421AF204696
:105F7800032100F0C9FB03B0BDE8000FF0BD042009
:105F880003B0BDE8000FF0BD41F238120120C2F2A3
:105F9800200207F0BFFFF0B503AF4DF804BD84B091
:105FA8000446D0E9020101F01F01012604F11C0595
:105FB800A7F11E0206FA01F10223C0F888101D207D
:105FC80027F81E0C01A82946FFF727FC019890B373
:105FD800D4E9022303F01F03029906FA03F3012907
:105FE800C2F884302ED9D4E90212407802F01F0298
:105FF80006FA02F200F0FE00C1F88820A7F11201AB
:1060080007F8110C9D2007F8120C28460222FFF70A
:10601800FAFAC1B2032910D1D4E9020101F01F0133
:1060280006FA01F1C0F88410062084F8296004B04B
:106038005DF804BBF0BD9DF80810042004B05DF8BD
:1060480004BBF0BD41F238120120C2F2200207F071
:1060580061FFF0B503AF4DF804BD84B00446D0E944
:10606800020101F01F01012604F11C05A7F11E021F
:1060780006FA01F10223C0F888101D2027F81E0C2B
:1060880001A82946FFF7C9FB019898B3D4E9022370
:1060980003F01F03029906FA03F30129C2F88430BA
:1060A8002FD9D4E90212407802F01F0206FA02F250
:1060B80000F00100C1F88820A7F1120107F8110CBF
:1060C8009D2007F8120C28460222FFF79CFAC1B25D
:1060D800032911D1D4E9020101F01F0106FA01F1E7
:1060E800C0F88410002084F82900062004B05DF868
:1060F80004BBF0BD9DF80810042004B05DF804BB93
:10610800F0BD41F238120120C2F2200207F002FF6E
:10611800F0B503AF2DE9000F8FB08246B869D7E913
:1061280002CE0124D1E900B68D680EF01F01D7F820
:10613800149004FA01F140F2E244CCF888100461AA
:106148000468D7F8108044F001040460CDE90865BC
:106158006E4606F11C054FF48074CDF814E0CDE9C5
:106168000223ADF82840CDE90089CDF810C0CDE96B
:10617800060B8668F60709D18668F60704BF8668A5
:106188005FEAC67602D18668F607F2D0866846F0DE
:1061980001068660066826F001060660CCF88410C1
:1061A80040F2E2410161016841F00101016081684A
:1061B800C90709D18168C90704BF81685FEAC1714D
:1061C80002D18168C907F2D08168012641F0010136
:1061D8008160016821F00101016003F01F00294678
:1061E800022306FA00F0C2F88800422027F8260C9D
:1061F8000DA8A7F12602FFF710FB0D98C0B1DDE945
:10620800022303F01F030E9906FA03F30129C2F8CB
:10621800843040F201814078122817D19DF8290076
:1062280000B36846FFF7B7FEC2B2062A03D11FE0E3
:106238009DF83810042002228AF80110CAF81C20A0
:106248008AF800000FB0BDE8000FF0BD02218AF8FF
:1062580001000120CAF81C108AF800000FB0BDE840
:10626800000FF0BD6846FFF7F4FEC2B2062AE2D17D
:10627800DDE90201022201F01F0106FA01F1C0F86E
:10628800881048F281000DA9ADF834002846FFF7C0
:10629800BAF9C1B20329CDD1DDE90201022201F028
:1062A8001F0106FA01F1C0F88410C0F88810002018
:1062B8008DF828004FEA98008DF8350086200DA942
:1062C8008DF834002846CDF80080CDF80490FFF70B
:1062D8009AF9C1B20329ADD14FEA5830DDE902126B
:1062E800C00602F01F0268F39A3006FA02F2000AAA
:1062F800C1F88420C1F888200DA98DF835008720C1
:106308008DF8340028460222FFF77DF9C1B203292F
:1063180090D1DDE90201022201F01F0106FA01F124
:10632800C0F88410C0F8881088200DA9ADF8340092
:106338002846FFF768F9C1B203297FF47BAFDDE98E
:106348000201022201F01F0106FA01F1C0F88410CF
:10635800C0F888108E200DA9ADF834002846FFF744
:1063680052F9C1B203297FF465AFDDE902010222C7
:1063780001F01F0106FA01F1C0F88410C0F8881076
:106388008F200DA9ADF834002846FFF73CF9C1B2BB
:1063980003297FF44FAFDDE90201012201F01F015B
:1063A80002FA01F1C0F884106846FFF76DFCC0F3EB
:1063B8000721C2B2062A7FF43EAF41F003026846C5
:1063C8000C21FFF79AFCC2B2062A7FF434AF684664
:1063D80026210422FFF791FCC2B2062A7FF42BAFD4
:1063E8006D460121284600F08FF9C2B2062A7FF4D3
:1063F80022AFDDE9020101F01F0106FA01F1C0F840
:1064080084105FCDAAE85F0095E85F008AE85F0026
:106418000FB0BDE8000FF0BD41F238120120C2F202
:10642800200207F077FDF0B503AF2DE9000F85B026
:10643800834691F82900994614460D4630B12846FE
:10644800FFF7A9FDC2B2062A07D098E02846FFF751
:1064580000FEC2B2062A40F09280D5E90201012668
:1064680001F01F0105F11C08022206FA01F1C0F82B
:10647800881048F2815003A9ADF80C004046FFF798
:10648800C2F8C1B2032979D1D5E9020101F01F018F
:1064980006FA01F1C0F88410052085F82800E00705
:1064A80078D0D5E902014FF0010A01F01F01CDF8BB
:1064B8000490A7F1260202230AFA01F11226C0F875
:1064C8008810122027F8260C03A84146FFF7A5F9E3
:1064D8000398002800F0F3800199002421EAE1796B
:1064E8001DE08168A7F12602022341F001018160C5
:1064F800016821F001010160D5E9020101F01F01E5
:106508000AFA01F1C0F8881003A8414627F8266C5A
:10651800FFF783F903980134002800F0D080D5E90B
:10652800022303F01F0304990AFA03F30129C2F8AE
:10653800843040F2E2804078062107F8270CA7F162
:10654800270000F083F9002840F086804C4500F0D1
:10655800C280A8697D210161016841F001010160E3
:106568008168C907BDD18168C90704BF81685FEA2E
:10657800C171B6D18168C907F2D0B2E704208BF89F
:10658800010001208BF802108BF8000005B0BDE86F
:10659800000FF0BDD5E90201012401F01F01A7F1A8
:1065A8002602022304FA01F1C0F88810122027F805
:1065B800260C03A84146FFF730F9039800287ED03F
:1065C800A7F127060DF10C09A7F1260A1BE081683F
:1065D8005246022341F001018160016821F0010166
:1065E8000160D5E9020101F01F0104FA01F1C0F8C8
:1065F8008810122027F8260C48464146FFF70DF967
:10660800039800285BD0D5E9022303F01F030499FF
:1066180004FA03F30129C2F884306ED940780621C0
:1066280007F8270C304600F011F9C0B9A86943F201
:10663800D4010161016841F0010101608168C90765
:10664800C5D18168C90704BF81685FEAC171BED13D
:106658008168C907F2D0BAE7019884423BDA284634
:1066680000F09AF8C2B2062A3CD1D5E90201012409
:1066780001F01F01A7F12602022304FA01F1C0F874
:106688008810132027F8260C03A84146FFF7C5F801
:106698000398A0B1D5E9022303F01F03049904FA73
:1066A80003F30129C2F8843027D9407800218BF8F8
:1066B8000010CBF8040005B0BDE8000FF0BD9DF850
:1066C80010008BF8020040F20140ABF8000005B062
:1066D800BDE8000FF0BD0120ABF8000005B0BDE833
:1066E800000FF0BD8BF8010001208BF800008BF83B
:1066F800021005B0BDE8000FF0BD41F238120120CC
:10670800C2F2200207F006FCF0B503AF4DF804BD55
:1067180082B0054690F829000C4648B12846FFF794
:106728003AFCC2B2062A09D002B05DF804BBF0BD3B
:106738002846FFF78EFCC2B2062AF5D1D5E9020138
:10674800012601F01F01022206FA01F1C0F88810A3
:1067580044F0800007F8110C812007F8120C05F1AD
:106768001C00A7F11201FEF74EFFC1B203290ED19A
:10677800D5E9020101F01F0106FA01F1C0F8841001
:10678800062085F8284002B05DF804BBF0BD04205F
:1067980002B05DF804BBF0BDF0B503AF4DF804BD21
:1067A80084B00446D0E9020101F01F01012604F17A
:1067B8001C05A7F11E0206FA01F10223C0F8881091
:1067C800122027F81E0C01A82946FFF726F8019881
:1067D80070B3D4E9022303F01F03029906FA03F306
:1067E8000129C2F884302AD9D4E9021202F01F0222
:1067F800407806FA02F2C1F88820A7F1120107F8DA
:10680800110C922007F8120C28460222FEF7FBFE14
:10681800C1B203290ED1D4E9020202F01F0206FA1E
:1068280002F2C0F88420062004B05DF804BBF0BD75
:106838009DF80810042004B05DF804BBF0BD41F2D7
:1068480038120120C2F2200207F064FB08293FBF7A
:106858000078C84000F00100704780B56F4641F2EB
:10686800481041F27412C2F22000C2F220022A211A
:1068780007F06EFBF0B503AF4DF804BD82B00446D7
:1068880090F8340001280BD12068002841D14FF03E
:10689800FF30224642F8200B0968CDE9001229E0B2
:1068A8000E6804F018FF054604F008FF2068E907A1
:1068B80018D170BB4FF0FF30214641F8200B6846D5
:1068C800CDE9006103F066FB00281CBF684603F0B1
:1068D80088FB20680130206004F0F2FE02B05DF809
:1068E80004BBF0BDA8B94FF0FF30214641F8200B9A
:1068F800CDE90061684603F04DFB00281CBF6846DF
:1069080003F06FFB20680130206002B05DF804BB23
:10691800F0BD41F28410C2F2200006F0D8FEF0B5B6
:1069280003AF4DF804BD82B0044690F83400012846
:1069380007D12068A0BB4FF0FF30096820600091A4
:1069480021E00E6804F0C7FE054604F0B7FE206893
:10695800E90713D120BB4FF0FF300096206004F107
:1069680020000190684603F04AFB2068013020604F
:1069780004F0A6FE02B05DF804BBF0BD80B94FF08C
:10698800FF300096206004F120000190684603F073
:1069980036FB20680130206002B05DF804BBF0BD12
:1069A80041F28410C2F2200006F091FEF0B503AF68
:1069B8004DF804BD82B0044690F83400012819D17E
:1069C8002068002869D14FF0FF30224642F8200B9A
:1069D80068460968CDE9001203F0B5FA002841D0ED
:1069E8006D46284603F0C8FA284603F0ACFA00289A
:1069F800F7D135E00E6804F06EFE054604F05EFE41
:106A08002068E90717D1002847D14FF0FF30214609
:106A180041F8200B6846CDE9006103F094FA68B3A9
:106A28006D46284603F0A8FA284603F08CFA002899
:106A3800F7D1012527E080BB4FF0FF30214641F810
:106A4800200B6846CDE9006103F07DFA50B16D4630
:106A5800284603F091FA284603F075FA0028F7D182
:106A6800012004E0684603F07BFA80F00100216809
:106A78000131216002B05DF804BBF0BD684603F047
:106A88006FFA80F0010520680130206004F018FEDC
:106A9800284602B05DF804BBF0BD41F28410C2F292
:106AA800200006F014FEF0B503AF4DF804BD82686F
:106AB800012A2ED1C3684269934250D20569D0F8A1
:106AC80018C0EC5C0134EC540CF1020494421CD85C
:106AD8000CF580739646934238BF9E46A34236D340
:106AE800AEEB0403052B10D38B7991F807E00E7AEF
:106AF80089882B552B199970090A5E7083F804E070
:106B0800D9700CF10703934207D902205DF804BB42
:106B1800F0BD07205DF804BBF0BD944528D20721DD
:106B280005F80C100CF1010191423FBF05226A548F
:106B3800836108203CBF5DF804BBF0BD41F2A4139B
:106B48000846C2F2200311461A4607F0E3F941F25B
:106B5800B4132046C2F22003714606F0EAFE41F261
:106B6800C4141846C2F220041146224607F0D2F98E
:106B780041F294136046C2F2200311461A4607F008
:106B8800C9F9D0B502AF84B00188062911D181694D
:106B98000968BFF35F8F79B10023827F009302AB4E
:106BA80004461846012303F0B7FF0820208004B0EC
:106BB800D0BD072004B0D0BD41F2AC2041F2D022B4
:106BC800C2F22000C2F22002222107F0C1F9F0B57A
:106BD80003AF4DF804BD86B0044608880D46411E33
:106BE800032927D3052825D0072832D1D5F8AC00AA
:106BF800D5F8063069898028D5F80220ADF80C1040
:106C0800CDE901236BD8E9680968BFF35F8F0029D4
:106C18005AD0C0F18003AA7C2844009300F12403D1
:106C280004A803F066FE9DF81000C0B39DF811009B
:106C3800D8B92EE0E8680168BFF35F8F002943D018
:106C4800AA7C04A800260123009603F052FE2E8099
:106C58001FE0E8680168BFF35F8FA9B30020AA7C32
:106C6800009004A8012303F044FEE8680921298064
:106C78000068BFF35F8F38B3A97C012203F0C1FC21
:106C8800A8690068BFF35F8FF0B1A97F012203F004
:106C9800B8FC0420607206B05DF804BBF0BD05982E
:106CA800D5E92B120844C5F8AC009042F1D3DDE9D0
:106CB80001010623BDF80C202B8020606160228131
:106CC80006B05DF804BBF0BD41F2AC2041F2D02221
:106CD800C2F22000C2F22002222107F039F941F263
:106CE800D4138021C2F22003802206F022FEF0B5E0
:106CF80003AF2DE9000F85B00446C8680D4601684A
:106D0800BFF35F8F002900F08C8005F124068020F6
:106D1800AA7C009002A8334603F0EBFD9DF808001A
:106D2800012803D19DF8090060B921E0039A812A5E
:106D380080F0828002A8314604F014FC9DF811000E
:106D480004281BD1E868092129800068BFF35F8FF8
:106D5800002866D0A97C012203F053FCA8690068CA
:106D6800BFF35F8F00285CD0A97F012203F049FCA4
:106D78000420607205B0BDE8000FF0BDE868BDF8FA
:106D880010A09DF80F609DF80E90BDF80CB0DDF8CE
:106D980008800068BFF35F8F002842D0A97C0022DA
:106DA80003F02FFCBEB10420A5F80AA06E7285F886
:106DB8000890A5F806B0C5F802802880A4F808A0B5
:106DC800E67184F80690A4F804B0C4F8008005B011
:106DD800BDE8000FF0BDBBF1000F11D0BBF1800F73
:106DE800B0D80020A5F80AA0C5E92B0B68720720C7
:106DF80085F80890A5F806B0C5F802802880B7E79E
:106E08000620A4F808A028800020C5F8B000E0718A
:106E180084F80690A080C4F8008005B0BDE8000F93
:106E2800F0BD41F2AC2041F2D022C2F22000C2F201
:106E38002002222107F08CF841F2E4131146C2F235
:106E480020030020802206F074FDD0B502AF84B084
:106E58000446D0E929C2D0F8AC00D4F8B010BCF18F
:106E6800000FA38B08BF8022091A994238BF0B462E
:106E7800191828D2914226D8A1690968BFF35F8FF3
:106E880039B3A27FBCF1000F009308BF04F1240CB2
:106E98000CEB000302A803F03FFE9DF8080080B940
:106EA8000398D4E92B120144C4F8AC10914208D3DA
:106EB8000021A28BC4F8A4100321904208BF02212C
:106EC800218004B0D0BD41F2F413C2F2200306F0D1
:106ED80030FD41F2AC2041F2D022C2F22000C2F2D1
:106EE8002002222107F034F8B0B502AF84B001883F
:106EF8000139072939D8DFE801F0041C0A38383885
:106F08003832FFF7A2FF0024204604B0B0BDC168A4
:106F18000A68BFF35F8F002A41D0817C054610467E
:106F28000022002403F06DFB05202880204604B0D1
:106F3800B0BD81690968BFF35F8F81B3827F054661
:106F480002A800240123009403F0E6FD9DF8080040
:106F5800002804BF03202880204604B0B0BD0021CB
:106F680001240180204604B0B0BDC1680922028016
:106F78000A68BFF35F8F92B1817C044610460122F4
:106F880003F03FFBA0690068BFF35F8F38B1A17FB2
:106F9800012203F036FB0024204604B0B0BD41F2C4
:106FA800AC2041F2D022C2F22000C2F220022221FB
:106FB80006F0CEFF0288042A1CBF07207047F0B5F0
:106FC80003AF4DF804BD4C68802C03D902205DF84E
:106FD80004BBF0BD096800F12402C68805461046C6
:106FE800224607F0C1FA0020B44238BF2646C5E958
:106FF8002B06012028802846FFF727FF08205DF888
:1070080004BBF0BDF0B503AF2DE9000B8CB004460E
:107018000088042846D100200D46079080218DF86D
:107028002000164603900190099001A80B9009A82A
:10703800069104F12401B4F80680059104F025FABC
:10704800C0B208282AD176B105EBC6060DF124098D
:10705800D5E900010A6949469047C1B208291DD1FE
:107068000835B542F4D109A804F068FA07988028D1
:107078001DD9E068092121800068BFF35F8F30B314
:10708800A17C012203F0BDFAA0690068BFF35F8FFD
:10709800E8B1A17F012203F0B4FA02200CB0BDE8E8
:1070A800000BF0BD07200CB0BDE8000BF0BD0122BD
:1070B80000212280404538BF80462046C4E92B186D
:1070C800FFF7C3FE08200CB0BDE8000BF0BD41F28D
:1070D800AC2041F2D022C2F22000C2F220022221CA
:1070E80006F036FFB0B502AF88B004460088042821
:1070F8002DD1D1E900120020802306908DF81C00C4
:10710800029000906846059304F12403E5880493EF
:1071180004F08DF8C0B2082817D10698802819D92C
:10712800E068092121800068BFF35F8F00B3A17C6C
:10713800012203F066FAA0690068BFF35F8FB8B157
:10714800A17F012203F05DFA022008B0B0BD07203C
:1071580008B0B0BD012200212280A84238BF0546F0
:107168002046C4E92B15FFF770FE082008B0B0BD13
:1071780041F2AC2041F2D022C2F22000C2F2200239
:10718800222106F0E5FEB0B502AF8AB004460088B9
:10719800042833D1002080210790A7F10A028DF836
:1071A800200002230390019040F20940069104F167
:1071B800240127F80A0C01A805910321E58803F0AA
:1071C8004AFFC0B2082817D10798802819D9E06863
:1071D800092121800068BFF35F8F00B3A17C0122E1
:1071E80003F00FFAA0690068BFF35F8FB8B1A17F01
:1071F800012203F006FA02200AB0B0BD07200AB047
:10720800B0BD012200212280A84238BF0546204691
:10721800C4E92B15FFF719FE08200AB0B0BD41F2EA
:10722800AC2041F2D022C2F22000C2F22002222178
:1072380006F08EFEF0B503AF2DE9000788B00446CE
:107248000088042848D1D1E9000680228D680021F1
:10725800059204F12402069104928DF81C10029103
:10726800009101686846B4F8068003F0A0FDC0B23A
:1072780008282DD18DB106EBC505E9464FF0000A67
:10728800D6E90001CA6849469047C1B208291FD10A
:107298000836CDF808A0AE42F2D1684603F06FFE7A
:1072A800069880281DD9E068092121800068BFF36D
:1072B8005F8F30B3A17C012203F0A3F9A0690068B5
:1072C800BFF35F8FE8B1A17F012203F09AF9022092
:1072D80008B0BDE80007F0BD072008B0BDE800070A
:1072E800F0BD012200212280404538BF804620465B
:1072F800C4E92B18FFF7A9FD082008B0BDE800076E
:10730800F0BD41F2AC2041F2D022C2F22000C2F21C
:107318002002222106F01CFEB0B502AF88B0044658
:10732800008804282CD109680020802206908DF856
:107338001C00029000906846059204F12402E5883A
:10734800049203F0D7FEC0B2082817D10698802807
:1073580019D9E068092121800068BFF35F8F00B365
:10736800A17C012203F04DF9A0690068BFF35F8F8B
:10737800B8B1A17F012203F044F9022008B0B0BDE2
:10738800072008B0B0BD012200212280A84238BFE2
:1073980005462046C4E92B15FFF757FD082008B01D
:1073A800B0BD41F2AC2041F2D022C2F22000C2F2BC
:1073B8002002222106F0CCFDD0B502AF0446C068F9
:1073C800092121800068BFF35F8F78B1A17C012279
:1073D80003F017F9A0690068BFF35F8F00281FBF8B
:1073E800A17F0122BDE8D04003F00BB941F2AC20E7
:1073F80041F2D022C2F22000C2F22002222106F07D
:10740800A7FDF0B503AF4DF804BD82B00022802976
:10741800019203D28DF80410012430E04FF6FE7675
:107428000B46C0F2FF368A0966F39F13B1F5006F69
:1074380007D242F0C0018DF805308DF804100224FF
:107448001DE066F39F120D0B0024B4EB114F07D11A
:1074580045F0E0018DF806308DF8052003240CE096
:107468006FF00F0444EA9141042466F39F158DF8E8
:1074780007308DF806208DF805508DF80410066841
:1074880004F008F90546B068B8B94FF0FF3006F1C6
:107498000C02B06001A8214600F0ACFC0446B068BC
:1074A8000130B060284604F000F9E0B2033818BF94
:1074B800012002B05DF804BBF0BD41F22C20C2F2FD
:1074C800200006F004F9F0B503AF4DF8048D86B03E
:1074D80091E8705141F214216A461346C2F2200124
:1074E80083E8705104F081FD06B05DF8048BF0BDAF
:1074F800F0B503AF4DF8048D15460E46046804F048
:10750800C9F88046A068B0B94FF0FF3004F10C020A
:10751800A0603046294600F06DFC0546A0680130A1
:10752800A060404604F0C1F8E8B2033818BF012053
:107538005DF8048BF0BD41F22C20C2F2200006F069
:10754800C6F8F0B503AF2DE9000F91B0804648F6B4
:107558009420D1F82090C2F20000006881451FD81D
:10756800D8F804008A46F8B1D8F8001000EB4000BB
:10757800DAE909B50C1D860002E00C340C3E0FD088
:107588002068A842F9D154F8040C59462A4607F055
:10759800B3F90028F1D16068062818BF814505D9DC
:1075A80011B0BDE8000FF0BDDAE909B50AF12C0009
:1075B800049045F6213041F21421C0F200000BAAD4
:1075C8000A9004A8099045F60F30C0F20000C2F2F4
:1075D8002001089002A8079049F26B60C0F20000F1
:1075E8000395069001A8059000200F9003200E90A7
:1075F80005A80D9004200C9041F24420C2F220000E
:107608008DE8000B0B90684604F0EFFC11B0BDE864
:10761800000FF0BD80B56F4680BDF0B503AF2DE912
:10762800000B48F69422D1F80080C2F200021268DA
:10763800904503D90020BDE8000BF0BD42681AB39D
:107648000068D1E90194061D02EB4200850002E0C2
:107658000C360C3DEED03068A042F9D156F8040C37
:107668004946224607F048F90028F1D17068002100
:107678008045A0F10600B0FA80F098BF01214009CA
:107688000843BDE8000BF0BD0120BDE8000BF0BDCC
:10769800D0B502AF537A012B07D1137A012B02BF61
:1076A80090F82C3054889C4200D0D0BD9379212B7F
:1076B80004BF9288072A28D0088840F002000628CC
:1076C800F3D1C86809220A800068BFF35F8F88B1C8
:1076D8008A7C0C461146012202F093FFA0690068DB
:1076E800BFF35F8F00281FBFA17F0122BDE8D040F4
:1076F80002F087BF41F2AC2041F2D022C2F2200052
