:0200000460009A
:100000004643464200000156000000000101020084
:1000100000000000000000000000000000000000E0
:1000200000000000000000000000000000000000D0
:1000300000000000000000000000000000000000C0
:1000400000000000010403000000000000000000A8
:100050000000200000000000000000000000000080
:100060000000000000000000000000000000000090
:100070000000000000000000000000000000000080
:10008000EB04180A063204260000000000000000FD
:10009000050404240000000000000000000000002F
:1000A0000000000000000000000000000000000050
:1000B0000604000000000000000000000000000036
:1000C0000000000000000000000000000000000030
:1000D00020041808000000000000000000000000DC
:1000E0000000000000000000000000000000000010
:1000F0000000000000000000000000000000000000
:1001000000000000000000000000000000000000EF
:100110000204180804200000000000000000000095
:1001200000000000000000000000000000000000CF
:10013000600400000000000000000000000000005B
:1001400000000000000000000000000000000000AF
:10015000000000000000000000000000000000009F
:10016000000000000000000000000000000000008F
:10017000000000000000000000000000000000007F
:10018000000000000000000000000000000000006F
:10019000000000000000000000000000000000005F
:1001A000000000000000000000000000000000004F
:1001B000000000000000000000000000000000003F
:1001C000000100000010000001000000000000001D
:1001D000000000000000000000000000000000001F
:1001E000000000000000000000000000000000000F
:1001F00000000000000000000000000000000000FF
:10020000D4D4D4D4D4D4D4D4D4D4D4D4D4D4D4D4AE
:10100000D10020400020006000000000000000002F
:1010100020100060001000600000000000000000D0
:101020000000006098FD000000000000EFBEADDE93
:10103000124880F3088812481249016000F036F81F
:10104000114812490022814201D004C0FBE7104838
:101050001049114A814202D008CA08C0FAE70F4875
:101060004FF47001026842EA01020260BFF34F8F41
:10107000BFF36F8F00F014F800DE00000040002086
:1010800008ED00E000400020005000209C8A002075
:10109000B84200204C44002098FD006088ED00E03C
:1010A00041F2FF0CC0F2000C6047D4D4204840F25B
:1010B0009C41884219D040F24C418842CCBF1D4A25
:1010C0001D4A1E4B5360136823F0800313601C48B5
:1010D0001C49C1BF1C480A0C8264C1F30F01416462
:1010E000016C41F00401016402E0184815490160F7
:1010F0001748184A824205D01749814202D008CACF
:1011000008C0FAE71548164A824205D015498142BF
:1011100002D008CA08C0FAE71348144A824205D030
:101120001349814202D008CA08C0FAE7704700009C
:10113000240400000080034000C00B4020C528D9D3
:1011400000C00A40AAAAFAFF00400E4060004F44C7
:1011500000000000B822006044B7000000400020FA
:1011600000200060B842002000002020FCD9006070
:101170009C232020D4D4D4D4D4D4D4D4D4D4D4D480
:10118000D4D4D4D4D4D4D4D4D4D4D4D4D4D4D4D41F
:10119000D4D4D4D4D4D4D4D4D4D4D4D4D4D4D4D40F
:1011A000D4D4D4D4D4D4D4D4D4D4D4D4D4D4D4D4FF
:1011B000D4D4D4D4D4D4D4D4D4D4D4D4D4D4D4D4EF
:102000000040002031100060E159000025B70000B9
:10201000E1590000E1590000E15900000000000012
:10202000000000000000000000000000E159000076
:10203000E159000000000000E159000043050000E4
:10204000E1590000E1590000E1590000E1590000A8
:10205000E1590000E1590000E1590000E159000098
:10206000E1590000E1590000E1590000E159000088
:10207000E1590000E1590000E1590000E159000078
:10208000E159000000000000000000000000000016
:10209000E1590000E1590000E1590000E159000058
:1020A000E1590000E1590000E1590000E159000048
:1020B000E1590000E1590000E1590000E159000038
:1020C000E1590000E1590000E1590000E159000028
:1020D000E1590000E1590000E1590000FF01000052
:1020E000E1590000E1590000E1590000E159000008
:1020F000E1590000E1590000E1590000E1590000F8
:10210000E1590000E1590000E1590000E1590000E7
:1021100000000000E159000000000000E15900004B
:10212000E1590000E1590000E1590000E1590000C7
:10213000E1590000E159000000000000E1590000F1
:10214000E1590000E1590000E1590000E1590000A7
:10215000E1590000E159000000000000000000000B
:10216000E1590000E1590000E1590000E159000087
:10217000E1590000E1590000E1590000E159000077
:10218000E1590000E1590000E1590000E159000067
:10219000E1590000E1590000E1590000E159000057
:1021A000E1590000E1590000E1590000E159000047
:1021B000E1590000E1590000E1590000E159000037
:1021C000E1590000E1590000E15900000000000061
:1021D000E1590000E1590000E1590000E159000017
:1021E000E1590000E1590000E1590000E159000007
:1021F000E1590000E1590000E1590000E1590000F7
:10220000E159000057050000E1590000E1590000C4
:10221000E1590000E1590000E1590000E1590000D6
:10222000E1590000E15900003D020000E1590000C1
:10223000E1590000E1590000E159000000000000F0
:1022400000000000E1590000E1590000E1590000E0
:10225000E1590000E1590000E1590000E159000096
:10226000E1590000E1590000E1590000E159000086
:10227000E1590000E1590000E1590000E159000076
:10228000E1590000E1590000E1590000E159000066
:10229000E1590000E1590000E1590000E159000056
:1022A000E1590000E1590000E15900000000000080
:0822B000E1590000E1590000B2
:1022B800F0B503AF2DE9000F85B005460868002882
:1022C80040F0A38091F804B00C4688680BF1010136
:1022D8002171002840F093804FF0FF3004F10C0684
:1022E8009146A060FF20082103220290CDE9002139
:1022F80030468021002207F043FD8A46A168C007C6
:1023080001F10101A16040F08680206800287CD19D
:1023180094F80480002908F1010020716FD14FF072
:10232800FF300221A0600020CDE9001900210290B1
:102338003046002207F024FDA268C00702F101021E
:10234800A2607CD1002A5AD14FF0FF300391A060DF
:10235800002102200291CDE90009304680210022A7
:1023680007F00EFDC00701BF85F82CB04FF40070D0
:10237800A5F8270085F8261001BFA5F8249004F1D8
:102388004401296285F82D8001BF40F2FF32A5F88B
:102398000F2085F80EA0082201BFAA81A960A5F820
:1023A8001B00039801BFA876A5F818906961002062
:1023B80001BFE885AA80A871A06801BF4FF4FA514F
:1023C80029600130A06002BF05B0BDE8000FF0BD74
:1023D800A06840F67803A7F11D0207F81D1C01301C
:1023E800A06040F69800C2F22003C2F220000F213C
:1023F800009040F68800C2F220000AF03BF940F64F
:102408008C60C2F2200009F06CFF40F6CC60C2F28A
:10241800200009F066FF40F6A80040F67803C2F2F3
:102428002000A7F11F02009040F68800C2F22000A9
:10243800C2F220030F2107F81FAC0AF01BF940F67F
:10244800980040F67803C2F22000A7F11E0200901F
:1024580040F6880007F81E1CC2F22000C2F22003D2
:102468000F210AF007F980B56F46FEDE80B56F468A
:10247800007840F69C120B4640F65C21C2F220011F
:10248800C2F2200251F8201052F820201846BDE868
:10249800804009F053B980B56F46084640F6881168
:1024A800C2F220011222BDE8804009F047B980B588
:1024B8006F4645F20000C2F200004068417881B1E1
:1024C800811C0022D1E84F3F012B08D1C1E8432FDE
:1024D800002BF7D1BFF35F8F007800F048FBBFF304
:1024E8002F8F0020BDE8804008F01FB9F0B503AF7A
:1024F8002DE9000FADF50D7D08F013F945F2000147
:10250800C2F20001D1F808A09AF8681021B30AF1C4
:1025180069010022D1E84F3F012B1BD1C1E8432FAD
:10252800002BF7D1804640F2CD70C0F20000BFF317
:102538005F8F029041F28050C2F2200001A9019001
:10254800002005909AF86400CDE90311002840F0B6
:10255800EA8008E0BFF32F8F08F0E7F80DF50D7D4E
:10256800BDE8000FF0BD08F0DCF88146E02008F077
:10257800D5F80DF1240B40F6AC351120C2F2200538
:1025880008905846FF2107950AF0FAFF002100201D
:102598006E564B1CB6F1FF3FF2B203DD1946FF2819
:1025A8002DD11EE1EB5C8E1CE02A03F03F0402F003
:1025B8001F0318D3AE5DF02A06F03F0646EA8416DC
:1025C80001F1030415D32A5D03F0070302F03F026B
:1025D80042EA861242EA8342B2F5881F14D00431D7
:1025E800FF280CD1FDE044EA83123146FF2806D1CA
:1025F800F7E046EA03322146FF2800F0F2800BF8A4
:10260800002001301129C3D149AE09A9FF22304663
:102618000AF02EFF40F6AC301121C2F2200009F07A
:10262800DEFA024642F2A830C2F22000314602F039
:1026380021FCC2B2062A32D148F69420C2F2000028
:102648000068032865D342F20520C0F200008B9091
:1026580007A88A9040F6D430C2F2200008F070F93A
:102668008AAD012690E8061040F620340023CDE913
:10267800556540F6CC35C2F22005C2F220045495C7
:102688000E2503205893579653955294CDE9502020
:10269800CDE94E31CDE94C45CDE94AC333E007F8E1
:1026A8002A0C48F6942007F8291CC2F2000000689A
:1026B80078B340F2F570C0F200008B90A7F12A00C1
:1026C8008A9040F60440C2F2200008F039F98AAD39
:1026D800D0E9001201268068CDE9556540F6FC3541
:1026E800002340F62034C2F22005C2F2200454959B
:1026F8000E25CDE94E314AA95893579653955294D1
:10270800CDE9502639C1A7F11D0049A9499608F01D
:1027180036F9484608F009F800208AF8600042F2C5
:102728001070CAF8000003A9504600F079F8D8B92B
:102738009AF8600003287FF416AF9AF85C00032823
:1027480004BF9AF8590003287FF40DAFDAE909604D
:10275800056807F0BFFFBFF35F8F3168C9B10A6929
:102768008D4210D1326014E0DDE9011003228AF8AD
:102778006420C9688847404607F0D7FF0DF50D7DEE
:10278800BDE8000FF0BD22B1954211D113461A6978
:102798000A6107F0AAFFDAF8340000218AF8581015
:1027A80000283FF4E0AEC168DAF838008847DAE676
:1027B80011690029EDD08D4210D00A69002AE8D0AD
:1027C8009542E3D011690029E3D08D4206D00A6909
:1027D800002ADED013469542EAD1D8E70B461146C7
:1027E800D5E740F61442FF20C2F22002FF210AF08A
:1027F8009BF980B56F4648F68820C2F20000BDE814
:10280800804001F0FEBD80B56F4642F2D830C2F27A
:102818002000006880470020BDE8804007F085BFA1
:10282800F0B503AF2DE9000B86B0044690F86000C0
:102838008846C0B1032840F0F68094F85C00E8B1FF
:10284800032840F0F68094F8591004F11400002988
:1028580068D0032940F0F380414601F06AFE002861
:1028680041D00321A7E0256848F688260020C2F257
:10287800000684F85C00C4E9016501E0D4E901655B
:102888004FF0000907F0FAFE014684F85990666592
:102898004219002D18BF511CC4E9030104F11400AA
:1028A800E162224642F8301F002182F8281033796D
:1028B800002B00F0A6802346012543F8341F83F837
:1028C80024501D4645F81C1F03F11801C3E90533C0
:1028D80043E9082143E9066543E90465414601F0F7
:1028E80028FE0028BDD1A16C0A684AB1097B0029DD
:1028F8001CBF002184F8581094F8581009BB4EE00A
:1029080000218046D4E9095084F85810066807F079
:10291800E1FEBFF35F8F296869B10A698E4204D16D
:102928002A6008E0E16A666DBBE722B1964217D1DA
:1029380013461A690A6107F0D8FE404694F8581001
:1029480069B38046D4E90950066807F0C3FEBFF3AF
:102958005F8F296801B30A698E4217D12A601BE08C
:1029680011690029E7D08E4248D00A69002AE2D0CE
:102978009642DDD011690029DDD08E423ED00A6929
:10298800002AD8D013469642EAD1D2E722B196421D
:102998001BD113461A690A6107F0A7FE4046616B0E
:1029A800002284F8582029B1CA680546A16B084658
:1029B80090472846012184F8601084F85C1084F858
:1029C800591006B0BDE8000BF0BD11690029E3D02D
:1029D8008E4210D00A69002ADED09642D9D01169F9
:1029E8000029D9D08E4206D00A69002AD4D01346CD
:1029F8009642EAD1CEE70B461146CBE70B46114685
:102A080097E701200491019040F6CC50C2F22000D3
:102A1800039140F6D45100900420C2F220010290A4
:102A280068460AF0B2F840F67C20C2F220000AF0AC
:102A380067F840F6F450C2F220000AF061F840F658
:102A4800E450C2F220000AF05BF880B56F460846F1
:102A580040F68C21C2F220010222BDE8804008F035
:102A680081BD80B56F4645F200000121C2F2000029
:102A78000068BFF35F8F80F8751080BD80B56F4622
:102A880045F200000121C2F200008068BFF35F8FA9
:102A980080F869104EF20C20CEF200004FF08061F1
:102AA800016080BD80B56F4682B00A4610F8011BF0
:102AB800DFE801F003411F300E5240F68E21104628
:102AC800C2F220010D2202B0BDE8804008F036BEF7
:102AD800019040F6D42040F6E421C2F22000009094
:102AE8001046C2F2200101AB032208F0B2FC02B08A
:102AF80080BD019040F6BC2040F6CC21C2F22000F7
:102B080000901046C2F2200101AB022208F0A1FC9D
:102B180002B080BD019040F6BC2040F6CE21C2F242
:102B2800200000901046C2F2200101AB052208F0F7
:102B380090FC02B080BD019040F69C2040F6AC218C
:102B4800C2F2200001AB00901046C2F220010F2211
:102B580008F07FFC02B080BD40F6E7211046C2F2C3
:102B680020010C2202B0BDE8804008F0E7BD80B526
:102B78006F46ADF51C7D07F0D4FD0446E02007F054
:102B8800CDFD42F2A83101A8C2F22001002202F0D4
:102B9800DCFC9DF80400002840F0B68042F2A83A18
:102BA80003AE0DF1040943AD03A8C2F2200A0130B7
:102BB800009023E090918AA98D90781ECDF84882E4
:102BC80091928F93CDF838B28C93CDF82CC2CDF872
:102BD80028E207F0D4FEE0B207F0A7FD07F0A1FD58
:102BE8000446E02007F09AFD48465146002202F0CC
:102BF800ACFC9DF80400002840F086803046514621
:102C0800DDF808B001F0F4FF9DF80C000028E2D1CF
:102C180000992846FF220AF0B1FABBF1000FDAD07A
:102C2800BBF5807F7BD283A829465A4609F045FA2E
:102C38008398012831D148F69420C2F20000006838
:102C48000128C8D942F21720CDE9885BC0F20000FC
:102C5800879088A8869040F65430C2F2200007F08A
:102C68006FFE90E8061086A84FF0010ECDE996E0B9
:102C780040F64C30C2F220000023959040F62030F8
:102C88004FF00E0BC2F2200099934FF00208CDF8D6
:102C980060E2CDF850B293908CE7DDE98401CDE98C
:102CA800860148F69420C2F200000068022892D9F2
:102CB80042F20520C0F20000899086A8889040F66C
:102CC8001030C2F2200007F03BFE90E806102846BC
:102CD80088AD9795054640F608304FF0010EC2F2D0
:102CE80020000023959040F620304FF00E0BC2F2E2
:102CF80020004FF003089993CDF860E2CDF858E230
:102D0800CDF850B2939055E740F6743040F69C32B7
:102D1800C2F22000C2F22002282109F023FF40F667
:102D280064330020C2F220035946FF2209F00BFC4D
:102D380080B56F469AB045F2000641F2805B02AC5E
:102D4800C2F200064FF00009C2F2200B012501E093
:102D5800BFF32F8FD6F8008098F874000028F9D0B8
:102D680008F17500D0E84F1F0129F1D1C0E8419F53
:102D78000029F7D140F2B370BFF35F8FC0F20000B3
:102D88006946CDE900B098F87000CDF81090CDE90B
:102D9800021188B9D8F80010C8E90119D1E9000171
:102DA80001F01F0105FA01F1C0F88C104FF4FA7018
:102DB80088F86C90C8F80C0008F10C002146FFF761
:102DC8002FFD38B1DDE90010032288F87020C968AA
:102DD8008847BFE798F86C00032808D198F868007E
:102DE800032804BF98F86500032800F0C88048F657
:102DF8009420C2F200000068022830D948F6B920B1
:102E0800C0F20000079008F10800069040F6005054
:102E1800C2F2200007F094FD06ABD0E900128068EA
:102E28000DF1380CCDE9145340F6F843C2F22003F3
:102E380040F62034139303238CE80E0008A90E26CD
:102E4800CDE90850781EC2F22004CDE91659129631
:102E58001194CDE90C69CDE90A9407F090FDC246BA
:102E680046F6B7515AF8080FCBF2DB6144F6251243
:102E7800C2F292424143914236D248F69421C2F2BC
:102E88000001096802292FD348F6B920C0F20000D2
:102E9800CDE906A040F63450C2F2200007F050FDFC
:102EA800D0E9001206AB80680226CDE9145340F63B
:102EB8002C53C2F22003109640F62036CDE90E12AC
:102EC800CDE90850781E08A9C2F2200613930E23F4
:102ED800CDE9165912931196CDE90C39CDE90A9628
:102EE80007F04DFDDAF8000043F2A77146F22D42D3
:102EF800CEF6BD11C0F621324143914234D248F694
:102F08009421C2F20001096871B348F6B920C0F2F1
:102F18000000CDE906A040F66850C2F2200007F094
:102F28000FFDD0E9001206AB806840F62036CDE9E7
:102F3800145340F660530DF1380CC2F22006C2F269
:102F480020038CE8660008A9CDE90850781E139381
:102F58000E23CDE916591293CDE90C39CDE90A961D
:102F680007F00DFDDAF8000045F200060130D8F848
:102F7800041002ACC8F80800C2F200060EE7D8E94F
:102F88000C60046807F0A6FBBFF35F8F3168E1B1FE
:102F98000A698C4201D1326017E0B2B113469442FB
:102FA80011D0116989B18C4209D00A696AB1944279
:102FB80008D0116949B18C4201D00A69EDE70B4686
:102FC800114600E013461A690A6107F08EFBD8F82B
:102FD800400041F2805B88F86490C2F2200B002820
:102FE8001EBFC168D8F84400884700E7F0B503AFB2
:102FF8002DE9000FADF6D40D07AC204604F09FFC78
:103008000DF2147521464FF4E07228460AF030FAA2
:1030180078A8294600F054FFDDE97E607C9D779012
:1030280077A8DDE9828ADDF8109204F076FC0DF2CB
:103038001454CDE90510204604F081FC78A82146F7
:1030480000F03EFF8D9944F240220DF2D460C0F2A8
:103058000F0201F042F900200122CDF8E806042011
:10306800CDF8E4060320CDF8E0064FF47A60CDF8F9
:10307800100748F23460C2F20000BFF35F8F00F21D
:103088001240D0E84F1FC0E8432F002BF9D1BFF3FF
:103098005F8F41BB48F234644FF48061C2F2000490
:1030A80020460AF06DFA07F015FB0DF5DC61834642
:1030B800204603F0E9FC98B948F2346278A80DF587
:1030C800E263C2F200020121CDF8E891CDE9788AE5
:1030D80001F0FAFB44F63D6A4FF00008C0F2000A1E
:1030E800584607F002FBB8F1000F40F035814EF268
:1030F800100B0121CEF2000B0522DBF800000DF5C4
:10310800F078032320F00100CBF80000DBF8000082
:1031180040F00400CBF8000042F2BF70C0F2090092
:10312800CBF80400DBF8000040F00200CBF8000008
:10313800DBF8000040F00100CBF8000048F68820DA
:10314800BFF35F8FC2F20000017148F2C400BFF301
:103158005F8FC4F21F00416862F303014160716828
:1031680041F008017160016862F303010160706851
:103178000721022240F004007060286820F4B8603B
:1031880040302860686861F30B006860286840F286
:10319800933120F001002860A86840F02000A86062
:1031A800E86820F02000E860286820F400702860B3
:1031B800286840F002002860A86840F00100A86074
:1031C800E86820F00100E860A86840F00200A86004
:1031D800E86820F00200E860A86840F00400A860F1
:1031E800E86820F00400E8600020CDE90062CDE93D
:1031F80002100DF2D46140463246049502F01AF8E6
:103208007F98022800F0BD80C6460DF5DC6CBEE84C
:103218007B0062467BC29EE87B007BC245F20002CF
:10322800C2F20002136803F17401D1E84F0F48B9E4
:103238000126BFF35F8FC1E8406F50B1D1E84F0F4F
:103248000028F8D040F68040BFF32F8FC2F220004C
:1032580047E042F2A03E0020C2F2200EBFF35F8F8B
:1032680083F870000126C3F800E0BFF35F8F83F88E
:103278007560936803F16805D5E84F0F40B9BFF34F
:103288005F8FC5E8406F50B1D5E84F0F0028F8D0E0
:1032980040F67040BFF32F8FC2F2200021E00020DB
:1032A800BFF35F8F83F8640001264FF08060BFF39F
:1032B8005F8F83F86960CBF8FC015268531CD3E830
:1032C8004F0F40B9BFF35F8FC3E8406FB0B1D3E889
:1032D8004F0F0028F8D040F66040BFF32F8FC2F29E
:1032E800200040F62443009040F63440C2F2200308
:1032F800C2F2200078AA2B2109F0BCF90020BFF304
:103308005F8F02F8020B0120BFF35F8F10708020DF
:10331800CBF8F4014046BCE87E007EC09CE87E0005
:103328007EC042F2A830C2F22000B8E87E007EC01B
:1033380098E87E007EC0DDE90510CEE9000142F282
:10334800D830C2F22000C0F800A007F0D9F90DF675
:10335800D40DBDE8000FF0BD40F6C04040F6B043C4
:10336800C2F22000CDF8E891009040F63440CDE953
:10337800788AC2F22000C2F2200378AA2B2109F031
:1033880079F9BDF8E00140F69043ADF8E00640F663
:10339800A040C2F220000DF5DC62009040F63440F7
:1033A800C2F22000C2F220032B2109F063F980B594
:1033B8006F46C0B007F0A2F948F690200121C2F28A
:1033C80000004EF20C1201704EF22740CEF20000BF
:1033D800F021CEF200028023017048F69C2442F8C6
:1033E800083CE02380F853304FF080631360C2F24A
:1033F800000480F84A1045F200014FF40030C2F290
:103408000001106000206A46ADF868008A60A7F1E4
:10341800930227F8920C4A60ADF8E4001CA80860F3
:1034280044F20000C2F20000A04203D907F070F98C
:10343800A04203D9FFF7DAFDFFF77AFC012100204B
:103448003B9140F63061C2F220013E903D9004204D
:103458003A9140F638613C903AA8C2F2200109F04E
:1034680094FB002A04BF06207047F0B503AF2DE98E
:10347800000F8FB00446D3000020B0EB134F04D0E8
:1034880002200FB0BDE8000FF0BD02A80E46194695
:10349800154604F0CEFC9DF80C000299022903D1D0
:1034A8000FB0BDE8000FF0BDD4E900839DF80D20F2
:1034B8009DF80EE09DF810909DF811B09DF812A0AF
:1034C8005969090567D40192B446DA6DD2062A46CD
:1034D80048D44D464FEA4B5141EA8541019D94F845
:1034E800089041EA0A5165F30B20667A40EA8E504B
:1034F8000843910840EAC85040EAC97040EA86701B
:1035080040F400201866002093078DF838004FF02B
:10351800010018BF00EB92010CEB0200049002A816
:103528000591CDE9024C01F088F8C0B2062837D1E0
:1035380061684A69D00409D501200FB0BDE8000FC1
:10354800F0BD4A69D0044FF00100A9D4100522D477
:10355800D001F6D4C86DC006F3D106200FB0BDE87F
:10356800000FF0BD5D692D0515D4DD6DED06B0D5F4
:103578005D692D050FD4DD6DED06AAD55D692D05B4
:1035880009D4DD6DED06A4D55D692D0503D4DD6D87
:10359800ED06E7D49DE700200FB0BDE8000FF0BDB1
:1035A80061684FF0020C8B69CE690D6AD1F824B0BE
:1035B800D1F830E0D1F83480D1F84090D1F858A053
:1035C8000A6901920A696CF301020A610A69D20761
:1035D80009D00A69D2071CBF0A695FEAC27202D021
:1035E8000A69D207F2D10A6922F002020A610A695D
:1035F80042F440720A618B61CE610D62C1F824B059
:10360800C1F830E0C1F83480C1F84090C1F858A042
:103618000A69019B63F300020A6161684FF4C052B2
:103628004A610FB0BDE8000FF0BDF0B503AF2DE95A
:10363800000FA5B0CBB14FEAC30CBCF5803F01D356
:103648000221EFE0834609A80891614690469A4610
:1036580004F0EFFB9DF82810099802280BD1584672
:1036680053464246062940F0DD80C0E9002325B0D4
:10367800BDE8000FF0BD9DF82B00DDF820C00790D5
:103688009DF82C000690DCE900539DF829909DF8E0
:103698002AE09DF82E409DF82D20586900055846CF
:1036A80077D4CDF814E0D646CDE90182CDE90354AC
:1036B800DE6DF60654D4069869F30B219CF80820B1
:1036C8009CF809608404079844EAC044059841EAD4
:1036D8008051029821435FEA8E7441EA4051049870
:1036E80041EA0051039841EAC05141EAC2704FF0E3
:1036F800010140EA867018664FF000004FEA9E0309
:103708008DF8900018BF01EB9E03019ACDE9170CC4
:1037180002EB0E018DF85800CDE9090C09A81B939E
:10372800CDE919210D93CDE90B2101F081F8C1B242
:10373800062930D1089846687469E004584670D460
:103748005346424604E07469E1044FF0010169D42C
:1037580021051ED4E101F6D4F16DC906F3D184E741
:103768005E69360515D4DE6DF606A4D55E693605A4
:103778000FD4DE6DF6069ED55E69360509D4DE6D7A
:10378800F60698D55E69360503D4DE6DF606E7D4ED
:1037980091E7002146E0DDF820800223D8F80420D4
:1037A8009669D569106A0690D2F824E0D2F830906C
:1037B800D2F834A0146CD2F858C010690790106978
:1037C80063F30100106158461369DB0709D01369D8
:1037D800DB071CBF13695FEAC37302D01369DB07F9
:1037E800F2D1136923F002031361136943F44073A0
:1037F80013619661D561069B1362C2F824E0C2F892
:103808003090C2F834A01464C2F858C01369079EF7
:1038180066F300031361D8F804204FF4C0535361D2
:1038280000E0012100220171026025B0BDE8000F0F
:10383800F0BD000000680A4601230178012988BF0D
:103848008B1ED9B2DFE801F0021A0A1240F64C6169
:103858001046C2F22001092207F070BF40F67061DD
:103868001046C2F22001042207F068BF40F68461C6
:103878001046C2F22001062207F060BF80B56F46ED
:1038880082B0019040F6586040F67861C2F220009C
:1038980001AB00901046C2F22001042207F0D9FDC6
:1038A80002B080BD80B56F4600680A4640F64861A0
:1038B80040F64A63C2F22001C2F2200300780028D1
:1038C800104618BF19460222BDE8804007F036BFEF
:1038D800F0B503AF2DE9000F85B0044688680028CD
:1038E80040F0868092F821B04FF0FF3001F10C06CD
:1038F8008860002091468846CDE9000B029030464A
:1039080000210122002306F03BFA0D46D8F80810E2
:10391800C00701F10101C8F8081040F081800029B2
:1039280066D14FF0FF308021C8F808000020CDE9AB
:10393800000B012202903046802306F021FA8A46C5
:10394800D8F80810C00701F10101C8F808107BD1A8
:10395800D8F80000002851D14FF0FF300029C8F8EE
:10396800000051D1C8F80800304606F0D8F9D8F858
:1039780008000130C8F808004CD34FF0FF30802110
:10398800C8F8080004F12400BFF35F8FC8F844604A
:10399800BFF35F8F09F0F4FDC4F8DC60AC46B9E80A
:1039A8006E0004F1B4006EC099E86E006EC008F1B4
:1039B80044010020A161E160042184F8E200C4E927
:1039C8002B00C4F8A400A4F81F0084F81EA0A4F8D3
:1039D8001CB0A4F8130084F812C0A4F810B020801A
:1039E800A4F8E310A4F8E00005B0BDE8000FF0BDAE
:1039F80040F68C60C2F2200008F073FC40F6BC6010
:103A0800C2F2200008F06DFC40F6AC60C2F2200063
:103A180008F067FC40F69C60C2F2200008F061FCE8
:103A280040F6FC6040F6DC63C2F22000A7F11E02FB
:103A3800009040F6BC10C2F22000C2F22003202100
:103A480007F81E5C08F016FE40F6EC6040F6DC63F2
:103A5800C2F22000A7F11D02009040F6BC10C2F28D
:103A68002000C2F22003202107F81DAC08F002FE56
:103A7800D0B502AF016871B1012904BF0620D0BDDD
:103A880040F60C7040F63472C2F22000C2F22002F6
:103A9800252109F067F890F8341041B103291CD1A9
:103AA80090F83010B9B103291DD1C16A22E000F1A4
:103AB800040C0269002100F1140E9CE81810C0E9FA
:103AC80008128EE81810914274D30121016080F821
:103AD80034100620D0BD816A0BE040F6C470C2F2F3
:103AE800200009F00DF840F6D470C2F2200009F069
:103AF80007F8C16249684A69120563D4C96DC906E5
:103B080069D4D0E905C3012180F83010D0F81CE051
:103B1800DCF80010F1B1002173451CBF13F8011B3C
:103B28008361002273451EBF13F8012B83611202C3
:103B38001143002273451EBF13F8012B8361120441
:103B48001143002273451EBF13F8012B836112062F
:103B5800114328E0002173451CBF13F8011B836142
:103B6800002473451A461EBF1A4612F8014B82619B
:103B7800734518BF44EA01210024724513461EBF4D
:103B8800134613F8014B8361724518BF44EA0121BB
:103B9800002273451EBF1C4614F8012B846173452F
:103BA80018BF42EA0121DCF804205166D0E9081266
:103BB80091428AD2013101624169002280F83020A5
:103BC800816296E7012180F8341080F830100221D4
:103BD80001600020D0BD032180F8341080F8301037
:103BE8000720D0BDF0B503AF2DE9000F89B00168FB
:103BF80031B1012929D1062009B0BDE8000FF0BD77
:103C080090F83410054641B1032929D195F83010B0
:103C1800C9B103292AD1E96A2FE0D5E90136002183
:103C2800D5E90302C5E9053605F11C0307C391422E
:103C3800C0F01A8101210620296085F8341009B0E6
:103C4800BDE8000FF0BDA96A16E040F60C7040F61A
:103C58003472C2F22000C2F22002252108F082FF4D
:103C680040F6A470C2F2200008F04AFF40F6B47093
:103C7800C2F2200008F044FFE96249684A69D204A8
:103C880000F10981CA6D12F4F81F00F00F8105F1E7
:103C980014044B6F012616CC85F830600E68182185
:103CA8000891102107910821069100210591A11A78
:103CB8000429894628BF4FF004090EB9022934D2D5
:103CC800944200F0CC8005A96FF0030000EB890650
:103CD80001EB890CF04310F00C0F00F08E8001F11D
:103CE800040EA2421FBF059800F01F0023FA00F03F
:103CF80002F8010B18BFAA6116F00C0F7CD0A24283
:103D08001FBF069800F01F0023FA00F002F8010B0D
:103D180001F1080E06F00C0018BFAA61042840F053
:103D2800AB8071460C2E6AD299E005A94FEA590674
:103D380001EB890C701E4FF00008032841D3CDE930
:103D48000069ACF104060495A1F11005CDE9024320
:103D5800012455F8109F4FF6FE70631E05F1040EFE
:103D6800C3F6FF7083EA0001D6F800804FF6FD70B5
:103D780046F81099C3F6FF709EE8004A5CF821A047
:103D88004CF8219083EA00015CF821004CF821B03E
:103D98004FF6FC71C3F6FF71C5E9008A594014F16A
:103DA80003085CF821304CF821E0C5E9020304F16E
:103DB80004000446CDD1DDE9033505A9DDE9019408
:103DC800009E6FEA080051F828A05CF820E0012E58
:103DD80041F828E04CF820A03FF475AF6FF00100DF
:103DE80001EB8801A0EB08004E685CF820E04CF875
:103DF8002060C1F804E066E771460C2E2FD3A2427A
:103E08001FBF086800F01F0023FA00F002F8010B3A
:103E180018BFAA61A2421FBF486800F01F0023FA1A
:103E280000F002F8010B18BFAA61A2421FBF886800
:103E380000F01F0023FA00F002F8010B18BFAA6176
:103E4800A2421FBFC86800F01F0023FA00F002F862
:103E5800010B01F1100118BFAA616145CFD1D5E965
:103E680008129142BFF4E6AE481C28626969002036
:103E780085F83000A962FFE60C31A2421FBF0798FF
:103E880000F01F0023FA00F002F8010B18BFAA6126
:103E98000C2EB4D2E3E70120022185F8340085F81E
:103EA8003000296009B0BDE8000FF0BD03210720EC
:103EB80085F8341085F8301009B0BDE8000FF0BD62
:103EC800F0B503AF2DE9000FADF5337D8A46044602
:103ED80001F1340038310AF1540203F0D3FADAF868
:103EE800C80003F0A3FFDAF82801016841F00101D6
:103EF8000160DAF82801016821F00201016000215F
:103F0800C0F80811C0F81811C0F82811C0F8381105
:103F1800DAF8C0B0C4E90000C4E90200DBF8000028
:103F280020F00100CBF80000DBF8000040F400406E
:103F3800CBF80000DBF8000000040CD5DBF800002B
:103F4800000444BFDBF800005FEA004003D5DBF85B
:103F580000000004EED43F20CBF80800DBF8000096
:103F680020F00100CBF80000DAF8C450286820F0EF
:103F780001002860286840F4004028602868000490
:103F880009D52868000444BF28685FEA004002D5C4
:103F980028680004F2D43F2040F26341A8602868F2
:103FA80020F001002860DAF80060DAF85C011C9063
:103FB800B06C40F00100B064706C08437064706CC1
:103FC800012161F383007064706C20F080007064DC
:103FD800B06C40F02000B064706C40F440407064F5
:103FE800706C40F444707064B06C40F08000B06451
:103FF800B06D000709D0B06D00071CBFB06D5FEA57
:10400800007002D0B06D0007F2D1B06C40F263418D
:1040180040F02000B064706C20F440407064706C14
:1040280020F4447000F588707064DAF80480D8F8D9
:10403800480040F00100C8F84800D8F84400084398
:10404800C8F84400D8F84400012161F38300C8F897
:104058004400D8F8440020F08000C8F84400D8F89C
:10406800480040F02000C8F84800D8F8440040F460
:104078004040C8F84400D8F8440040F44470C8F8F8
:104088004400D8F8480040F08000C8F84800D8F844
:10409800580000070CD0D8F8580000071CBFD8F803
:1040A80058005FEA007003D0D8F858000007EED136
:1040B800D8F8480002220F2340F02000C8F8480032
:1040C800D8F8440020F44040C8F84400D8F8440028
:1040D80020F4447000F58870C8F84400DAF87C11C0
:1040E8001DA803F0D8FDDAF868112FA84FF4805204
:1040F80003F018FFDAF89C000A90DAF8A400099097
:10410800DAF8A8000890DAF8AC000790DAF8840129
:104118000690DAF890010590DAF89801DAE91712B2
:10412800019033A803F047FEDAE90D10DAF83021E0
:104138001B90DAF854001A90DAF880000B90DAF83D
:10414800E0001890DAF8E8001790DAF8F000169016
:10415800DAF8F4001590DAF8F8001490DAF8FC00B0
:104168001090DAF800011390DAF804011290DAF8E6
:1041780008011190DAF80C010E90DAF814010D908C
:10418800DAF81C010F90DAF884000490DAF8880055
:1041980003904FF47040199111460C92A2F88C01CB
:1041A8000F22A1F88E21DAF834110291A1F88C01BE
:1041B800A1F88E210F21DAF83891A9F88C01A9F815
:1041C8008E214FF40072DAF83CA1AAF88C01AAF803
:1041D8008E1133A9019820630A98A0610998E061BB
:1041E80008982062079860620698A0620598E062C5
:1041F80004F59670C4E904B509F03AF91C990AF176
:1042080060020C9D01F134005031C4E92BAAC4E9C5
:10421800CB100AF59070C4F8BC000AF1C0010B98E5
:10422800C4F8C0000498C4F8C4000398C4E92D2158
:1042380004F1C80181E8410109F5907009F1C00154
:10424800029A09F16006C4E9291005F5907002F593
:104258009073C4E9253905F1C003C4E91F301098EB
:1042680002F1C00C606502F160010D98A0650E981E
:10427800E06512982066119860660F98A0661398FA
:10428800C4E91B05199860631B98A0631A98E0633A
:1042980018982064179860641698A0641598E064CC
:1042A8001498C4E9279605F16006C4E9231C1DA9E2
:1042B800206504F1D400C4E921224822C4E91D562E
:1042C80009F0D6F82FAB04F58E7C0FCB8CE80F00E5
:1042D8000DF5337DBDE8000FF0BDF0B503AF4DF827
:1042E80004BD054648F23C10C4F21F000C46836822
:1042F800032161F303038360836843F01003836041
:104308000023C0F8EC33466861F30306466046684C
:1043180046F010064660C0F8E833C66861F3030645
:10432800C660C66846F01006C660C0F8E433066882
:1043380061F303060660016841F010010160C0F8EE
:10434800E0330221206961F3010020612069C00780
:1043580009D02069C0071CBF20695FEAC07002D07D
:104368002069C007F2D12069012120F002002061F4
:10437800206940F44070206103206062606800F0AA
:104388001F0001FA00F0C0F34300A065216126690F
:10439800206920F0010020612069C00709D0206948
:1043A800C0071CBF20695FEAC07002D02069C0073F
:1043B800F2D142F600101146C0F2DE70224603F038
:1043C80051FD216900202881C5E9000466F3000138
:1043D80021615DF804BBF0BD80B56F46007840F6FA
:1043E8009C120B4640F6E471C2F22001C2F2200290
:1043F80051F8201052F820201846BDE8804007F0F8
:104408009DB9F0B503AF2DE90007804606F010F915
:1044180002E061685046884706F05CF9BFF35F8F99
:104428000546D8F800609EB3D6F8089006F026F93D
:10443800B168401AB0F1FF3F6FEA00014FEAD1714D
:10444800317317DD3069C8F80000D6E90010096833
:1044580088470446307B05F001008A4606F045F996
:10446800002CD6D106F00AF9A0EB0900B0F1FF3F05
:10447800D2DC0AE005F0010006F037F906F0FEF894
:10448800A0EB0900B0F1FF3FC6DCBDE80007F0BDB6
:104498002846BDE80007BDE8F04006F026B980B51B
:1044A8006F4641F254000021C2F2200080BD80B561
:1044B8006F4680BD80B56F460A46D0E90001BDE869
:1044C800804006F07CBAF0B503AF2DE9000B84B04C
:1044D800D0E9005401A806F055FE7CB140F6B808B2
:1044E8000DF1040903AEC2F220084846314642469F
:1044F800039506F0C3FD0135013CF6D101A806F08D
:104508002DFE04B0BDE8000BF0BD80B56F468A688B
:104518000068930105D4520107D4BDE8804006F035
:10452800F1BBBDE8804006F095BCBDE8804006F0D0
:10453800BABCF0B503AF2DE9000F81B080460C6816
:1045480006F09CF8D8F800603168451AB5F1FF3FCD
:1045580004DDE80F01B0BDE8000FF0BDD8F8040095
:10456800D0F800B0DBF800000028F2D1D4E9001040
:10457800096888470446DBF8000089463668002841
:104588001EBFC168DBF8040088470020D8F808A0DF
:10459800CBF810008BF80C00CBE90049CBF8086089
:1045A80006F098F8BFF35F8FDAF8001009B3DBF86C
:1045B80008208B68D31A1AD40B698BB39E68961B94
:1045C80026D4196931B38E68961B25D40B693BB381
:1045D8009E68961B1CD41969E1B18E68961B1BD482
:1045E8000B69EBB19E68961B1E46EAD516E0CBF820
:1045F8001010CAF800B006F078F8D8F80C00C0F827
:1046080000B006F031F8E80F01B0BDE8000FF0BDCA
:104618001E4603E0194603E00E461946CBF8106023
:10462800C1F810B006F061F8D8F80C00C0F800B076
:10463800E80F01B0BDE8000FF0BDF0B503AF4DF8CD
:1046480004BD90F8301071B1032916D100F1180C8F
:1046580090F82C40D0E904E19CE80C105CB1032CE4
:1046680011D1846A1BE0D0E900E10023D0E9022CD3
:10467800634512D30DE0446A11E041F26400C2F2CE
:10468800200008F03DFA41F27400C2F2200008F060
:1046980037FA06205DF804BBF0BD01337446606844
:1046A80045692D0500F1C080C06DC00649D4DEF80B
:1046B8000000D0B10020914218BF11F8010B00246E
:1046C80091421CBF11F8014B24022043002491425F
:1046D8001CBF11F8014B24042043002491421CBF45
:1046E80011F8014B2406204325E00020914218BF11
:1046F80011F8010B002591420C461CBF0C4614F81A
:10470800015B914218BF45EA0020002194422546EA
:104718001CBF254615F8011B944218BF41EA00202A
:104728000024954229461CBF294611F8014B9542A1
:1047380018BF44EA0020DEF8044060666345ACD345
:10474800A7E765686CE0E86DC00612D5656868691A
:10475800000569D4E86DC0060BD56869000563D407
:10476800E86DC00605D5686900055DD4E86DC0062A
:1047780056D4DEF80000D0B1914214BF11F8010BF5
:10478800002091421ABF11F8014B24020024204353
:1047980091421ABF11F8015B2D040025284391426C
:1047A8001ABF11F8016B36060026304328E0914203
:1047B80014BF11F8010B0020914203D00C4614F8E5
:1047C800015B01E000250C46914218BF45EA002034
:1047D800944203D0254615F8011B01E00021254627
:1047E800944218BF41EA0020954203D0294611F8A7
:1047F800014B01E000242946954218BF44EA0020F5
:10480800DEF8044063456066BFF443AFDEF8045049
:1048180001337446686900054FF0000093D539E705
:10482800686900057FF58FAF00205DF804BBF0BD17
:10483800F0B503AF4DF8048DA2B041F25402014621
:1048480000200DF11808C2F2200201900490684679
:1048580000927022CDE90200404608F009FE08F1F6
:10486800380602AC40462146FFF702F9C5B265F0AA
:10487800070010F1020F1ED330462146FFF7B2F9A8
:10488800C0B260F0070111F1020F11D3072D18BF54
:104898000728E7D00698012801BF1498022106913D
:1048A800012807D040F66800C2F2200007F0D8FEC1
:1048B800054600E00625DDE90010C9688847284656
:1048C80022B05DF8048BF0BDF0B503AF2DE9000F01
:1048D800DFB048F64C26D0F800C0C2F20006D0F887
:1048E80008E046F200003260C2F2000041F23812DD
:1048F8008618BFF35F8F56E8002F42F0004546E860
:104908000054002CF7D1002ABFF35F8F00F16581B6
:1049180048F200080124C2F2000808F5A066BFF3B7
:104928005F8FD6E84F5FC6E8424F002AF9D1002DC5
:10493800BFF35F8F40F0408141F238125390024438
:10494800599200F5865200F580500DF5A67900932E
:1049580006234FF0000BCDE954308A464846012122
:10496800CDE95C86CDE95ACEADF878B15893CDE95A
:10497800563203F04CFCB9E87E000DF1040808F14A
:1049880004007EC099E87E007EC0012051468DF863
:1049980038004046CDF804B004F091FD9DF8380089
:1049A800012822D10198002840F011814FF0FF30F2
:1049B80053AD0190002053900098066808F120003C
:1049C8005490284604F03BFB284604F0F5FA2846A4
:1049D800514604F00CFB2846012104F061FB2846EF
:1049E800314604F048FB284651E005F094FE0546A0
:1049F80005F084FE0198E90728D1002840F0E780F7
:104A08004FF0FF3053AE0190002053900098056896
:104A180008F120005490304604F011FB304604F0B1
:104A2800CBFA3046514604F0E2FA3046012104F050
:104A380037FB3046294604F01EFB304604F00DFBD8
:104A480001980130019005F05BFE25E0002840F058
:104A5800BE804FF0FF3053AE019000205390009875
:104A6800056808F120005490304604F0E8FA304612
:104A780004F0A2FA3046514604F0B9FA3046012152
:104A880004F00EFB3046294604F0F5FA304604F0EF
:104A9800E4FA01980130019048F2045A4FF00009F5
:104AA800C2F2000A4FF48060AAF804004146CAF82E
:104AB80008900AF10C00CAF800905CC95CC07CC977
:104AC8007CC091E87C0051467CC040464FF400729F
:104AD800CAF84490FDF7ECFBB8E87E0048F6502091
:104AE800C2F200007EC098E87E007EC032200FAC83
:104AF800CDF846010220C4F2000049AACDF84201CF
:104B08001020ADF8400145F62400C2F2DD70514690
:104B18004F9009204C9041F28400C2F22000CDF859
:104B280034914B902046CDF82491FEF7D1FE469D56
:104B38008121284604F048FB2846012104F044FB63
:104B48002846822104F040FB2846022104F03CFB61
:104B58002846832104F038FB2846032104F034FB5F
:104B68002846842104F030FB2846042104F02CFB5D
:104B78002846852104F028FB2846052104F024FB5B
:104B88002846862104F020FB2846062104F01CFB59
:104B98002846872104F018FB2846072104F014FB57
:104BA80048F24C502146C2F20000E82208F060FCAE
:104BB8005FB0BDE8000FF0BD40F6DC1041F24402E2
:104BC800C2F22000C2F22002202107F02DFD41F29E
:104BD8000400C2F2200007F084FB41F2140041F205
:104BE8003402C2F22000C2F220021F2107F01CFD8D
:104BF800F0B503AF2DE9000FC3B00D4682466846F5
:104C0800FF2108F0BDFC284600F058FEC2B2062A73
:104C180040F0BA80D5E90201012401F01F0105F135
:104C28001C0BA7F12602022304FA01F1C0F8881030
:104C3800132027F8260C41A85946FEF7F6FC4198A0
:104C4800002800F09E80D5E9022303F01F03429953
:104C580004FA03F30129C2F8843040F2A0804478B2
:104C68000126D5E90201A7F1260201F01F0102235E
:104C780006FA01F1C0F88810102027F8260C41A880
:104C88005946FEF7D2FC419800287AD0D5E902238C
:104C980003F01F03429906FA03F30129C2F884308E
:104CA8007DD9D5E9021202F01F02407806FA02F215
:104CB800C1F8882041A98DF805018D208DF80401DF
:104CC80058460222FEF7CDFBC1B206295BD1D5E9D1
:104CD800020101F01F0106FA01F1C0F884103CB38B
:104CE800A7F126096E464FF00108D5E902014A46A8
:104CF80001F01F01022308FA01F1C0F88810002012
:104D080027F8260C41A85946FEF78FFC4198C0B3F6
:104D1800D5E9022303F01F03429908FA03F3012996
:104D2800C2F884303BD94078013C06F8010BDCD14D
:104D3800D5E90201012401F01F01022204FA01F160
:104D4800C0F888108D2041A9ADF804015846FEF737
:104D580088FBC1B2062916D1D5E90201FF2201F06C
:104D68001F0104FA01F1C0F884100AF10100694634
:104D780008F004FA00208AF8000043B0BDE8000FEC
:104D8800F0BD9DF8081104208AF8010001208AF876
:104D980002108AF8000043B0BDE8000FF0BD41F2F0
:104DA80090020120C2F2200207F0BEFEB0B502AFA9
:104DB80084B00446D0E9020101F01F010125A7F1E2
:104DC8001202022305FA01F1C0F888100C2027F816
:104DD800120C04F11C0102A8FEF727FC029880B10E
:104DE800D4E9022303F01F03039905FA03F3022908
:104DF800C2F884300CD34078062141EA002004B080
:104E0800B0BD9DF80C00042141EA002004B0B0BDFB
:104E180041F290020120C2F2200207F085FEB0B5EF
:104E280002AF82B00446D0E9020303F01F03012554
:104E380005FA03F3C0F8883041F0800007F80A0C3F
:104E480004F11C00A7F10A0107F8092C0222FEF759
:104E580008FBC1B206290AD1D4E9020202F01F02F6
:104E680005FA02F2C0F88420062002B0B0BD042082
:104E780002B0B0BDF0B503AF2DE9000F83B0044612
:104E88008B46D0E90201012601F01F0104F11C053F
:104E98009046A7F1260206FA01F10223C0F888100D
:104EA80001A8294627F8266CFEF7BFFB01980028C1
:104EB8003ED0D4E9022303F01F03029906FA03F354
:104EC8000129C2F8843040F2F1804078C04380075D
:104ED80004D1052003B0BDE8000FF0BDD4E90201FC
:104EE800A7F1260201F01F01022306FA01F1C0F81A
:104EF8008810122027F8260C01A82946FEF795FBF2
:104F08000198A8B1D4E9020202F01F02029906FA38
:104F180002F20129C0F8842040F2C88094F82900E0
:104F280068B1204600F0C9F8C2B2062AD2D10CE016
:104F38009DF80810042003B0BDE8000FF0BD20461E
:104F480000F019F9C2B2062AC4D1D4E902014FF01F
:104F5800010901F01F01022209FA01F1C0F88810C5
:104F680048F2811001A9ADF804002846FEF779FA45
:104F7800C1B2062940F09580D4E9020101F01F0171
:104F880009FA01F1C0F8841094F8290084F82890EF
:104F980018B1204600F091F802E0204600F0EBF846
:104FA800C2B2062A96D1D4E90201022201F01F01F9
:104FB80009FA01F1C0F88810922001A9ADF804009F
:104FC8002846FEF74EFAC1B206296AD1D4E9020191
:104FD800022201F01F0109FA01F1C0F88410D4E996
:104FE800020101F01F0109FA01F1C0F888108D20B3
:104FF80001A9ADF804002846FEF733FAC1B2062924
:105008004FD1D4E90201012201F01F0102FA01F196
:105018000022C0F8841020462221FFF700FFC2B208
:10502800062A7FF457AFB8F1000F29D00DF1040913
:105038004FF0000ABAF1FF0F22D0D4E9020101F0C3
:105048001F011BF80A2006FA01F1C0F88810802019
:105058008DF8052049468DF8040028460222FEF7FF
:1050680000FAC1B206291CD1D4E902010AF1010AE9
:1050780001F01F01D04506FA01F1C0F88410D9D11A
:10508800204622214246FFF7CAFEC2B2062A7FF412
:1050980021AF2046032100F0C9FB03B0BDE8000F93
:1050A800F0BD042003B0BDE8000FF0BD41F290024E
:1050B8000120C2F2200207F037FDF0B503AF4DF82A
:1050C80004BD84B00446D0E9020101F01F010126A5
:1050D80004F11C05A7F11E0206FA01F10223C0F82B
:1050E80088101D2027F81E0C01A82946FEF79DFAF6
:1050F800019890B3D4E9022303F01F03029906FA3A
:1051080003F30129C2F884302ED9D4E90212407879
:1051180002F01F0206FA02F200F0FE00C1F8882031
:10512800A7F1120107F8110C9D2007F8120C284668
:105138000222FEF796F9C1B2062910D1D4E902017C
:1051480001F01F0106FA01F1C0F88410062084F866
:10515800296004B05DF804BBF0BD9DF80810042078
:1051680004B05DF804BBF0BD41F290020120C2F228
:10517800200207F0D9FCF0B503AF4DF804BD84B0A8
:105188000446D0E9020101F01F01012604F11C05C3
:10519800A7F11E0206FA01F10223C0F888101D20AB
:1051A80027F81E0C01A82946FEF73FFA019898B384
:1051B800D4E9022303F01F03029906FA03F3012935
:1051C800C2F884302FD9D4E90212407802F01F02C5
:1051D80006FA02F200F00100C1F88820A7F11201D6
:1051E80007F8110C9D2007F8120C28460222FEF73A
:1051F80038F9C1B2062911D1D4E9020101F01F0121
:1052080006FA01F1C0F88410002084F8290006206D
:1052180004B05DF804BBF0BD9DF80810042004B08C
:105228005DF804BBF0BD41F290020120C2F22002F9
:1052380007F07AFCF0B503AF2DE9000F8FB0824676
:10524800B869D7E902CE0124D1E900B68D680EF01D
:105258001F01D7F8149004FA01F140F2E244CCF8A7
:10526800881004610468D7F8108044F001040460D1
:10527800CDE908656E4606F11C054FF48074CDF83B
:1052880014E0CDE90223ADF82840CDE90089CDF836
:1052980010C0CDE9060B8668F60709D18668F607BF
:1052A80004BF86685FEAC67602D18668F607F2D040
:1052B800866846F001068660066826F001060660E4
:1052C800CCF8841040F2E2410161016841F001012B
:1052D80001608168C90709D18168C90704BF81686D
:1052E8005FEAC17102D18168C907F2D081680126DD
:1052F80041F001018160016821F00101016003F0C2
:105308001F002946022306FA00F0C2F8880042204E
:1053180027F8260C0DA8A7F12602FEF786F90D98A6
:10532800C0B1DDE9022303F01F030E9906FA03F367
:105338000129C2F8843040F201814078122817D13F
:105348009DF8290000B36846FFF7B7FEC2B2062AE7
:1053580003D11FE09DF83810042002228AF80110BA
:10536800CAF81C208AF800000FB0BDE8000FF0BD95
:1053780002218AF801000120CAF81C108AF80000EE
:105388000FB0BDE8000FF0BD6846FFF7F4FEC2B2EB
:10539800062AE2D1DDE90201022201F01F0106FA24
:1053A80001F1C0F8881048F281000DA9ADF8340069
:1053B8002846FEF756F8C1B20629CDD1DDE902012B
:1053C800022201F01F0106FA01F1C0F88410C0F8AA
:1053D800881000208DF828004FEA98008DF83500D5
:1053E80086200DA98DF834002846CDF80080CDF828
:1053F8000490FEF736F8C1B20629ADD14FEA58300D
:10540800DDE90212C00602F01F0268F39A3006FABC
:1054180002F2000AC1F88420C1F888200DA98DF88D
:10542800350087208DF8340028460222FEF719F847
:10543800C1B2062990D1DDE90201022201F01F0163
:1054480006FA01F1C0F88410C0F8881088200DA968
:10545800ADF834002846FEF704F8C1B206297FF4F7
:105468007BAFDDE90201022201F01F0106FA01F11A
:10547800C0F88410C0F888108E200DA9ADF834004B
:105488002846FDF7EEFFC1B206297FF465AFDDE9D6
:105498000201022201F01F0106FA01F1C0F884108E
:1054A800C0F888108F200DA9ADF834002846FDF704
:1054B800D8FFC1B206297FF44FAFDDE9020101220E
:1054C80001F01F0102FA01F1C0F884106846FFF7E5
:1054D8006DFCC0F30721C2B2062A7FF43EAF41F04B
:1054E800030268460C21FFF79AFCC2B2062A7FF431
:1054F80034AF684626210422FFF791FCC2B2062A7F
:105508007FF42BAF6D460121284600F08FF9C2B217
:10551800062A7FF422AFDDE9020101F01F0106FA35
:1055280001F1C0F884105FCDAAE85F0095E85F003C
:105538008AE85F000FB0BDE8000FF0BD41F29002AD
:105548000120C2F2200207F0EFFAF0B503AF2DE90F
:10555800000F85B0834691F82900994614460D46F8
:1055680030B12846FFF7A9FDC2B2062A07D098E055
:105578002846FFF700FEC2B2062A40F09280D5E91D
:105588000201012601F01F0105F11C08022206FA9A
:1055980001F1C0F8881048F2815003A9ADF80C0059
:1055A8004046FDF75EFFC1B2062979D1D5E902016F
:1055B80001F01F0106FA01F1C0F88410052085F8F2
:1055C8002800E00778D0D5E902014FF0010A01F080
:1055D8001F01CDF80490A7F1260202230AFA01F16F
:1055E8001226C0F88810122027F8260C03A8414676
:1055F800FEF71BF80398002800F0F38001990024B7
:1056080021EAE1791DE08168A7F12602022341F031
:1056180001018160016821F001010160D5E9020101
:1056280001F01F010AFA01F1C0F8881003A84146E9
:1056380027F8266CFDF7F9FF03980134002800F0DD
:10564800D080D5E9022303F01F0304990AFA03F373
:105658000129C2F8843040F2E2804078062107F838
:10566800270CA7F1270000F083F9002840F0868076
:105678004C4500F0C280A8697D210161016841F0B4
:10568800010101608168C907BDD18168C90704BFEC
:1056980081685FEAC171B6D18168C907F2D0B2E703
:1056A80004208BF8010001208BF802108BF8000011
:1056B80005B0BDE8000FF0BDD5E90201012401F0F5
:1056C8001F01A7F12602022304FA01F1C0F888108D
:1056D800122027F8260C03A84146FDF7A6FF0398D9
:1056E80000287ED0A7F127060DF10C09A7F1260A9C
:1056F8001BE081685246022341F001018160016884
:1057080021F001010160D5E9020101F01F0104FA4D
:1057180001F1C0F88810122027F8260C48464146A7
:10572800FDF783FF039800285BD0D5E9022303F037
:105738001F03049904FA03F30129C2F884306ED9CF
:105748004078062107F8270C304600F011F9C0B957
:10575800A86943F2D4010161016841F001010160C7
:105768008168C907C5D18168C90704BF81685FEA34
:10577800C171BED18168C907F2D0BAE701988442E5
:105788003BDA284600F09AF8C2B2062A3CD1D5E99D
:105798000201012401F01F01A7F12602022304FAE5
:1057A80001F1C0F88810132027F8260C03A84146F9
:1057B800FDF73BFF0398A0B1D5E9022303F01F03CF
:1057C800049904FA03F30129C2F8843027D94078F0
:1057D80000218BF80010CBF8040005B0BDE8000FDD
:1057E800F0BD9DF810008BF8020040F20140ABF8C4
:1057F800000005B0BDE8000FF0BD0120ABF80000C7
:1058080005B0BDE8000FF0BD8BF8010001208BF852
:1058180000008BF8021005B0BDE8000FF0BD41F2A2
:1058280090020120C2F2200207F07EF9F0B503AF22
:105838004DF804BD82B0054690F829000C4648B1E1
:105848002846FFF73AFCC2B2062A09D002B05DF832
:1058580004BBF0BD2846FFF78EFCC2B2062AF5D17C
:10586800D5E90201012601F01F01022206FA01F121
:10587800C0F8881044F0800007F8110C812007F860
:10588800120C05F11C00A7F11201FDF7EAFDC1B2E7
:1058980006290ED1D5E9020101F01F0106FA01F12E
:1058A800C0F88410062085F8284002B05DF804BBD3
:1058B800F0BD042002B05DF804BBF0BDF0B503AF45
:1058C8004DF804BD84B00446D0E9020101F01F017F
:1058D800012604F11C05A7F11E0206FA01F10223B4
:1058E800C0F88810122027F81E0C01A82946FDF7D9
:1058F8009CFE019870B3D4E9022303F01F030299B8
:1059080006FA03F30129C2F884302AD9D4E902122D
:1059180002F01F02407806FA02F2C1F88820A7F1C7
:10592800120107F8110C922007F8120C28460222DF
:10593800FDF797FDC1B206290ED1D4E9020202F0A3
:105948001F0206FA02F2C0F88420062004B05DF8AF
:1059580004BBF0BD9DF80810042004B05DF804BB3A
:10596800F0BD41F290020120C2F2200207F0DCF8FB
:1059780008293FBF0078C84000F00100704780B593
:105988006F4641F2A00041F2CC02C2F22000C2F2FE
:1059980020022A2107F0E6F8F0B503AF4DF804BD60
:1059A80082B0044690F8340001280BD12068002802
:1059B80041D14FF0FF30224642F8200B0968CDE96B
:1059C800001229E00E6804F0A6FE054604F096FED3
:1059D8002068E90718D170BB4FF0FF30214641F825
:1059E800200B6846CDE9006103F0F4FA00281CBFDB
:1059F800684603F016FB20680130206004F080FE42
:105A080002B05DF804BBF0BDA8B94FF0FF302146E5
:105A180041F8200BCDE90061684603F0DBFA002865
:105A28001CBF684603F0FDFA20680130206002B010
:105A38005DF804BBF0BD41F2DC00C2F2200006F0C4
:105A480050FCF0B503AF4DF804BD82B0044690F8A1
:105A58003400012807D12068A0BB4FF0FF30096847
:105A68002060009121E00E6804F055FE054604F020
:105A780045FE2068E90713D120BB4FF0FF300096A0
:105A8800206004F120000190684603F0D8FA2068ED
:105A98000130206004F034FE02B05DF804BBF0BDB4
:105AA80080B94FF0FF300096206004F1200001908B
:105AB800684603F0C4FA20680130206002B05DF83F
:105AC80004BBF0BD41F2DC00C2F2200006F009FC84
:105AD800F0B503AF4DF804BD82B0044690F8340029
:105AE800012819D12068002869D14FF0FF302246DB
:105AF80042F8200B68460968CDE9001203F043FA22
:105B0800002841D06D46284603F056FA284603F08F
:105B18003AFA0028F7D135E00E6804F0FCFD054696
:105B280004F0ECFD2068E90717D1002847D14FF0B1
:105B3800FF30214641F8200B6846CDE9006103F0AB
:105B480022FA68B36D46284603F036FA284603F071
:105B58001AFA0028F7D1012527E080BB4FF0FF3063
:105B6800214641F8200B6846CDE9006103F00BFAA5
:105B780050B16D46284603F01FFA284603F003FA91
:105B88000028F7D1012004E0684603F009FA80F004
:105B9800010021680131216002B05DF804BBF0BD4D
:105BA800684603F0FDF980F00105206801302060A7
:105BB80004F0A6FD284602B05DF804BBF0BD41F232
:105BC800DC00C2F2200006F08CFBF0B503AF4DF804
:105BD80004BD8268012A2ED1C3684269934250D21B
:105BE8000569D0F818C0EC5C0134EC540CF10204DF
:105BF80094421CD80CF580739646934238BF9E4653
:105C0800A34236D3AEEB0403052B10D38B7991F85E
:105C180007E00E7A89882B552B199970090A5E704E
:105C280083F804E0D9700CF10703934207D90220E6
:105C38005DF804BBF0BD07205DF804BBF0BD9445DA
:105C480028D2072105F80C100CF1010191423FBF41
:105C580005226A54836108203CBF5DF804BBF0BD8F
:105C680041F2FC030846C2F2200311461A4606F028
:105C78005BFF41F20C132046C2F22003714606F086
:105C880062FC41F21C141846C2F220041146224656
:105C980006F04AFF41F2EC036046C2F220031146C7
:105CA8001A4606F041FFD0B502AF84B00188062934
:105CB80011D181690968BFF35F8F79B10023827FB1
:105CC800009302AB04461846012303F045FF082061
:105CD800208004B0D0BD072004B0D0BD41F204201C
:105CE80041F22822C2F22000C2F22002222106F04C
:105CF80039FFF0B503AF4DF804BD86B004460888F7
:105D08000D46411E032927D3052825D0072832D15F
:105D1800D5F8AC00D5F8063069898028D5F8022076
:105D2800ADF80C10CDE901236BD8E9680968BFF319
:105D38005F8F00295AD0C0F18003AA7C28440093C1
:105D480000F1240304A803F0F4FD9DF81000C0B38B
:105D58009DF81100D8B92EE0E8680168BFF35F8F9D
:105D6800002943D0AA7C04A800260123009603F04A
:105D7800E0FD2E801FE0E8680168BFF35F8FA9B3DC
:105D88000020AA7C009004A8012303F0D2FDE86853
:105D9800092129800068BFF35F8F38B3A97C0122ED
:105DA80003F04FFCA8690068BFF35F8FF0B1A97FCB
:105DB800012203F046FC0420607206B05DF804BBC3
:105DC800F0BD0598D5E92B120844C5F8AC009042FF
:105DD800F1D3DDE901010623BDF80C202B802060FA
:105DE8006160228106B05DF804BBF0BD41F2042079
:105DF80041F22822C2F22000C2F22002222106F03B
:105E0800B1FE41F22C138021C2F22003802206F059
:105E18009AFBF0B503AF2DE9000F85B00446C868BA
:105E28000D460168BFF35F8F002900F08C8005F1F3
:105E380024068020AA7C009002A8334603F079FD4E
:105E48009DF80800012803D19DF8090060B921E0F8
:105E5800039A812A80F0828002A8314604F0A2FBCE
:105E68009DF8110004281BD1E868092129800068E1
:105E7800BFF35F8F002866D0A97C012203F0E1FB05
:105E8800A8690068BFF35F8F00285CD0A97F012252
:105E980003F0D7FB0420607205B0BDE8000FF0BD29
:105EA800E868BDF810A09DF80F609DF80E90BDF849
:105EB8000CB0DDF808800068BFF35F8F002842D07F
:105EC800A97C002203F0BDFBBEB10420A5F80AA0FE
:105ED8006E7285F80890A5F806B0C5F8028028808B
:105EE800A4F808A0E67184F80690A4F804B0C4F8F1
:105EF800008005B0BDE8000FF0BDBBF1000F11D068
:105F0800BBF1800FB0D80020A5F80AA0C5E92B0B7B
:105F18006872072085F80890A5F806B0C5F80280D1
:105F28002880B7E70620A4F808A028800020C5F834
:105F3800B000E07184F80690A080C4F8008005B035
:105F4800BDE8000FF0BD41F2042041F22822C2F260
:105F58002000C2F22002222106F004FE41F23C1386
:105F68001146C2F220030020802206F0ECFAD0B5D8
:105F780002AF84B00446D0E929C2D0F8AC00D4F806
:105F8800B010BCF1000FA38B08BF8022091A9942F8
:105F980038BF0B46191828D2914226D8A16909683A
:105FA800BFF35F8F39B3A27FBCF1000F009308BF26
:105FB80004F1240C0CEB000302A803F0CDFD9DF8BE
:105FC800080080B90398D4E92B120144C4F8AC1036
:105FD800914208D30021A28BC4F8A4100321904257
:105FE80008BF0221218004B0D0BD41F24C13C2F297
:105FF800200306F0A8FA41F2042041F22822C2F256
:106008002000C2F22002222106F0ACFDB0B502AF9A
:1060180084B001880139072939D8DFE801F0041C68
:106028000A3838383832FFF7A2FF0024204604B077
:10603800B0BDC1680A68BFF35F8F002A41D0817C78
:10604800054610460022002403F0FBFA05202880AC
:10605800204604B0B0BD81690968BFF35F8F81B382
:10606800827F054602A800240123009403F074FDF2
:106078009DF80800002804BF03202880204604B0AB
:10608800B0BD002101240180204604B0B0BDC16824
:10609800092202800A68BFF35F8F92B1817C0446AF
:1060A8001046012203F0CDFAA0690068BFF35F8FA4
:1060B80038B1A17F012203F0C4FA0024204604B0BD
:1060C800B0BD41F2042041F22822C2F22000C2F2FF
:1060D8002002222106F046FD0288042A1CBF072060
:1060E8007047F0B503AF4DF804BD4C68802C03D958
:1060F80002205DF804BBF0BD096800F12402C688DF
:1061080005461046224607F039F80020B44238BF49
:106118002646C5E92B06012028802846FFF727FFD9
:1061280008205DF804BBF0BDF0B503AF2DE9000B06
:106138008CB004460088042846D100200D460790FC
:1061480080218DF82000164603900190099001A83F
:106158000B9009A8069104F12401B4F80680059172
:1061680004F0B3F9C0B208282AD176B105EBC60607
:106178000DF12409D5E900010A6949469047C1B2E1
:1061880008291DD10835B542F4D109A804F0F6F95B
:10619800079880281DD9E068092121800068BFF38D
:1061A8005F8F30B3A17C012203F04BFAA06900682D
:1061B800BFF35F8FE8B1A17F012203F042FA02200A
:1061C8000CB0BDE8000BF0BD07200CB0BDE8000B1B
:1061D800F0BD012200212280404538BF804620467C
:1061E800C4E92B18FFF7C3FE08200CB0BDE8000B6C
:1061F800F0BD41F2042041F22822C2F22000C2F28E
:106208002002222106F0AEFCB0B502AF88B00446E9
:10621800008804282DD1D1E900120020802306909F
:106228008DF81C00029000906846059304F1240341
:10623800E588049304F01BF8C0B2082817D1069823
:10624800802819D9E068092121800068BFF35F8F91
:1062580000B3A17C012203F0F4F9A0690068BFF340
:106268005F8FB8B1A17F012203F0EBF9022008B0DB
:10627800B0BD072008B0B0BD012200212280A8428D
:1062880038BF05462046C4E92B15FFF770FE0820E5
:1062980008B0B0BD41F2042041F22822C2F2200029
:1062A800C2F22002222106F05DFCB0B502AF8AB02E
:1062B80004460088042833D1002080210790A7F1E4
:1062C8000A028DF8200002230390019040F2094051
:1062D800069104F1240127F80A0C01A8059103216D
:1062E800E58803F0D8FEC0B2082817D1079880289F
:1062F80019D9E068092121800068BFF35F8F00B3D6
:10630800A17C012203F09DF9A0690068BFF35F8FAB
:10631800B8B1A17F012203F094F902200AB0B0BD00
:1063280007200AB0B0BD012200212280A84238BF50
:1063380005462046C4E92B15FFF719FE08200AB0C8
:10634800B0BD41F2042041F22822C2F22000C2F27C
:106358002002222106F006FCF0B503AF2DE9000764
:1063680088B004460088042848D1D1E90006802274
:106378008D680021059204F12402069104928DF89B
:106388001C100291009101686846B4F8068003F079
:106398002EFDC0B208282DD18DB106EBC505E94602
:1063A8004FF0000AD6E90001CA6849469047C1B2D1
:1063B80008291FD10836CDF808A0AE42F2D16846A8
:1063C80003F0FDFD069880281DD9E0680921218089
:1063D8000068BFF35F8F30B3A17C012203F031F96D
:1063E800A0690068BFF35F8FE8B1A17F012203F0C5
:1063F80028F9022008B0BDE80007F0BD072008B062
:10640800BDE80007F0BD012200212280404538BFC9
:1064180080462046C4E92B18FFF7A9FD082008B0DC
:10642800BDE80007F0BD41F2042041F22822C2F283
:106438002000C2F22002222106F094FBB0B502AF80
:1064480088B00446008804282CD1096800208022DE
:1064580006908DF81C00029000906846059204F1A1
:106468002402E588049203F065FEC0B2082817D11B
:106478000698802819D9E068092121800068BFF3AF
:106488005F8F00B3A17C012203F0DBF8A0690068EC
:10649800BFF35F8FB8B1A17F012203F0D2F80220C9
:1064A80008B0B0BD072008B0B0BD0122002122808D
:1064B800A84238BF05462046C4E92B15FFF757FD0B
:1064C800082008B0B0BD41F2042041F22822C2F2EF
:1064D8002000C2F22002222106F044FBD0B502AF10
:1064E8000446C068092121800068BFF35F8F78B136
:1064F800A17C012203F0A5F8A0690068BFF35F8FB3
:1065080000281FBFA17F0122BDE8D04003F099B841
:1065180041F2042041F22822C2F22000C2F22002F5
:10652800222106F01FFBF0B503AF4DF804BD82B081
:1065380000228029019203D28DF80410012430E052
:106548004FF6FE760B46C0F2FF368A0966F39F13B4
:10655800B1F5006F07D242F0C0018DF805308DF813
:10656800041002241DE066F39F120D0B0024B4EB07
:10657800114F07D145F0E0018DF806308DF8052060
:1065880003240CE06FF00F0444EA9141042466F3FD
:106598009F158DF807308DF806208DF805508DF879
:1065A8000410066804F096F80546B068B8B94FF0CC
:1065B800FF3006F10C02B06001A8214600F0ACFCE7
:1065C8000446B0680130B060284604F08EF8E0B2A6
:1065D800033818BF012002B05DF804BBF0BD41F2DA
:1065E8008410C2F2200005F07CFEF0B503AF4DF830
:1065F800048D86B091E8705141F26C116A461346D9
:10660800C2F2200183E8705104F081FC06B05DF805
:10661800048BF0BDF0B503AF4DF8048D15460E465A
:10662800046804F057F88046A068B0B94FF0FF300E
:1066380004F10C02A0603046294600F06DFC0546C6
:10664800A0680130A060404604F04FF8E8B2033873
:1066580018BF01205DF8048BF0BD41F28410C2F22E
:10666800200005F03EFEF0B503AF2DE9000F91B014
:10667800804648F69420D1F82090C2F200000068C5
:1066880081451FD8D8F804008A46F8B1D8F8001018
:1066980000EB4000DAE909B50C1D860002E00C3475
:1066A8000C3E0FD02068A842F9D154F8040C594682
:1066B8002A4606F02BFF0028F1D16068062818BF8B
:1066C800814505D911B0BDE8000FF0BDDAE909B57B
:1066D8000AF12C00049044F6454041F26C11C0F2D6
:1066E80000000BAA0A9004A8099044F63340C0F2AF
:1066F8000000C2F22001089002A8079048F2AB609F
:10670800C0F200000395069001A8059000200F90A4
:1067180003200E9005A80D9004200C9041F29C10C7
:10672800C2F220008DE8000B0B90684604F0EFFBE6
:1067380011B0BDE8000FF0BD80B56F4680BDF0B563
:1067480003AF2DE9000B48F69422D1F80080C2F27D
:1067580000021268904503D90020BDE8000BF0BD87
:1067680042681AB30068D1E90194061D02EB4200A1
:10677800850002E00C360C3DEED03068A042F9D11D
:1067880056F8040C4946224606F0C0FE0028F1D10E
:10679800706800218045A0F10600B0FA80F098BF2B
:1067A800012140090843BDE8000BF0BD0120BDE808
:1067B800000BF0BDD0B502AF537A012B07D1137A85
:1067C800012B02BF90F82C3054889C4200D0D0BDD9
:1067D8009379212B04BF9288072A28D0088840F093
:1067E80002000628F3D1C86809220A800068BFF3AE
:1067F8005F8F88B18A7C0C461146012202F021FF86
:10680800A0690068BFF35F8F00281FBFA17F012226
:10681800BDE8D04002F015BF41F2042041F2282221
:10682800C2F22000C2F22002222106F09BF90A8857
:10683800042A18BFD0BDCA88002390F804C00124D8
:1068480090F805E0072AC1F8AC30837900684862FF
:1068580008460C8081F8283081F829E081F82AC0A0
:1068680028BF0722C1F8B020BDE8D040FFF77FBBA2
:10687800D0B502AF84B0537A012B07D1137A012B1C
:1068880002BF90F82C3054889C4201D004B0D0BD8F
:106898009379002B5BD0202B0ED0222B2CD1127891
:1068A8000B8802F0010480F82E40C2F34002062B48
:1068B80080F82F20EAD14DE0D1F8B020812A5CD2AF
:1068C800062A19D991F8282091F8294091F82AE048
:1068D800032A4B6AB1F800C003604FF0000380F848
:1068E80004E028BF1A46052C827138BF2346BCF144
:1068F800060F4371CAD12DE0088840F0020006282F
:10690800C4D1C86809220A800068BFF35F8F98B1B4
:106918008A7C0C461146012202F093FEA0690068A9
:10692800BFF35F8F00281FBFA17F012204B0BDE81D
:10693800D04018BF02F085BE41F2042041F228225F
:10694800C2F22000C2F22002222106F00BF90888C8
:1069580006289BD188690368BFF35F8F002BEBD0B3
:106968008A7F0020009002A80C461946012303F0F4
:10697800F3F80820208004B0D0BD41F25C13114622
:10698800C2F220030020802205F0DDFDF0B503AF40
:106998004DF8048D84B090F82C60804600250220C4
:1069A800CDE900050C46084631460222022303F0D1
:1069B80017FBC0B2082863D12046314602220223C1
:1069C800009503F000FDC0B2082859D141F2BC126D
:1069D8002046C2F220022421032303F05CFBC0B24C
:1069E80008284DD140F2A1322046C2F220022421CB
:1069F800022303F050FBC0B2082841D10620A7F1BA
:106A0800160207F8156C242198F82D60032307F85F
:106A1800160C204607F8146C03F03DFBC0B208289A
:106A28002ED10120A7F1130227F8130C20462421A8
:106A3800032307F8116C03F02EFBC0B208281FD1FE
:106A480008F108012046FFF7C0F8C1B2082917D19C
:106A580000203146009020460A22002303F0B3FCB0
:106A6800C0B208280CD108F120012046FFF7ADF884
:106A7800C1B2082904D108F114012046FFF7A5F88E
:106A880004B05DF8048BF0BDD0B502AF45F20C023E
:106A98000C46D1E90113C2F200024FF0000CD0609D
:106AA80082E80A1041F2C011C2F22001104603F038
:106AB80002FF002801BF216848F69422C2F20002B2
:106AC8001160D0BD80B56F46002080BD80B56F468F
:106AD80080BD80B56F46082080BD80B56F4680BDFB
:106AE800F0B503AF4DF804BD84B048F24C540D46E0
:106AF8000646D0E900014B6AC2F2000421462A4644
:106B08009847208840F0020106291CD1697AF1B122
:106B1800218841F00200062815D1E068092121806A
:106B28000068BFF35F8F002872D0A17C012202F0B9
:106B380088FDA0690068BFF35F8F002868D0A17F37
:106B4800012202F07EFD04B05DF804BBF0BD2A7A94
:106B5800A9790AB3012A10D0022A08BF0029D7D17F
:106B68006988D4F8DC0001F08F0102F028FD218843
:106B78000429CED1A084002025E001B30A2908BF4A
:106B88000428C5D1E1880020012284F8240022804D
:106B9800002918BF01211CE039B306291FD0082994
:106BA800B6D194F8E20001210391A7F11A01023845
:106BB8000291B0FA80F0400907F81A0C23E0042883
:106BC800A6D10020A084E18801222280022928BFC2
:106BD8000221C4E92B012046FFF7C9F998E76A8822
:106BE8003046298800F0D6F892E794F8E0000222AF
:106BF80094F8E1100392A7F11A0240000292C0B281
:106C0800084327F81A0C02A92046FFF765FA7FE720
:106C180041F2042041F22822C2F22000C2F22002EE
:106C2800222105F09FFF0000B0B502AF84B048F202
:106C38004C540B6AC2F20004154621469847228834
:106C480042F0020006282AD1697A51B3228842F01C
:106C58000200062823D1E068092121800068BFF3DB
:106C68005F8F88B1A17C012202F0EBFCA06900686B
:106C7800BFF35F8F00281FBFA17F012204B0BDE8CA
:106C8800B04018BF02F0DDBC41F2042041F22822D6
:106C9800C2F22000C2F22002222105F063FF04B0F4
:106CA800B0BD2B7A95F806C029885BB3012B12D0AA
:106CB800022BCED1BCF1010F35D0BCF1030F08BFB8
:106CC8000029C6D169880122D4F8DC0001F08F01BF
:106CD80002F0B7FC50E0BCF10B0F08BF0029B8D197
:106CE800062AB3D1A0690168BFF35F8F0029CBD012
:106CF800A27F0020009002A8012302F02DFF0820A7
:106D08002080A3E7ACF10103082BA2D8DFE803F049
:106D1800060521051705050528009AE701297FF4CE
:106D280098AF002019E000297FF493AF698800220A
:106D3800D4F8DC0001F08F0102F083FC1CE04A1E4D
:106D480092B27F2ABFF485AFD4F8DC0002F005FDCB
:106D58000FE001297FF47DAF012084F8E0000BE00B
:106D680021B101297FF475AF022003E094F8E21005
:106D780031B1012084F8E2002046FEF794FF65E770
:106D880006287FF464AF48F24C50C2F20000FFF7C7
:106D9800A5FB5BE7F0B503AF4DF804BD84B048F23E
:106DA8004C568CB2C2F2000606F1B4034FF0FF3520
:106DB80005EB14240E2C009300F26880DFE804F041
:106DC80008271366666666666666666666663700E0
:106DD80048F24C506946C2F20000FFF72FFB04B09E
:106DE8005DF804BBF0BDCCB2032C3DD806F1B80168
:106DF800DFE804F0022F2B3248F24C50C2F20000B8
:106E080004B05DF804BBBDE8F040FFF74EBA0121BD
:106E1800CDE902016846019048F24C5001A9C2F23E
:106E28000000FFF799FA04B05DF804BBF0BD48F222
:106E38004C520146C2F200021046012204B05DF82D
:106E480004BBBDE8F040FFF76FB906F1BC0306F1DB
:106E5800C001186830B919E006F1C40306F1C80189
:106E6800186898B1096804E0D0E900035B6998479D
:106E780060B1CDE9010148F24C5001A9C2F200000D
:106E8800FFF7C2F904B05DF804BBF0BD308840F0EC
:106E980002000628A3D1F068092131800068BFF3F9
:106EA8005F8F98B1B17C012202F0CBFBB06900681A
:106EB800BFF35F8F00281FBFB17F012204B05DF8C8
:106EC80004BB1CBFBDE8F04002F0BBBB41F204208C
:106ED80041F22822C2F22000C2F22002222105F04B
:106EE80041FE80B56F460A46D0E90001BDE8804002
:106EF80003F0F4BE80B56F460068BDE8804005F039
:106F08004FBE80B56F460021C185817108218180FF
:106F18004FF4FA51016080BDF0B503AF2DE9000FC1
:106F280081B0146880460122BFF35F8F04F21146D6
:106F3800D6E84F0FC6E8432F002BF9D1BFF35F8F78
:106F480020B1012001B0BDE8000FF0BDD4F8000465
:106F5800BFF35F8FD4F80424BFF35F8F904204D24D
:106F6800C34312EB030A0BD177E0B0F5806F05D16C
:106F7800012A72D9A2F1010A002001E0C0F5806A55
:106F8800D146514538BF89468B4609EB000120445C
:106F9800BFF35F8FC4F80C1441464A4606F0EEF87A
:106FA80094F8110404F20C45BFF35F8F58B3D4F87A
:106FB8000004BFF35F8FBFF35F8F55E8001F45E8FC
:106FC8000012002AF9D1BFF35F8FB0F5806FD4F8B3
:106FD8000824BFF35F8FD4F80C14BFF35F8F01D080
:106FE800814203D3914205D94FF48060BFF35F8F8C
:106FF800C4F80804BFF35F8FC4F800140020BFF37F
:107008005F8F84F81104D3456BD908EB0901ABEB0A
:10701800090C0123BFF35F8FD6E84F2FC6E8403F26
:107028000028F9D1002ABFF35F8F7FF48AAFD4F824
:107038000034BFF35F8FD4F80424BFF35F8F93420B
:1070480003D2D843121813D107E0B3F5806F0DD1DE
:10705800012A02D9013A00230AE000200021BFF3E7
:107068005F8F317001B0BDE8000FF0BDC3F58062DD
:10707800944538BF6246D018BFF35F8FC4F80C043C
:10708800E01806F07BF894F81104BFF35F8F40B363
:10709800D4F80004BFF35F8FBFF35F8F55E8001F7C
:1070A80045E80012002AF9D1BFF35F8FB0F5806F71
:1070B800D4F80824BFF35F8FD4F80C14BFF35F8FA4
:1070C80001D0814203D3914205D94FF48060BFF3C8
:1070D8005F8FC4F808040320BFF35F8FC4F800145F
:1070E800BCE7032001B0BDE8000FF0BDF0B503AF69
:1070F8002DE9000F8DB041F2382048F24C5648F681
:107108004829C2F22000C2F200060490C2F2000927
:1071180009F10800D6F8DC10039005A802F061FB1D
:1071280096F8E210BDF81400032910D100284FF09A
:10713800000418BF032800F0AD8096F8E310042976
:1071480000F09581042286F8E21086F8E3200024F6
:10715800DFE800F0A003221CA000D6F8DC0002F053
:10716800CBFC4FF4806086F8E440A6F8E2000820E3
:10717800A9F80C004FF4FA5086F8E0403480A9F8DA
:10718800364089F80E40C9F8080083E0032086F8E5
:10719800E31086F8E2007DE0BDF81600BDF818A0FF
:1071A800BDF81AB0029040EA0A0040EA0B05E80769
:1071B80046D05FEACA7005D048F24C50C2F20000CF
:1071C800FEF724FF5FEACB700AD10298C00713D1FB
:1071D80004208DF825009DF82500042817D12DE0FE
:1071E80048F24C5107A8C2F20001FEF712FE9DF8C2
:1071F800250004280BD121E048F24C5107A8C2F21F
:107208000001FEF776FD9DF82500042816D09DF8AC
:107218002300002800F00D8180280FD1DDE9071236
:10722800BDF82400ADF8300003A8CDE90A120AA978
:10723800FFF756FC25F001051DB926E025F00105EC
:107248001DB34FF00208012418EA0B0F01D02821C2
:1072580004E0029818EA000F05D02C21DDE90302AA
:1072680052582146904718EA0A0F05D0DDE9030174
:107278000A6B64F07F01904725EA0805280404D0CA
:1072880001344FEA48080F2CDED9DDE90301C9694A
:10729800884701240021D6F8DC000A910AA9FEF7E4
:1072A80017FC99F8001096F8E220022A38D181B923
:1072B800D6F8DC100546084602F051F90021D6F848
:1072C800DC000A910AA9FEF767FB2846012189F824
:1072D8000010D9F81C100968BFF35F8F002900F06F
:1072E800BB8044EA0005002099F822200123009081
:1072F8000AA8012402F01DFB75B1D9F80400BFF3F8
:107308005F8F00F58261D1E84F2FC1E8434F002B12
:10731800F9D1BFF35F8F92B10DB0BDE8000FF0BD9A
:1073280031B10021D6F8DC000A910AA9FEF789FBE1
:10733800002089F800000DB0BDE8000FF0BDD0F8BE
:107348000064BFF35F8FD0F80824BFF35F8FD0F8D5
:107358000434BFF35F8F934206D19E423EBFBFF312
:107368005F8F0023C0F804349E4228BF32469A42F9
:1073780007D10020BFF35F8F08700DB0BDE8000F84
:10738800F0BDD9F82810D9F804400968BFF35F8F19
:10739800002961D0D61A99F82E2003440AA8354648
:1073A800B6F5007F28BF4FF40075009502F0D4FBB6
:1073B8009DF82800012810D194F81004BFF35F8FBE
:1073C8000028A9D004F20440BFF35F8F50E8001FE3
:1073D80040E80012002AF9D122E00B9894F8101422
:1073E800BFF35F8FB0420DD2002995D004F204415B
:1073F800BFF35F8F51E8002F024441E80023002BC0
:10740800F8D10DE000293FF487AF04F20440BFF340
:107418005F8F50E8001F314440E80012002AF8D17D
:107428000020BFF35F8F84F810040DB0BDE8000F93
:10743800F0BDBDF82420DDE90301ADF830200AAA2B
:10744800DDE90734CDE90A34FFF7EEFB25F0010545
:10745800002D7FF4F6AE18E741F2042041F228220D
:10746800C2F22000C2F22002222105F07BFB41F289
:10747800D81041F2F412C2F22000C2F220021C21FC
:1074880005F0D2F8F0B503AF4DF804BD0E46002163
:107498001546044600F060FC284640F2E24100F040
:1074A80012FD304600F061FC40F63C252146C2F250
:1074B800200500222846366800F0F1FCA81C214669
:1074C800002200F0ECFC281D2146002200F0E7FC19
:1074D800A81D2146002200F0E2FC05F10800214623
:1074E800002200F0DCFC05F10A002146002200F031
:1074F800D6FC05F10C002146002200F0D0FC05F175
:107508000E002146002200F0CAFC05F110002146B9
:10751800002200F0C4FC05F112002146002200F010
:10752800BEFC05F114002146002200F0B8FC05F16C
:1075380016002146002200F0B2FC05F11800214691
:10754800002200F0ACFC05F11A002146002200F0F0
:10755800A6FC05F11C002146002200F0A0FC05F164
:107568001E002146002200F09AFC2068416989012A
:1075780007D5416921F000714161204600F0DBFB2D
:1075880020684169012221F06051416120688169C8
:1075980062F30D318161204600F0CDFB206841691E
:1075A80041F000714161204600F0C5FB4FF4805066
:1075B8003060642030604FF40050706030680028FC
:1075C80009D4306800285CBF3068002803D43068CC
:1075D800B0F1FF3FF2DC20680122016962F3020189
:1075E8000161204600F0A7FB2068416921F4E051C1
:1075F8004161204600F09FFB2068816941F44021E9
:1076080081612068416921F000714161204600F0E4
:1076180092FB206841F26C25C2F2200500224169E4
:1076280041F4407141612846214600F038FCA81C0D
:107638002146002200F033FC281D2146002200F0DC
:107648002EFCA81D2146002200F029FC20680226F5
:1076580041F284250022C2F22005816B66F3D841ED
:1076680081632068816B41F480218163284621462B
:1076780000F015FCA81C2146002200F010FC281D73
:107688002146002200F00BFCA81D2146002200F034
:1076980006FC206841F28C250322C2F2200581698C
:1076A80066F3051181612068816962F39C618161DB
:1076B80028462146002200F0F2FBA81C21460022A1
:1076C80000F0EDFB281D2146002200F0E8FBA81D74
:1076D8002146002200F0E3FB05F1080021460022C4
:1076E80000F0DDFB2068172240F62C15C2F22005B9
:1076F800C16962F30501C16120680022C16941F0D6
