:0200000460009A
:100000004643464200000156000000000101020084
:1000100000000000000000000000000000000000E0
:1000200000000000000000000000000000000000D0
:1000300000000000000000000000000000000000C0
:1000400000000000010403000000000000000000A8
:100050000000200000000000000000000000000080
:100060000000000000000000000000000000000090
:100070000000000000000000000000000000000080
:10008000EB04180A063204260000000000000000FD
:10009000050404240000000000000000000000002F
:1000A0000000000000000000000000000000000050
:1000B0000604000000000000000000000000000036
:1000C0000000000000000000000000000000000030
:1000D00020041808000000000000000000000000DC
:1000E0000000000000000000000000000000000010
:1000F0000000000000000000000000000000000000
:1001000000000000000000000000000000000000EF
:100110000204180804200000000000000000000095
:1001200000000000000000000000000000000000CF
:10013000600400000000000000000000000000005B
:1001400000000000000000000000000000000000AF
:10015000000000000000000000000000000000009F
:10016000000000000000000000000000000000008F
:10017000000000000000000000000000000000007F
:10018000000000000000000000000000000000006F
:10019000000000000000000000000000000000005F
:1001A000000000000000000000000000000000004F
:1001B000000000000000000000000000000000003F
:1001C000000100000010000001000000000000001D
:1001D000000000000000000000000000000000001F
:1001E000000000000000000000000000000000000F
:1001F00000000000000000000000000000000000FF
:10020000D4D4D4D4D4D4D4D4D4D4D4D4D4D4D4D4AE
:10100000D10020400020006000000000000000002F
:1010100020100060001000600000000000000000D0
:101020000000006038AC000000000000EFBEADDE44
:10103000124880F3088812481249016000F036F81F
:10104000114812490022814201D004C0FBE7104838
:101050001049114A814202D008CA08C0FAE70F4875
:101060004FF47001026842EA01020260BFF34F8F41
:10107000BFF36F8F00F014F800DE00000040002086
:1010800008ED00E000400020005000209C8A002075
:10109000B84200204C44002038AC006088ED00E0ED
:1010A00040F6B92CC0F2000C6047D4D4204840F27E
:1010B0009C41884219D040F24C418842CCBF1D4A25
:1010C0001D4A1E4B5360136823F0800313601C48B5
:1010D0001C49C1BF1C480A0C8264C1F30F01416462
:1010E000016C41F00401016402E0184815490160F7
:1010F0001748184A824205D01749814202D008CACF
:1011000008C0FAE71548164A824205D015498142BF
:1011100002D008CA08C0FAE71348144A824205D030
:101120001349814202D008CA08C0FAE7704700009C
:10113000240400000080034000C00B4020C528D9D3
:1011400000C00A40AAAAFAFF00400E4060004F44C7
:1011500000000000B822006060770000004000201E
:1011600000200060B842002000002020189A006093
:1011700020122020D4D4D4D4D4D4D4D4D4D4D4D40D
:10118000D4D4D4D4D4D4D4D4D4D4D4D4D4D4D4D41F
:10119000D4D4D4D4D4D4D4D4D4D4D4D4D4D4D4D40F
:1011A000D4D4D4D4D4D4D4D4D4D4D4D4D4D4D4D4FF
:1011B000D4D4D4D4D4D4D4D4D4D4D4D4D4D4D4D4EF
:1020000000400020311000601936000043770000C6
:1020100019360000193600001936000000000000D3
:102020000000000000000000000000001936000061
:102030001936000000000000193600000100000001
:102040001936000019360000193600001936000054
:102050001936000019360000193600001936000044
:102060001936000019360000193600001936000034
:102070001936000019360000193600001936000024
:102080001936000000000000000000000000000001
:102090001936000019360000193600001936000004
:1020A00019360000193600001936000019360000F4
:1020B00019360000193600001936000019360000E4
:1020C00019360000193600001936000019360000D4
:1020D00019360000193600001936000019360000C4
:1020E00019360000193600001936000019360000B4
:1020F00019360000193600001936000019360000A4
:102100001936000019360000193600001936000093
:102110000000000019360000000000001936000021
:102120001936000019360000193600001936000073
:1021300019360000193600000000000019360000B2
:102140001936000019360000193600001936000053
:1021500019360000193600000000000000000000E1
:102160001936000019360000193600001936000033
:102170001936000019360000193600001936000023
:102180001936000019360000193600001936000013
:102190001936000019360000193600001936000003
:1021A00019360000193600001936000019360000F3
:1021B00019360000193600001936000019360000E3
:1021C0001936000019360000193600000000000022
:1021D00019360000193600001936000019360000C3
:1021E00019360000193600001936000019360000B3
:1021F00019360000193600001936000019360000A3
:1022000019360000A500000019360000193600003C
:102210001936000019360000193600001936000082
:102220001936000019360000193600001936000072
:1022300019360000193600001936000000000000B1
:1022400000000000193600001936000019360000A1
:102250001936000019360000193600001936000042
:102260001936000019360000193600001936000032
:102270001936000019360000193600001936000022
:102280001936000019360000193600001936000012
:102290001936000019360000193600001936000002
:1022A0001936000019360000193600000000000041
:0822B000193600001936000088
:1022B800F0B503AF2DE9000705F0A0FF05F0F0FF2A
:1022C80048F688280446C2F20008BFF35F8F07E08B
:1022D80071685046884705F0E3FF0446BFF35F8FF7
:1022E800D8F800507DB3D5F8089005F0ADFFA9687F
:1022F800401AB0F1FF3F6FEA00014FEAD17129732C
:1023080015DD2869C8F80000D5E900100968884774
:102318000646287B04F001008A4605F0CCFF002E13
:10232800D6D105F091FFB0EB0900D4D508E004F050
:10233800010005F0C0FF05F087FFB0EB0900CAD522
:10234800BDE80007F0BD2046BDE80007BDE8F04045
:1023580005F0B1BF80B56F4641F22820C2F22000D7
:10236800006880470020BDE8804005F0BDBF80B50B
:102378006F46084640F24861C2F220010222BDE8D9
:10238800804006F099BB80B56F4645F200000121F8
:10239800C2F200000068BFF35F8F80F8751080BD3F
:1023A80080B56F4694B045F200094FF00008C2F2BC
:1023B80000094FF0010B4FF0030A01E0BFF32F8F24
:1023C800D9F8005095F874000028F9D005F1750087
:1023D800D0E84F1F0129F1D1C0E8418F0029F7D17A
:1023E800BFF35F8F95F8700098B195F86C00A0B1B5
:1023F800032840F02A8295F8680080B1032840F04D
:102408002A8295F8650005F1200658B103284DD0B9
:1024180027E22968C5E9011807E0EE6812E0D5E966
:10242800044617E0A96B2C6E23E0D1E900014FF4B4
:10243800FA7601F01F010BFA01F1C0F88C1085F84B
:102448006C80EE6048F6882485F86880C2F2000443
:10245800C5E9044605F0F8FE014685F865802C6656
:102468008219002E18BF511CA96305F12006C5E981
:102478000601284640F83C1F80F828802179002969
:1024880000F0D081294641F8408FA1F1200C01F1DC
:1024980018030A4681F824B042F81C8F8CE819000A
:1024A80041E9052441F80C2CC1E9051105F0CCFEE1
:1024B80036683168401AB0F1FF3F0EDD686D01687B
:1024C800002960D0007B002818BF85F8648095F843
:1024D8006400002840F09280B8E0686AD0F800A054
:1024E800DAF80000002840F0878140F65070CB46AB
:1024F800C2F22000016840F2D700C0F2000088470D
:102508000446DAF800008946366800281EBFC1680C
:10251800DAF804008847CAF810808AF80C80CAE9FB
:102528000196AE6ACAF8004005F0BAFEBFF35F8FA5
:10253800D94631684FF0010B002948D0DAF8082055
:102548008B68D31A41D40B69002B00F04E819E682A
:10255800961B1E4614D41969002945D08E68961B0F
:102568000CD40B69002B00F040819E68961B00F18B
:102578003A811969C1B38E68961BE4D50E4619468F
:10258800CAF8106031E1D5E90C6085F86480046808
:1025980005F086FEBFF35F8F316851B30A698C423C
:1025A80001D1326025E022B3134694421FD011694D
:1025B800F9B18C4215D00A69DAB1944216D0116982
:1025C800B9B18C420DD00A69EDE7CAF81010C6F807
:1025D80000A005F070FEE86AC0F800A005F02AFE29
:1025E8000AE10B46114602E01946FEE013461A6955
:1025F8000A6105F060FE95F8640038B3D5E90C600F
:10260800046805F04DFEBFF35F8F3168E1B10A69D8
:102618008C4201D1326017E0B2B11346944211D016
:10262800116989B18C4209D00A696AB1944208D00B
:10263800116949B18C4201D00A69EDE70B46114690
:1026480000E013461A690A6105F035FE286C85F822
:10265800648000281EBFC168686C884748F69420CB
:1026680085F86CB085F868B0C2F2000085F865B0EE
:10267800006802282FD946F20530C0F20000019008
:1026880005F10800009040F2E860C2F2200005F071
:1026980036FFD0E900126B4680680DF1200CCDE9B9
:1026A8000EB340F2E06340F2F866C2F220038CE811
:1026B800060402A9C2F22006CDE902B0781E0D93E5
:1026C8000E23CDE910B80C930B96CDE90638CDE969
:1026D800048605F033FF2C4646F6B75154F8080F28
:1026E800CBF2DB6144F62512C2F292424143914299
:1026F80035D248F69421C2F20001096802292ED386
:1027080046F20530C0F20000CDE9004040F22870E2
:10271800C2F2200005F0F3FED0E900126B46806893
:102728000226CDE90EB340F22073C2F220030A96C6
:1027380040F2F866CDE90812CDE902B0781E02A988
:10274800C2F220060D930E23CDE910B80C930B9618
:10275800CDE90638CDE9048605F0F0FE206843F29D
:10276800A77146F22C42CEF6BD11C0F62132414384
:10277800914234D848F69421C2F20001096871B335
:1027880046F20530C0F20000CDE9004040F25C702E
:10279800C2F2200005F0B3FED0E900126B46806853
:1027A8000DF1200CCDE90EB340F2547340F2F866F7
:1027B800C2F220038CE8060802A9C2F22006CDE97D
:1027C80002B0781E0D930E23CDE910B80C930B962A
:1027D800CDE90638CDE9048605F0B0FE2068013061
:1027E8006968A86021E6CAF81030C1F810A005F0A1
:1027F80062FDE86AC0F800A040F650704FF0030A86
:10280800C2F22000C168032085F8700085F86C00CA
:1028180085F8680085F8650040F2D700C0F200002E
:102828008847CDE501210020039140F2C871C2F22A
:102838002001069005900420029140F2D071049086
:1028480002A8C2F2200106F0E8FD40F23860C2F2A8
:10285800200006F09EFD40F2F070C2F2200006F063
:1028680098FD40F2E070C2F2200006F092FDF0B54B
:1028780003AF2DE90007ADF5DA6D02AC204602F092
:102888007AFE0DF5A26521464FF4E072284606F05F
:10289800D1FF76A8294600F07DFB80AB7D980DF529
:1028A800E47C0ECB8CE80F0072A802F052FE814641
:1028B8000020789004207790032076904FF47A6077
:1028C800CDF80C0548F23460C2F200008A4600F2E6
:1028D80012400122BFF35F8FD0E84F1FC0E8432F9B
:1028E800002BF9D10029BFF35F8F6BD0DDE9734668
:1028F800759D002C40F090804EF21000CEF2000042
:10290800016821F001010160016841F004010160E2
:1029180042F2BF71C0F209014160016841F0020151
:102928000160016841F00101016048F68820012139
:10293800C2F20000BFF35F8F017145F20000BFF3E0
:102948005F8FC2F20000006800F17402D2E84F3FC6
:1029580043B9BFF35F8FC2E8431FB3B1D2E84F3F1B
:10296800002BF8D040F2886040F24C63C2F220009D
:10297800BFF32F8F009040F25C60C2F22000C2F2D9
:10298800200376AA2B2106F0CCFC0021BFF35F8F31
:1029980080F8701041F22021C2F22001012201606A
:1029A800BFF35F8F80F8752041F22820C1E9009AB3
:1029B800C2F22000066005F089FC0DF5DA6DBDE86D
:1029C8000007F0BD48F234664FF48061C2F2000699
:1029D800304606F0B7FF05F063FC76A9804630461E
:1029E80001F06EFE18B1DDE97346759D0EE048F200
:1029F800346273A80DF20C53C2F20002012100F0F8
:102A08001FF842F675260024C0F20006404605F07D
:102A180052FC002C3FF470AF40F2A86040F298637B
:102A2800C2F220007895009040F25C60CDE97646CD
:102A3800C2F22000C2F2200376AA2B2106F071FC14
:102A4800F0B503AF2DE9000FDFB048F64C26D0F8FB
:102A580000C0C2F20006D0F808E046F2000032607A
:102A6800C2F2000041F238128618BFF35F8F56E8B1
:102A7800002F42F0004546E80054002CF7D1002A08
:102A8800BFF35F8F00F1658148F200080124C2F2AC
:102A9800000808F5A066BFF35F8FD6E84F5FC6E869
:102AA800424F002AF9D1002DBFF35F8F40F04081DB
:102AB80041F2381253900244599200F5865200F5BB
:102AC80080500DF5A679009306234FF0000BCDE951
:102AD80054308A4648460121CDE95C86CDE95ACE74
:102AE800ADF878B15893CDE9563203F076F9B9E8E4
:102AF8007E000DF1040808F104007EC099E87E000C
:102B08007EC0012051468DF838004046CDF804B00B
:102B180004F0BBFA9DF83800012822D1019800285A
:102B280040F011814FF0FF3053AD019000205390D9
:102B38000098066808F120005490284604F065F8CB
:102B4800284604F01FF82846514604F036F828466F
:102B5800012104F08BF82846314604F072F8284623
:102B680051E005F0BEFB054605F0AEFB0198E9070C
:102B780028D1002840F0E7804FF0FF3053AE019095
:102B8800002053900098056808F1200054903046C2
:102B980004F03BF8304603F0F5FF3046514604F0A8
:102BA8000CF83046012104F061F83046294604F05B
:102BB80048F8304604F037F801980130019005F0E4
:102BC80085FB25E0002840F0BE804FF0FF3053AE73
:102BD8000190002053900098056808F12000549057
:102BE800304604F012F8304603F0CCFF3046514628
:102BF80003F0E3FF3046012104F038F83046294657
:102C080004F01FF8304604F00EF8019801300190E6
:102C180048F2045A4FF00009C2F2000A4FF48060EB
:102C2800AAF804004146CAF808900AF10C00CAF84C
:102C380000905CC95CC07CC97CC091E87C005146AE
:102C48007CC040464FF40072CAF8449000F0C0FBC4
:102C5800B8E87E0048F65020C2F200007EC098E82E
:102C68007E007EC032200FACCDF846010220C4F2AF
:102C7800000049AACDF842011020ADF8400145F600
:102C88002400C2F2DD7051464F9009204C9040F26A
:102C98006C70C2F22000CDF834914B902046CDF8EC
:102CA800249100F0A7F8469D8121284604F072F887
:102CB8002846012104F06EF82846822104F06AF8BB
:102CC8002846022104F066F82846832104F062F8B9
:102CD8002846032104F05EF82846842104F05AF8B7
:102CE8002846042104F056F82846852104F052F8B5
:102CF8002846052104F04EF82846862104F04AF8B3
:102D08002846062104F046F82846872104F042F8B0
:102D18002846072104F03EF848F24C502146C2F2FA
:102D28000000E82206F086FD5FB0BDE8000FF0BDA8
:102D380040F6B40040F63412C2F22000C2F220027B
:102D4800202106F0C8FA40F22860C2F2200006F0FE
:102D580015FA40F6440040F66402C2F22000C2F2BE
:102D680020021F2106F0B7FA80B56F46A4B005F01F
:102D7800ABFA48F690200121C2F2000048F69C24E4
:102D880001704EF27140CEF20000F02101704EF257
:102D98000C10CEF200004FF4003101600020ADF8B5
:102DA800740045F20000C2F200006946016044F276
:102DB8000000C2F20004C2F20000A04203D905F0EC
:102DC8008DFAA04203D9FFF752FDFFF7E9FA012176
:102DD80000201F9140F62C01C2F220012290219080
:102DE80004201E9140F6340120901EA8C2F2200152
:102DF80006F013FBF0B503AF2DE9000F85B00446CC
:102E08008868002840F0868092F821B04FF0FF30A3
:102E180001F10C068860002091468846CDE9000B38
:102E28000290304600210122002304F08FFD0D4658
:102E3800D8F80810C00701F10101C8F8081040F0DF
:102E48008180002966D14FF0FF308021C8F8080042
:102E58000020CDE9000B012202903046802304F0C7
:102E680075FD8A46D8F80810C00701F10101C8F8B5
:102E780008107BD1D8F80000002851D14FF0FF305E
:102E88000029C8F8000051D1C8F80800304604F0FD
:102E98002CFDD8F808000130C8F808004CD34FF0D2
:102EA800FF308021C8F8080004F12400BFF35F8FC9
:102EB800C8F84460BFF35F8F06F044FDC4F8DC60D7
:102EC800AC46B9E86E0004F1B4006EC099E86E0033
:102ED8006EC008F144010020A161E160042184F87A
:102EE800E200C4E92B00C4F8A400A4F81F0084F889
:102EF8001EA0A4F81CB0A4F8130084F812C0A4F80B
:102F080010B02080A4F8E310A4F8E00005B0BDE8F4
:102F1800000FF0BD40F64410C2F2200006F02EF972
:102F280040F67410C2F2200006F028F940F664104A
:102F3800C2F2200006F022F940F65410C2F2200036
:102F480006F01CF940F6B41040F69413C2F22000C3
:102F5800A7F11E02009040F67400C2F22000C2F2EF
:102F68002003202107F81E5C06F0DBF940F6A410C8
:102F780040F69413C2F22000A7F11D02009040F61B
:102F88007400C2F22000C2F22003202107F81DAC11
:102F980006F0C7F9F0B503AF2DE9000FADF5337DA5
:102FA8008B46044601F1340038310BF1540202F02B
:102FB80085F8DBF8C80002F055FDDBF82801016848
:102FC80041F001010160DBF82811086820F00200D7
:102FD80008600020C1F80801C1F81801C1F82801EB
:102FE8001C91C1F83801DBF8C060306820F001009E
:102FF8003060306840F4004030603068000409D523
:103008003068000444BF30685FEA004002D5306889
:103018000004F2D43F20B060306820F00100306036
:10302800DBF8C450286820F001002860286840F4C4
:10303800004028602868000409D52868000444BFB7
:1030480028685FEA004002D528680004F2D43F20CF
:1030580040F26341A860286820F001002860DBF88E
:103068000080DBF85C011B90D8F8480040F00100B4
:10307800C8F84800D8F844000843C8F84400D8F80D
:103088004400012161F38300C8F84400D8F84400E3
:1030980020F08000C8F84400D8F8480040F020002C
:1030A800C8F84800D8F8440040F44040C8F8440044
:1030B800D8F8440040F44470C8F84400D8F84800F0
:1030C80040F08000C8F84800D8F8580000070CD035
:1030D800D8F8580000071CBFD8F858005FEA0070FD
:1030E80003D0D8F858000007EED1D8F8480040F2CD
:1030F800634140F02000C8F84800D8F8440020F4A4
:103108004040C8F84400D8F8440020F4447000F562
:103118008870C8F84400DBF80490D9F8480040F0FB
:103128000100C9F84800D9F844000843C9F8440028
:10313800D9F84400012161F38300C9F84400D9F8A3
:10314800440020F08000C9F84400D9F8480040F055
:103158002000C9F84800D9F8440040F44040C9F8B4
:103168004400D9F8440040F44470C9F84400D9F840
:10317800480040F08000C9F84800D9F85800000716
:103188000CD0D9F8580000071CBFD9F858005FEADE
:10319800007003D0D9F858000007EED1D9F84800DC
:1031A80002220F2340F02000C9F84800D9F8440053
:1031B80020F44040C9F84400D9F8440020F4447091
:1031C80000F58870C9F84400DBF87C111DA802F0EE
:1031D8007EFBDBF868112FA84FF4805202F088FCC0
:1031E800DBF89C000990DBF8A4000890DBF8A80045
:1031F8000490DBF8AC000390DBF884010290DBF864
:1032080090010190DBF89801DBE91712009033A8D0
:1032180002F0EDFBDBE90D10DBF830211A90DBF84A
:1032280054001990DBF880000A90DBF8E000179052
:10323800DBF8E8001690DBF8F0001590DBF8F400F6
:103248001490DBF8F8001390DBF8FC000F90DBF823
:1032580000011290DBF804011190DBF808011090CE
:10326800DBF80C010D90DBF814010C90DBF81C0165
:103278000E90DBF884000790DBF8880006904FF486
:103288007040189111460B92A2F88C010F22A1F8F8
:103298008E21DBF834110591A1F88C01A1F88E215B
:1032A8000F21DBF838A1AAF88C01AAF88E214FF477
:1032B8000072DBF83CB1ABF88C01ABF88E1133A986
:1032C80004982062039860620298A0620198E06204
:1032D800009820631C98C4E90465C4E90000C4E9A7
:1032E80002000998A0610898E06104F5967006F05C
:1032F800A1FA1B990BF160020B9D0AF1600601F11E
:1033080034005031C4E927A605F16006C4E9CB10A2
:103318000BF59070C4F8BC000BF1C0010A98C4F812
:10332800C0000798C4F8C4000698C4E92D2104F128
:10333800C80181E801030AF590700AF1C001059AF5
:10334800C4E9291005F5907002F59073C4E9253A8F
:1033580005F1C003C4E91F300F9802F1C00C606585
:1033680002F160010C98A0650D98E065119820663F
:10337800109860660E98A0661298C4E91B05189804
:1033880060631A98A0631998E063179820641698E8
:1033980060641598A0641498E0641398C4E9231C29
:1033A8001DA9206504F1D400C4E921224822C4E9FA
:1033B8002BBBC4E91D5606F03DFA2FAB04F58E7CF5
:1033C8000FCB8CE80F000DF5337DBDE8000FF0BD85
:1033D800F0B503AF2DE9000F85B005460868002851
:1033E80040F0A68091F804B00C4688680BF1010102
:1033F8002171002840F096804FF0FF3004F10C0650
:103408009146A060FF20082103220290CDE9002107
:10341800304680210022802304F098FA8A46A16869
:10342800C00701F10101A16040F0888020680028F0
:103438007ED194F80480002908F10100207171D12F
:103448004FF0FF300221A0600020CDE900190021D3
:10345800029030460022002304F078FAA268C007E0
:1034680002F10102A2607DD1002A5BD14FF0FF304A
:103478000391A060002102200291CDE900093046A5
:1034880080210022802304F061FAC00701BF85F87B
:103498002CB085F82D8040F2FF30A5F80F0001BF51
:1034A80085F80EA00820A88104F1440201BFAA6093
:1034B8004FF40073A5F8273085F8261001BFA5F84A
:1034C80024902A62A5F81B30039901BFA976A5F8B4
:1034D80018906A614FF4FA5101BF2960A16800226F
:1034E800AA7101BFA880EA85481CA06002BF05B088
:1034F800BDE8000FF0BDA06840F69413A7F11D02C7
:1035080007F81D1C0130A06040F6D410C2F2200359
:10351800C2F220000F21009040F6C410C2F2200031
:1035280005F0FFFE40F64410C2F2200005F026FE2A
:1035380040F68410C2F2200005F020FE40F6E410A8
:1035480040F69413C2F22000A7F11F02009040F643
:10355800C410C2F22000C2F220030F2107F81FACEA
:1035680005F0DFFE40F6D41040F69413C2F22000B6
:10357800A7F11E02009040F6C41007F81E1CC2F204
:103588002000C2F220030F2105F0CBFE80B56F4664
:10359800007840F694020B4640F69821C2F22001CA
:1035A800C2F2200251F8201052F820201846BDE837
:1035B800804005F06DBB80B56F46084640F6842113
:1035C800C2F220011222BDE8804005F061BBF0B5CF
:1035D80003AF4DF804BD82B0044690F834000128CA
:1035E8000BD12068002841D14FF0FF30224642F825
:1035F800200B0968CDE9001229E00E6804F071FE7D
:10360800054604F061FE2068E90718D170BB4FF049
:10361800FF30214641F8200B6846CDE9006103F0F0
:10362800BFFA00281CBF684603F0E1FA20680130A1
:10363800206004F04BFE02B05DF804BBF0BDA8B9F1
:103648004FF0FF30214641F8200BCDE90061684674
:1036580003F0A6FA00281CBF684603F0C8FA2068E1
:103668000130206002B05DF804BBF0BD40F6B82020
:10367800C2F2200005F082FDF0B503AF4DF804BD9D
:1036880082B0044690F83400012807D12068A0BB16
:103698004FF0FF3009682060009121E00E6804F0C7
:1036A80020FE054604F010FE2068E90713D120BB70
:1036B8004FF0FF300096206004F12000019068462A
:1036C80003F0A3FA20680130206004F0FFFD02B087
:1036D8005DF804BBF0BD80B94FF0FF300096206064
:1036E80004F120000190684603F08FFA2068013049
:1036F800206002B05DF804BBF0BD40F6B820C2F20D
:10370800200005F03BFDF0B503AF4DF804BD82B0D5
:10371800044690F83400012819D12068002869D19E
:103728004FF0FF30224642F8200B68460968CDE981
:10373800001203F00EFA002841D06D46284603F027
:1037480021FA284603F005FA0028F7D135E00E687B
:1037580004F0C7FD054604F0B7FD2068E90717D156
:10376800002847D14FF0FF30214641F8200B68462A
:10377800CDE9006103F0EDF968B36D46284603F022
:1037880001FA284603F0E5F90028F7D1012527E0DA
:1037980080BB4FF0FF30214641F8200B6846CDE949
:1037A800006103F0D6F950B16D46284603F0EAF9F6
:1037B800284603F0CEF90028F7D1012004E0684636
:1037C80003F0D4F980F0010021680131216002B0D2
:1037D8005DF804BBF0BD684603F0C8F980F0010548
:1037E80020680130206004F071FD284602B05DF8C1
:1037F80004BBF0BD40F6B820C2F2200005F0BEFCC4
:10380800F0B503AF4DF804BD8268012A2ED1C36814
:103818004269934250D20569D0F818C0EC5C013473
:10382800EC540CF1020494421CD80CF580739646B3
:10383800934238BF9E46A34236D3AEEB0403052B12
:1038480010D38B7991F807E00E7A89882B552B19BC
:103858009970090A5E7083F804E0D9700CF10703C7
:10386800934207D902205DF804BBF0BD07205DF83C
:1038780004BBF0BD944528D2072105F80C100CF1C3
:10388800010191423FBF05226A54836108203CBF71
:103898005DF804BBF0BD40F6D8230846C2F2200309
:1038A80011461A4605F088FD40F6E8232046C2F284
:1038B8002003714605F09EFC40F6F8241846C2F233
:1038C80020041146224605F077FD40F6C8236046DD
:1038D800C2F2200311461A4605F06EFDD0B502AFBC
:1038E80084B00188062911D181690968BFF35F8F07
:1038F80079B10023827F009302AB04461846012366
:1039080003F010FF0820208004B0D0BD072004B0C9
:10391800D0BD40F6E03040F60442C2F22000C2F2C8
:103928002002222105F066FDF0B503AF4DF804BD75
:1039380086B0044608880D46411E032927D305286A
:1039480025D0072832D1D5F8AC00D5F806306989DA
:103958008028D5F80220ADF80C10CDE901236BD8EA
:10396800E9680968BFF35F8F00295AD0C0F1800366
:10397800AA7C2844009300F1240304A803F0BFFDA7
:103988009DF81000C0B39DF81100D8B92EE0E86882
:103998000168BFF35F8F002943D0AA7C04A80026E2
:1039A8000123009603F0ABFD2E801FE0E868016854
:1039B800BFF35F8FA9B30020AA7C009004A801235D
:1039C80003F09DFDE868092129800068BFF35F8F37
:1039D80038B3A97C012203F01AFCA8690068BFF378
:1039E8005F8FF0B1A97F012203F011FC04206072FF
:1039F80006B05DF804BBF0BD0598D5E92B12084464
:103A0800C5F8AC009042F1D3DDE901010623BDF809
:103A18000C202B8020606160228106B05DF804BB19
:103A2800F0BD40F6E03040F60442C2F22000C2F297
:103A38002002222105F0DEFC40F608338021C2F284
:103A48002003802205F0D6FBF0B503AF2DE9000F67
:103A580085B00446C8680D460168BFF35F8F00292A
:103A680000F08C8005F124068020AA7C009002A832
:103A7800334603F044FD9DF80800012803D19DF862
:103A8800090060B921E0039A812A80F0828002A8A7
:103A9800314604F06DFB9DF8110004281BD1E8683D
:103AA800092129800068BFF35F8F002866D0A97CB0
:103AB800012203F0ACFBA8690068BFF35F8F002800
:103AC8005CD0A97F012203F0A2FB0420607205B03C
:103AD800BDE8000FF0BDE868BDF810A09DF80F60C4
:103AE8009DF80E90BDF80CB0DDF808800068BFF3B3
:103AF8005F8F002842D0A97C002203F088FBBEB16A
:103B08000420A5F80AA06E7285F80890A5F806B0FA
:103B1800C5F802802880A4F808A0E67184F8069009
:103B2800A4F804B0C4F8008005B0BDE8000FF0BDEB
:103B3800BBF1000F11D0BBF1800FB0D80020A5F861
:103B48000AA0C5E92B0B6872072085F80890A5F82C
:103B580006B0C5F802802880B7E70620A4F808A0B8
:103B680028800020C5F8B000E07184F80690A08095
:103B7800C4F8008005B0BDE8000FF0BD40F6E030A5
:103B880040F60442C2F22000C2F22002222105F0CF
:103B980031FC40F618331146C2F22003002080227F
:103BA80005F028FBD0B502AF84B00446D0E929C29D
:103BB800D0F8AC00D4F8B010BCF1000FA38B08BF4C
:103BC8008022091A994238BF0B46191828D2914207
:103BD80026D8A1690968BFF35F8F39B3A27FBCF10A
:103BE800000F009308BF04F1240C0CEB000302A89B
:103BF80003F098FD9DF8080080B90398D4E92B12CA
:103C08000144C4F8AC10914208D30021A28BC4F837
:103C1800A4100321904208BF0221218004B0D0BD26
:103C280040F62833C2F2200305F0E4FA40F6E0300B
:103C380040F60442C2F22000C2F22002222105F01E
:103C4800D9FB0000B0B502AF84B00188013907295B
:103C580039D8DFE801F0041C0A3838383832FFF761
:103C6800A1FF0024204604B0B0BDC1680A68BFF3B4
:103C78005F8F002A41D0817C05461046002200242F
:103C880003F0C5FA05202880204604B0B0BD81693C
:103C98000968BFF35F8F81B3827F054602A80024BD
:103CA8000123009403F03EFD9DF80800002804BF9E
:103CB80003202880204604B0B0BD002101240180E3
:103CC800204604B0B0BDC168092202800A68BFF36B
:103CD8005F8F92B1817C04461046012203F097FA67
:103CE800A0690068BFF35F8F38B1A17F012203F09C
:103CF8008EFA0024204604B0B0BD40F6E03040F60D
:103D08000442C2F22000C2F22002222105F072FB16
:103D18000288042A1CBF07207047F0B503AF4DF88E
:103D280004BD4C68802C03D902205DF804BBF0BDAB
:103D3800096800F12402C68805461046224605F0A7
:103D4800FFFB0020B44238BF2646C5E92B060120F8
:103D580028802846FFF726FF08205DF804BBF0BD41
:103D6800F0B503AF2DE9000B8CB004460088042899
:103D780046D100200D46079080218DF82000164678
:103D880003900190099001A80B9009A8069104F1ED
:103D98002401B4F80680059104F07DF9C0B2082822
:103DA8002AD176B105EBC6060DF12409D5E9000143
:103DB8000A6949469047C1B208291DD10835B5425C
:103DC800F4D109A804F0C0F9079880281DD9E06843
:103DD800092121800068BFF35F8F30B3A17C0122E5
:103DE80003F015FAA0690068BFF35F8FE8B1A17FFF
:103DF800012203F00CFA02200CB0BDE8000BF0BD64
:103E080007200CB0BDE8000BF0BD01220021228084
:103E1800404538BF80462046C4E92B18FFF7C2FE4C
:103E280008200CB0BDE8000BF0BD40F6E03040F6CD
:103E38000442C2F22000C2F22002222105F0DAFA7E
:103E4800B0B502AF88B00446008804282DD1D1E966
:103E580000120020802306908DF81C00029000902C
:103E68006846059304F12403E588049303F0E5FF0D
:103E7800C0B2082817D10698802819D9E068092106
:103E880021800068BFF35F8F00B3A17C012203F09B
:103E9800BEF9A0690068BFF35F8FB8B1A17F0122A6
:103EA80003F0B5F9022008B0B0BD072008B0B0BDD6
:103EB800012200212280A84238BF05462046C4E9D5
:103EC8002B15FFF76FFE082008B0B0BD40F6E030B4
:103ED80040F60442C2F22000C2F22002222105F07C
:103EE80089FAB0B502AF8AB004460088042833D1F5
:103EF800002080210790A7F10A028DF820000223F4
:103F08000390019040F20940069104F1240127F83A
:103F18000A0C01A805910321E58803F0A2FEC0B2AE
:103F2800082817D10798802819D9E0680921218025
:103F38000068BFF35F8F00B3A17C012203F067F92B
:103F4800A0690068BFF35F8FB8B1A17F012203F0B9
:103F58005EF902200AB0B0BD07200AB0B0BD012248
:103F680000212280A84238BF05462046C4E92B1507
:103F7800FFF718FE08200AB0B0BD40F6E03040F662
:103F88000442C2F22000C2F22002222105F032FAD5
:103F9800F0B503AF2DE9000788B00446008804286F
:103FA80048D1D1E9000680228D680021059204F1EC
:103FB8002402069104928DF81C1002910091016868
:103FC8006846B4F8068003F0F8FCC0B208282DD182
:103FD8008DB106EBC505E9464FF0000AD6E90001A8
:103FE800CA6849469047C1B208291FD10836CDF89A
:103FF80008A0AE42F2D1684603F0C7FD06988028B3
:104008001DD9E068092121800068BFF35F8F30B3B4
:10401800A17C012203F0FBF8A0690068BFF35F8F61
:10402800E8B1A17F012203F0F2F8022008B0BDE850
:104038000007F0BD072008B0BDE80007F0BD012269
:1040480000212280404538BF80462046C4E92B180D
:10405800FFF7A8FD082008B0BDE80007F0BD40F64E
:10406800E03040F60442C2F22000C2F220022221CF
:1040780005F0C0F9B0B502AF88B00446008804283E
:104088002CD109680020802206908DF81C0002902F
:1040980000906846059204F12402E588049203F032
:1040A8002FFEC0B2082817D10698802819D9E068D1
:1040B800092121800068BFF35F8F00B3A17C012232
:1040C80003F0A5F8A0690068BFF35F8FB8B1A17FBE
:1040D800012203F09CF8022008B0B0BD072008B008
:1040E800B0BD012200212280A84238BF05462046E3
:1040F800C4E92B15FFF756FD082008B0B0BD40F6FF
:10410800E03040F60442C2F22000C2F2200222212E
:1041180005F070F9D0B502AF0446C06809212180C6
:104128000068BFF35F8F78B1A17C012203F06FF8BC
:10413800A0690068BFF35F8F00281FBFA17F01221D
:10414800BDE8D04003F063B840F6E03040F60442E2
:10415800C2F22000C2F22002222105F04BF9F0B58C
:1041680003AF4DF804BD82B000228029019203D22A
:104178008DF80410012430E04FF6FE760B46C0F2AD
:10418800FF368A0966F39F13B1F5006F07D242F034
:10419800C0018DF805308DF8041002241DE066F387
:1041A8009F120D0B0024B4EB114F07D145F0E0012D
:1041B8008DF806308DF8052003240CE06FF00F040D
:1041C80044EA9141042466F39F158DF807308DF871
:1041D80006208DF805508DF80410066804F060F884
:1041E8000546B068B8B94FF0FF3006F10C02B06070
:1041F80001A8214600F0ACFC0446B0680130B0606C
:10420800284604F058F8E0B2033818BF012002B07D
:104218005DF804BBF0BD40F66030C2F2200004F047
:10422800ADFFF0B503AF4DF8048D86B091E870513D
:1042380040F648316A461346C2F2200183E87051BD
:1042480004F02EFA06B05DF8048BF0BDF0B503AFAC
:104258004DF8048D15460E46046804F021F8804692
:10426800A068B0B94FF0FF3004F10C02A0603046EE
:10427800294600F06DFC0546A0680130A060404664
:1042880004F019F8E8B2033818BF01205DF8048B70
:10429800F0BD40F66030C2F2200004F06FFFF0B5C8
:1042A80003AF2DE9000F91B0804648F69420D1F86D
:1042B8002090C2F20000006881451FD8D8F8040099
:1042C8008A46F8B1D8F8001000EB4000DAE909B5E1
:1042D8000C1D860002E00C340C3E0FD02068A8426A
:1042E800F9D154F8040C59462A4605F0F1FA002889
:1042F800F1D16068062818BF814505D911B0BDE81D
:10430800000FF0BDDAE909B50AF12C00049042F675
:104318007D0040F64831C0F200000BAA0A9004A8BC
:10432800099042F66B00C0F20000C2F2200108902A
:1043380002A8079046F26920C0F200000395069093
:1043480001A8059000200F9003200E9005A80D905D
:1043580004200C9040F67830C2F220008DE8000B63
:104368000B90684604F09CF911B0BDE8000FF0BD51
:1043780080B56F4680BDF0B503AF2DE9000B48F658
:104388009422D1F80080C2F200021268904503D945
:104398000020BDE8000BF0BD42681AB30068D1E9FF
:1043A8000194061D02EB4200850002E00C360C3D2C
:1043B800EED03068A042F9D156F8040C494622469E
:1043C80005F086FA0028F1D1706800218045A0F137
:1043D8000600B0FA80F098BF012140090843BDE803
:1043E800000BF0BD0120BDE8000BF0BDD0B502AF59
:1043F800537A012B07D1137A012B02BF90F82C3086
:1044080054889C4200D0D0BD9379212B04BF928858
:10441800072A28D0088840F002000628F3D1C86887
:1044280009220A800068BFF35F8F88B18A7C0C4636
:104438001146012202F0EBFEA0690068BFF35F8F0E
:1044480000281FBFA17F0122BDE8D04002F0DFBED7
:1044580040F6E03040F60442C2F22000C2F22002E8
:10446800222104F0C7FF0A88042A18BFD0BDCA88D1
:10447800002390F804C0012490F805E0072AC1F849
:10448800AC3083790068486208460C8081F828308F
:1044980081F829E081F82AC028BF0722C1F8B02096
:1044A800BDE8D040FFF77EBBD0B502AF84B0537AE9
:1044B800012B07D1137A012B02BF90F82C305488B6
:1044C8009C4201D004B0D0BD9379002B5BD0202B47
:1044D8000ED0222B2CD112780B8802F0010480F820
:1044E8002E40C2F34002062B80F82F20EAD14DE07F
:1044F800D1F8B020812A5CD2062A19D991F828204F
:1045080091F8294091F82AE0032A4B6AB1F800C0D3
:1045180003604FF0000380F804E028BF1A46052C1A
:10452800827138BF2346BCF1060F4371CAD12DE012
:10453800088840F002000628C4D1C86809220A8009
:104548000068BFF35F8F98B18A7C0C461146012240
:1045580002F05DFEA0690068BFF35F8F00281FBFEF
:10456800A17F012204B0BDE8D04018BF02F04FBEC1
:1045780040F6E03040F60442C2F22000C2F22002C7
:10458800222104F037FF088806289BD18869036830
:10459800BFF35F8F002BEBD08A7F0020009002A82A
:1045A8000C461946012303F0BDF80820208004B00A
:1045B800D0BD40F638331146C2F2200300208022D5
:1045C80004F018FEF0B503AF4DF8048D84B090F8F0
:1045D8002C60804600250220CDE900050C460846DF
:1045E80031460222022303F0E1FAC0B2082863D15F
:1045F8002046314602220223009503F0CAFCC0B2CD
:10460800082859D140F698322046C2F220022421C7
:10461800032303F026FBC0B208284DD140F2E9126B
:104628002046C2F220022421022303F01AFBC0B262
:10463800082841D10620A7F1160207F8156C242195
:1046480098F82D60032307F8160C204607F8146C19
:1046580003F007FBC0B208282ED10120A7F11302EE
:1046680027F8130C20462421032307F8116C03F0C4
:10467800F8FAC0B208281FD108F108012046FFF750
:10468800BFF8C1B2082917D1002031460090204652
:104698000A22002303F07DFCC0B208280CD108F1DF
:1046A80020012046FFF7ACF8C1B2082904D108F16F
:1046B80014012046FFF7A4F804B05DF8048BF0BDA0
:1046C800D0B502AF45F204020C46D1E90113C2F29B
:1046D80000024FF0000CD06082E80A1040F69C31CE
:1046E800C2F22001104603F0C5FE002801BF216870
:1046F80048F69422C2F200021160D0BD80B56F4620
:10470800002080BD80B56F4680BD80B56F4608200B
:1047180080BD80B56F4680BDF0B503AF4DF804BDD0
:1047280084B048F24C540D460646D0E900014B6A65
:10473800C2F2000421462A469847208840F0020128
:1047480006291CD1697AF1B1218841F002000628B6
:1047580015D1E068092121800068BFF35F8F002828
:1047680072D0A17C012202F052FDA0690068BFF35B
:104778005F8F002868D0A17F012202F048FD04B0B5
:104788005DF804BBF0BD2A7AA9790AB3012A10D0D2
:10479800022A08BF0029D7D16988D4F8DC0001F0C3
:1047A8008F0102F0F2FC21880429CED1A0840020D8
:1047B80025E001B30A2908BF0428C5D1E1880020F3
:1047C800012284F824002280002918BF01211CE05E
:1047D80039B306291FD00829B6D194F8E20001217F
:1047E8000391A7F11A0102380291B0FA80F040094A
:1047F80007F81A0C23E00428A6D10020A084E18839
:1048080001222280022928BF0221C4E92B01204667
:10481800FFF7C8F998E76A883046298800F0D6F883
:1048280092E794F8E000022294F8E1100392A7F1CD
:104838001A0240000292C0B2084327F81A0C02A9D3
:104848002046FFF765FA7FE740F6E03040F604427D
:10485800C2F22000C2F22002222104F0CBFD0000A7
:10486800B0B502AF84B048F24C540B6AC2F20004EF
:10487800154621469847228842F0020006282AD188
:10488800697A51B3228842F00200062823D1E068F1
:10489800092121800068BFF35F8F88B1A17C0122C4
:1048A80002F0B5FCA0690068BFF35F8F00281FBF46
:1048B800A17F012204B0BDE8B04018BF02F0A7BC38
:1048C80040F6E03040F60442C2F22000C2F2200274
:1048D800222104F08FFD04B0B0BD2B7A95F806C0F4
:1048E80029885BB3012B12D0022BCED1BCF1010F6A
:1048F80035D0BCF1030F08BF0029C6D16988012251
:10490800D4F8DC0001F08F0102F081FC50E0BCF12A
:104918000B0F08BF0029B8D1062AB3D1A0690168D6
:10492800BFF35F8F0029CBD0A27F0020009002A8A0
:10493800012302F0F7FE08202080A3E7ACF1010371
:10494800082BA2D8DFE803F00605210517050505A1
:1049580028009AE701297FF498AF002019E0002980
:104968007FF493AF69880022D4F8DC0001F08F014E
:1049780002F04DFC1CE04A1E92B27F2ABFF485AFBC
:10498800D4F8DC0002F0CFFC0FE001297FF47DAF02
:10499800012084F8E0000BE021B101297FF475AF14
:1049A800022003E094F8E21031B1012084F8E2001B
:1049B8002046FEF793FF65E706287FF464AF48F2C8
:1049C8004C50C2F20000FFF7A5FB5BE7F0B503AF60
:1049D8004DF804BD84B048F24C568CB2C2F20006C1
:1049E80006F1B4034FF0FF3505EB14240E2C0093A9
:1049F80000F26880DFE804F00827136666666666DA
:104A0800666666666666370048F24C506946C2F2CA
:104A18000000FFF72FFB04B05DF804BBF0BDCCB27B
:104A2800032C3DD806F1B801DFE804F0022F2B3241
:104A380048F24C50C2F2000004B05DF804BBBDE877
:104A4800F040FFF74EBA0121CDE902016846019016
:104A580048F24C5001A9C2F20000FFF799FA04B0DD
:104A68005DF804BBF0BD48F24C520146C2F20002A8
:104A78001046012204B05DF804BBBDE8F040FFF722
:104A88006FB906F1BC0306F1C001186830B919E026
:104A980006F1C40306F1C801186898B1096804E072
:104AA800D0E900035B69984760B1CDE9010148F29C
:104AB8004C5001A9C2F20000FFF7C2F904B05DF83A
:104AC80004BBF0BD308840F002000628A3D1F0688E
:104AD800092131800068BFF35F8F98B1B17C012252
:104AE80002F095FBB0690068BFF35F8F00281FBF15
:104AF800B17F012204B05DF804BB1CBFBDE8F040E3
:104B080002F085BB40F6E03040F60442C2F22000D5
:104B1800C2F22002222104F06DFC80B56F460A46DD
:104B2800D0E90001BDE8804003F030BD80B56F4694
:104B38000068BDE8804004F07BBC80B56F4600216A
:104B4800C1858171082181804FF4FA51016080BDCF
:104B5800F0B503AF2DE9000F81B01468804601223B
:104B6800BFF35F8F04F21146D6E84F0FC6E8432F14
:104B7800002BF9D1BFF35F8F20B1012001B0BDE850
:104B8800000FF0BDD4F80004BFF35F8FD4F80424FD
:104B9800BFF35F8F904204D2C34312EB030A0BD1D9
:104BA80077E0B0F5806F05D1012A72D9A2F1010A28
:104BB800002001E0C0F5806AD146514538BF8946DA
:104BC8008B4609EB00012044BFF35F8FC4F80C1437
:104BD80041464A4604F0B4FC94F8110404F20C452A
:104BE800BFF35F8F58B3D4F80004BFF35F8FBFF3F0
:104BF8005F8F55E8001F45E80012002AF9D1BFF37E
:104C08005F8FB0F5806FD4F80824BFF35F8FD4F8B6
:104C18000C14BFF35F8F01D0814203D3914205D9B1
:104C28004FF48060BFF35F8FC4F80804BFF35F8F51
:104C3800C4F800140020BFF35F8F84F81104D34533
:104C48006BD908EB0901ABEB090C0123BFF35F8FAC
:104C5800D6E84F2FC6E8403F0028F9D1002ABFF315
:104C68005F8F7FF48AAFD4F80034BFF35F8FD4F836
:104C78000424BFF35F8F934203D2D843121813D191
:104C880007E0B3F5806F0DD1012A02D9013A00235C
:104C98000AE000200021BFF35F8F317001B0BDE84A
:104CA800000FF0BDC3F58062944538BF6246D01846
:104CB800BFF35F8FC4F80C04E01804F041FC94F8CB
:104CC8001104BFF35F8F40B3D4F80004BFF35F8FC4
:104CD800BFF35F8F55E8001F45E80012002AF9D19D
:104CE800BFF35F8FB0F5806FD4F80824BFF35F8FF0
:104CF800D4F80C14BFF35F8F01D0814203D39142E3
:104D080005D94FF48060BFF35F8FC4F8080403200F
:104D1800BFF35F8FC4F80014BCE7032001B0BDE8FF
:104D2800000FF0BDF0B503AF2DE9000F8DB040F6D0
:104D3800144048F24C5648F64829C2F22000C2F204
:104D480000060490C2F2000909F10800D6F8DC1048
:104D5800039005A802F02BFB96F8E210BDF81400AA
:104D6800032910D100284FF0000418BF032800F0D1
:104D7800AD8096F8E310042900F09581042286F8A6
:104D8800E21086F8E3200024DFE800F0A003221CEC
:104D9800A000D6F8DC0002F095FC4FF4806086F89D
:104DA800E440A6F8E2000820A9F80C004FF4FA50F5
:104DB80086F8E0403480A9F8364089F80E40C9F8F2
:104DC800080083E0032086F8E31086F8E2007DE01F
:104DD800BDF81600BDF818A0BDF81AB0029040EA58
:104DE8000A0040EA0B05E80746D05FEACA7005D01A
:104DF80048F24C50C2F20000FEF724FF5FEACB7085
:104E08000AD10298C00713D104208DF825009DF817
:104E18002500042817D12DE048F24C5107A8C2F20A
:104E28000001FEF711FE9DF8250004280BD121E0B2
:104E380048F24C5107A8C2F20001FEF775FD9DF833
:104E48002500042816D09DF82300002800F00D81C5
:104E580080280FD1DDE90712BDF82400ADF8300035
:104E680003A8CDE90A120AA9FFF756FC25F00105A7
:104E78001DB926E025F001051DB34FF002080124F5
:104E880018EA0B0F01D0282104E0029818EA000F55
:104E980005D02C21DDE9030252582146904718EA33
:104EA8000A0F05D0DDE903010A6B64F07F01904722
:104EB80025EA0805280404D001344FEA48080F2CD5
:104EC800DED9DDE90301C969884701240021D6F844
:104ED800DC000A910AA9FEF716FC99F8001096F86A
:104EE800E220022A38D181B9D6F8DC1005460846F6
:104EF80002F01BF90021D6F8DC000A910AA9FEF796
:104F080066FB2846012189F80010D9F81C100968A9
:104F1800BFF35F8F002900F0BB8044EA0005002042
:104F280099F82220012300900AA8012402F0E7FA48
:104F380075B1D9F80400BFF35F8F00F58261D1E83D
:104F48004F2FC1E8434F002BF9D1BFF35F8F92B1C8
:104F58000DB0BDE8000FF0BD31B10021D6F8DC007E
:104F68000A910AA9FEF788FB002089F800000DB015
:104F7800BDE8000FF0BDD0F80064BFF35F8FD0F834
:104F88000824BFF35F8FD0F80434BFF35F8F9342D8
:104F980006D19E423EBFBFF35F8F0023C0F80434A2
:104FA8009E4228BF32469A4207D10020BFF35F8F46
:104FB80008700DB0BDE8000FF0BDD9F82810D9F879
:104FC80004400968BFF35F8F002961D0D61A99F8A9
:104FD8002E2003440AA83546B6F5007F28BF4FF4B3
:104FE8000075009502F09EFB9DF82800012810D15D
:104FF80094F81004BFF35F8F0028A9D004F204408E
:10500800BFF35F8F50E8001F40E80012002AF9D173
:1050180022E00B9894F81014BFF35F8FB0420DD2C2
:10502800002995D004F20441BFF35F8F51E8002FA7
:10503800024441E80023002BF8D10DE000293FF499
:1050480087AF04F20440BFF35F8F50E8001F31447C
:1050580040E80012002AF8D10020BFF35F8F84F8DF
:1050680010040DB0BDE8000FF0BDBDF82420DDE947
:105078000301ADF830200AAADDE90734CDE90A3486
:10508800FFF7EEFB25F00105002D7FF4F6AE18E7DB
:1050980040F6E03040F60442C2F22000C2F220029C
:1050A800222104F0A7F940F6B43040F6D032C2F21B
:1050B8002000C2F220021C2104F00DF9F0B503AF64
:1050C8004DF804BD0E4600211546044600F060FC6C
:1050D800284640F2E24100F0DCFC304600F061FC7A
:1050E80040F614152146C2F22005002228463668EB
:1050F80000F0BBFCA81C2146002200F0B6FC281DCD
:105108002146002200F0B1FCA81D2146002200F033
:10511800ACFC05F108002146002200F0A6FC05F1D0
:105128000A002146002200F0A0FC05F10C002146EF
:10513800002200F09AFC05F10E002146002200F042
:1051480094FC05F110002146002200F08EFC05F1C8
:1051580012002146002200F088FC05F114002146C7
:10516800002200F082FC05F116002146002200F022
:105178007CFC05F118002146002200F076FC05F1C0
:105188001A002146002200F070FC05F11C0021469F
:10519800002200F06AFC05F11E002146002200F002
:1051A80064FC20684169890107D5416921F00071D3
:1051B8004161204600F0DBFB20684169012221F0B3
:1051C800605141612068816962F30D318161204637
:1051D80000F0CDFB2068416941F000714161204633
:1051E80000F0C5FB4FF480503060642030604FF40D
:1051F800005070603068002809D4306800285CBF0F
:105208003068002803D43068B0F1FF3FF2DC206832
:105218000122016962F302010161204600F0A7FB47
:105228002068416921F4E0514161204600F09FFB6C
:105238002068816941F4402181612068416921F039
:1052480000714161204600F092FB206840F6484515
:10525800C2F220050022416941F4407141612846AB
:10526800214600F002FCA81C2146002200F0FDFBAC
:10527800281D2146002200F0F8FBA81D2146002227
:1052880000F0F3FB2068022640F658450022C2F2DF
:105298002005816B66F3D84181632068816B41F4F6
:1052A800802181632846214600F0DFFBA81C2146A7
:1052B800002200F0DAFB281D2146002200F0D5FB71
:1052C800A81D2146002200F0D0FB206840F660456A
:1052D8000322C2F22005816966F305118161206805
:1052E800816962F39C61816128462146002200F0B1
:1052F800BCFBA81C2146002200F0B7FB281D214654
:10530800002200F0B2FBA81D2146002200F0ADFBF0
:1053180005F108002146002200F0A7FB20681722AB
:1053280040F63825C2F22005C16962F30501C16162
:1053380020680022C16941F04001C1612846214628
:1053480000F093FBA81C2146002200F08EFB281DCC
:105358002146002200F089FBA81D2146002200F00A
:1053680084FB05F108002146002200F07EFB05F1D0
:105378000A002146002200F078FB05F10C002146C6
:10538800002200F072FB05F10E002146002200F019
:105398006CFB206840F66A45C2F220050322416A88
:1053A80041F0400141622068416A66F305014162AB
:1053B8002846214600F059FBA81C2146032200F08C
:1053C80054FB281D2146032200F04FFBA81D21464F
:1053D800032200F04AFB05F108002146032200F0F1
:1053E80044FB05F10A002146032200F03EFB05F1CB
:1053F8000C002146032200F038FB05F10E0021467F
:10540800032200F032FB05F110002146032200F0D0
:105418002CFB05F112002146032200F026FB05F1C2
:1054280014002146032200F020FB05F11600214656
:10543800032200F01AFB05F118002146032200F0B0
:1054480014FB05F11A002146032200F00EFB05F1BA
:105458001C002146032200F008FB05F11E0021462E
:10546800032200F002FB05F120002146032200F090
:10547800FCFA05F122002146032200F0F6FA05F1B4
:1054880024002146032200F0F0FA05F12600214607
:10549800032200F0EAFA05F128002146032200F071
:1054A800E4FA05F12A002146032200F0DEFA05F1AC
:1054B8002C002146032200F0D8FA05F12E002146DF
:1054C800032200F0D2FA05F130002146032200F051
:1054D800CCFA05F132002146032200F0C6FA05F1A4
:1054E80034002146032200F0C0FA05F136002146B7
:1054F800032200F0BAFA05F138002146032200F031
:10550800B4FA05F13A002146032200F0AEFA05F19B
:105518003C002146032200F0A8FA05F13E0021468E
:10552800032200F0A2FA05F140002146032200F010
:105538009CFA05F142002146032200F096FA05F193
:105548004400214603225DF804BBBDE8F04000F0AA
:105558008CBA80B56F4648F248110068C4F21F0142
:1055680005230A6863F303020A60416841F00801F1
:105578004160032180BDF0B503AF2DE9000F81B074
:1055880048F680214FF0010CC2F20001BFF35F8F93
:10559800D1E84F2FC1E843CF002BF9D1BFF35F8F7C
:1055A800002A01BF48F20001C4F20D010022C4F232
:1055B8002F0201BF02F5542C02F5502E02F54C289B
:1055C800A1F5004401BFA1F5003501F5F61601F576
:1055D800F413C0E9683601BFC0E96A54C0E96C8EAB
:1055E800C0E96EC101F5005E01BF01F5805640F2C9
:1055F800040CC4F22E0C01F5021401BF0CF5FE7563
:1056080001F5004300F5C07888E8380001BF00F5CF
:10561800C67383E81210C0E9666EA1F5404C01BF5D
:1056280001F5881E01F5861801F5841401F5821329
:1056380001BF01F5003602F51025C0E9585600F5FE
:10564800B47501BF85E81A41C0F87CC1A1F5804C4A
:1056580002F51C2E01BF02F5182802F51424A1F545
:10566800E03301F5282601BF01F5EE15C0E95056D3
:1056780000F5A47585E8184101BFC0E9562C02F56C
:10568800782802F5742902F5702401BF02F56C230D
:105698004CF2000CC4F2070C0CF5004601BF01F5F2
:1056A800E03E01F58E15C0E9485EC0E94A6101BFD8
:1056B80000F5987585E81802C0F83C8101F548287E
:1056C80001BF01F5442901F5402A01F53C2B01F5FC
:1056D800382301BF01F5342401F5302501F52C26C6
:1056E800C0E9406501BFC0E94243C0E944BAC0E926
:1056F800469802F5302801BF02F52C2902F5282A20
:1057080002F5242B02F5861301BF02F5841402F575
:10571800821502F58016C0E9386501BFC0E93A4331
:10572800C0E93CBAC0E93E9801F5F01801BF01F59F
:105738009219A1F5503AA1F5403BA1F5303301BFCC
:1057480001F5901401F58C1501F58A16C0E930654C
:1057580001BFC0E93243C0E934BAC0E9369844F21F
:10576800000B01BFC4F2002B0BF500490BF5804A72
:105778004FF0844801BF01F56C2601F5682401F556
:105788006425A1F5C03301BFC0E9283500F1A8039D
:1057980083E85009C0E92EA901BF01F5602801F589
:1057A800E61901F5E81AA1F5203601BF0BF5E0333B
:1057B80001F5582401F55425C0E9205401BF00F132
:1057C800880484E84804C0E9259EC0F89C8001BF8D
:1057D800A1F5103E01F5FE1801F5001902F5642A3D
:1057E80001BF02F5602302F55C2602F5582501F594
:1057F800A03401BF00F1600B8BE87000C0E91B3AD0
:10580800C0E91D9801BFC0F87CE001F5803E02F5B3
:1058180040480CF5804901BF01F5804A01F5F213B3
:1058280044F20806C4F2090601BF06F1100506F1A4
:105838000804C0E91064C0E9125301BFC0E914A903
:10584800C0E9168E0CF5C03E01F5103801BF01F510
:10585800801901F57C2401F5782302F57C2601BF27
:1058680002F54825C0E9085600F1280585E8180220
:1058780001BFC0E90D81C0F83CE002F5442E02F5F5
:105888000C2601BF01F5D21501F5242402F54022AA
:10589800A1F5803301BFA1F5A031C0E90013C0E92B
:1058A800022C103001BF80E8704001B0BDE8000F45
:1058B800F0BD40F6B04040F6E842C2F22000C2F225
:1058C8002002352103F096FD80B56F46FEE7B0B59E
:1058D80002AF054608680C4640F480300860086846
:1058E80040F040000860222063F31340486040F213
:1058F8006850C0F20C10086240F29510C0F2B20075
:105908004862DC20C0F27A0088627D20C0F258002C
:10591800C8624B20C0F2400008632F20C0F22E005E
:105928004863886346F62010C86040F6A310886074
:105938004FF4C840C8614FF4C860886140F6C4108D
:10594800C0F6804008613F204861086820F00300E5
:1059580010430860086820F480300860C86F402150
:10596800281D03F0EFFF10202C606864B0BD80B5DF
:105978006F46006803E0816C002908BF80BD816C18
:1059880029B1816C00291CBF816C0029F3D180BD2D
:1059980080B56F460068426D22F0030211434165ED
:1059A80080BD80B56F4600684FF400514FF48052B7
:1059B8004FF0400C4FF4803E00E0416103699B04C6
:1059C800FBD50369DB0401D44261F7E70369B3F14E
:1059D800FF3FF3DC0369DB0306D403695B0648BFBA
:1059E80080BDC0F814C0E9E7C0F818E0E6E7F0B5F4
:1059F80003AF2DE9000FADF5057D0DF104098046D3
:105A08004FF40071484603F09DFF44F2B82A0DF5A3
:105A1800017BC2F2000A00246FF00F055646DAE94E
:105A28006001CDE9830158468294819602F0C0FB5B
:105A38000DF5017C09EB050010350C369CE80E10BD
:105A480001341030B5F5F87F80E80E10E7D101A9D0
:105A580040464FF4007203F0EDFE0DF5057DBDE8FC
:105A6800000FF0BD80B56F4680BD80B56F460378E6
:105A78004078096801EB83014000C0B20323D1F8E4
:105A880068C0834002FA00F02CEA030318438866D2
:105A980080BD80B56F46B1F5487F98BF4FF4487117
:105AA80040F22762914228BF114644F2AF73A1F534
:105AB800487100688AB25A43C368A1EB124189B29F
:105AC800490801EB124123F01F0242EA1111C1609B
:105AD80004E00168B1F1FF3FD8BF80BD016800292B
:105AE80005D4016800295CBF01680029F1D580BD93
:105AF800F0B503AF2DE9000B44F2E043C4F21F03F5
:105B08001B68C3F30B2E4FEA135CE6451FBF012445
:105B1800C1F88841DBB24FF47A781FBF03FB08F95C
:105B2800ACEB0E04D1F8906149F658651FBFCFF66B
:105B3800FF7513FB085393FBF4F3C2EA06021FBF79
:105B4800C1F8902180E80A40C0F80C90BDE8000B2D
:105B580018BFF0BD40F6F840C2F2200003F006FC82
:105B6800F0B503AF2DE9000F83B0844648680028DC
:105B78001FBF88690068BFF35F8F5FEAC07005D1F7
:105B880040F6B450C2F2200003F0C1FB4869002877
:105B980000F01B8151F81CEF0126082B51F80C0C62
:105BA80090F91050DEF8AC4105F01F0906FA09F625
:105BB8006DD334406BD08568CEF8AC61DEF84031E7
:105BC80043F40053CEF84031D5E90A43DEF840618A
:105BD800B60425D4DEF8403143F40053CEF8403102
:105BE800D5E90A43DEF84061B6045FBFDEF840310C
:105BF80043F40053CEF84031D5E90A435CBFDEF8E0
:105C080040615FEA86460BD4DEF8403143F4005326
:105C1800CEF84031D5E90A43DEF84061B604CDD567
:105C2800DEF8405125F40055CEF84051057C14604B
:105C3800DEF8B841536005F01F026BB20125002B56
:105C480048BF240C95402C40240616D14FF48034CC
:105C5800B3F1FF3FC8BF01244FF47F0304FA02F2F7
:105C6800C8BFFF231A40CEF87821826864461268BC
:105C7800C2F30A4201F00AF8A4460820CCF804004E
:105C880000208CF8000003B0BDE8000FF0BDC46828
:105C9800646814F0680F01D0072008E0DEF8B84106
:105CA800002D48BF240C3440240609D000208CF86D
:105CB800010001208CF8000003B0BDE8000FF0BD22
:105CC800B5F1FF3F4FF48035CDF808C0C8BF0125B6
:105CD8004FF47F0605FA09F5C8BFFF263540CEF810
:105CE800BC514FF4803C90F910504FF47F04B5F14B
:105CF800FF3F05F01F05C4BFFF244FF0010C0CFA4D
:105D080005F62640CEF87861C568D0E9016EDEF860
:105D18000040D5F804C0ED69C4F30A494B4538BFC3
:105D28009946CCF30E43EB1A4B4538BF99464E457E
:105D380038BFB146B9F1000F36D0D0F800B009F03D
:105D48000305B9F1040F01D200261EE040F2FC74ED
:105D580009EA040A02F1010C002601950BEB06037F
:105D68001BF806400CEB060593F801800CF806803A
:105D78000436B24593F8028005F8014C85F8018095
:105D8800DB78AB70EAD1019DB3446DB19BF800306C
:105D9800012D935508D032449BF80130022D5370E1
:105DA8001CBF9BF802309370DEF80020C2F30A4251
:105DB80000F06CFFDDF808C00020CCF804908CF8E7
:105DC800000003B0BDE8000FF0BD40F6945200207B
:105DD800C2F22002002103F0EFFA80B56F46D0E945
:105DE800072E4FF0004C4FF08043CEF834C0CEF869
:105DF80038C0CEF838300023CEF800300223C2F87D
:105E08004031D2F840319B070CD5D2F840319B077E
:105E180044BFD2F840315FEA837303D5D2F84031EA
:105E28009B07EED44FF0000C0A23C2F840C10029AA
:105E3800C2F8A831D2F8843123F0807308BF03F187
:105E48008073C2F88431D2F844110068C2F8441152
:105E5800C2F848C1C2F8580180BDF0B503AF2DE9BA
:105E6800000B84464668C8B24D0045EAD014E0B23B
:105E7800864265D9DCF8189004F00F04D7F808803A
:105E8800012606FA04FEBFF35F8F59E8006F46EA61
:105E98000E0449E80045002DF7D116EA0E0FBFF3AE
:105EA8005F8F4DD1DCF80CE086454FD9DCF814E063
:105EB800864552D9DCF800E086011C46B3F5806FB0
:105EC8005EF8065045F000554EF806505EF806504C
:105ED80028BF4FF480646FF31A4545EA04444EF82E
:105EE80006405FEA08655EF8064024F400494CB2B3
:105EF8004D4608BF05F50045B4F1FF3FD8BF4D46F4
:105F0800DCF80840DCF810C04EF8065045010126C0
:105F1800665104EB4014656825F0FF05656000EBE9
:105F280080050EEB80104CF825200CEB850282F8DA
:105F380011801174C2E90130D460BDE8000BF0BDD6
:105F480040F6C450C2F2200003F0E1F940F6745262
:105F58007146C2F2200203F02FFA40F684527146CD
:105F6800C2F2200203F028FAF0B503AF2DE9000FC2
:105F780085B04E68022EC0F00981D1F818B0DBF860
:105F88000060BFF35F8FB60740F100814E69012EB4
:105F980040F20281D1F810A0DAF82060766816F095
:105FA800680F01D0072112E09AF8246051F81C9F6D
:105FB80006F01F0C75B20126D9F8B84106FA0CF69E
:105FC800002D48BF240C2640360607D0002141701A
:105FD8000121017005B0BDE8000FF0BD04904FF439
:105FE8008030B5F1FF3FC8BF01204FF47F0600FAAB
:105FF8000CF0C8BFFF263040C9F878010AF1140434
:10600800DAE906063668C6F30A48434538BF9846B3
:10601800404538BF8046B8F1000F66D0CDF80890EB
:1060280008F00306D4F80090B8F1040F02D2002358
:1060380048461DE0019640F2FC7008EA000E561C26
:1060480000230394F418F55C14F8010C94F801C0CB
:10605800A47809F8030009EB0300043345709E4552
:1060680080F802C0C470EDD1039C09EB0300019EC7
:10607800039156B1D15C012E017006D0D118022EC1
:106088004A7842701CBF89788170A8F1010001210B
:1060980001EB501606F0030502F01AF94EF670707F
:1060A80029F01F01CEF20000B8F1610F02D2DDF82D
:1060B800089010E0DDF8089026F0030201F12003B3
:1060C8000160036001F14003036001F16003803166
:1060D800043A0360F2D1002D1CBF0160012D4DD19F
:1060E80002F0F6F802F0F7F80399204642460E4609
:1060F80000F0CCFDDBF80000BFF35F8FC00753D082
:106108009AF81000D9F8B83100F01F0142B2012006
:106118008840002A48BF1B0C18400006049825D167
:10612800B2F1FF3F4FF48032C8BF01224FF47F0520
:1061380002FA01F1C8BFFF252940C9F8BC119AF934
:1061480010104FF480304FF47F030022B1F1FF3F6D
:1061580001F01F01C4BFFF230120884031461840C9
:10616800C9F87801504600F091FD04980021C0F864
:106178000480017005B0BDE8000FF0BD01F12002F8
:106188000260022D1CBF40310160A9E740F6D450DF
:10619800C2F2200003F0BBF840F694520120C2F28C
:1061A8002002314603F008F940F6E450C2F220001C
:1061B80003F0ADF802464368C8B2490041EAD0117D
:1061C800C8B2834217D9936901F00F011B68BFF366
:1061D8005F8F9BB223FA01F1C9070CD05169814244
:1061E80084BF0120704780B56F4640F6A452C2F2C2
:1061F800200203F0E1F80020704780B56F468AB0AE
:10620800CBB2490041EAD3114268CBB29A4227D9AE
:10621800826901F00F011268BFF35F8F92B222FA10
:1062280001F1C9071CD0416999421FD9016903EBE3
:10623800830201EB8201097C01F07F020192082AA6
:106248001BD249B2C06901F03F02002900EB82006D
:10625800D0F8C00148BF000C00F001000AB080BDB2
:1062680040F6F450C2F2200003F051F840F6A45270
:106278001846C2F2200203F09FF8002040F664514D
:1062880006900220039040F65450C2F22000C2F259
:10629800200102900120059008A8049046F20530DC
:1062A800C0F20000099001A8089002A803F0B5F810
:1062B800F0B503AF2DE9000B9AB08046109000208E
:1062C8000821CDE9060108F11C090C90012108906C
:1062D8000390019001A800F1400500F11006059116
:1062E8000AE022F44C0242EA814101F54001C0F87B
:1062F800C411059802281FD03046294600F056FBE5
:10630800D0B1027C12F07F01F3D0082911914CD250
:106318004C1E53B2D9F80020B3F1FF3F417CE0B2E4
:1063280002EB8000D0F8C421DBDD22F00C0242EA47
:10633800810141F0C001DAE700200821CDE906011A
:106348000121CDF840800C900890059103900190B0
:106358000CE0B1F1FF3F06DD81680968C1F30A422C
:10636800494600F093FC059802281AD03046294681
:1063780000F01CFBA8B1027C51B212F07F02E8D0F9
:10638800082A119211D2013AD9F800300029D2B264
:1063980003EB8202D2F8C421E5D412F08001DBD1EC
:1063A800E1E71AB0BDE8000BF0BD002040F66451EB
:1063B80016900220139040F65450C2F22000C2F208
:1063C800200112900120159018A8149046F205306B
:1063D800C0F20000199011A8189012A803F01DF837
:1063E800F0B503AF2DE9000F83B08446387A4D68C5
:1063F800460046EAD016F0B2854240F2C5808D6963
:1064080006F00F062D68BFF35F8FADB225FA06F6CA
:10641800F60700F0B980D1F814E0864540F2BA805A
:106428000E6900EB800006EB8000C668766816F0FF
:10643800680F01D0072012E0057C8E4651F81C9F9A
:1064480005F01F0A6CB20125D9F8B86105FA0AF5FA
:10645800002C48BF360C35402D0609D000208CF89A
:10646800010001208CF8000003B0BDE8000FF0BD6A
:10647800BEF82C6004F00F05EE40F607EED04FF49E
:1064880080354FF47F06CDF808C0B4F1FF3FC8BF90
:106498000125C8BFFF2605FA0AF52E40C9F8BC61D8
:1064A8004FF4803C90F910604FF47F04B6F1FF3F41
:1064B80006F01F06C4BFFF244FF0010C0CFA06F6C5
:1064C8002640C9F87861C568D0E9016EDEF8004059
:1064D800D5F804C0ED69C4F30A494B4538BF99465D
:1064E800CCF30E43EB1A4B4538BF99464E4538BF9F
:1064F800B146B9F1000F36D0D0F800B009F0030565
:10650800B9F1040F01D200261EE040F2FC7409EA3A
:10651800040A02F1010C002601950BEB06031BF897
:1065280006400CEB060593F801800CF8068004364B
:10653800B24593F8028005F8014C85F80180DB78B4
:10654800AB70EAD1019DB3446DB19BF80030012DC9
:10655800935508D032449BF80130022D53701CBF6C
:106568009BF802309370DEF80020C2F30A4200F074
:106578008DFBDDF808C00020CCF804908CF80000F2
:1065880003B0BDE8000FF0BD40F60460C2F2200081
:1065980002F0BDFE40F694527146C2F2200202F0AB
:1065A8000BFFB0B502AF8AB00346D0F804C0D0B232
:1065B800540044EAD01E5FFA8EF0844554D99C6991
:1065C8000EF00F0C2468BFF35F8FA4B224FA0CF40A
:1065D800E40749D0D3F814C084454BD91C6900EBB3
:1065E800800004EB800090F810C00CF07F04019448
:1065F800082C46D24FFA8CF503F11C0C05F03F032A
:10660800002DDCF800E00EEB8303D3F8C04106D47C
:1066180024F001040C44C3F8C04139B118E024F453
:10662800803461F31044C3F8C04189B951B20029DC
:106638000ED4DEF8B811012390F91020002A02F0D8
:106648001F0248BF090C03FA02F21140090601D0E3
:106658000AB0B0BD81680968C1F30A4261460AB050
:10666800BDE8B04000F012BB40F61460C2F2200052
:1066780002F04DFE40F694526146C2F2200202F04A
:106688009BFE002040F6645106900220039040F6DD
:106698005450C2F22000C2F220010290012005905D
:1066A80008A8049046F20530C0F20000099001A83D
:1066B800089002A802F0B1FEF0B503AF2DE9000F73
:1066C80081B03E7A4C68750045EAD616F5B2AC4200
:1066D80040F2CE808C6906F00F062468BFF35F8F06
:1066E800A4B224FA06F6F60700F0C2804C69AC4260
:1066F80040F2C4800E6905EB850506EB8508D8F8DD
:106708000C60766816F0680F01D0072112E098F83F
:10671800105051F81CCF05F01F0E6CB20125DCF8A3
:10672800B86105FA0EF5002C48BF360C35402D0629
:1067380007D0002141700121017001B0BDE8000FB0
:10674800F0BD00904FF48030B4F1FF3FC8BF012086
:106758004FF47F0400FA0EF0C8BFFF242040CCF8A5
:106768007801D8E901063668C6F30A4B5B4538BF9D
:106778009B46584538BF8346BBF1000F62D0D8F816
:1067880000900BF0030CBBF1040F02D20023484623
:106798001AE040F2FC700BEA000E02F1010A002335
:1067A8000AEB03001AF8034010F8016C457880786A
:1067B80009F8036009EB0306043374709E45B5704D
:1067C800F070EDD109EB03000D46BCF1000F0CD0C1
:1067D800D15CBCF1010F017007D0D118BCF1020FD8
:1067E8004A7842701CBF89788170ABF101000121A1
:1067F80001EB501404F0030A01F06AFD4EF67070C4
:1068080029F01F01CEF20000BBF1610F0ED324F076
:10681800030201F120030160036001F140030360FA
:1068280001F160038031043A0360F2D1BAF1000F3C
:106838001CBF0160BAF1010F11D101F049FD01F04F
:106848004AFD294640465A4600F020FA00980021A1
:10685800C0F804B0017001B0BDE8000FF0BD01F14F
:1068680020020260BAF1020F1CBF40310160E4E768
:1068780040F62460C2F2200002F049FD40F694522E
:106888002846C2F22002214602F096FDF0B503AF79
:106898004DF804BD9AB00446C069D0F8B811C0F8E4
:1068A800B811D0F8BC11C0F8BC11D0F87811C0F8F4
:1068B80078110021C0F87C11D0F8B01159B1D0F886
:1068C800B01100291CBFD0F8B011002903D0D0F8AE
:1068D800B0110029F0D14FF0FF31C0F8B411D0F851
:1068E800B41159B1D0F8B41100291CBFD0F8B411B3
:1068F800002903D0D0F8B4110029F0D100200821D4
:10690800CDE9060101210C9008900390019001A89F
:1069180000F1400500F110061094059102E0059879
:10692800022824D03046294600F040F8F8B1017C0E
:1069380011F07F00F3D0082811901CD20138E269C9
:1069480049B2B1F1FF3FC0B26FF40C0102EB800015
:10695800D0F8C421C8BF6FF08C0101EA02014FF4DE
:106968000022C8BF08221143C0F8C411D7E71AB0E3
:106978005DF804BBF0BD002040F66451169002207B
:10698800139040F65450C2F22000C2F22001129037
:106998000120159018A8149046F20530C0F20000A6
:1069A800199011A8189012A802F037FDF0B503AF9E
:1069B8002DE9000BC168012903D1D0E90445AC4297
:1069C8006BD1016801295AD1D0E901ECE64556D2CC
:1069D8004FF002084FF0010901E0F4454FD071462D
:1069E800C26A41F08003CCB24E0046EAD4110EF1DF
:1069F800010E44EA032355680383CBB29D42C0F8D5
:106A080004E0C0E90399C0F8148016D9946901F02C
:106A18000F012468BFF35F8FA4B224FA01F1C907FC
:106A28000BD05169994240F28D80116903EB8302C2
:106A380001EB8202117C49061DD1C26A711CC0F8A3
:106A48001080CBB254689C42C7D9946901F00F01F9
:106A58002468BFF35F8FA4B224FA01F1C907BCD040
:106A6800516999426ED9116903EB830201EB8202E5
:106A7800117C4906B1D01046BDE8000BF0BDC169D4
:106A88000022C260012903D1D0E9084E74452DD1F6
:106A9800C2611046BDE8000BF0BD00F1180C02E021
:106AA800A5423FF48EAF1CF804100134C26A046199
:106AB8004B0043EAD1115668CBB29E42F0D9966991
:106AC80001F00F013668BFF35F8FB6B226FA01F105
:106AD800C907E5D05169994234D9116903EB83029A
:106AE80001EB8202117C4906DAD0C4E700F1280CD8
:106AF80001E0A645CCD01CF804100134C66A046233
:106B08004B0043EAD1117568CBB29D42F1D9B56902
:106B180001F00F012D68BFF35F8FADB225FA01F1C7
:106B2800C907E6D0716999420CD9316903EB83032F
:106B380001EB83010B7C5B06DBD00A461046BDE8FF
:106B4800000BF0BD40F694521846C2F2200202F043
:106B580033FC80B56F46D0E9000109681830D1F8D8
:106B6800441121FA00F000F0010080BD80B56F46A5
:106B7800D0E9000184220968002818BF8C228858AF
:106B8800C00F80BD80B56F46D0E900014FF080721C
:106B98000968002818BF4FF00072C1F8442180BD71
:106BA80080B56F46D0E9000109681830D1F848115E
:106BB80021FA00F000F0010080BD80B56F46D0E9F1
:106BC80000024FF080731268002818BF4FF000735E
:106BD8006FF08070D2F848C118BF6FF000700029BC
:106BE80000EA0C0018BF1843C2F8480180BD80B500
:106BF8006F46D0E9000184220968002818BF8C225A
:106C0800885840F00040885080BD80B56F46D0E974
:106C1800000184220968002818BF8C22885820F0B7
:106C28000040885080BD80B56F46D0E900018422BD
:106C38000968002818BF8C22885840F08040885086
:106C480080BD80B56F46D0E90002012998BF0121B7
:106C58006FF07F43994228BF1946126880230028A5
:106C6800A1F1010118BF8823D15080BD80B56F46BE
:106C7800D0E9000284231268002818BF8C23D0585A
:106C880020F0807040EA0160D05080BDF0B503AFBD
:106C98004DF8048D82B005468846EE6801210068EB
:106CA80031607168F26162F31E417160CAB1B0600F
:106CB80040F6FF71B068884300F58050F060F068D6
:106CC8006FF30B0000F58050306130696FF30B00F3
:106CD80000F58050706170696FF30B0000F580500B
:106CE80004E00020B060F06030617061B061802124
:106CF800706840F400407060706861F3070070606D
:106D0800009601F0E5FA4EF670746846CEF200047B
:106D180020F01C00206001F0DBFA01F0DCFAA86822
:106D28008660C16821F0FF01C160019001F0D0FACE
:106D380001A820F01C0020602030206001F0C8FA73
:106D480001F0C9FA95F910104FF47F02D8F8000045
:106D58004FF48033B1F1FF3F01F01F01C8BFFF229C
:106D6800C8BF012303FA01F11140C0F8B011D0F8EF
:106D7800B01159B1D0F8B01100291CBFD0F8B0112A
:106D8800002903D0D0F8B0110029F0D102B05DF885
:106D9800048BF0BDF0B503AF4DF804BD044690F880
:106DA80034000D46012801D1206835E001F099FA38
:106DB800064601F089FA2068F1072DD1002855D13F
:106DC8004FF0FF3069002060E8B241EAD011A268B4
:106DD800C8B2824217D9E26901F00F011268BFF305
:106DE8005F8F92B222FA01F1C9070CD0A1698142E2
:106DF80042D9616900EB800001EB8000806801687E
:106E080021F0005101602068013020605DF804BB6A
:106E1800BDE8F04001F05ABA40BB4FF0FF306900BE
:106E28002060E8B241EAD011A268C8B2824217D9FC
:106E3800E26901F00F011268BFF35F8F92B222FA84
:106E480001F1C9070CD0A169814215D9616900EB2C
:106E5800800001EB80008068016821F0005101602A
:106E68002068013020605DF804BBF0BD40F6346056
:106E7800C2F2200002F082F940F69452C2F22002D7
:106E880002F09AFAF0B503AF2DE9000782B0066860
:106E98003168002940F0EC8000F1040A04694FF0E1
:106EA800FF3230469AE8220440F8042B0A78DAB117
:106EB8004C78B268610041EAD411CBB29A4240F2F0
:106EC800BC80F26901F00F011268BFF35F8F92B2C4
:106ED80022FA01F1C90700F0B080B169994240F285
:106EE800CD8001200521BCE02178B26841F001097C
:106EF8004FEA490343EAD111CBB29A4240F28C805F
:106F0800F26901F00F011268BFF35F8F92B222FAA3
:106F180001F1C90700F08080B169994240F2AE8062
:106F28002178B26841F002094FEA490343EAD111D6
:106F3800CBB29A4270D9F26901F00F011268BFF31F
:106F48005F8F92B222FA01F1C90765D0B1699942FF
:106F580040F294802178B26841F003094FEA49036E
:106F680043EAD111CBB29A4256D9F26901F00F0126
:106F78001268BFF35F8F92B222FA01F1C9074BD0B2
:106F8800B16999427AD92178B26841F004094FEA87
:106F9800490343EAD111CBB29A423DD9F26901F0D3
:106FA8000F011268BFF35F8F92B222FA01F1C9078D
:106FB80032D0B169994261D92178B26841F00509A6
:106FC8004FEA490343EAD111CBB29A4224D9F26974
:106FD80001F00F011268BFF35F8F92B222FA01F13C
:106FE800C90719D0B169994248D92178804641F03A
:106FF80006094946FFF7DEF80146404661B12078A8
:1070080040F0070940464946FFF7D4F80146404694
:1070180011B10120032124E0F16A2B88994214D38D
:10702800CA1AB16A8A4210D3F2629AF80010009123
:107038004946FEF712FF494612E0F16A2B88994249
:1070480003D3CA1AB16A8A4202D20120042108E095
:10705800F2629AF8001000912146FEF7FEFE2146E2
:10706800002032680132326002B0BDE80007F0BD8E
:1070780040F63460C2F2200002F080F840F6A452D4
:107088001846C2F2200202F097F9F0B503AF4DF8A6
:1070980004BD044690F834000D46012801D120684B
:1070A80029E001F01EF9064601F00EF92068F10703
:1070B80021D1002801BF206A4FF0FF312160D0F8AC
:1070C800481101BF21F0410165F3000165F3861104
:1070D800C0F8481101BF2068013020605DF804BB8A
:1070E80004BFBDE8F04001F0F1B840F63460C2F2E8
:1070F800200002F043F8002801BF206A4FF0FF315A
:107108002160D0F8481101BF21F0410165F3000169
:1071180065F38611C0F8481101BF2068013020606E
:107128005DF804BB08BFF0BDDFE7B0B502AF0446A9
:1071380090F83400012801D1206815E001F0D1F859
:10714800054601F0C1F82068E9070DD1B8B94FF03C
:10715800FF302060201DFFF7ABF820680130206069
:10716800BDE8B04001F0B2B848B94FF0FF30206038
:10717800201DFFF79DF8206801302060B0BD40F663
:107188003460C2F2200001F0F9FFF0B503AF4DF80A
:1071980004BD044690F83400012805D120686FF03A
:1071A8000042904222D32CE00E4601F09AF80546A0
:1071B80001F08AF82068E90713D16FF0004188428E
:1071C8001FD201302060201D3146FFF716F8054612
:1071D80020680138206001F079F828465DF804BB82
:1071E800F0BD6FF0004188420BD23146013020607B
:1071F800201DFFF702F82168013921605DF804BB02
:10720800F0BD40F64460C2F2200001F0D5FFF0B5B1
:1072180003AF4DF8048D044690F834000D4601285C
:107228001ED12068002872D14FF0FF30690020601D
:10723800E8B241EAD011A368C8B2834261D9E369D0
:1072480001F00F011B68BFF35F8F9BB223FA01F1B6
:10725800C90756D0A16981425FD9201D11464DE06A
:10726800904601F03EF8064601F02EF82068F10736
:1072780028D100284BD14FF0FF3069002060E8B2D8
:1072880041EAD011A268C8B2824212D9E26901F07B
:107298000F011268BFF35F8F92B222FA01F1C9079A
:1072A80007D0A169814238D9201D41462A46FFF7F7
:1072B80078F92068013020605DF8048BBDE8F04063
:1072C80001F004B818BB4FF0FF3069002060E8B245
:1072D80041EAD011A268C8B2824212D9E26901F02B
:1072E8000F011268BFF35F8F92B222FA01F1C9074A
:1072F80007D0A169814210D9201D41462A46FFF7CF
:1073080050F92068013020605DF8048BF0BD40F62C
:107318003460C2F2200001F031FF40F6A452C2F2FC
:10732800200202F049F8F0B503AF4DF804BD044659
:1073380090F834000D46012801D1206823E000F0C0
:10734800D0FF064600F0C0FF2068F1071BD10028D7
:1073580001BF206A4FF0FF312160690601BF01F1CA
:107368008071C0F854112068013001BF20605DF8B9
:1073780004BBBDE8F04000F0A9BF40F63460C2F29B
:10738800200001F0FBFE002801BF206A4FF0FF310A
:107398002160690601BF01F18071C0F854112068AD
:1073A800013002BF20605DF804BBF0BDE5E7F0B531
:1073B80003AF2DE90007044691F834000D46012873
:1073C8000FD12868002840F09480286A4FF0FF31D8
:1073D8002960D0F844114A0627D4C9072AD10020C9
:1073E8003CE000F07EFF064600F06EFF2868F107DB
:1073F8000DD100287DD1286A4FF0FF312960D0F8DF
:1074080044114A0631D4C90739D1002631E0002891
:107418006FD1286A4FF0FF312960D0F844114A062D
:1074280028D4C90745D1002628E04021C0F84411D6
:10743800012013E00121C0F84411D0F8BC11D0F8A4
:10744800BC21C9B2C2F3074229861304C0F8BC3173
:10745800A2806180D0F8AC01E080022029682080F9
:10746800481C2860BDE80007F0BD40210126C0F88F
:10747800441118E040210126C0F844112DE00121F3
:107488000226C0F84411D0F8BC11D0F8BC215FFA2C
:1074980081F8C2F30749A5F830804FEA0941C0F8DE
:1074A800BC11D0F8ACA128680130286000F00EFFAC
:1074B80016E001210226C0F84411D0F8BC11D0F81A
:1074C800BC215FFA81F8C2F30749A5F830804FEA7A
:1074D8000941C0F8BC11D0F8ACA128680130286077
:1074E800C9EA0A40606046EA08402060BDE8000733
:1074F800F0BD40F63460C2F2200001F03FFEF0B566
:1075080003AF2DE9000784B0D7F80880814691F8C9
:10751800340016460D4601282DD12868002840F071
:10752800C5804FF0FF3071002860F0B241EAD011F9
:10753800AA68C8B282424DD9EA6901F00F011268FF
:10754800BFF35F8F92B222FA01F1C90742D0A9694D
:10755800814240F2B180291D700673D002A81A46F4
:1075680043460096FEF73CFF9DF80800012873D1BA
:107578009DF809002FE09A4600F0B3FE044600F09B
:10758800A3FE2868E10732D1002840F08F804FF031
:10759800FF3071002860F0B241EAD011AA68C8B281
:1075A800824249D9EA6901F00F011268BFF35F8F7F
:1075B80092B222FA01F1C9073ED0A96981427BD96A
:1075C800291D524670064CD002A843460096FEF785
:1075D80007FF4AE0052089F801000120296889F899
:1075E8000000481C286004B0BDE80007F0BD002872
:1075F8005CD14FF0FF3071002860F0B241EAD01141
:10760800AA68C8B282421AD9EA6901F00F01126861
:10761800BFF35F8F92B222FA01F1C9070FD0A969AF
:10762800814249D9291D524670062AD002A84346EC
:107638000096FEF7D5FE28E0012405261BE001246C
:10764800052628E002A81A464346FEF789FA9DF85F
:10765800080001283FF48CAF0398C9F80400002003
:10766800BCE702A84346FEF77BFA9DF808409DF860
:107678000960DDF80C8028680130286000F026FEDB
:107688000CE002A84346FEF76BFA9DF808409DF807
:107698000960DDF80C8028680130286044EA06207B
:1076A800C9E9000804B0BDE80007F0BD40F6346041
:1076B800C2F2200001F062FD40F6A452C2F220029C
:1076C80001F07AFEB0B502AF044690F83400012804
:1076D80001D1206815E000F004FE054600F0F4FD35
:1076E8002068E9070DD1B8B94FF0FF302060201DA0
:1076F800FFF7CCF8206801302060BDE8B04000F00A
