:0200000460009A
:100000004643464200000156000000000101020084
:1000100000000000000000000000000000000000E0
:1000200000000000000000000000000000000000D0
:1000300000000000000000000000000000000000C0
:1000400000000000010403000000000000000000A8
:100050000000200000000000000000000000000080
:100060000000000000000000000000000000000090
:100070000000000000000000000000000000000080
:10008000EB04180A063204260000000000000000FD
:10009000050404240000000000000000000000002F
:1000A0000000000000000000000000000000000050
:1000B0000604000000000000000000000000000036
:1000C0000000000000000000000000000000000030
:1000D00020041808000000000000000000000000DC
:1000E0000000000000000000000000000000000010
:1000F0000000000000000000000000000000000000
:1001000000000000000000000000000000000000EF
:100110000204180804200000000000000000000095
:1001200000000000000000000000000000000000CF
:10013000600400000000000000000000000000005B
:1001400000000000000000000000000000000000AF
:10015000000000000000000000000000000000009F
:10016000000000000000000000000000000000008F
:10017000000000000000000000000000000000007F
:10018000000000000000000000000000000000006F
:10019000000000000000000000000000000000005F
:1001A000000000000000000000000000000000004F
:1001B000000000000000000000000000000000003F
:1001C000000100000010000001000000000000001D
:1001D000000000000000000000000000000000001F
:1001E000000000000000000000000000000000000F
:1001F00000000000000000000000000000000000FF
:10020000D4D4D4D4D4D4D4D4D4D4D4D4D4D4D4D4AE
:10100000D10020400020006000000000000000002F
:1010100020100060001000600000000000000000D0
:101020000000006040F9000000000000EFBEADDEEF
:10103000124880F3088812481249016000F036F81F
:10104000114812490022814201D004C0FBE7104838
:101050001049114A814202D008CA08C0FAE70F4875
:101060004FF47001026842EA01020260BFF34F8F41
:10107000BFF36F8F00F014F800DE00000040002086
:1010800008ED00E000400020005000209C8A002075
:10109000B84200204C44002040F9006088ED00E098
:1010A00041F64B2CC0F2000C6047D4D4204840F2EB
:1010B0009C41884219D040F24C418842CCBF1D4A25
:1010C0001D4A1E4B5360136823F0800313601C48B5
:1010D0001C49C1BF1C480A0C8264C1F30F01416462
:1010E000016C41F00401016402E0184815490160F7
:1010F0001748184A824205D01749814202D008CACF
:1011000008C0FAE71548164A824205D015498142BF
:1011100002D008CA08C0FAE71348144A824205D030
:101120001349814202D008CA08C0FAE7704700009C
:10113000240400000080034000C00B4020C528D9D3
:1011400000C00A40AAAAFAFF00400E4060004F44C7
:1011500000000000B8220060A0B3000000400020A2
:1011600000200060B84200200000202058D6006017
:10117000E8222020D4D4D4D4D4D4D4D4D4D4D4D435
:10118000D4D4D4D4D4D4D4D4D4D4D4D4D4D4D4D41F
:10119000D4D4D4D4D4D4D4D4D4D4D4D4D4D4D4D40F
:1011A000D4D4D4D4D4D4D4D4D4D4D4D4D4D4D4D4FF
:1011B000D4D4D4D4D4D4D4D4D4D4D4D4D4D4D4D4EF
:1020000000400020311000609956000081B30000AC
:1020100099560000995600009956000000000000F3
:1020200000000000000000000000000099560000C1
:10203000995600000000000099560000431000006F
:1020400099560000995600009956000099560000D4
:1020500099560000995600009956000099560000C4
:1020600099560000995600009956000099560000B4
:1020700099560000995600009956000099560000A4
:102080009956000000000000000000000000000061
:102090009956000099560000995600009956000084
:1020A0009956000099560000995600009956000074
:1020B0009956000099560000995600009956000064
:1020C0009956000099560000995600009956000054
:1020D000995600009956000099560000170C000010
:1020E0009956000099560000995600009956000034
:1020F0009956000099560000995600009956000024
:102100009956000099560000995600009956000013
:1021100000000000995600000000000099560000E1
:1021200099560000995600009956000099560000F3
:1021300099560000995600000000000099560000D2
:1021400099560000995600009956000099560000D3
:1021500099560000995600000000000000000000A1
:1021600099560000995600009956000099560000B3
:1021700099560000995600009956000099560000A3
:102180009956000099560000995600009956000093
:102190009956000099560000995600009956000083
:1021A0009956000099560000995600009956000073
:1021B0009956000099560000995600009956000063
:1021C0009956000099560000995600000000000042
:1021D0009956000099560000995600009956000043
:1021E0009956000099560000995600009956000033
:1021F0009956000099560000995600009956000023
:10220000995600005710000099560000995600009A
:102210009956000099560000995600009956000002
:1022200099560000995600009956000099560000F2
:1022300099560000995600009956000000000000D1
:1022400000000000995600009956000099560000C1
:1022500099560000995600009956000099560000C2
:1022600099560000995600009956000099560000B2
:1022700099560000995600009956000099560000A2
:102280009956000099560000995600009956000092
:102290009956000099560000995600009956000082
:1022A0009956000099560000995600000000000061
:0822B000995600009956000048
:1022B800F0B503AF2DE9000F89B0016861B10129BC
:1022C80027D040F6681040F69012C2F22000C2F201
:1022D800200225210AF00CFA90F83410054641B185
:1022E80003291DD195F83010C1B103291ED1E96A1F
:1022F8002AE0D5E901360021D5E90302C5E905360A
:1023080005F11C0307C3914216D30120286085F804
:102318003400062009B0BDE8000FF0BDA96A12E03C
:1023280040F6B020C2F220000AF0B0F940F6C02012
:10233800C2F220000AF0AAF9481C28626969002044
:1023480085F83000A962E96249684A69D20400F157
:102358000281CA6D12F4F81F00F0088105F1140417
:102368004B6F012616CC85F830600E68182108914D
:10237800102107910821069100210591A11A04292D
:10238800894628BF4FF004090EB9022934D2944275
:1023980000F0CC8005A96FF0030000EB890601EB83
:1023A800890CF04310F00C0F00F08E8001F1040E40
:1023B800A2421FBF059800F01F0023FA00F002F8A0
:1023C800010B18BFAA6116F00C0F7CD0A2421FBFE8
:1023D800069800F01F0023FA00F002F8010B01F143
:1023E800080E06F00C0018BFAA61042840F0A4806B
:1023F80071460C2E6AD299E005A94FEA590601EBFD
:10240800890C701E4FF00008032841D3CDE90069FC
:10241800ACF104060495A1F11005CDE902430124AD
:1024280055F8109F4FF6FE70631E05F1040EC3F6B3
:10243800FF7083EA0001D6F800804FF6FD7046F879
:102448001099C3F6FF709EE8004A5CF821A04CF88A
:10245800219083EA00015CF821004CF821B04FF686
:10246800FC71C3F6FF71C5E9008A594014F10308ED
:102478005CF821304CF821E0C5E9020304F10400BE
:102488000446CDD1DDE9033505A9DDE90194009EB7
:102498006FEA080051F828A05CF820E0012E41F806
:1024A80028E04CF820A03FF475AF6FF0010001EB75
:1024B8008801A0EB08004E685CF820E04CF820602A
:1024C800C1F804E066E771460C2E2FD3A2421FBF65
:1024D800086800F01F0023FA00F002F8010B18BF8B
:1024E800AA61A2421FBF486800F01F0023FA00F04B
:1024F80002F8010B18BFAA61A2421FBF886800F04A
:102508001F0023FA00F002F8010B18BFAA61A242CB
:102518001FBFC86800F01F0023FA00F002F8010B83
:1025280001F1100118BFAA616145CFD1D5E90812A0
:102538009142FFF401AFE8E60C31A2421FBF0798B1
:1025480000F01F0023FA00F002F8010B18BFAA617F
:102558000C2EBBD2EAE70120022185F8340085F869
:102568003000296009B0BDE8000FF0BD032085F8F0
:10257800340085F83000072009B0BDE8000FF0BD31
:10258800F0B503AF2DE9000FAFB08B46044601F15B
:10259800340038310BF1540204F0E2FDDBF8C800D6
:1025A80005F0A0FADBF82801016841F0010101609B
:1025B800DBF82811086820F0020008600020C1F844
:1025C8000801C1F81801C1F828011891C1F83801AB
:1025D800DBF8C0A0DAF8000020F00100CAF800001B
:1025E800DAF8000040F40040CAF80000DAF8000009
:1025F80000040CD5DAF80000000444BFDAF8000043
:102608005FEA004003D5DAF800000004EED43F206A
:10261800CAF80800DAF8000020F00100CAF8000043
:10262800DBF8C460306820F001003060306840F4A6
:10263800004030603068000409D53068000444BFA9
:1026480030685FEA004002D530680004F2D43F20C9
:1026580040F26341B060306820F001003060DBF880
:102668000050DBF85C011790A86C40F00100A864EA
:10267800686C08436864686C012161F383006864CE
:10268800686C20F080006864A86C40F02000A864A2
:10269800686C40F440406864686C40F44470686456
:1026A800A86C40F08000A864A86D000709D0A86D48
:1026B80000071CBFA86D5FEA007002D0A86D000774
:1026C800F2D1A86C40F2634140F02000A864686C25
:1026D80020F440406864686C20F4447000F5887009
:1026E8006864DBF80480D8F8480040F00100C8F8B6
:1026F8004800D8F844000843C8F84400D8F8440013
:10270800012161F38300C8F84400D8F8440020F0A0
:102718008000C8F84400D8F8480040F02000C8F805
:102728004800D8F8440040F44040C8F84400D8F8BD
:10273800440040F44470C8F84400D8F8480040F019
:102748008000C8F84800D8F8580000070CD0D8F81E
:10275800580000071CBFD8F858005FEA007003D083
:10276800D8F858000007EED1D8F8480002220F2305
:1027780040F02000C8F84800D8F8440020F4404051
:10278800C8F84400D8F8440020F4447000F5887074
:10279800C8F84400DBF87C1119A805F0D8F8DBF874
:1027A80068112BA84FF4805205F018FADBF89C004A
:1027B8000790DBF8A4000690DBF8A8000590DBF88A
:1027C800AC000490DBF884010390DBF890010290E0
:1027D800DBF89801DBE91712009004F5967005F014
:1027E80046F9DBE90D014FF00F0EDBF83031DBE97C
:1027F80021C2CDE915104FF47041DBF85400149054
:10280800DBF880000190DBF8E0001390DBF8E800CB
:102818001290DBF8F0001190DBF8F4001090DBF870
:10282800F8000F90DBF8FC000E90DBF800010B902D
:10283800DBF804010A90DBF808010990DBF80C01C9
:102848000D90DBF814010C90DBF81C010890A3F83C
:102858008C11A3F88EE1DBF83491A9F88C11A9F852
:102868008EE1DBF83801A0F88C11A0F88EE1DBF8D6
:102878003CB1ABF88C11ABF88EE1DDF85CE0C4E953
:1028880026000EF134010EF1500EC4E904A60BF136
:102898006006C4E9CBE10BF1C00E009921630299EF
:1028A800E1620399A162049961620599216218990C
:1028B800C4E92CB609F16006C4E90011C4E90211A3
:1028C8000799A1610699E1610199C4E9301C04F1F5
:1028D800C80181E8240100F5907500F1C00100F1FC
:1028E800600203F1C000E0670BF5907C1398206448
:1028F800129860641198A0641098E0640F9820659D
:102908000E98C4E9282109F59071606509F1C002A3
:102918000C98A0650D98C4E9242103F160010A9A76
:10292800E06514982266099AE06315986266089A29
:10293800A0631698A2660B9AC4E91D3119A96063B1
:1029480004F1D400C4E91B234822C4E92A5B03F537
:102958009075C4E92EECC4E92059C4E922960AF01E
:102968004DFB2BAB04F58E7C0FCB8CE80F002FB002
:10297800BDE8000FF0BDF0B503AF4DF804BD054646
:1029880048F23C10C4F21F000C468368032161F32F
:1029980003038360836843F0100383600023C0F857
:1029A800EC33466861F303064660466846F0100655
:1029B8004660C0F8E833C66861F30306C660C668B7
:1029C80046F01006C660C0F8E433066861F30306F3
:1029D8000660016841F010010160C0F8E03302218F
:1029E800206961F3010020612069C00709D02069CE
:1029F800C0071CBF20695FEAC07002D02069C00709
:102A0800F2D12069012120F002002061206940F400
:102A18004070206103206062606800F01F0001FAC6
:102A280000F0C0F34300A06521612669206920F009
:102A3800010020612069C00709D02069C0071CBFB8
:102A480020695FEAC07002D02069C007F2D142F65F
:102A580000101146C0F2DE70224605F05FF82169C9
:102A680000202881C5E9000466F3000121615DF8B2
:102A780004BBF0BDF0B503AF2DE9000F85B00546E6
:102A88000868002840F0A38091F804B00C468868D4
:102A98000BF101012171002840F093804FF0FF30C5
:102AA80004F10C069146A060FF2008210322029041
:102AB800CDE9002130468021002206F0BDFF8A467C
:102AC800A168C00701F10101A16040F0868020687B
:102AD80000287CD194F80480002908F101002071B5
:102AE8006FD14FF0FF300221A0600020CDE900191E
:102AF800002102903046002206F09EFFA268C0071F
:102B080002F10102A2607CD1002A5AD14FF0FF30B5
:102B18000391A060002102200291CDE9000930460E
:102B28008021002206F088FFC00701BF85F82CB07D
:102B38004FF40070A5F8270085F8261001BFA5F806
:102B4800249004F14401296285F82D8001BF40F2E8
:102B5800FF32A5F80F2085F80EA0082201BFAA8130
:102B6800A960A5F81B00039801BFA876A5F81890DE
:102B78006961002001BFE885AA80A871A06801BF2B
:102B88004FF4FA5129600130A06002BF05B0BDE8DA
:102B9800000FF0BDA06840F6A013A7F11D0207F8CA
:102BA8001D1C0130A06040F6C010C2F22003C2F222
:102BB80020000F21009040F6B010C2F2200009F06A
:102BC8001FFB40F6D060C2F2200009F050F940F631
:102BD8001070C2F2200009F04AF940F6D01040F611
:102BE800A013C2F22000A7F11F02009040F6B01017
:102BF800C2F22000C2F220030F2107F81FAC09F02F
:102C0800FFFA40F6C01040F6A013C2F22000A7F168
:102C18001E02009040F6B01007F81E1CC2F22000F9
:102C2800C2F220030F2109F0EBFA80B56F4640F697
:102C3800E0100021C2F2200080BD80B56F4680BD43
:102C480080B56F46007840F698020B4640F6F021B2
:102C5800C2F22001C2F2200251F8201052F82020BE
:102C68001846BDE8804008F02FBBF0B503AF2DE94A
:102C7800000F81B080460C6807F05CFBD8F8006054
:102C88003168451AB5F1FF3F04DDE80F01B0BDE832
:102C9800000FF0BDD8F80400D0F800B0DBF8000051
:102CA8000028F2D1D4E90010096888470446DBF807
:102CB80000008946366800281EBFC168DBF804009A
:102CC80088470020D8F808A0CBF810008BF80C0033
:102CD800CBE90049CBF8086007F058FBBFF35F8FDA
:102CE800DAF8001009B3DBF808208B68D31A1AD475
:102CF8000B698BB39E68961B26D4196931B38E680D
:102D0800961B25D40B693BB39E68961B1CD4196986
:102D1800E1B18E68961B1BD40B69EBB19E68961BBC
:102D28001E46EAD516E0CBF81010CAF800B007F036
:102D380038FBD8F80C00C0F800B007F0F1FAE80F3B
:102D480001B0BDE8000FF0BD1E4603E0194603E0E0
:102D58000E461946CBF81060C1F810B007F021FBF9
:102D6800D8F80C00C0F800B0E80F01B0BDE8000FBB
:102D7800F0BDD0B502AF90F8301049B103291BD18E
:102D8800024612F82C1FA9B103291BD1816A20E041
:102D980090E8141000F1100E0023C1688EE814109A
:102DA800C0E907318B4274D30621012380F8303003
:102DB8000846D0BD416A0BE040F6D020C2F22000A0
:102DC80009F064FC40F6E020C2F2200009F05EFC45
:102DD800816249684B691B0567D4C96DC9066BD404
:102DE800D0E904C3012180F82C10D0F818E0DCF8F1
:102DF8000010F1B1002173451CBF13F8011B43619A
:102E0800002273451EBF13F8012B436112021143C0
:102E1800002273451EBF13F8012B436112041143AE
:102E2800002273451EBF13F8012B4361120611439C
:102E380028E0002173451CBF13F8011B43610024DF
:102E480073451A461EBF1A4612F8014B4261734574
:102E580018BF44EA01210024724513461EBF1346D9
:102E680013F8014B4361724518BF44EA012100225F
:102E780073451EBF1C4614F8012B4461734518BFE7
:102E880042EA0121DCF804205166D0E907318B427F
:102E98008AD20021024602F82C1F013352F81C1C6A
:102EA80042F8103C42F8081C92E7002101231370F5
:102EB80080F830300846D0BD07210323137080F80E
:102EC80030300846D0BDF0B503AF2DE9000FADF5A1
:102ED8000D7D07F082FA45F200098046C2F200092A
:102EE800D9F8005095F8740020B305F17500002159
:102EF800D0E84F2F012A1BD1C0E8421F002AF7D182
:102F080041F2B320BFF35F8FC0F2000095F8701054
:102F18000A9041F2CC40C2F2200009AA0990002090
:102F28004B90CDE94922D9B92968C5E9011008E0D3
:102F3800BFF32F8FD9F808A09AF86800002842D16B
:102F480099E1D1E90001012201F01F0102FA01F122
:102F5800C0F88C10002085F86C004FF4FA70E86017
:102F680005F10C0049A900F0DBF9F0B995F86C00FF
:102F7800032807D195F86800032804BF95F8650071
:102F8800032804D0D5E901100130A860D9E7D5E9B4
:102F98000C40066807F0FAF9BFF35F8F2168E9B3C0
:102FA8000A698E4234D1226038E0DDE90910032233
:102FB80085F87020C9688847D9F808A09AF8680089
:102FC800002800F058810AF169000021D0E84F2F4D
:102FD800012A1AD1C0E8421F002AF7D141F2D920AC
:102FE800BFF35F8FC0F2000001A9029041F2CC400C
:102FF800C2F22000CDE903110190002005909AF853
:103008006400002840F00F812DE0BFF32F8F32E1DC
:1030180022B196420ED113461A690A6107F0C1F926
:10302800286C002185F8641000281EBFC168686CF0
:103038008847A7E711690029F0D08E4210D00A69A5
:10304800002AEBD09642E6D011690029E6D08E42DC
:1030580006D00A69002AE1D013469642EAD1DBE796
:103068000B461146D8E707F0B8F98146602007F00B
:10307800B1F90DF1240B40F688461120C2F2200662
:1030880008905846FF2107960AF0A8F8002100206A
:1030980075564B1CB5F1FF3FEAB203DD1946FF2810
:1030A8002DD11EE1F35C8C1CE02A03F03F0502F0F1
:1030B8001F0318D3345DF02A04F03F0444EA851551
:1030C80001F1030415D3325D03F0070302F03F0258
:1030D80042EA851242EA8342B2F5881F14D00431CD
:1030E800FF280CD1FDE045EA83122146FF2806D1CE
:1030F800F7E045EA03322146FF2800F0F2800BF89A
:10310800002001301129C3D149AC09A9FF2220466A
:1031180009F074FF40F688401121C2F2200008F03F
:1031280024FB024642F2F020C2F22000214601F0C0
:10313800AAFCC2B2062A32D148F69420C2F2000094
:103148000068032865D341F68170C0F200008B90B7
:1031580007A88A9040F6B040C2F2200007F04CFA67
:103168008AAD012690E8061040F6B0340023CDE978
:10317800556540F6A845C2F22005C2F220045495D0
:103188000E2503205893579653955294CDE9502015
:10319800CDE94E31CDE94C45CDE94AC333E007F8D6
:1031A8002A0C48F6942007F8291CC2F2000000688F
:1031B80078B341F20130C0F200008B90A7F12A00E9
:1031C8008A9040F6E040C2F2200007F015FA8AAD76
:1031D800D0E9001201268068CDE9556540F6D8454A
:1031E800002340F6B034C2F22005C2F22004549500
:1031F8000E25CDE94E314AA95893579653955294C6
:10320800CDE9502639C1A7F11D0049A9499607F013
:1032180012FA484607F0E5F800208AF8600042F202
:103228001070CAF8000003A9504600F079F8D8B920
:103238009AF8600003287FF416AF9AF85C00032818
:1032480004BF9AF8590003287FF40DAFDAE9096042
:10325800046807F09BF8BFF35F8F3168C9B10A694A
:103268008C4210D1326014E0DDE9011003228AF8A3
:103278006420C9688847404607F0B3F80DF50D7D0E
:10328800BDE8000FF0BD22B1944211D113461A696E
:103298000A6107F086F8DAF8340000218AF8581035
:1032A80000283FF4E0AEC168DAF838008847DAE66B
:1032B80011690029EDD08C4210D00A69002AE8D0A3
:1032C8009442E3D011690029E3D08C4206D00A6900
:1032D800002ADED013469442EAD1D8E70B461146BD
:1032E800D5E740F6F042FF20C2F22002FF2109F0A4
:1032F800E1F980B56F4648F68820C2F20000BDE8C3
:10330800804001F030BA80B56F4642F22030C2F2F8
:103318002000006880470020BDE8804007F061B8C1
:10332800F0B503AF2DE9000B86B0044690F86000B5
:103338008846C0B1032840F0F68094F85C00E8B1F4
:10334800032840F0F68094F8591004F1140000297D
:1033580068D0032940F0F3804146FFF786FC002837
:1033680041D00321A7E0256848F688260020C2F24C
:10337800000684F85C00C4E9016501E0D4E9016550
:103388004FF0000906F0D6FF014684F859906665AB
:103398004219002D18BF511CC4E9030104F114009F
:1033A800E162224642F8301F002182F82810337962
:1033B800002B00F0A6802346012543F8341F83F82C
:1033C80024501D4645F81C1F03F11801C3E90533B5
:1033D80043E9082143E9066543E904654146FFF7E7
:1033E80044FC0028BDD1A16C0A684AB1097B0029B8
:1033F8001CBF002184F8581094F8581009BB4EE0FF
:1034080000218046D4E9095084F85810066806F06F
:10341800BDFFBFF35F8F296869B10A698E4204D185
:103428002A6008E0E16A666DBBE722B1964217D1CF
:1034380013461A690A6106F0B4FF404694F858101A
:1034480069B38046D4E90950066806F09FFFBFF3C8
:103458005F8F296801B30A698E4217D12A601BE081
:1034680011690029E7D08E4248D00A69002AE2D0C3
:103478009642DDD011690029DDD08E423ED00A691E
:10348800002AD8D013469642EAD1D2E722B1964212
:103498001BD113461A690A6106F083FF4046616B27
:1034A800002284F8582029B1CA680546A16B08464D
:1034B80090472846012184F8601084F85C1084F84D
:1034C800591006B0BDE8000BF0BD11690029E3D022
:1034D8008E4210D00A69002ADED09642D9D01169EE
:1034E8000029D9D08E4206D00A69002AD4D01346C2
:1034F8009642EAD1CEE70B461146CBE70B4611467A
:1035080097E701200491019040F60060C2F2200084
:10351800039140F6086100900420C2F22001029055
:10352800684609F0F8F840F61030C2F2200009F0B9
:10353800ADF840F62860C2F2200009F0A7F840F67E
:103548001860C2F2200009F0A1F880B56F4608465D
:1035580040F62031C2F220010222BDE8804007F087
:10356800C7BD80B56F4645F200000121C2F20000D8
:103578000068BFF35F8F80F875104EF20420CEF21A
:1035880000008021016080BD80B56F4645F20000D3
:103598000121C2F200008068BFF35F8F80F86910D4
:1035A8004EF20420CEF200008021016080BD0000B0
:1035B80080B56F4682B00A4610F8011BDFE801F0BB
:1035C80003411F300E5240F622311046C2F220014C
:1035D8000D2202B0BDE8804007F076BE019040F6AB
:1035E800683040F67831C2F2200000901046C2F2EE
:1035F800200101AB032207F0F2FC02B080BD01906C
:1036080040F6503040F66031C2F22000009010467B
:10361800C2F2200101AB022207F0E1FC02B080BD3A
:10362800019040F6503040F66231C2F2200000901E
:103638001046C2F2200101AB052207F0D0FC02B00F
:1036480080BD019040F6303040F64031C2F2200093
:1036580001AB00901046C2F220010F2207F0BFFC18
:1036680002B080BD40F67B311046C2F220010C2228
:1036780002B0BDE8804007F027BE000080B56F4665
:10368800ADF51A7D42F2F02A02AD44AE04A8C2F2AA
:10369800200A4FF0000B4FF00E090130009003E0B4
:1036A800A24602AD019C19E006F097FE0446602090
:1036B80006F090FE2846514601221E2301F04EFDD9
:1036C8009DF80800012832D19DF80900DFE810F0C4
:1036D80006000A001D011D01E000C600204606F094
:1036E80080FEE1E79DF80A008DF8200248F6942054
:1036F800C2F2000000680028F0D048F20D70C0F255
:103708000000459088A8449040F62840C2F2200066
:1037180006F072FF90E80610012040F62043CDF82D
:103728004CB0C2F220031290CDE91006CAE048F668
:1037380094200194DDF80C80C2F200000068022891
:1037480028D940F6A030C2F2200006F055FFD0E993
:103758000012042380680124119340F69833C2F2C2
:1037680020030DF1280CCDE90E9340F6B033032564
:103778008CE8260004A9CDE90440781EC2F2200393
:10378800CDE912BB10940D93CDE9089BCDE906B3A2
:1037980006F051FF04A8514601F033F89DF81000D7
:1037A80000287FF47EAF00993046FF2254460E254C
:1037B8004FF00009B24609F0A7FAB8F5807F80F00B
:1037C8009B8088A85146424608F03DFA88AACB4615
:1037D800A94607CA002840F6BE30C2F2200018BF2A
:1037E8000D22859218BF014648F694208491C2F2B2
:1037F8000000006802287FF653AF41F6BB70C0F2A4
:103808000000879084A8869040F6EC30C2F2200031
:1038180006F0F2FE86AB90E806100120CDE994038D
:1038280040F6D433C2F220030DF50E7ECDE9929313
:1038380040F6B03303258EE8260088A99690C2F298
:103848002003CDE9880C781ECDF85CB29193CDE9C0
:103858008C9BCDE98AB306F0EEFE21E748F694206A
:10386800C2F20000006800283FF438AF40F6784004
:10387800C2F2200006F0C0FE042390E806100120E2
:10388800119340F67043C2F22003CDE912BB18E051
:1038980048F69420C2F20000006800283FF41EAFEA
:1038A80040F64C40C2F2200006F0A6FE90E8061052
:1038B80004230120119340F64443CDE912BBC2F220
:1038C800200310900F9340F6B0330A9104A90C908E
:1038D800C2F220030490781ECDF838900D930B9215
:1038E800CDF824B0CDF820900793CDF818B0CDF8D6
:1038F80014C006F0A0FEF1E640F6FC330020C2F248
:1039080020034146FF2208F0E4FBFEDE80B56F4647
:1039180045F2000C0022C2F2000C01E0BFF32F8F29
:10392800DCF804104B785BB18B1CD3E84F0F0128EF
:1039380004D1C3E8402F0028F7D12FE0BFF32F8F21
:10394800DCF80410487858B18B1CD3E84F0F0128D5
:1039580004D1C3E8402F0028F7D11FE0BFF32F8F11
:10396800DCF80410487858B18B1CD3E84F0F0128B5
:1039780004D1C3E8402F0028F7D10FE0BFF32F8F01
:10398800DCF8041048780028CAD08B1CD3E84F0F05
:103998000128C3D1C3E8402F0028F7D1BFF35F8FB8
:1039A8000878FFF76BFEF0B503AF2DE9000FADF215
:1039B8001C7D07AC204603F01EFE0DF25C55214627
:1039C8004FF4E072284609F019FB7AA82946FEF759
:1039D800D7FD84AA48F2C40A77ABC4F21F0A07CA03
:1039E8004FF005090DF5A5687E9D07C377A97AAB49
:1039F800DDE980460122DDF83CB2DAF8000069F31F
:103A08000300CAF80000606840F00400606000200D
:103A18007C9004207B9003207A904FF47A60CDF854
:103A28001C050DF21C500090404600F03CFCDDF8EF
:103A38002805002840F0358106940DF21C5444F204
:103A48004022DDF82C050590C0F20F0220465946A9
:103A5800FEF791FF2868072132460B2320F4B8604F
:103A680040302860686861F30B006860DAF8A000ED
:103A78000A2169F30300CAF8A000706840F4806066
:103A88007060DAF8A40069F30300CAF8A40070684B
:103A98000DF5F47940F400607060286820F00100AA
:103AA8002860A86840F02000A860E86820F020009E
:103AB800E860286820F400702860286840F0020058
:103AC8002860A86840F00100A860E86820F00100BC
:103AD800E860A86840F00200A860E86820F00200EA
:103AE800E860A86840F00400A860E86820F00400D6
:103AF800E86040F29330CDE9006102900020CDE902
:103B080003054846214601F09EF98198022800F0F5
:103B1800DE804946C4467DC9ACE87D0091E87D0059
:103B28008CE87D004EF21000CEF20000016848F6E5
:103B38008822C2F2000221F001010160016841F00F
:103B48000401016042F2BF71C0F2090141600168DD
:103B580041F002010160016841F0010101600121A9
:103B6800BFF35F8F117145F20002BFF35F8FC2F29E
:103B78000002136803F17406D6E84F5F45B9BFF336
:103B88005F8FC6E8451F55B1D6E84F5F002DF8D0C6
:103B980040F65C50BFF32F8FC2F2200049E042F29A
:103BA800E82C0021C2F2200CBFF35F8F83F870105D
:103BB8000126C3F800C08021BFF35F8F83F87560CA
:103BC800C0F8F411936803F16801D1E84F5F45B973
:103BD800BFF35F8FC1E8456F55B1D1E84F5F002D46
:103BE800F8D040F64C50BFF32F8FC2F2200020E0EF
:103BF8000021BFF35F8F83F8641001268021BFF393
:103C08005F8F83F86960C0F8F4115068411CD1E8EF
:103C18004F2F42B9BFF35F8FC1E8426FB2B1D1E80D
:103C28004F2F002AF8D040F63C50BFF32F8FC2F236
:103C3800200040F60053009040F61050C2F22003D6
:103C4800C2F220007AAA2B2108F0DAFA0021BFF389
:103C58005F8F00F8021B0121BFF35F8F0170484698
:103C6800B8E87E007EC098E87E007EC042F2F02070
:103C7800C2F22000B9E87E007EC099E87E007EC0CE
:103C880002200699CCE9001042F22030C2F220004E
:103C98000599016006F090FB0DF21C7DBDE8000F50
:103CA800F0BD0DF5A5627AAB07CA07C340F69C5074
:103CB800C2F2200040F68C53009040F61050C2F239
:103CC8002003C2F220007AAA2B2108F099FABDF845
:103CD800E80140F66C53ADF8280540F67C50C2F276
:103CE80020000DF5A562009040F61050C2F22000A9
:103CF800C2F220032B2108F083FA80B56F46C0B0CA
:103D080006F058FB48F690200121C2F200008022FC
:103D180001704EF22740CEF20000602101704EF291
:103D28000411CEF2000148F69C240A60F02280F8C3
:103D38004A204FF40030886045F200010020C2F2AA
:103D480000016A46ADF874000A601EAAADF8E000EA
:103D5800C2F200048A6027F81A0CA7F11B00486019
:103D680044F20000C2F20000A04203D906F02CFB86
:103D7800A04203D9FFF717FEFFF7C8FD0121002075
:103D88003B9140F66461C2F220013E903D900420D0
:103D98003A9140F66C613C903AA8C2F2200108F0D2
:103DA800BAFC002A04BF06207047F0B503AF2DE91E
:103DB800000F8FB00446D3000020B0EB134F04D09F
:103DC80002200FB0BDE8000FF0BD02A80E4619464C
:103DD800154603F08AFE9DF80C000299022903D1CA
:103DE8000FB0BDE8000FF0BDD4E900839DF80DE0E9
:103DF8009DF80E209DF810909DF811B09DF812A026
:103E0800596909056AD40192B446DA6DD2062A4680
:103E18004BD475464FEA4B5165F30B20019D41EA9F
:103E2800894194F808E041EA0A51667A40EA8550E7
:103E380002AD0843910840EAC85040EACE7040EA13
:103E4800867040F400201866002093078DF838002B
:103E58004FF0010018BF00EB92010CEB0200059136
:103E68000490CDE9024C2846FEF783FFC0B207282C
:103E7800F9D0062837D161684A69D00409D50120EC
:103E88000FB0BDE8000FF0BD4A69D0044FF0010043
:103E9800A6D4100522D4D001F6D4C86DC006F3D13B
:103EA80006200FB0BDE8000FF0BD5D692D0515D4E3
:103EB800DD6DED06ADD55D692D050FD4DD6DED0623
:103EC800A7D55D692D0509D4DD6DED06A1D55D6920
:103ED8002D0503D4DD6DED06E7D49AE700200FB079
:103EE800BDE8000FF0BD61684FF0020C8B69CE6928
:103EF8000D6AD1F824B0D1F830E0D1F83480D1F887
:103F08004090D1F858A00A6901920A696CF301023D
:103F18000A610A69D20709D00A69D2071CBF0A696F
:103F28005FEAC27202D00A69D207F2D10A6922F0A6
:103F380002020A610A6942F440720A618B61CE6129
:103F48000D62C1F824B0C1F830E0C1F83480C1F87E
:103F58004090C1F858A00A69019B63F300020A6106
:103F680061684FF4C0524A610FB0BDE8000FF0BD60
:103F7800F0B503AF2DE9000FA9B0C3B1DD00B5F569
:103F8800803F01D30226FDE080460DA88B462946D6
:103F980091469A4603F0A9FD9DF838600D980228CD
:103FA8000BD1404653464A46062E40F0EB80C0E906
:103FB800002329B0BDE8000FF0BD9DF83B00039039
:103FC8009DF83E0006909DF83D000490DBE9000551
:103FD80005909DF839309DF83A409DF83C20686975
:103FE8000005404600F18780CDE901435946EB6D55
:103FF800CC46DB06534662D40398920491F808E055
:104008004C7A42EAC042029860F30B26019846EACD
:104018008056049832439E0842EA4052069842EA83
:104028000052059842EAC05242EACE7040F6E012C9
:10403800C2F2200240EA847028660020079207AA8C
:104048009D070890CDE909224FF001020B900DACB5
:104058008DF8A00018BF02EB93060CEB030209AD24
:104068001BAB1E92CDE910260DAA1F9683E80310FC
:104078008DF8680082E803102046294601F081FA8D
:10408800C6B2072EF8D0DDE90710C9688847062EA2
:1040980033D1DBF804104D69E804404671D4534627
:1040A8004A4604E04D69EE044FF001066AD42E0535
:1040B80021D4EE01F6D4CE6DF606F3D177E7D5F824
:1040C80014E05FEA0E5416D4EC6DE40694D56C69DE
:1040D800240510D4EC6DE4068ED56C6924050AD449
:1040E800EC6DE4067FF588AF6C69240503D4EC6DAC
:1040F800E406E4D480E7002644E0DBF8041002225A
:104108008B69CD690C6A486A0590D1F830E0D1F81E
:104118003490D1F840A0D1F858C0086906900869D1
:1041280062F30100086140460A69D20709D00A69AA
:10413800D2071CBF0A695FEAC27202D00A69D207B5
:10414800F2D10A6922F002020A610A6942F4407255
:104158000A618B61CD610C62059A4A62C1F830E050
:10416800C1F83490C1F840A0C1F858C00A69069B4C
:1041780063F300020A61DBF804104FF4C0524A618D
:1041880000E0012600210671016029B0BDE8000F9A
:10419800F0BD000000680A4601230178012988BFA4
:1041A8008B1ED9B2DFE801F0021A0A1240F68061CC
:1041B8001046C2F22001092207F086B840F6A46131
:1041C8001046C2F22001042207F07EB840F6B8611A
:1041D8001046C2F22001062207F076B880B56F4675
:1041E80082B0019040F68C6040F6AC61C2F22000CB
:1041F80001AB00901046C2F22001042206F0EFFE47
:1042080002B080BD80B56F4600680A4640F67C6102
:1042180040F67E63C2F22001C2F220030078002833
:10422800104618BF19460222BDE8804007F04CB876
:1042380080B56F460A46D0E90001BDE8804006F027
:104248001ABA80B56F468A680068930105D452018E
:1042580007D4BDE8804006F0B1BBBDE8804006F059
:1042680055BCBDE8804006F07ABC80B56F460A466A
:10427800D0E90001BDE8804006F08CBB80B56F46F0
:10428800007840F698020B4640F6B871C2F2200159
:10429800C2F2200251F8201052F820201846BDE83A
:1042A800804007F011B8F0B503AF2DE9000FB3B0A7
:1042B8000D4648F23461C2F200011E4601F2124175
:1042C80092460123BFF35F8FD1E84F2FC1E8443FE7
:1042D800002CF9D1BFF35F8F32B195E80E000EC004
:1042E80033B0BDE8000FF0BD48F234640590C2F267
:1042F80000044FF48061204608F070FF06F046F88D
:1043080080462046314602F019FA20B195E80700A8
:10431800059B07C3D2E148F64C20D5F800C0C2F28D
:104328000000AA68046046F20000C2F2000041F2F0
:104338003813C618BFF35F8F56E8003F43F00045B7
:1043480046E80054002CF7D1002BBFF35F8F00F133
:10435800E58148F200060124C2F2000606F5A063D2
:10436800BFF35F8FD3E84F5FC3E8414F0029F9D10E
:10437800CDF81080002DBFF35F8F40F0AC8141F283
:104388003811CDE92EC20144279000F5865200F578
:1043980080500DF19C082D9106214FF0000BCDE9BE
:1043A800281040462C914FF00109CDE92A1201212D
:1043B800CDE93063ADF8C8B003F085FD41460DF195
:1043C800180E7DC90EF1040CACE87D0091E87D0063
:1043D80051468CE87D00704675468DF84C90CDF8B6
:1043E80018B004F0C8FE9DF84C00012803D1B96844
:1043F8000698A0B37AE105F0EAFF044605F0DAFF73
:10440800E1070698B96827D1002840F06F814FF07E
:10441800FF3027AE06900020279005F12000289055
:1044280030460C6804F067FC304604F021FC304646
:10443800514604F038FC3046012104F08DFC30462A
:10444800214604F074FC304604F063FC0698013001
:10445800069005F0B1FF24E0002840F047814FF0B6
:10446800FF3027AE06900020279005F12000289005
:1044780030460C6804F03FFC304604F0F9FB304647
:10448800514604F010FC3046012104F065FC30462A
:10449800214604F04CFC304604F03BFC0698013001
:1044A800069048F2045B4FF00009C2F2000B4FF48B
:1044B8008060CBF808902946ABF804000BF10C0A91
:1044C800CBF800903CC950463CC07CC97CC091E800
:1044D8007C0059467CC040464FF40072CBF84490AB
:1044E800FEF7C8FAB8E87E0048F65020C2F200008D
:1044F8007EC098E87E007EC0DBF80800002840F007
:10450800E4804FF0FF300021CBF808004020CDE9CF
:104518000090504601220023CDF8089005F08CFA4F
:104528000E46DBF80810C00701F10101CBF80810AE
:1045380040F0FF8006AD002940F0C7804FF0FF3003
:104548004021CBF808000020CDE90001802102902D
:1045580050460122802305F06FFA8846DBF80810E0
:10456800C00701F10101CBF8081040F0E980DBF841
:104578000000002840F0C0804FF0FF300029CBF841
:10458800000040F0BF80CBF80800504605F023FA41
:10459800DBF808000130CBF80800C0F0B9804FF014
:1045A800FF308021CBF80800E81CBFF35F8FCBF801
:1045B80044A0BFF35F8F08F06FFD5046812104F0DF
:1045C8005FFC5046012104F05BFC5046822104F058
:1045D80057FC5046022104F053FC5046832104F056
:1045E8004FFC5046032104F04BFC5046842104F054
:1045F80047FC5046042104F043FC5046852104F052
:104608003FFC5046052104F03BFC5046862104F04F
:1046180037FC5046062104F033FC5046872104F04D
:104628002FFC5046072104F02BFC48F24C54402044
:10463800C2F200040BF14402A0832946208204F14F
:1046480021000025A261E2608322A4F81F5084F8AB
:104658001E80A4F81350A674258008F055FB4FF06F
:10466800806040F6AE71C4E937A03220C4F8D600A5
:104678000220C4F20000C2F22001C4F8D2001020C7
:10468800A4F8D00045F62400C2F2DD7084F8E450A6
:10469800C4F8CC000920C4E92F1044F6F12105988C
:1046A800C0F20001C4F8C450C4E92B55C4F8B45092
:1046B800C4F8A450C0E90051DDF81080404605F068
:1046C80070FE33B0BDE8000FF0BD40F6D060C2F216
:1046D800200007F0CCFB40F6D80040F65812C2F292
:1046E8002000C2F22002202107F064FD40F6C060DD
:1046F800C2F2200007F0BBFB40F60070C2F22000B7
:1047080007F0B5FB40F6F060C2F2200007F0AFFBFF
:1047180040F6E060C2F2200007F0A9FB40F200007A
:1047280040F68802C2F22000C2F220021F2107F0E0
:1047380041FD40F640708DF81860C2F2200005E097
:1047480040F630708DF81880C2F2200040F62073D1
:10475800009040F6B80006AAC2F22000C2F2200378
:10476800202107F04DFDF0B503AF2DE90007804685
:1047780005F0BAFD02E061685046884705F006FE7C
:10478800BFF35F8F0546D8F800609EB3D6F808904F
:1047980005F0D0FDB168401AB0F1FF3F6FEA0001A3
:1047A8004FEAD171317317DD3069C8F80000D6E9D6
:1047B8000010096888470446307B05F001008A46E6
:1047C80005F0EFFD002CD6D105F0B4FDA0EB0900F3
:1047D800B0F1FF3FD2DC0AE005F0010005F0E1FD91
:1047E80005F0A8FDA0EB0900B0F1FF3FC6DCBDE86D
:1047F8000007F0BD2846BDE80007BDE8F04005F019
:10480800D0BDF0B503AF2DE9000FC3B00D46824609
:104818006846FF2108F0E2FC284600F058FEC2B2C4
:10482800062A40F0BA80D5E90201012401F01F01EF
:1048380005F11C0BA7F12602022304FA01F1C0F8C6
:104848008810132027F8260C41A85946FFF790FB3B
:104858004198002800F09E80D5E9022303F01F0349
:10486800429904FA03F30129C2F8843040F2A08087
:1048780044780126D5E90201A7F1260201F01F01BB
:10488800022306FA01F1C0F88810102027F8260C38
:1048980041A85946FFF76CFB419800287AD0D5E922
:1048A800022303F01F03429906FA03F30129C2F811
:1048B80084307DD9D5E9021202F01F02407806FA49
:1048C80002F2C1F8882041A98DF805018D208DF8E4
:1048D800040158460222FFF764FAC1B206295BD1E7
:1048E800D5E9020101F01F0106FA01F1C0F88410B0
:1048F8003CB3A7F126096E464FF00108D5E902013D
:104908004A4601F01F01022308FA01F1C0F8881095
:10491800002027F8260C41A85946FFF729FB4198A3
:10492800C0B3D5E9022303F01F03429908FA03F341
:104938000129C2F884303BD94078013C06F8010BC4
:10494800DCD1D5E90201012401F01F01022204FA99
:1049580001F1C0F888108D2041A9ADF8040158462E
:10496800FFF71FFAC1B2062916D1D5E90201FF22C5
:1049780001F01F0104FA01F1C0F884100AF10100E6
:10498800694608F0C1F900208AF8000043B0BDE884
:10499800000FF0BD9DF8081104208AF801000120DD
:1049A8008AF802108AF8000043B0BDE8000FF0BD95
:1049B80040F6D8720120C2F2200207F07BFEB0B5A3
:1049C80002AF84B00446D0E9020101F01F010125BD
:1049D800A7F11202022305FA01F1C0F888100C2091
:1049E80027F8120C04F11C0102A8FFF7C1FA02987B
:1049F80080B1D4E9022303F01F03039905FA03F3F6
:104A08000229C2F884300CD34078062141EA0020FC
:104A180004B0B0BD9DF80C00042141EA002004B0A8
:104A2800B0BD40F6D8720120C2F2200207F042FE63
:104A3800B0B502AF82B00446D0E9020303F01F0309
:104A4800012505FA03F3C0F8883041F0800007F823
:104A58000A0C04F11C00A7F10A0107F8092C02222C
:104A6800FFF79FF9C1B206290AD1D4E9020202F080
:104A78001F0205FA02F2C0F88420062002B0B0BD79
:104A8800042002B0B0BDF0B503AF2DE9000F83B02C
:104A980004468B46D0E90201012601F01F0104F10A
:104AA8001C059046A7F1260206FA01F10223C0F878
:104AB800881001A8294627F8266CFFF759FA0198AB
:104AC80000283ED0D4E9022303F01F03029906FA16
:104AD80003F30129C2F8843040F2F1804078C043E2
:104AE800800704D1052003B0BDE8000FF0BDD4E96C
:104AF8000201A7F1260201F01F01022306FA01F1C3
:104B0800C0F88810122027F8260C01A82946FFF7BC
:104B18002FFA0198A8B1D4E9020202F01F02029903
:104B280006FA02F20129C0F8842040F2C88094F8FD
:104B3800290068B1204600F0C9F8C2B2062AD2D1CD
:104B48000CE09DF80810042003B0BDE8000FF0BD8C
:104B5800204600F019F9C2B2062AC4D1D4E90201EC
:104B68004FF0010901F01F01022209FA01F1C0F812
:104B7800881048F2811001A9ADF804002846FFF713
:104B880010F9C1B2062940F09580D4E9020101F07C
:104B98001F0109FA01F1C0F8841094F8290084F87B
:104BA800289018B1204600F091F802E0204600F065
:104BB800EBF8C2B2062A96D1D4E90201022201F02A
:104BC8001F0109FA01F1C0F88810922001A9ADF877
:104BD80004002846FFF7E5F8C1B206296AD1D4E9EE
:104BE8000201022201F01F0109FA01F1C0F8841044
:104BF800D4E9020101F01F0109FA01F1C0F8881097
:104C08008D2001A9ADF804002846FFF7CAF8C1B203
:104C180006294FD1D4E90201012201F01F0102FA4D
:104C280001F10022C0F8841020462221FFF700FF7E
:104C3800C2B2062A7FF457AFB8F1000F29D00DF1A0
:104C480004094FF0000ABAF1FF0F22D0D4E902019B
:104C580001F01F011BF80A2006FA01F1C0F88810BC
:104C680080208DF8052049468DF804002846022248
:104C7800FFF797F8C1B206291CD1D4E902010AF15D
:104C8800010A01F01F01D04506FA01F1C0F88410AD
:104C9800D9D1204622214246FFF7CAFEC2B2062ACF
:104CA8007FF421AF2046032100F0C9FB03B0BDE823
:104CB800000FF0BD042003B0BDE8000FF0BD40F6C2
:104CC800D8720120C2F2200207F0F4FCF0B503AF5D
:104CD8004DF804BD84B00446D0E9020101F01F017B
:104CE800012604F11C05A7F11E0206FA01F10223B0
:104CF800C0F888101D2027F81E0C01A82946FFF7C8
:104D080037F9019890B3D4E9022303F01F030299FD
:104D180006FA03F30129C2F884302ED9D4E9021225
:104D2800407802F01F0206FA02F200F0FE00C1F815
:104D38008820A7F1120107F8110C9D2007F8120C22
:104D480028460222FFF72DF8C1B2062910D1D4E96E
:104D5800020101F01F0106FA01F1C0F884100620D3
:104D680084F8296004B05DF804BBF0BD9DF8081014
:104D7800042004B05DF804BBF0BD40F6D8720120F1
:104D8800C2F2200207F096FCF0B503AF4DF804BD5F
:104D980084B00446D0E9020101F01F01012604F1A4
:104DA8001C05A7F11E0206FA01F10223C0F88810BB
:104DB8001D2027F81E0C01A82946FFF7D9F80198ED
:104DC80098B3D4E9022303F01F03029906FA03F308
:104DD8000129C2F884302FD9D4E90212407802F0B0
:104DE8001F0206FA02F200F00100C1F88820A7F1BC
:104DF800120107F8110C9D2007F8120C2846022210
:104E0800FEF7CFFFC1B2062911D1D4E9020101F0A2
:104E18001F0106FA01F1C0F88410002084F8290067
:104E2800062004B05DF804BBF0BD9DF8081004200E
:104E380004B05DF804BBF0BD40F6D8720120C2F2A0
:104E4800200207F037FCF0B503AF2DE9000F8FB053
:104E58008246B869D7E902CE0124D1E900B68D6847
:104E68000EF01F01D7F8149004FA01F140F2E24461
:104E7800CCF8881004610468D7F8108044F0010465
:104E88000460CDE908656E4606F11C054FF4807490
:104E9800CDF814E0CDE90223ADF82840CDE900892A
:104EA800CDF810C0CDE9060B8668F60709D18668EB
:104EB800F60704BF86685FEAC67602D18668F607F9
:104EC800F2D0866846F001068660066826F001067C
:104ED8000660CCF8841040F2E2410161016841F0BB
:104EE800010101608168C90709D18168C90704BF48
:104EF80081685FEAC17102D18168C907F2D081680F
:104F0800012641F001018160016821F00101016081
:104F180003F01F002946022306FA00F0C2F88800B1
:104F2800422027F8260C0DA8A7F12602FFF720F843
:104F38000D98C0B1DDE9022303F01F030E9906FAAC
:104F480003F30129C2F8843040F201814078122825
:104F580017D19DF8290000B36846FFF7B7FEC2B223
:104F6800062A03D11FE09DF83810042002228AF88F
:104F78000110CAF81C208AF800000FB0BDE8000F25
:104F8800F0BD02218AF801000120CAF81C108AF835
:104F980000000FB0BDE8000FF0BD6846FFF7F4FE53
:104FA800C2B2062AE2D1DDE90201022201F01F01A4
:104FB80006FA01F1C0F8881048F281000DA9ADF891
:104FC80034002846FEF7EDFEC1B20629CDD1DDE951
:104FD8000201022201F01F0106FA01F1C0F8841053
:104FE800C0F8881000208DF828004FEA98008DF846
:104FF800350086200DA98DF834002846CDF80080AC
:10500800CDF80490FEF7CDFEC1B20629ADD14FEA26
:105018005830DDE90212C00602F01F0268F39A3028
:1050280006FA02F2000AC1F88420C1F888200DA906
:105038008DF8350087208DF8340028460222FEF7C7
:10504800B0FEC1B2062990D1DDE90201022201F0C9
:105058001F0106FA01F1C0F88410C0F888108820F2
:105068000DA9ADF834002846FEF79BFEC1B206290B
:105078007FF47BAFDDE90201022201F01F0106FA8D
:1050880001F1C0F88410C0F888108E200DA9ADF881
:1050980034002846FEF785FEC1B206297FF465AFC5
:1050A800DDE90201022201F01F0106FA01F1C0F850
:1050B8008410C0F888108F200DA9ADF83400284658
:1050C800FEF76FFEC1B206297FF44FAFDDE902019A
:1050D800012201F01F0102FA01F1C0F884106846AC
:1050E800FFF76DFCC0F30721C2B2062A7FF43EAF7A
:1050F80041F0030268460C21FFF79AFCC2B2062A67
:105108007FF434AF684626210422FFF791FCC2B22F
:10511800062A7FF42BAF6D460121284600F08FF94F
:10512800C2B2062A7FF422AFDDE9020101F01F01B5
:1051380006FA01F1C0F884105FCDAAE85F0095E88F
:105148005F008AE85F000FB0BDE8000FF0BD40F6D1
:10515800D8720120C2F2200207F0ACFAF0B503AF12
:105168002DE9000F85B0834691F829009946144629
:105178000D4630B12846FFF7A9FDC2B2062A07D06E
:1051880098E02846FFF700FEC2B2062A40F0928057
:10519800D5E90201012601F01F0105F11C080222D0
:1051A80006FA01F1C0F8881048F2815003A9ADF859
:1051B8000C004046FEF7F5FDC1B2062979D1D5E9C4
:1051C800020101F01F0106FA01F1C0F88410052060
:1051D80085F82800E00778D0D5E902014FF0010AE8
:1051E80001F01F01CDF80490A7F1260202230AFA64
:1051F80001F11226C0F88810122027F8260C03A8FF
:105208004146FEF7B5FE0398002800F0F3800199A7
:10521800002421EAE1791DE08168A7F12602022332
:1052280041F001018160016821F001010160D5E9C7
:10523800020101F01F010AFA01F1C0F8881003A861
:10524800414627F8266CFEF793FE039801340028A0
:1052580000F0D080D5E9022303F01F0304990AFA6D
:1052680003F30129C2F8843040F2E2804078062135
:1052780007F8270CA7F1270001F05EFF002840F08F
:1052880086804C4500F0C280A8697D2101610168D3
:1052980041F0010101608168C907BDD18168C90772
:1052A80004BF81685FEAC171B6D18168C907F2D0CD
:1052B800B2E704208BF8010001208BF802108BF86C
:1052C800000005B0BDE8000FF0BDD5E902010124DA
:1052D80001F01F01A7F12602022304FA01F1C0F828
:1052E8008810122027F8260C03A84146FEF740FE36
:1052F800039800287ED0A7F127060DF10C09A7F125
:10530800260A1BE081685246022341F001018160B0
:10531800016821F001010160D5E9020101F01F01D6
:1053280004FA01F1C0F88810122027F8260C484624
:105338004146FEF71DFE039800285BD0D5E90223FD
:1053480003F01F03049904FA03F30129C2F8843017
:105358006ED94078062107F8270C304601F0ECFE9C
:10536800C0B9A86943F2D4010161016841F00101A3
:1053780001608168C907C5D18168C90704BF816810
:105388005FEAC171BED18168C907F2D0BAE7019856
:1053980084423BDA284600F09AF8C2B2062A3CD189
:1053A800D5E90201012401F01F01A7F12602022319
:1053B80004FA01F1C0F88810132027F8260C03A876
:1053C8004146FEF7D5FD0398A0B1D5E9022303F0C5
:1053D8001F03049904FA03F30129C2F8843027D97A
:1053E800407800218BF80010CBF8040005B0BDE828
:1053F800000FF0BD9DF810008BF8020040F201404C
:10540800ABF8000005B0BDE8000FF0BD0120ABF817
:10541800000005B0BDE8000FF0BD8BF801000120C9
:105428008BF800008BF8021005B0BDE8000FF0BD46
:1054380040F6D8720120C2F2200207F03BF9F0B51D
:1054480003AF4DF804BD82B0054690F829000C461C
:1054580048B12846FFF73AFCC2B2062A09D002B082
:105468005DF804BBF0BD2846FFF78EFCC2B2062AE1
:10547800F5D1D5E90201012601F01F01022206FA41
:1054880001F1C0F8881044F0800007F8110C812061
:1054980007F8120C05F11C00A7F11201FEF781FCB8
:1054A800C1B206290ED1D5E9020101F01F0106FAA1
:1054B80001F1C0F88410062085F8284002B05DF894
:1054C80004BBF0BD042002B05DF804BBF0BDF0B52C
:1054D80003AF4DF804BD84B00446D0E9020101F0E1
:1054E8001F01012604F11C05A7F11E0206FA01F1AD
:1054F8000223C0F88810122027F81E0C01A829469C
:10550800FEF736FD019870B3D4E9022303F01F03B8
:10551800029906FA03F30129C2F884302AD9D4E99A
:10552800021202F01F02407806FA02F2C1F888203F
:10553800A7F1120107F8110C922007F8120C28465F
:105548000222FEF72EFCC1B206290ED1D4E90202CE
:1055580002F01F0206FA02F2C0F88420062004B006
:105568005DF804BBF0BD9DF80810042004B05DF898
:1055780004BBF0BD40F6D8720120C2F2200207F049
:1055880099F8F0B503AF4DF8048D0446054654F874
:10559800380B18B101283FD101260EE0281D884696
:1055A800FDF7E7FBC0B2062804D04146072824D1FE
:1055B800002602E0012641462E602046FCF778FED0
:1055C800C0B260F0070111F1020F1DD3073818BFF0
:1055D800012006420DD02868012801BFA96B0220CE
:1055E8002860012913D040F6E870C2F2200006F0C6
:1055F800FDFD07205DF8048BF0BD02222A6060F0F3
:10560800070212F1020FC7D25DF8048BF0BD2060CB
:1056180006205DF8048BF0BD40F6681040F6901245
:10562800C2F22000C2F22002252107F061F880B5FD
:105638006F46FEDE80B56F46084640F6F871C2F246
:1056480020011222BDE8804005F03EBEF0B503AF50
:105658004DF804BD82B0044690F8340001280BD1FF
:105668002068002841D14FF0FF30224642F8200B35
:105678000968CDE9001229E00E6804F0A8FE054685
:1056880004F098FE2068E90718D170BB4FF0FF308E
:10569800214641F8200B6846CDE9006103F0F6FA8F
:1056A80000281CBF684603F018FB20680130206002
:1056B80004F082FE02B05DF804BBF0BDA8B94FF05B
:1056C800FF30214641F8200BCDE90061684603F020
:1056D800DDFA00281CBF684603F0FFFA2068013095
:1056E800206002B05DF804BBF0BD41F20C00C2F2CC
:1056F800200006F0BCFBF0B503AF4DF804BD82B046
:10570800044690F83400012807D12068A0BB4FF068
:10571800FF3009682060009121E00E6804F057FE10
:10572800054604F047FE2068E90713D120BB4FF077
:10573800FF300096206004F120000190684603F0D5
:10574800DAFA20680130206004F036FE02B05DF815
:1057580004BBF0BD80B94FF0FF300096206004F123
:1057680020000190684603F0C6FA206801302060E6
:1057780002B05DF804BBF0BD41F20C00C2F220009B
:1057880006F075FBF0B503AF4DF804BD82B00446D2
:1057980090F83400012819D12068002869D14FF009
:1057A800FF30224642F8200B68460968CDE900120E
:1057B80003F045FA002841D06D46284603F058FA10
:1057C800284603F03CFA0028F7D135E00E6804F0CB
:1057D800FEFD054604F0EEFD2068E90717D1002814
:1057E80047D14FF0FF30214641F8200B6846CDE9FC
:1057F800006103F024FA68B36D46284603F038FACE
:10580800284603F01CFA0028F7D1012527E080BBC1
:105818004FF0FF30214641F8200B6846CDE9006182
:1058280003F00DFA50B16D46284603F021FA2846D8
:1058380003F005FA0028F7D1012004E0684603F0D8
:105848000BFA80F0010021680131216002B05DF897
:1058580004BBF0BD684603F0FFF980F0010520683D
:105868000130206004F0A8FD284602B05DF804BBB2
:10587800F0BD41F20C00C2F2200006F0F8FAF0B5D3
:1058880003AF4DF804BD8268012A2ED1C36842696E
:10589800934250D20569D0F818C0EC5C0134EC543E
:1058A8000CF1020494421CD80CF58073964693427E
:1058B80038BF9E46A34236D3AEEB0403052B10D364
:1058C8008B7991F807E00E7A89882B552B199970F6
:1058D800090A5E7083F804E0D9700CF1070393425B
:1058E80007D902205DF804BBF0BD07205DF804BBB2
:1058F800F0BD944528D2072105F80C100CF10101E0
:1059080091423FBF05226A54836108203CBF5DF87D
:1059180004BBF0BD41F22C030846C2F22003114635
:105928001A4606F0C7FE41F23C032046C2F22003A5
:10593800714606F0CEFB41F24C041846C2F2200430
:105948001146224606F0B6FE41F21C036046C2F23A
:10595800200311461A4606F0ADFED0B502AF84B05A
:105968000188062911D181690968BFF35F8F79B170
:105978000023827F009302AB04461846012303F0FC
:1059880047FF0820208004B0D0BD072004B0D0BD58
:1059980041F2341041F25812C2F22000C2F2200241
:1059A800222106F0A5FEF0B503AF4DF804BD86B080
:1059B800044608880D46411E032927D3052825D00B
:1059C800072832D1D5F8AC00D5F806306989802887
:1059D800D5F80220ADF80C10CDE901236BD8E968A1
:1059E8000968BFF35F8F00295AD0C0F18003AA7CF1
:1059F8002844009300F1240304A803F0F6FD9DF861
:105A08001000C0B39DF81100D8B92EE0E86801680D
:105A1800BFF35F8F002943D0AA7C04A80026012386
:105A2800009603F0E2FD2E801FE0E8680168BFF3EE
:105A38005F8FA9B30020AA7C009004A8012303F07B
:105A4800D4FDE868092129800068BFF35F8F38B367
:105A5800A97C012203F051FCA8690068BFF35F8F9D
:105A6800F0B1A97F012203F048FC0420607206B05F
:105A78005DF804BBF0BD0598D5E92B120844C5F8BC
:105A8800AC009042F1D3DDE901010623BDF80C20FA
:105A98002B8020606160228106B05DF804BBF0BDF8
:105AA80041F2341041F25812C2F22000C2F2200230
:105AB800222106F01DFE41F25C038021C2F2200380
:105AC800802206F006FBF0B503AF2DE9000F85B084
:105AD8000446C8680D460168BFF35F8F002900F0CF
:105AE8008C8005F124068020AA7C009002A8334609
:105AF80003F07BFD9DF80800012803D19DF80900FB
:105B080060B921E0039A812A80F0828002A8314698
:105B180004F0A4FB9DF8110004281BD1E8680921B2
:105B280029800068BFF35F8F002866D0A97C012216
:105B380003F0E3FBA8690068BFF35F8F00285CD01F
:105B4800A97F012203F0D9FB0420607205B0BDE8EB
:105B5800000FF0BDE868BDF810A09DF80F609DF833
:105B68000E90BDF80CB0DDF808800068BFF35F8FB9
:105B7800002842D0A97C002203F0BFFBBEB104205C
:105B8800A5F80AA06E7285F80890A5F806B0C5F8C1
:105B980002802880A4F808A0E67184F80690A4F88A
:105BA80004B0C4F8008005B0BDE8000FF0BDBBF13B
:105BB800000F11D0BBF1800FB0D80020A5F80AA0C3
:105BC800C5E92B0B6872072085F80890A5F806B080
:105BD800C5F802802880B7E70620A4F808A0288026
:105BE8000020C5F8B000E07184F80690A080C4F8E1
:105BF800008005B0BDE8000FF0BD41F2341041F25D
:105C08005812C2F22000C2F22002222106F070FDD2
:105C180041F26C031146C2F220030020802206F0F4
:105C280058FAD0B502AF84B00446D0E929C2D0F8FA
:105C3800AC00D4F8B010BCF1000FA38B08BF8022D1
:105C4800091A994238BF0B46191828D2914226D80A
:105C5800A1690968BFF35F8F39B3A27FBCF1000F58
:105C6800009308BF04F1240C0CEB000302A803F016
:105C7800CFFD9DF8080080B90398D4E92B120144A0
:105C8800C4F8AC10914208D30021A28BC4F8A41028
:105C98000321904208BF0221218004B0D0BD41F207
:105CA8007C03C2F2200306F014FA41F2341041F2E8
:105CB8005812C2F22000C2F22002222106F018FD7A
:105CC800B0B502AF84B001880139072939D8DFE8B7
:105CD80001F0041C0A3838383832FFF7A2FF0024D4
:105CE800204604B0B0BDC1680A68BFF35F8F002AC0
:105CF80041D0817C054610460022002403F0FDFABD
:105D080005202880204604B0B0BD81690968BFF32A
:105D18005F8F81B3827F054602A800240123009487
:105D280003F076FD9DF80800002804BF03202880B2
:105D3800204604B0B0BD002101240180204604B0F3
:105D4800B0BDC168092202800A68BFF35F8F92B1B3
:105D5800817C04461046012203F0CFFAA06900684E
:105D6800BFF35F8F38B1A17F012203F0C6FA002488
:105D7800204604B0B0BD41F2341041F25812C2F2CC
:105D88002000C2F22002222106F0B2FC0288042A76
:105D98001CBF07207047F0B503AF4DF804BD4C6831
:105DA800802C03D902205DF804BBF0BD096800F11E
:105DB8002402C68805461046224606F0A5FF0020A4
:105DC800B44238BF2646C5E92B060120288028465C
:105DD800FFF727FF08205DF804BBF0BDF0B503AF5F
:105DE8002DE9000B8CB004460088042846D1002019
:105DF8000D46079080218DF82000164603900190EB
:105E0800099001A80B9009A8069104F12401B4F89F
:105E18000680059104F0B5F9C0B208282AD176B1F8
:105E280005EBC6060DF12409D5E900010A694946C2
:105E38009047C1B208291DD10835B542F4D109A847
:105E480004F0F8F9079880281DD9E0680921218015
:105E58000068BFF35F8F30B3A17C012203F04DFAD5
:105E6800A0690068BFF35F8FE8B1A17F012203F04A
:105E780044FA02200CB0BDE8000BF0BD07200CB0BE
:105E8800BDE8000BF0BD012200212280404538BF4B
:105E980080462046C4E92B18FFF7C3FE08200CB043
:105EA800BDE8000BF0BD41F2341041F25812C2F2C5
:105EB8002000C2F22002222106F01AFCB0B502AF7F
:105EC80088B00446008804282DD1D1E900120020AA
:105ED800802306908DF81C00029000906846059378
:105EE80004F12403E588049304F01DF8C0B20828DF
:105EF80017D10698802819D9E068092121800068FF
:105F0800BFF35F8F00B3A17C012203F0F6F9A0690B
:105F18000068BFF35F8FB8B1A17F012203F0EDF9EC
:105F2800022008B0B0BD072008B0B0BD0122002192
:105F38002280A84238BF05462046C4E92B15FFF742
:105F480070FE082008B0B0BD41F2341041F258127A
:105F5800C2F22000C2F22002222106F0C9FBB0B52D
:105F680002AF8AB004460088042833D1002080217B
:105F78000790A7F10A028DF82000022303900190F0
:105F880040F20940069104F1240127F80A0C01A8FF
:105F980005910321E58803F0DAFEC0B2082817D17D
:105FA8000798802819D9E068092121800068BFF383
:105FB8005F8F00B3A17C012203F09FF9A0690068FC
:105FC800BFF35F8FB8B1A17F012203F096F90220D9
:105FD8000AB0B0BD07200AB0B0BD0122002122805E
:105FE800A84238BF05462046C4E92B15FFF719FE1D
:105FF80008200AB0B0BD41F2341041F25812C2F282
:106008002000C2F22002222106F072FBF0B503AF95
:106018002DE9000788B004460088042848D1D1E952
:10602800000680228D680021059204F12402069161
:1060380004928DF81C100291009101686846B4F82A
:10604800068003F030FDC0B208282DD18DB106EBD3
:10605800C505E9464FF0000AD6E90001CA68494675
:106068009047C1B208291FD10836CDF808A0AE4222
:10607800F2D1684603F0FFFD069880281DD9E06834
:10608800092121800068BFF35F8F30B3A17C012212
:1060980003F033F9A0690068BFF35F8FE8B1A17F0F
:1060A800012203F02AF9022008B0BDE80007F0BD7C
:1060B800072008B0BDE80007F0BD012200212280BA
:1060C800404538BF80462046C4E92B18FFF7A9FD94
:1060D800082008B0BDE80007F0BD41F2341041F2D5
:1060E8005812C2F22000C2F22002222106F000FB60
:1060F800B0B502AF88B00446008804282CD10968DE
:106108000020802206908DF81C00029000906846BE
:10611800059204F12402E588049203F067FEC0B2F8
:10612800082817D10698802819D9E0680921218004
:106138000068BFF35F8F00B3A17C012203F0DDF894
:10614800A0690068BFF35F8FB8B1A17F012203F097
:10615800D4F8022008B0B0BD072008B0B0BD0122B5
:1061680000212280A84238BF05462046C4E92B15E5
:10617800FFF757FD082008B0B0BD41F2341041F2D6
:106188005812C2F22000C2F22002222106F0B0FA10
:10619800D0B502AF0446C068092121800068BFF36A
:1061A8005F8F78B1A17C012203F0A7F8A06900688D
:1061B800BFF35F8F00281FBFA17F0122BDE8D04039
:1061C80003F09BB841F2341041F25812C2F2200099
:1061D800C2F22002222106F08BFAF0B503AF4DF887
:1061E80004BD82B000228029019203D28DF80410E8
:1061F800012430E04FF6FE760B46C0F2FF368A09DE
:1062080066F39F13B1F5006F07D242F0C0018DF815
:1062180005308DF8041002241DE066F39F120D0B63
:106228000024B4EB114F07D145F0E0018DF806309A
:106238008DF8052003240CE06FF00F0444EA914127
:10624800042466F39F158DF807308DF806208DF825
:1062580005508DF80410066804F098F80546B068F3
:10626800B8B94FF0FF3006F10C02B06001A8214622
:1062780000F0ACFC0446B0680130B060284604F079
:1062880090F8E0B2033818BF012002B05DF804BBF3
:10629800F0BD41F2B400C2F2200005F0E8FDF0B50F
:1062A80003AF4DF8048D86B091E8705141F29C011E
:1062B8006A461346C2F2200183E8705104F083FC59
:1062C80006B05DF8048BF0BDF0B503AF4DF8048D52
:1062D80015460E46046804F059F88046A068B0B91F
:1062E8004FF0FF3004F10C02A0603046294600F060
:1062F8006DFC0546A0680130A060404604F051F8E6
:10630800E8B2033818BF01205DF8048BF0BD41F2F4
:10631800B400C2F2200005F0AAFDF0B503AF2DE9E4
:10632800000F91B0804648F69420D1F82090C2F230
:106338000000006881451FD8D8F804008A46F8B1E3
:10634800D8F8001000EB4000DAE909B50C1D86000A
:1063580002E00C340C3E0FD02068A842F9D154F862
:10636800040C59462A4606F0FFFE0028F1D1606861
:10637800062818BF814505D911B0BDE8000FF0BD4A
:10638800DAE909B50AF12C00049044F6F90041F263
:106398009C01C0F200000BAA0A9004A8099044F6D8
:1063A800E700C0F20000C2F22001089002A807909E
:1063B80048F26330C0F200000395069001A80590EA
:1063C80000200F9003200E9005A80D9004200C903B
:1063D80041F2CC00C2F220008DE8000B0B90684619
:1063E80004F0F1FB11B0BDE8000FF0BD80B56F46B9
:1063F80080BDF0B503AF2DE9000B48F69422D1F823
:106408000080C2F200021268904503D90020BDE85E
:10641800000BF0BD42681AB30068D1E90194061D6B
:1064280002EB4200850002E00C360C3DEED03068ED
:10643800A042F9D156F8040C4946224606F094FECB
:106448000028F1D1706800218045A0F10600B0FA5B
:1064580080F098BF012140090843BDE8000BF0BD5A
:106468000120BDE8000BF0BDD0B502AF537A012B77
:1064780007D1137A012B02BF90F82C3054889C4224
:1064880000D0D0BD9379212B04BF9288072A28D049
:10649800088840F002000628F3D1C86809220A805B
:1064A8000068BFF35F8F88B18A7C0C4611460122D1
:1064B80002F023FFA0690068BFF35F8F00281FBFA9
:1064C800A17F0122BDE8D04002F017BF41F234108D
:1064D80041F25812C2F22000C2F22002222106F034
:1064E80007F90A88042A18BFD0BDCA88002390F883
:1064F80004C0012490F805E0072AC1F8AC3083797C
:106508000068486208460C8081F8283081F829E044
:1065180081F82AC028BF0722C1F8B020BDE8D040C2
:10652800FFF77FBBD0B502AF84B0537A012B07D1F8
:10653800137A012B02BF90F82C3054889C4201D06A
:1065480004B0D0BD9379002B5BD0202B0ED0222B2A
:106558002CD112780B8802F0010480F82E40C2F387
:106568004002062B80F82F20EAD14DE0D1F8B02068
:10657800812A5CD2062A19D991F8282091F8294055
:1065880091F82AE0032A4B6AB1F800C003604FF083
:10659800000380F804E028BF1A46052C827138BF32
:1065A8002346BCF1060F4371CAD12DE0088840F09C
:1065B80002000628C4D1C86809220A800068BFF30F
:1065C8005F8F98B18A7C0C461146012202F095FE35
:1065D800A0690068BFF35F8F00281FBFA17F012259
:1065E80004B0BDE8D04018BF02F087BE41F23410B5
:1065F80041F25812C2F22000C2F22002222106F013
:1066080077F8088806289BD188690368BFF35F8FED
:10661800002BEBD08A7F0020009002A80C46194678
:10662800012303F0F5F80820208004B0D0BD41F222
:106638008C031146C2F220030020802205F049FD98
:10664800F0B503AF4DF8048D84B090F82C60804607
:1066580000250220CDE900050C46084631460222F5
:10666800022303F019FBC0B2082863D12046314643
:1066780002220223009503F002FDC0B2082859D176
:1066880041F2EC022046C2F220022421032303F047
:106698005EFBC0B208284DD140F2C0322046C2F29B
:1066A80020022421022303F052FBC0B2082841D162
:1066B8000620A7F1160207F8156C242198F82D601A
:1066C800032307F8160C204607F8146C03F03FFB69
:1066D800C0B208282ED10120A7F1130227F8130C05
:1066E80020462421032307F8116C03F030FBC0B2C5
:1066F80008281FD108F108012046FFF7C0F8C1B2E9
:10670800082917D100203146009020460A2200238C
:1067180003F0B5FCC0B208280CD108F120012046CE
:10672800FFF7ADF8C1B2082904D108F114012046D9
:10673800FFF7A5F804B05DF8048BF0BDD0B502AF43
:1067480045F20C020C46D1E90113C2F200024FF0E7
:10675800000CD06082E80A1041F2F001C2F2200178
:10676800104603F004FF002801BF216848F6942270
:10677800C2F200021160D0BD80B56F46002080BD16
:1067880080B56F4680BD80B56F46082080BD80B556
:106798006F4680BDF0B503AF4DF804BD84B048F234
:1067A8004C540D460646D0E900014B6AC2F200047B
:1067B80021462A469847208840F0020106291CD124
:1067C800697AF1B1218841F00200062815D1E06804
:1067D800092121800068BFF35F8F002872D0A17C57
:1067E800012202F08AFDA0690068BFF35F8F0028CC
:1067F80068D0A17F012202F080FD04B05DF804BBDF
:10680800F0BD2A7AA9790AB3012A10D0022A08BF52
:106818000029D7D16988D4F8DC0001F08F0102F093
:106828002AFD21880429CED1A084002025E001B3C7
:106838000A2908BF0428C5D1E1880020012284F86C
:1068480024002280002918BF01211CE039B3062941
:106858001FD00829B6D194F8E20001210391A7F1CD
:106868001A0102380291B0FA80F0400907F81A0CB0
:1068780023E00428A6D10020A084E18801222280F8
:10688800022928BF0221C4E92B012046FFF7C9F9D4
:1068980098E76A883046298800F0D6F892E794F895
:1068A800E000022294F8E1100392A7F11A024000D6
:1068B8000292C0B2084327F81A0C02A92046FFF733
:1068C80065FA7FE741F2341041F25812C2F2200013
:1068D800C2F22002222105F00BFF0000B0B502AF82
:1068E80084B048F24C540B6AC2F2000415462146A3
:1068F8009847228842F0020006282AD1697A51B3C3
:10690800228842F00200062823D1E068092121806C
:106918000068BFF35F8F88B1A17C012202F0EDFC13
:10692800A0690068BFF35F8F00281FBFA17F012205
:1069380004B0BDE8B04018BF02F0DFBC41F234102B
:1069480041F25812C2F22000C2F22002222105F0C0
:10695800CFFE04B0B0BD2B7A95F806C029885BB38A
:10696800012B12D0022BCED1BCF1010F35D0BCF1D6
:10697800030F08BF0029C6D169880122D4F8DC00BA
:1069880001F08F0102F0B9FC50E0BCF10B0F08BF19
:106998000029B8D1062AB3D1A0690168BFF35F8F77
:1069A8000029CBD0A27F0020009002A8012302F08A
:1069B8002FFF08202080A3E7ACF10103082BA2D801
:1069C800DFE803F0060521051705050528009AE705
:1069D80001297FF498AF002019E000297FF493AFD4
:1069E80069880022D4F8DC0001F08F0102F085FCF0
:1069F8001CE04A1E92B27F2ABFF485AFD4F8DC00AF
:106A080002F007FD0FE001297FF47DAF012084F833
:106A1800E0000BE021B101297FF475AF022003E00B
:106A280094F8E21031B1012084F8E2002046FEF724
:106A380094FF65E706287FF464AF48F24C50C2F231
:106A48000000FFF7A5FB5BE7F0B503AF4DF804BD09
:106A580084B048F24C568CB2C2F2000606F1B40378
:106A68004FF0FF3505EB14240E2C009300F26880DC
:106A7800DFE804F00827136666666666666666667B
:106A88006666370048F24C506946C2F20000FFF7CC
:106A98002FFB04B05DF804BBF0BDCCB2032C3DD88D
:106AA80006F1B801DFE804F0022F2B3248F24C500F
:106AB800C2F2000004B05DF804BBBDE8F040FFF787
:106AC8004EBA0121CDE902016846019048F24C50C6
:106AD80001A9C2F20000FFF799FA04B05DF804BBFF
:106AE800F0BD48F24C520146C2F2000210460122A3
:106AF80004B05DF804BBBDE8F040FFF76FB906F1DC
:106B0800BC0306F1C001186830B919E006F1C403E6
:106B180006F1C801186898B1096804E0D0E90003D3
:106B28005B69984760B1CDE9010148F24C5001A971
:106B3800C2F20000FFF7C2F904B05DF804BBF0BD73
:106B4800308840F002000628A3D1F068092131807E
:106B58000068BFF35F8F98B1B17C012202F0CDFBD2
:106B6800B0690068BFF35F8F00281FBFB17F0122A3
:106B780004B05DF804BB1CBFBDE8F04002F0BDBB2B
:106B880041F2341041F25812C2F22000C2F220023F
:106B9800222105F0ADFD80B56F460A46D0E9000117
:106BA800BDE8804003F0F6BE80B56F460068BDE8DA
:106BB800804005F0BBBD80B56F460021C18581715D
:106BC800082181804FF4FA51016080BDF0B503AF10
:106BD8002DE9000F81B0146880460122BFF35F8F52
:106BE80004F21146D6E84F0FC6E8432F002BF9D11F
:106BF800BFF35F8F20B1012001B0BDE8000FF0BDE9
:106C0800D4F80004BFF35F8FD4F80424BFF35F8F78
:106C1800904204D2C34312EB030A0BD177E0B0F5DC
:106C2800806F05D1012A72D9A2F1010A002001E082
:106C3800C0F5806AD146514538BF89468B4609EB75
:106C480000012044BFF35F8FC4F80C1441464A4644
:106C580006F05AF894F8110404F20C45BFF35F8F5C
:106C680058B3D4F80004BFF35F8FBFF35F8F55E8C4
:106C7800001F45E80012002AF9D1BFF35F8FB0F575
:106C8800806FD4F80824BFF35F8FD4F80C14BFF3D7
:106C98005F8F01D0814203D3914205D94FF48060C0
:106CA800BFF35F8FC4F80804BFF35F8FC4F8001404
:106CB8000020BFF35F8F84F81104D3456BD908EB2C
:106CC8000901ABEB090C0123BFF35F8FD6E84F2F07
:106CD800C6E8403F0028F9D1002ABFF35F8F7FF450
:106CE8008AAFD4F80034BFF35F8FD4F80424BFF31D
:106CF8005F8F934203D2D843121813D107E0B3F53C
:106D0800806F0DD1012A02D9013A00230AE0002040
:106D18000021BFF35F8F317001B0BDE8000FF0BDF7
:106D2800C3F58062944538BF6246D018BFF35F8FC1
:106D3800C4F80C04E01805F0E7FF94F81104BFF359
:106D48005F8F40B3D4F80004BFF35F8FBFF35F8F4A
:106D580055E8001F45E80012002AF9D1BFF35F8FFC
:106D6800B0F5806FD4F80824BFF35F8FD4F80C1403
:106D7800BFF35F8F01D0814203D3914205D94FF40D
:106D88008060BFF35F8FC4F808040320BFF35F8FF0
:106D9800C4F80014BCE7032001B0BDE8000FF0BD43
:106DA800F0B503AF2DE9000F8DB041F2681048F23D
:106DB8004C5648F64829C2F22000C2F20006049058
:106DC800C2F2000909F10800D6F8DC10039005A802
:106DD80002F063FB96F8E210BDF81400032910D105
:106DE80000284FF0000418BF032800F0AD8096F883
:106DF800E310042900F09581042286F8E21086F851
:106E0800E3200024DFE800F0A003221CA000D6F84D
:106E1800DC0002F0CDFC4FF4806086F8E440A6F870
:106E2800E2000820A9F80C004FF4FA5086F8E04078
:106E38003480A9F8364089F80E40C9F8080083E084
:106E4800032086F8E31086F8E2007DE0BDF816001E
:106E5800BDF818A0BDF81AB0029040EA0A0040EA4E
:106E68000B05E80746D05FEACA7005D048F24C50D7
:106E7800C2F20000FEF724FF5FEACB700AD1029845
:106E8800C00713D104208DF825009DF8250004289B
:106E980017D12DE048F24C5107A8C2F20001FEF7C5
:106EA80012FE9DF8250004280BD121E048F24C5130
:106EB80007A8C2F20001FEF776FD9DF82500042818
:106EC80016D09DF82300002800F00D8180280FD1EE
:106ED800DDE90712BDF82400ADF8300003A8CDE9BC
:106EE8000A120AA9FFF756FC25F001051DB926E08C
:106EF80025F001051DB34FF00208012418EA0B0F15
:106F080001D0282104E0029818EA000F05D02C21AE
:106F1800DDE9030252582146904718EA0A0F05D0C6
:106F2800DDE903010A6B64F07F01904725EA080553
:106F3800280404D001344FEA48080F2CDED9DDE9D3
:106F48000301C969884701240021D6F8DC000A91A9
:106F58000AA9FEF717FC99F8001096F8E220022A11
:106F680038D181B9D6F8DC100546084602F053F945
:106F78000021D6F8DC000A910AA9FEF767FB28462B
:106F8800012189F80010D9F81C100968BFF35F8F38
:106F9800002900F0BB8044EA0005002099F822206F
:106FA800012300900AA8012402F01FFB75B1D9F84B
:106FB8000400BFF35F8F00F58261D1E84F2FC1E86D
:106FC800434F002BF9D1BFF35F8F92B10DB0BDE8ED
:106FD800000FF0BD31B10021D6F8DC000A910AA9F2
:106FE800FEF789FB002089F800000DB0BDE8000F0E
:106FF800F0BDD0F80064BFF35F8FD0F80824BFF36A
:107008005F8FD0F80434BFF35F8F934206D19E425E
:107018003EBFBFF35F8F0023C0F804349E4228BFF1
:1070280032469A4207D10020BFF35F8F08700DB037
:10703800BDE8000FF0BDD9F82810D9F80440096858
:10704800BFF35F8F002961D0D61A99F82E20034428
:107058000AA83546B6F5007F28BF4FF4007500959D
:1070680002F0D6FB9DF82800012810D194F81004EE
:10707800BFF35F8F0028A9D004F20440BFF35F8FED
:1070880050E8001F40E80012002AF9D122E00B98CE
:1070980094F81014BFF35F8FB0420DD2002995D039
:1070A80004F20441BFF35F8F51E8002F024441E826
:1070B8000023002BF8D10DE000293FF487AF04F23C
:1070C8000440BFF35F8F50E8001F314440E80012CE
:1070D800002AF8D10020BFF35F8F84F810040DB0A8
:1070E800BDE8000FF0BDBDF82420DDE90301ADF8CF
:1070F80030200AAADDE90734CDE90A34FFF7EEFBB0
:1071080025F00105002D7FF4F6AE18E741F23410A2
:1071180041F25812C2F22000C2F22002222105F0E8
:10712800E7FA41F2081041F22412C2F22000C2F23A
:1071380020021C2105F03EF808293FBF0078C8400E
:1071480000F00100704780B56F4641F29C1041F293
:10715800C812C2F22000C2F220022A2105F0C8FAA1
:10716800F0B503AF4DF804BD0E46002115460446A0
:1071780000F04EFC284640F2E24100F000FD3046A7
:1071880000F04FFC40F638152146C2F220050022D7
:107198002846366800F0DFFCA81C2146002200F0D3
:1071A800DAFC281D2146002200F0D5FCA81D214646
:1071B800002200F0D0FC05F108002146002200F072
:1071C800CAFC05F10A002146002200F0C4FC05F1C2
:1071D8000C002146002200F0BEFC05F10E002146FD
:1071E800002200F0B8FC05F110002146002200F052
:1071F800B2FC05F112002146002200F0ACFC05F1BA
:1072080014002146002200F0A6FC05F116002146D4
:10721800002200F0A0FC05F118002146002200F031
:107228009AFC05F11A002146002200F094FC05F1B1
:107238001C002146002200F08EFC05F11E002146AC
:10724800002200F088FC20684169890107D541695E
:1072580021F000714161204600F0C9FB20684169B6
:10726800012221F0605141612068816962F30D318A
:107278008161204600F0BBFB2068416941F0007144
:107288004161204600F0B3FB4FF480503060642029
:1072980030604FF4005070603068002809D43068BE
:1072A80000285CBF3068002803D43068B0F1FF3F85
:1072B800F2DC20680122016962F3020101612046C3
:1072C80000F095FB2068416921F4E05141612046B6
:1072D80000F08DFB2068816941F4402181612068BC
:1072E800416921F000714161204600F080FB20686F
:1072F80040F6CC35C2F220050022416941F44071C4
:1073080041612846214600F026FCA81C214600229F
:1073180000F021FC281D2146002200F01CFCA81DBD
:107328002146002200F017FC2068022640F6E435CA
:107338000022C2F22005816B66F3D8418163206880
:10734800816B41F4802181632846214600F003FCCB
:10735800A81C2146002200F0FEFB281D2146002221
:1073680000F0F9FBA81D2146002200F0F4FB20687C
:1073780041F2D8150322C2F22005816966F305118E
:1073880081612068816962F39C6181612846214698
:10739800002200F0E0FBA81C2146002200F0DBFBE5
:1073A800281D2146002200F0D6FBA81D21460022F8
:1073B80000F0D1FB05F108002146002200F0CBFBCC
:1073C8002068172240F65425C2F22005C16962F3ED
:1073D8000501C16120680022C16941F04001C16115
:1073E8002846214600F0B7FBA81C2146002200F0E1
:1073F800B2FB281D2146002200F0ADFBA81D214646
:10740800002200F0A8FB05F108002146002200F048
:10741800A2FB05F10A002146002200F09CFB05F1C1
:107428000C002146002200F096FB05F10E002146D3
:10743800002200F090FB206841F2E215C2F220051C
:107448000322416A41F0400141622068416A66F3C3
:10745800050141622846214600F07DFBA81C214613
:10746800032200F078FB281D2146032200F073FB5D
:10747800A81D2146032200F06EFB05F108002146F5
:10748800032200F068FB05F10A002146032200F000
:1074980062FB05F10C002146032200F05CFB05F1BC
:1074A8000E002146032200F056FB05F1100021468C
:1074B800032200F050FB05F112002146032200F0E0
:1074C8004AFB05F114002146032200F044FB05F1B4
:1074D80016002146032200F03EFB05F11800214664
:1074E800032200F038FB05F11A002146032200F0C0
:1074F80032FB05F11C002146032200F02CFB05F1AC
:107508001E002146032200F026FB05F1200021463B
:10751800032200F020FB05F122002146032200F09F
:107528001AFB05F124002146032200F014FB05F1A3
:1075380026002146032200F00EFB05F12800214613
:10754800032200F008FB05F12A002146032200F07F
:1075580002FB05F12C002146032200F0FCFA05F19C
:107568002E002146032200F0F6FA05F130002146EC
:10757800032200F0F0FA05F132002146032200F060
:10758800EAFA05F134002146032200F0E4FA05F195
:1075980036002146032200F0DEFA05F138002146C4
:1075A800032200F0D8FA05F13A002146032200F040
:1075B800D2FA05F13C002146032200F0CCFA05F18D
:1075C8003E002146032200F0C6FA05F1400021469C
:1075D800032200F0C0FA05F142002146032200F020
:1075E800BAFA05F14400214603225DF804BBBDE860
:1075F800F04000F0B0BAF0B503AF2DE9000F81B04C
:1076080048F680214FF0010CC2F20001BFF35F8FF2
:10761800D1E84F2FC1E843CF002BF9D1BFF35F8FDB
:10762800002A01BF48F20001C4F20D010022C4F291
:107638002F0201BF02F5542C02F5502E02F54C28FA
:10764800A1F5004401BFA1F5003501F5F61601F5D5
:10765800F413C0E9683601BFC0E96A54C0E96C8E0A
:10766800C0E96EC101F5005E01BF01F5805640F228
:10767800040CC4F22E0C01F5021401BF0CF5FE75C2
:1076880001F5004300F5C07888E8380001BF00F52F
:10769800C67383E81210C0E9666EA1F5404C01BFBD
:1076A80001F5881E01F5861801F5841401F5821389
:1076B80001BF01F5003602F51025C0E9585600F55E
:1076C800B47501BF85E81A41C0F87CC1A1F5804CAA
:1076D80002F51C2E01BF02F5182802F51424A1F5A5
:1076E800E03301F5282601BF01F5EE15C0E9505633
:1076F80000F5A47585E8184101BFC0E9562C02F5CC
