:0200000460009A
:100000004643464200000156000000000101020084
:1000100000000000000000000000000000000000E0
:1000200000000000000000000000000000000000D0
:1000300000000000000000000000000000000000C0
:1000400000000000010403000000000000000000A8
:100050000000200000000000000000000000000080
:100060000000000000000000000000000000000090
:100070000000000000000000000000000000000080
:10008000EB04180A063204260000000000000000FD
:10009000050404240000000000000000000000002F
:1000A0000000000000000000000000000000000050
:1000B0000604000000000000000000000000000036
:1000C0000000000000000000000000000000000030
:1000D00020041808000000000000000000000000DC
:1000E0000000000000000000000000000000000010
:1000F0000000000000000000000000000000000000
:1001000000000000000000000000000000000000EF
:100110000204180804200000000000000000000095
:1001200000000000000000000000000000000000CF
:10013000600400000000000000000000000000005B
:1001400000000000000000000000000000000000AF
:10015000000000000000000000000000000000009F
:10016000000000000000000000000000000000008F
:10017000000000000000000000000000000000007F
:10018000000000000000000000000000000000006F
:10019000000000000000000000000000000000005F
:1001A000000000000000000000000000000000004F
:1001B000000000000000000000000000000000003F
:1001C000000100000010000001000000000000001D
:1001D000000000000000000000000000000000001F
:1001E000000000000000000000000000000000000F
:1001F00000000000000000000000000000000000FF
:10020000D4D4D4D4D4D4D4D4D4D4D4D4D4D4D4D4AE
:10100000D10020400020006000000000000000002F
:1010100020100060001000600000000000000000D0
:1010200000000060E81D010000000000EFBEADDE22
:10103000124880F3088812481249016000F036F81F
:10104000114812490022814201D004C0FBE7104838
:101050001049114A814202D008CA08C0FAE70F4875
:101060004FF47001026842EA01020260BFF34F8F41
:10107000BFF36F8F00F014F800DE00000040002086
:1010800008ED00E00040002000500020988A002079
:10109000B84200204C440020E81D016088ED00E0CB
:1010A00041F2ED6CC0F2000C6047D4D4204840F20D
:1010B0009C41884219D040F24C418842CCBF1D4A25
:1010C0001D4A1E4B5360136823F0800313601C48B5
:1010D0001C49C1BF1C480A0C8264C1F30F01416462
:1010E000016C41F00401016402E0184815490160F7
:1010F0001748184A824205D01749814202D008CACF
:1011000008C0FAE71548164A824205D015498142BF
:1011100002D008CA08C0FAE71348144A824205D030
:101120001349814202D008CA08C0FAE7704700009C
:10113000240400000080034000C00B4020C528D9D3
:1011400000C00A40AAAAFAFF00400E4060004F44C7
:1011500000000000B8220060B0D400000040002071
:1011600000200060B84200200000202068F70060E6
:1011700080262020D4D4D4D4D4D4D4D4D4D4D4D499
:10118000D4D4D4D4D4D4D4D4D4D4D4D4D4D4D4D41F
:10119000D4D4D4D4D4D4D4D4D4D4D4D4D4D4D4D40F
:1011A000D4D4D4D4D4D4D4D4D4D4D4D4D4D4D4D4FF
:1011B000D4D4D4D4D4D4D4D4D4D4D4D4D4D4D4D4EF
:1020000000400020311000601370000091D40000E7
:102010001370000013700000137000000000000037
:10202000000000000000000000000000137000002D
:102030001370000000000000137000009504000001
:102040001370000013700000137000001370000084
:102050001370000013700000137000001370000074
:102060001370000013700000137000001370000064
:102070001370000013700000137000001370000054
:1020800013700000000000000000000000000000CD
:102090001370000013700000137000001370000034
:1020A0001370000013700000137000001370000024
:1020B0001370000013700000137000001370000014
:1020C0001370000013700000137000001370000004
:1020D0001370000013700000137000000100000076
:1020E00013700000137000001370000013700000E4
:1020F00013700000137000001370000013700000D4
:1021000013700000137000001370000013700000C3
:1021100000000000137000000000000013700000B9
:10212000890100001370000013700000137000009C
:102130001370000013700000000000001370000016
:102140001370000013700000137000001370000083
:102150001370000013700000000000000000000079
:102160001370000013700000137000001370000063
:102170001370000013700000137000001370000053
:102180001370000013700000137000001370000043
:102190001370000013700000137000001370000033
:1021A0001370000013700000137000001370000023
:1021B0001370000013700000137000001370000013
:1021C0001370000013700000137000000000000086
:1021D00013700000137000001370000013700000F3
:1021E00013700000137000001370000013700000E3
:1021F00013700000137000001370000013700000D3
:1022000013700000A9040000137000001370000098
:1022100013700000137000001370000013700000B2
:1022200013700000137000001370000013700000A2
:102230001370000013700000137000000000000015
:102240000000000013700000137000001370000005
:102250001370000013700000137000001370000072
:102260001370000013700000137000001370000062
:102270001370000013700000137000001370000052
:102280001370000013700000137000001370000042
:102290001370000013700000137000001370000032
:1022A00013700000137000001370000000000000A5
:0822B000137000001370000020
:1022B800F0B503AF4DF8048D86B009F040FD45F246
:1022C8000001C2F200010C6894F8741049B304F1DB
:1022D80075010022D1E84F3F012B20D1C1E8432FDF
:1022E800002BF7D140F27D71BFF35F8FC0F2000180
:1022F8006A46019141F23851C2F2200180460091AC
:102308000021049194F87010CDE9022279B10329D3
:1023180034D040F6D010C2F220000CF0A7FABFF378
:102328002F8F09F010FD06B05DF8048BF0BD206812
:10233800016819B10021C4E9010110E0012041F24E
:10234800385184F870000020BFF35F8F84F8740060
:1023580040F27D70C2F22001C0F2000038E0D0E9FE
:102368000001012201F01F0102FA01F1C0F88C10EE
:10237800002084F86C004FF4FA70E06004F10C005F
:1023880002A900F0F7F9F0B994F86C00032807D116
:1023980094F86800032804BF94F86500032804D063
:1023A800D4E901010131A160D9E7D4E90C500668EC
:1023B80009F09EFCBFF35F8F2968C1B10A698E429C
:1023C8000FD12A6013E0DDE90010032284F87020A1
:1023D800C9688847404609F0B6FC06B05DF8048B2A
:1023E800F0BD22B196420ED113461A690A6109F06E
:1023F8008AFC206C002184F8641000281EBFC16884
:10240800606C8847CCE711690029F0D08E4210D063
:102418000A69002AEBD09642E6D011690029E6D075
:102428008E4206D00A69002AE1D013469642EAD1C4
:10243800DBE70B461146D8E7F0B503AF2DE9000FEF
:10244800ADF5477D09F07BFC45F20001C2F20001C1
:10245800D1F8108098F80811002900F0B48008F22B
:1024680009110022D1E84F3F012B40F0AA80C1E8B2
:10247800432F002BF6D10190BFF35F8F98F804012A
:10248800C00740F0598102AC41464FF482722046A1
:102498000CF0A4FE09F053FC0546502009F04CFC52
:1024A80042F2906AC2F2200ADAF81C00022838D1F7
:1024B80048F69020C2F200000068002800F036813B
:1024C80040F60030C2F2200009F048FD90E80610FE
:1024D80040F618200023C2F220000426A64640F643
:1024E800E8240DF5097990960126C2F2200489E8BE
:1024F800460083A98C90CDE98530A7F11D008E9404
:102508000E24CDE991338F968D94CDE98743744697
:10251800CDE9836C09F041FDDAF81C00022800F0CF
:1025280005810DF58679FF21009548460CF0DEFE01
:10253800DDF808B004F1040ABBF1000F58D00AEB2B
:102548000B0000215546534613F9014BB4F1FF3FE8
:10255800E2B220DC6C7802F01F03E02A04F03F04AA
:1025680016D3AE78F02A06F03F0646EA84141BD349
:10257800EA7803F0070302F03F0242EA841242EAD3
:102588008342B2F5881F25D02B1DFF2905D110E005
:1025980044EA8312AB1CFF290BD009F80120013152
:1025A8001D468342D0D115E044EA0332EB1CFF29D3
:1025B800F3D140F67832FF20C2F22002FF210CF05E
:1025C80069F9BFF32F8F09F0BEFB0DF5477DBDE814
:1025D800000FF0BD83A843A9FF220CF0FFFD02AC59
:1025E800BBF1100F08D3504659460BF054F907E0D9
:1025F80083A8FF210CF07AFE504659460BF0B9FB30
:10260800024642F2906083A9C2F22000DDF80090F1
:1026180001F070FBC2B2062A31D148F69020C2F20E
:1026280000000068032864D342F2AB60C0F20000E7
:10263800CDE9C44040F63830C2F2200009F08EFCE3
:10264800C4AD012690E8061040F618240023CDE911
:102658008F6540F63035C2F22005C2F220048E950F
:102668000E250320929391968D958C94CDE98A201E
:10267800CDE98831CDE98645CDE984C333E007F853
:102688002A0C48F6902007F8291CC2F200000068BE
:1026980078B340F2BD70C0F20000C590A7F12A00DF
:1026A800C49040F66830C2F2200009F057FCC4AD6F
:1026B800D0E9001201268068CDE98F6540F66035C3
:1026C800002340F61824C2F22005C2F220048E9599
:1026D8000E25CDE9883184A9929391968D958C9495
:1026E800CDE98A2639C1A7F11D0083A9839609F08F
:1026F80054FC484609F027FB012088F80401002013
:10270800BFF35F8F88F8080141F23850C2F2200009
:10271800C16840F23970C0F200008847019809F09A
:1027280012FB0DF5477DBDE8000FF0BD40F61030F7
:10273800C2F220000BF04AFE40F6D010C2F2200090
:102748000CF094F880B56F4648F68420C2F2000079
:10275800BDE8804002F002BA42F2C060C2F2200036
:10276800006820B180B56F468047BDE880400020F2
:1027780009F0E9BAF0B503AF2DE9000B86B00446BD
:1027880090F860008846C0B1032840F0F68094F8BD
:102798005C00E8B1032840F0F68094F8591004F181
:1027A8001400002968D0032940F0F380414602F064
:1027B80051F9002841D00321A7E0256848F684266E
:1027C8000020C2F2000684F85C00C4E9016501E05B
:1027D800D4E901654FF0000906F016F9014684F8BE
:1027E800599066654219002D18BF511CC4E90301B0
:1027F80004F11400E162224642F8301F002182F8F9
:1028080028103379002B00F0A6802346012543F8D1
:10281800341F83F824501D4645F81C1F03F1180186
:10282800C3E9053343E9082143E9066543E904653B
:10283800414602F00FF90028BDD1A16C0A684AB1DF
:10284800097B00291CBF002184F8581094F85810FF
:1028580009BB4EE000218046D4E9095084F858109D
:10286800066809F045FABFF35F8F296869B10A69FC
:102878008E4204D12A6008E0E16A666DBBE722B1A6
:10288800964217D113461A690A6109F03CFA404684
:1028980094F8581069B38046D4E90950066809F0DD
:1028A80027FABFF35F8F296801B30A698E4217D1EF
:1028B8002A601BE011690029E7D08E4248D00A69D6
:1028C800002AE2D09642DDD011690029DDD08E427F
:1028D8003ED00A69002AD8D013469642EAD1D2E7F8
:1028E80022B196421BD113461A690A6109F00BFA04
:1028F8004046616B002284F8582029B1CA68054611
:10290800A16B084690472846012184F8601084F896
:102918005C1084F8591006B0BDE8000BF0BD1169D1
:102928000029E3D08E4210D00A69002ADED09642F0
:10293800D9D011690029D9D08E4206D00A69002A57
:10294800D4D013469642EAD1CEE70B461146CBE7E0
:102958000B46114697E701200491019040F61C4070
:10296800C2F22000039140F6244100900420C2F2F4
:102978002001029068460BF0BEFF40F6D400C2F278
:1029880020000BF073FF40F64440C2F220000BF029
:102998006DFF40F63440C2F220000BF067FF80B5AF
:1029A8006F46084640F6E401C2F220010222BDE863
:1029B80080400AF033BC80B56F4645F20000012123
:1029C800C2F20000C068BFF35F8F80F8691080BD55
:1029D80080B56F4645F200000121C2F20000806810
:1029E800BFF35F8F417680BD80B56F4645F200002A
:1029F8000121C2F200000069BFF35F8F80F809115E
:102A08004EF20420CEF200004FF08071016080BDCC
:102A180080B56F4645F2000041F27D61C2F20000C8
:102A280001224068BFF35F8F425480BD80B56F4676
:102A380045F200000121C2F200000068BFF35F8F79
:102A480080F875104EF20420CEF20000802101605B
:102A580080BD80B56F46084640F62311C2F22001BA
:102A68000522BDE880400AF0C5BC000080B56F466D
:102A780082B00A4610F8011BDFE801F003411F305D
:102A88000E5240F628111046C2F220010D2202B063
:102A9800BDE880400AF0AEBC019040F6701040F6E8
:102AA8008011C2F2200000901046C2F2200101AB52
:102AB80003220AF034FA02B080BD019040F65810A3
:102AC80040F66811C2F2200000901046C2F22001C0
:102AD80001AB02220AF023FA02B080BD019040F651
:102AE800581040F66A11C2F2200000901046C2F257
:102AF800200101AB05220AF012FA02B080BD019054
:102B080040F6381040F64811C2F2200001AB0090A0
:102B18001046C2F220010F220AF001FA02B080BD6D
:102B280040F683111046C2F220010C2202B0BDE823
:102B380080400AF05FBC000080B56F46ADF55A7D55
:102B480098AD45F2000942F2806A281D0790A81C3A
:102B5800C2F200094FF00008C2F2200A0690681C71
:102B6800019001E0BFF32F8FD9F80C6096F8680048
:102B7800002800F0698142F2906406F16900C2F20F
:102B88002004D0E84F1F01291AD1C0E8418F00293D
:102B9800F7D140F20770BFF35F8FC0F200000CA9B5
:102BA8000D9041F23850C2F22000CDF848800C90C8
:102BB80096F86400CDE91011002840F0398102E050
:102BC800BFF32F8F40E109F0BAF88346502009F08F
:102BD800B3F8E06902282ED148F69020C2F200002E
:102BE8000068002800F01D8140F6F020C2F22000A5
:102BF80009F0B4F990E80610284640F6E825C2F234
:102C080020050E24A39540F618250423C2F22005BA
:102C1800A2940DF51E7ECDE99C4842F29064A593DE
:102C280001238EE82E00C2F220049B950546CDE9CB
:102C3800A688A493ECE00EA821460122012301F006
:102C4800C4FB9DF83800012831D19DF83900DFE830
:102C580010F0E80006008B048B04B20097009DF882
:102C68003A008DF8580048F69020C2F2000000683B
:102C7800002800F0D6804AF27100C0F20000599096
:102C880016A8589040F67020C2F2200009F066F9A4
:102C980090E80610284658AD0123CDF89C82CDE96E
:102CA800A43540F66825A693C2F220059CE0284684
:102CB8002146DDF83CA000F0DBFE9DF8600201280B
:102CC80059D058AC0199FF2220460CF00DF9BAF5FD
:102CD800807F80F0298416A8214652460BF0A3F87D
:102CE80016AA07CA002840F62620C2F2200018BFFC
:102CF8000D22579218BF014648F690205691C2F20D
:102D080000000068022832D943F2AD00C0F200008A
:102D1800099056A8089040F63420C2F2200009F025
:102D28001DF990E80640284608AD012340F6182C06
:102D3800CDE9223540F69815C2F220051C9121955F
:102D48000E25209516A9CDE91A580546781EC2F217
:102D5800200C0324CDF894802493CDF87CC01E94D5
:102D68001D92CDE9188CCDE9163E09F016F942F20C
:102D78009064C2F2200442F2806AC2F2200A50E053
:102D880048F69020C2F200000068002849D040F6BA
:102D9800C020C2F2200009F0E1F890E806100423F0
:102DA800284640F6B825A5930123CDE9A688A49323
:102DB800C2F2200518E048F69020C2F20000006830
:102DC80078B340F69420C2F2200009F0C7F890E8E2
:102DD80006100423284640F68C25A5930123C2F249
:102DE8002005CDE9A688A49340F61824A395C2F23D
:102DF80020040E25A1949B9442F29064A295C2F2FD
:102E080020049C950546A0939F929E91CDF87482CC
:102E1800781E2946CDF86882CDF864C2989309F0E7
:102E2800BCF8584608F08FFF012086F860803060B3
:102E380010A93046FFF79EFCD8B3DDE90C10032239
:102E480086F86420C9688847D9F804B00BF60222CE
:102E580092F87A0C30B341F27D605844D0E84F1FA5
:102E680001291DD1C0E8418F0029F7D140F26170D6
:102E78000592C0F20000BFF35F8F0F9041F2385007
:102E8800C2F22000CDF828800E900EA8CDE90800E7
:102E98009BF8FD09002800F01782032852D0ADE204
:102EA800BFF32F8FD9F80840207E002840F0FB8020
:102EB8005AE696F8600003287FF485AE96F85C0021
:102EC800032804BF96F8590003287FF47CAED6E99E
:102ED8000940D0F800A008F00BFFBFF35F8F21680E
:102EE800E1B10A698A4501D1226017E0B2B11346FF
:102EF800924511D0116989B18A4509D00A696AB128
:102F0800924508D0116949B18A4501D00A69EDE7AF
:102F18000B46114600E013461A690A6108F0F3FEF1
:102F2800706B42F2806A42F29064C2F2200AC2F2E6
:102F38002004002886F858803FF445AEC168B06B7D
:102F4800884740E60BF5316008A9FFF713FC08B184
:102F580003219CE09BF8700B032807D19BF86C0BAE
:102F6800032804BF9BF8690B032855D0DBF80C6ACB
:102F780058A836B10BF52161284632460CF02EF9D7
:102F880058A829464FF480720CF028F9D9F8104057
:102F980004F58470D0E84F1F49B9BFF35F8F012251
:102FA800C0E8412FB1B1D0E84F1F0029F7D00BF688
:102FB8007C3058A94FF48072BFF32F8FCBF8786B11
:102FC8000CF00CF901208BF8708BCBF8740BCBF854
:102FD800108BB7E7201D58A94FF48072BFF35F8F9D
:102FE80026600CF0FBF884F804810120BFF35F8FA2
:102FF80084F809014EF204204FF08071CEF20000EF
:10300800CBF8748B0160059CD4F8766CDBF87C1CDB
:103018008E42C0F0DA81E7E1DBF8380BDBF8344B9D
:10302800066808F065FEBFF35F8F2168E1B10A69A1
:103038008E4201D1226017E0B2B11346964211D0F8
:10304800116989B18E4209D00A696AB1964208D0DD
:10305800116949B18E4201D00A69EDE70B46114664
:1030680000E013461A690A6108F04DFEDBF8440BCC
:103078008BF8688B00281EBFC168DBF8480B8847AF
:10308800DBF80C6A58A8002E7FF474AF79E7DDE905
:103098000E208BF8FD19D1688847D9F80840207EA2
:1030A80000283FF461AD04F11900D0E84F1F012951
:1030B8007FF458ADC0E8418F0029F6D1BFF35F8F88
:1030C800207DC00740F0398260680390A0680290B4
:1030D800E0680490207C059008F031FE83460020CB
:1030E80056464FF0000A08F027FED6F800C0DCF874
:1030F8000000800011D5DCF800001E22DCF8341036
:1031080000F07F0A02EAD151AAEB01000838824593
:10311800A4BFAAEB00005FFA80FADCF8000000F018
:103128007F00824536D20AF10302C0F1000E4FEA51
:103138000A110CEB0106D6F8800000F07060B0F1BF
:10314800006F61D00EEB0200022823D02B46D6F880
:10315800905005F07065B5F1006F67D01D460128E5
:1031680018D0D6F8A05005F07065B5F1006F61D0A1
:103178001D4678B1D6F8B00000F07060B0F1006F6D
:1031880000F09A80043240310AF1040A0EEB020082
:103198000328CED148F6902042F2806AC2F200009D
:1031A800C2F2200A0068002871D040F60820C2F256
:1031B800200008F0D3FED0E9001240F6002680680F
:1031C8000423A5930123C2F220064FF00E0CA39608
:1031D8002E4640F61825CDE99830781EC2F2200513
:1031E8000DF51F7ECDE99D813146CDE9A688A493D2
:1031F800CDF888C28EE82C00CDE99B5C3546CDF829
:10320800688208F0CAFE42E0524642F2806A202AEA
:10321800C2F2200A18D3DCF82C0002F01F020123A6
:1032280003FA02F21043CCF82C0015E00AF101026F
:10323800103102E00AF1020220311D4642F2806A92
:10324800202AC2F2200AE6D2DCF83000012303FA71
:1032580002F21043CCF8300001F180004FF0006119
:1032680040F80C10DAF80010039A01444A60029AF8
:1032780012BA8A60049A12BACA600599092980F0BC
:103288004B81DAF800300A0402F14062C250584615
:1032980008F059FD0120207541F23850BFF35F8FC7
:1032A80084F81880C2F22000C16840F22170C0F290
:1032B80000008847FFF758BC303142F2806A202A64
:1032C800C2F2200AC0D3A6E70120CBF800808BF811
:1032D800FC0908F034FD0646002008F02DFD2846BC
:1032E800514602F0EEFC304608F02DFDDDF81CE0FA
:1032F8000DF5B078DDF860C2AA4642469EE87B002C
:103308007BC25FEACC7041D00BF104091CE008F0E5
:1033180016FD0646002008F00FFD42F28061504677
:10332800C2F2200102F0CDFC304608F00CFDDDF8B9
:103338001CE00DF5B078DDF860C242469EE87B00DF
:103348007BC25FEACC7021D010A998E87D008C463A
:103358008CE87D00504602F04AF9BDF86002032867
:10336800D5D0DBF80010FE29D1D8069B01EB8106E9
:103378001A685B6829F81600481CCBF8000009EBAE
:103388004600C0F80630C0F80220C0E745F2000940
:10339800DBF80000554642F2806AC2F20009C2F228
:1033A800200A4FF0000820B30BF67C40002659464F
:1033B80040F6FC128BF8FC690BF010FF059CC4F872
:1033C800766CDBF87C1C8E420ED206EB860001364A
:1033D8000BEB4003D3F8822CD3F8860CB3F8803C6F
:1033E800C4F8766C032B20D18E4200F28D80CBF886
:1033F8007C8C01208BF8608ACBF8000A0BF52060E2
:1034080008A9FFF7B7F908B1042140E69BF8600A5C
:10341800032807D19BF85C0A032804BF9BF8590AC4
:1034280003283CD08BF8FC894EE7606043F24910D2
:10343800C0F20000226057900BF5206056A9569004
:10344800012058AACDE9590140F6C8415B9040F6E1
:103458009810C2F22000C2F2200158902846ABF81A
:10346800003ACDF86082CDF8708109F027FA00287B
:1034780069D116AC07994FF48072989E20460BF0DC
:10348800ADFE0BF5216021464FF48072CBF80C6A33
:103498000BF0A4FE58A8002E7FF46CAD71E5DBF8A4
:1034A800280ADBF8244A066808F022FCBFF35F8F7D
:1034B8002168E1B10A698E4201D1226017E0B2B1F8
:1034C8001346964211D0116989B18E4209D00A6912
:1034D8006AB1964208D0116949B18E4201D00A6991
:1034E800EDE70B46114600E013461A690A6108F039
:1034F8000AFCDBF8340A8BF8588A00281EBFC1681A
:10350800DBF8380A88478DE740F6A8433046C2F210
:1035180020030A460AF0CDFE40F6B8330020C2F276
:10352800200308220AF0C5FE40F644230020C2F218
:1035380020035146FF220AF0BCFE40F6D010C2F22A
:1035480020000BF093F940F6C01040F6E803C2F2F1
:1035580020007A1E009040F6F800C2F22000C2F265
:1035680020032B210AF03CFFFEDEF0B503AF2DE966
:10357800000FADF26C7D08AC204605F0F9FC0DF2A9
:10358800AC5521464FF4E07228460BF027FE88A878
:10359800294601F0A6FB929807909D9806904EF256
:1035A8001000CEF20000DDF830B2DDF83CA2939CAA
:1035B800BE9EDDF85082016821F0010101600168BA
:1035C80041F00401016042F2BF71C0F2090141609B
:1035D800016841F002010160016841F001010160E8
:1035E80048F684210120C2F20001BFF35F8F087101
:1035F8000021BFF35F8FCDF898150421CDF89415FD
:103608000321CDF890154FF47A617C9148F234612A
:10361800C2F2000101F21242BFF35F8FD2E84F1FDE
:10362800C2E8430F002BF9D1BFF35F8F39BB48F2D3
:1036380034654FF48061C2F2000528460BF056FE4F
:1036480008F056FB0DF5B2618146284604F0B8FC37
:1036580090B9079848F23462889088A87CABC2F287
:1036680000020121CDE9894803F0C2F946F2753418
:103678000020C0F200040790484608F044FB0DF50E
:10368800AD6543F20062C0F26E12314628460594D9
:1036980002F04CFC44F240292846C0F20F09494682
:1036A80002F06AFADDF868552E68286840F0804014
:1036B8002860286840F0805028602868C00109D434
:1036C8002868C0015CBF28685FEAC01002D4286877
:1036D800C001F2D500202C688DF820020DF5AD60F0
:1036E80088A902F0A8F8E86A296B29630F21E86223
:1036F800286861F306002860A00007D5012088A982
:103708008DF820020DF5AD6002F095F8F00110D4A7
:10371800286820F0805028602868C00109D52868EA
:10372800C00144BF28685FEAC01002D52868C001FC
:10373800F2D40DF5AD6088A900268DF8206202F05C
:103748007AF80DF2745506994A46284601F0E8FCC5
:10375800DBF80000072105220A2320F4B860403076
:10376800CBF80000DBF8040061F30B00CBF8040091
:1037780048F26410C4F21F00416862F3030141601B
:10378800DAF8041041F40061CAF80410016862F321
:1037980003010160DAF804000B21524640F480600E
:1037A800CAF80400DBF8000020F00100CBF80000A4
:1037B800DBF8080040F02000CBF80800DBF80C002C
:1037C80020F02000CBF80C00DBF8000020F400709B
:1037D800CBF80000DBF8000040F00200CBF8000056
:1037E800DBF8080040F00100CBF80800DBF80C001B
:1037F80020F00100CBF80C00DBF8080040F00200D4
:10380800CBF80800DBF80C0020F00200CBF80C0025
:10381800DBF8080040F00400CBF80800DBF80C00E7
:1038280020F00400CBF80C00CDE900A140F2933061
:1038380002A981E8410888AE2946304600F03AFCE2
:10384800DDF83CE2BEF1020F0BD02CCE0DF5B261D3
:103858000DF5B0602CC196E83C0090AE3CC14ECE50
:103868004EC045F20001C2F20001CA6802F16803C5
:10387800D3E84F6F4EB90126BFF35F8FC3E8456F9A
:1038880055B1D3E84F5F002DF8D040F6A830BFF30C
:103898002F8FC2F220001FE00023BFF35F8F82F852
:1038A80064300123BFF35F8F82F869304A6841F2C0
:1038B8007C611144D1E84F6F46B9BFF35F8FC1E80F
:1038C800463FB6B1D1E84F6F002EF8D040F6983099
:1038D800BFF32F8FC2F2200040F68833009040F6E5
:1038E800F8007CAAC2F22000C2F220032B210AF0C1
:1038F80077FD4FF0000CBFF35F8F82F8FDC941F2EE
:103908007D630126BFF35F8FD6540DF5B2637CAE9D
:1039180032CB324632C293E8330033C2DDF8841525
:10392800DDF88C35DDF86C55DDF88085DDF8882507
:10393800DDF86845DDF87005CDE978810DF5047886
:10394800869042F29060CDE97A23C2F22000CDE958
:10395800844501461CCE1CC196E83C003CC178ACAD
:103968001ECC98E86001C0E907E124301CC042F28F
:103978008060C2F2200080E860010798059900285D
:1039880042F2C060C2F2200018BF6146016008F030
:10399800C5F90DF26C7DBDE8000FF0BDB0B502AF02
:1039A800ADF5C55D82B008F0B7F948F68D20012164
:1039B800C2F20000802201704EF22740CEF20000D1
:1039C800602101704EF20411CEF2000141F27C63D5
:1039D8000A60502242744FF080720A60F02280F828
:1039E8004A204FF40030886045F200010020C2F2FE
:1039F800000101AAADF878000A601FAAADF8840199
:103A080048F698240A6162AAADF8F001C2F20004EF
:103A1800CA607DAAD0524A6027F8240CA7F13C005E
:103A2800886044F20000C2F20000A04203D908F006
:103A38007DF9A04203D9FFF798FDFFF77DF8012132
:103A4800002047F81C1C40F68041C2F2200147F8CC
:103A5800100C47F8140C042047F8201C40F6D0112D
:103A680047F8180CA7F12000C2F220010AF043FF22
:103A7800F0B503AF2DE9000FC3B00D468246684686
:103A8800FF210BF033FC284600F058FEC2B2062A8C
:103A980040F0BA80D5E90201012401F01F0105F1C7
:103AA8001C0BA7F12602022304FA01F1C0F88810C2
:103AB800132027F8260C41A8594602F0F1FB41983B
:103AC800002800F09E80D5E9022303F01F034299E5
:103AD80004FA03F30129C2F8843040F2A080447844
:103AE8000126D5E90201A7F1260201F01F010223F0
:103AF80006FA01F1C0F88810102027F8260C41A812
:103B0800594602F0CDFB419800287AD0D5E9022326
:103B180003F01F03429906FA03F30129C2F884301F
:103B28007DD9D5E9021202F01F02407806FA02F2A6
:103B3800C1F8882041A98DF805018D208DF8040170
:103B48005846022202F08BFAC1B203295BD1D5E9AB
:103B5800020101F01F0106FA01F1C0F884103CB31C
:103B6800A7F126096E464FF00108D5E902014A4639
:103B780001F01F01022308FA01F1C0F888100020A3
:103B880027F8260C41A8594602F08AFB4198C0B391
:103B9800D5E9022303F01F03429908FA03F3012928
:103BA800C2F884303BD94078013C06F8010BDCD1DF
:103BB800D5E90201012401F01F01022204FA01F1F2
:103BC800C0F888108D2041A9ADF80401584602F0CC
:103BD80046FAC1B2032916D1D5E90201FF2201F044
:103BE8001F0104FA01F1C0F884100AF101006946C6
:103BF8000BF07AF900208AF8000043B0BDE8000F06
:103C0800F0BD9DF8081104208AF8010001208AF807
:103C180002108AF8000043B0BDE8000FF0BD40F67E
:103C280088420120C2F220020AF034FEB0B502AF89
:103C380084B00446D0E9020101F01F010125A7F173
:103C48001202022305FA01F1C0F888100C2027F8A7
:103C5800120C04F11C0102A802F022FB029880B1A8
:103C6800D4E9022303F01F03039905FA03F3022999
:103C7800C2F884300CD34078062141EA002004B011
:103C8800B0BD9DF80C00042141EA002004B0B0BD8D
:103C980040F688420120C2F220020AF0FBFDB0B5CE
:103CA80002AF82B00446D0E9020303F01F030125E6
:103CB80005FA03F3C0F8883041F0800007F80A0CD1
:103CC80004F11C00A7F10A0107F8092C022202F0EE
:103CD800C6F9C1B203290AD1D4E9020202F01F02CF
:103CE80005FA02F2C0F88420062002B0B0BD042014
:103CF80002B0B0BDF0B503AF2DE9000F83B00446A4
:103D08008B46D0E90201012601F01F0104F11C05D0
:103D18009046A7F1260206FA01F10223C0F888109E
:103D280001A8294627F8266C02F0BAFA019800285B
:103D38003ED0D4E9022303F01F03029906FA03F3E5
:103D48000129C2F8843040F2F1804078C0438007EE
:103D580004D1052003B0BDE8000FF0BDD4E902018D
:103D6800A7F1260201F01F01022306FA01F1C0F8AB
:103D78008810122027F8260C01A8294602F090FA8C
:103D88000198A8B1D4E9020202F01F02029906FACA
:103D980002F20129C0F8842040F2C88094F8290072
:103DA80068B1204600F0C9F8C2B2062AD2D10CE0A8
:103DB8009DF80810042003B0BDE8000FF0BD2046B0
:103DC80000F019F9C2B2062AC4D1D4E902014FF0B1
:103DD800010901F01F01022209FA01F1C0F8881057
:103DE80048F2811001A9ADF80400284602F037F91D
:103DF800C1B2032940F09580D4E9020101F01F0106
:103E080009FA01F1C0F8841094F8290084F8289080
:103E180018B1204600F091F802E0204600F0EBF8D7
:103E2800C2B2062A96D1D4E90201022201F01F018A
:103E380009FA01F1C0F88810922001A9ADF8040030
:103E4800284602F00CF9C1B203296AD1D4E902016B
:103E5800022201F01F0109FA01F1C0F88410D4E927
:103E6800020101F01F0109FA01F1C0F888108D2044
:103E780001A9ADF80400284602F0F1F8C1B20329FF
:103E88004FD1D4E90201012201F01F0102FA01F128
:103E98000022C0F8841020462221FFF700FFC2B29A
:103EA800062A7FF457AFB8F1000F29D00DF10409A5
:103EB8004FF0000ABAF1FF0F22D0D4E9020101F055
:103EC8001F011BF80A2006FA01F1C0F888108020AB
:103ED8008DF8052049468DF804002846022202F094
:103EE800BEF8C1B203291CD1D4E902010AF1010AC2
:103EF80001F01F01D04506FA01F1C0F88410D9D1AC
:103F0800204622214246FFF7CAFEC2B2062A7FF4A3
:103F180021AF2046032100F0C9FB03B0BDE8000F24
:103F2800F0BD042003B0BDE8000FF0BD40F68842A4
:103F38000120C2F220020AF0ADFCF0B503AF4DF843
:103F480004BD84B00446D0E9020101F01F01012636
:103F580004F11C05A7F11E0206FA01F10223C0F8BC
:103F680088101D2027F81E0C01A8294602F098F990
:103F7800019890B3D4E9022303F01F03029906FACB
:103F880003F30129C2F884302ED9D4E9021240780B
:103F980002F01F0206FA02F200F0FE00C1F88820C3
:103FA800A7F1120107F8110C9D2007F8120C2846FA
:103FB800022202F054F8C1B2032910D1D4E9020157
:103FC80001F01F0106FA01F1C0F88410062084F8F8
:103FD800296004B05DF804BBF0BD9DF8081004200A
:103FE80004B05DF804BBF0BD40F688420120C2F27F
:103FF80020020AF04FFCF0B503AF4DF804BD84B0C1
:104008000446D0E9020101F01F01012604F11C0554
:10401800A7F11E0206FA01F10223C0F888101D203C
:1040280027F81E0C01A8294602F03AF9019898B31E
:10403800D4E9022303F01F03029906FA03F30129C6
:10404800C2F884302FD9D4E90212407802F01F0256
:1040580006FA02F200F00100C1F88820A7F1120167
:1040680007F8110C9D2007F8120C2846022201F0CF
:10407800F6FFC1B2032911D1D4E9020101F01F01F1
:1040880006FA01F1C0F88410002084F829000620FF
:1040980004B05DF804BBF0BD9DF80810042004B01E
:1040A8005DF804BBF0BD40F688420120C2F2200250
:1040B8000AF0F0FBF0B503AF2DE9000F8FB0824690
:1040C800B869D7E902CE0124D1E900B68D680EF0AF
:1040D8001F01D7F8149004FA01F140F2E244CCF839
:1040E800881004610468D7F8108044F00104046063
:1040F800CDE908656E4606F11C054FF48074CDF8CD
:1041080014E0CDE90223ADF82840CDE90089CDF8C7
:1041180010C0CDE9060B8668F60709D18668F60750
:1041280004BF86685FEAC67602D18668F607F2D0D1
:10413800866846F001068660066826F00106066075
:10414800CCF8841040F2E2410161016841F00101BC
:1041580001608168C90709D18168C90704BF8168FE
:104168005FEAC17102D18168C907F2D0816801266E
:1041780041F001018160016821F00101016003F053
:104188001F002946022306FA00F0C2F888004220E0
:1041980027F8260C0DA8A7F1260202F081F80D9841
:1041A800C0B1DDE9022303F01F030E9906FA03F3F9
:1041B8000129C2F8843040F201814078122817D1D1
:1041C8009DF8290000B36846FFF7B7FEC2B2062A79
:1041D80003D11FE09DF83810042002228AF801104C
:1041E800CAF81C208AF800000FB0BDE8000FF0BD27
:1041F80002218AF801000120CAF81C108AF8000080
:104208000FB0BDE8000FF0BD6846FFF7F4FEC2B27C
:10421800062AE2D1DDE90201022201F01F0106FAB5
:1042280001F1C0F8881048F281000DA9ADF83400FA
:10423800284601F014FFC1B20329CDD1DDE90201FE
:10424800022201F01F0106FA01F1C0F88410C0F83B
:10425800881000208DF828004FEA98008DF8350066
:1042680086200DA98DF834002846CDF80080CDF8B9
:10427800049001F0F4FEC1B20329ADD14FEA5830E1
:10428800DDE90212C00602F01F0268F39A3006FA4E
:1042980002F2000AC1F88420C1F888200DA98DF81F
:1042A800350087208DF834002846022201F0D7FE19
:1042B800C1B2032990D1DDE90201022201F01F01F8
:1042C80006FA01F1C0F88410C0F8881088200DA9FA
:1042D800ADF83400284601F0C2FEC1B203297FF4CC
:1042E8007BAFDDE90201022201F01F0106FA01F1AC
:1042F800C0F88410C0F888108E200DA9ADF83400DD
:10430800284601F0ACFEC1B203297FF465AFDDE9B0
:104318000201022201F01F0106FA01F1C0F884101F
:10432800C0F888108F200DA9ADF83400284601F098
:1043380096FEC1B203297FF44FAFDDE902010122E5
:1043480001F01F0102FA01F1C0F884106846FFF776
:104358006DFCC0F30721C2B2062A7FF43EAF41F0DC
:10436800030268460C21FFF79AFCC2B2062A7FF4C2
:1043780034AF684626210422FFF791FCC2B2062A10
:104388007FF42BAF6D460121284600F08FF9C2B2A9
:10439800062A7FF422AFDDE9020101F01F0106FAC7
:1043A80001F1C0F884105FCDAAE85F0095E85F00CE
:1043B8008AE85F000FB0BDE8000FF0BD40F6884204
:1043C8000120C2F220020AF065FAF0B503AF2DE928
:1043D800000F85B0834691F82900994614460D468A
:1043E80030B12846FFF7A9FDC2B2062A07D098E0E7
:1043F8002846FFF700FEC2B2062A40F09280D5E9AF
:104408000201012601F01F0105F11C08022206FA2B
:1044180001F1C0F8881048F2815003A9ADF80C00EA
:10442800404601F01CFEC1B2032979D1D5E9020149
:1044380001F01F0106FA01F1C0F88410052085F883
:104448002800E00778D0D5E902014FF0010A01F011
:104458001F01CDF80490A7F1260202230AFA01F100
:104468001226C0F88810122027F8260C03A8414607
:1044780001F016FF0398002800F0F380019900244A
:1044880021EAE1791DE08168A7F12602022341F0C3
:1044980001018160016821F001010160D5E9020193
:1044A80001F01F010AFA01F1C0F8881003A841467B
:1044B80027F8266C01F0F4FE03980134002800F078
:1044C800D080D5E9022303F01F0304990AFA03F305
:1044D8000129C2F8843040F2E2804078062107F8CA
:1044E800270CA7F1270002F0DEFC002840F08680A8
:1044F8004C4500F0C280A8697D210161016841F046
:10450800010101608168C907BDD18168C90704BF7D
:1045180081685FEAC171B6D18168C907F2D0B2E794
:1045280004208BF8010001208BF802108BF80000A2
:1045380005B0BDE8000FF0BDD5E90201012401F086
:104548001F01A7F12602022304FA01F1C0F888101E
:10455800122027F8260C03A8414601F0A1FE039873
:1045680000287ED0A7F127060DF10C09A7F1260A2D
:104578001BE081685246022341F001018160016815
:1045880021F001010160D5E9020101F01F0104FADF
:1045980001F1C0F88810122027F8260C4846414639
:1045A80001F07EFE039800285BD0D5E9022303F0D2
:1045B8001F03049904FA03F30129C2F884306ED961
:1045C8004078062107F8270C304602F06CFCC0B989
:1045D800A86943F2D4010161016841F00101016059
:1045E8008168C907C5D18168C90704BF81685FEAC6
:1045F800C171BED18168C907F2D0BAE70198844277
:104608003BDA284600F09AF8C2B2062A3CD1D5E92E
:104618000201012401F01F01A7F12602022304FA76
:1046280001F1C0F88810132027F8260C03A841468A
:1046380001F036FE0398A0B1D5E9022303F01F0369
:10464800049904FA03F30129C2F8843027D9407881
:1046580000218BF80010CBF8040005B0BDE8000F6E
:10466800F0BD9DF810008BF8020040F20140ABF855
:10467800000005B0BDE8000FF0BD0120ABF8000058
:1046880005B0BDE8000FF0BD8BF8010001208BF8E4
:1046980000008BF8021005B0BDE8000FF0BD40F631
:1046A80088420120C2F220020AF0F4F8F0B503AF04
:1046B8004DF804BD82B0054690F829000C4648B173
:1046C8002846FFF73AFCC2B2062A09D002B05DF8C4
:1046D80004BBF0BD2846FFF78EFCC2B2062AF5D10E
:1046E800D5E90201012601F01F01022206FA01F1B3
:1046F800C0F8881044F0800007F8110C812007F8F2
:10470800120C05F11C00A7F1120101F0A8FCC1B2BE
:1047180003290ED1D5E9020101F01F0106FA01F1C2
:10472800C0F88410062085F8284002B05DF804BB64
:10473800F0BD042002B05DF804BBF0BDF0B503AFD6
:104748004DF804BD84B00446D0E9020101F01F0110
:10475800012604F11C05A7F11E0206FA01F1022345
:10476800C0F88810122027F81E0C01A8294601F06D
:1047780097FD019870B3D4E9022303F01F0302994F
:1047880006FA03F30129C2F884302AD9D4E90212BF
:1047980002F01F02407806FA02F2C1F88820A7F159
:1047A800120107F8110C922007F8120C2846022271
:1047B80001F055FCC1B203290ED1D4E9020202F07E
:1047C8001F0206FA02F2C0F88420062004B05DF841
:1047D80004BBF0BD9DF80810042004B05DF804BBCC
:1047E800F0BD40F688420120C2F220020AF052F8D9
:1047F80080B56F46FEDEF0B503AF4DF8048D044674
:10480800054654F8380B18B1012836D101260DE0B9
:10481800281D884602F03DF8C0B2032803D00428BA
:1048280021D1002601E001262E604146204601F0F4
:10483800A1FEC0B2032813D3043818BF01200642D2
:104848000DD02868012801BFA96B02202860012922
:104858000ED040F6B840C2F2200009F0B7FD04209F
:104868005DF8048BF0BD022129605DF8048BF0BD72
:10487800206003205DF8048BF0BD41F2C81041F2BE
:10488800F012C2F22000C2F2200225210AF020F81C
:10489800F0B503AF4DF8048D86B091E8705140F63D
:1048A800C8416A461346C2F2200183E8705108F0F5
:1048B80005F806B05DF8048BF0BD80B56F4680BD85
:1048C800F0B503AF4DF8048D84B001AC0546204621
:1048D80008F0BFF940F6984803AEC2F22008204617
:1048E80031464246039508F030F9681C039020468B
:1048F8003146424608F029F9A81C03902046314663
:10490800424608F022F9E81C039020463146424608
:1049180008F01BF9281D039020463146424608F04E
:1049280014F9681D039020463146424608F00DF9F7
:10493800A81D039020463146424608F006F9E81DB6
:10494800039020463146424608F0FFF8204608F01A
:104958006CF904B05DF8048BF0BD80B56F460A466B
:1049680050F8041BBDE8804007F037BBF0B503AF33
:104978004DF804BD82B0802908D20268FE2A13D9F6
:104988000124204602B05DF804BBF0BD01AB002550
:104998008A09B5EBD12F019510D142F0C0028DF8EC
:1049A80004205D1C02222AE0531C036010440024EA
:1049B8000171204602B05DF804BBF0BD4FF6FE7CE5
:1049C8000C0BC0F2FF3CB5EB114F6CF39F1208D1F2
:1049D8008DF8052044F0E0028DF804209D1C032288
:1049E8000DE0DD1C6FF00F038DF80620042243EA6A
:1049F80091436CF39F148DF805408DF80430022321
:104A0800002463F39F11036829709D18FF2D88BF48
:104A18000124B6D8C11806460B1D01A918460AF08C
:104A280063FA3560204602B05DF804BBF0BDB0B54E
:104A380002AF03689C18FF2C07D832B1034405461F
:104A4800043318460AF050FA2C600020FF2C88BF67
:104A58000120B0BDF0B503AF2DE9000F81B080464D
:104A68000C6803F0D1FFD8F800603168451AB5F139
:104A7800FF3F04DDE80F01B0BDE8000FF0BDD8F836
:104A88000400D0F800B0DBF800000028F2D1D4E927
:104A98000010096888470446DBF800008946366834
:104AA80000281EBFC168DBF8040088470020D8F83A
:104AB80008A0CBF810008BF80C00CBE90049CBF824
:104AC800086007F015F9BFF35F8FDAF8001009B333
:104AD800DBF808208B68D31A1AD40B698BB39E684D
:104AE800961B26D4196931B38E68961B25D40B6999
:104AF8003BB39E68961B1CD41969E1B18E68961B5E
:104B08001BD40B69EBB19E68961B1E46EAD516E0CE
:104B1800CBF81010CAF800B007F0F5F8D8F80C0078
:104B2800C0F800B003F066FFE80F01B0BDE8000F61
:104B3800F0BD1E4603E0194603E00E461946CBF8C1
:104B48001060C1F810B007F0DEF8D8F80C00C0F813
:104B580000B0E80F01B0BDE8000FF0BDF0B503AF3D
:104B68002DE90007804603F029FF02E061685046FE
:104B7800884707F0BDF8BFF35F8F0546D8F8006097
:104B88009EB3D6F8089003F03FFFB168401AB0F121
:104B9800FF3F6FEA00014FEAD171317317DD3069C9
:104BA800C8F80000D6E90010096888470446307B39
:104BB80005F001008A4607F0A6F8002CD6D103F0CC
:104BC80023FFA0EB0900B0F1FF3FD2DC0AE005F0BB
:104BD800010007F098F803F017FFA0EB0900B0F107
:104BE800FF3FC6DCBDE80007F0BD2846BDE800076A
:104BF800BDE8F04007F087B8F0B503AF2DE9000B2A
:104C080082B0D1E900690446D1F8088090F83400F0
:104C1800012801D1206834E007F08BF8054607F039
:104C28007BF82068E9072CD1002854D14FF0FF30D9
:104C38006D4620603068009004F1200001902846FD
:104C4800D8F8008099F8006005F059FD284605F06D
:104C580013FD2846314605F02AFD2846012105F0B6
:104C68007FFD2846414605F066FD284605F055FDBE
:104C780020680130206007F051F802B0BDE8000B51
:104C8800F0BD40BB4FF0FF306D46206030680090AB
:104C980004F1200001902846D8F8008099F80060B7
:104CA80005F02DFD284605F0E7FC2846314605F0BD
:104CB800FEFC2846012105F053FD2846414605F033
:104CC8003AFD284605F029FD20680130206002B031
:104CD800BDE8000BF0BD40F6E040C2F2200009F04C
:104CE800B6F9F0B503AF2DE9000FADF5357D8B466C
:104CF800044601F1340038310BF1540203F0B0FEE0
:104D0800DBF8C80004F030FBDBF82801016841F04B
:104D180001010160DBF82801016821F0020101604E
:104D28000021C0F80811C0F81811C0F82811C0F8FF
:104D38003811DBF8C0A0C4E90000C4E90200DAF8C1
:104D4800000020F00100CAF80000DAF8000040F482
:104D58000040CAF80000DAF8000000040CD5DAF8C0
:104D68000000000444BFDAF800005FEA004003D501
:104D7800DAF800000004EED43F20CAF80800DAF898
:104D8800000020F00100CAF80000DBF8C4603068B9
:104D980020F001003060306840F400403060306836
:104DA800000409D53068000444BF30685FEA004059
:104DB80002D530680004F2D43F2040F26341B0606D
:104DC800306820F001003060DBF80050DBF85C014F
:104DD8001E90A86C40F00100A864686C08436864E1
:104DE800686C012161F383006864686C20F08000BE
:104DF8006864A86C40F02000A864686C40F44040E7
:104E08006864686C40F444706864A86C40F0800082
:104E1800A864A86D000709D0A86D00071CBFA86D7D
:104E28005FEA007002D0A86D0007F2D1A86C40F2CA
:104E3800634140F02000A864686C20F44040686436
:104E4800686C20F4447000F588706864DBF80480AE
:104E5800D8F8480040F00100C8F84800D8F84400E5
:104E68000843C8F84400D8F84400012161F38300DE
:104E7800C8F84400D8F8440020F08000C8F844007E
:104E8800D8F8480040F02000C8F84800D8F8440096
:104E980040F44040C8F84400D8F8440040F4447056
:104EA800C8F84400D8F8480040F08000C8F8480026
:104EB800D8F8580000070CD0D8F8580000071CBFD5
:104EC800D8F858005FEA007003D0D8F858000007F7
:104ED800EED1D8F8480002220F2340F02000C8F88D
:104EE8004800D8F8440020F44040C8F84400D8F8F6
:104EF800440020F4447000F58870C8F84400DBF8DA
:104F08007C111FA804F0E0F9DBF8681131A84FF410
:104F1800805204F0EEFADBF89C000A90DBF8A4005B
:104F28000990DBF8A8000890DBF8AC000790DBF8E4
:104F380084010690DBF890010590DBF89801DBE925
:104F48001712019035A804F00CFBDBE90D10DBF813
:104F580030211D90DBF854001C90DBF880000C9089
:104F6800DBF8E0001A90DBF8E8001990DBF8F000B5
:104F78001890DBF8F4001790DBF8F8001690DBF8CF
:104F8800FC001190DBF800011590DBF80401139088
:104F9800DBF808011290DBF80C011090DBF8100127
:104FA8001490DBF814010E90DBF818010D90DBF873
:104FB8001C010F90DBF884000490DBF88800039054
:104FC8004FF470401B9111460B92A2F88C010F22EE
:104FD800A1F88E21DBF834110291A1F88C01A1F817
:104FE8008E21DBF838110091A1F88C01A1F88E21EF
:104FF8000F21DBF83C914FF40072A9F88C01A9F855
:105008008E1135A9019820630A98A0610998E0617A
:1050180008982062079860620698A0620598E06286
:1050280004F59E70C4E904A6DBE90A6A0AF0D6F81A
:105038001E9909F16002C4E9356A01F13400503162
:10504800C4E93758C4E9CF1009F59070C4F8C40012
:1050580009F1C0010C98C4F8C8000498C4F8CC0041
:105068000398C4F8D0000298C4E92F2100F5907382
:1050780000F1C00600F16005C4E9230011986065DD
:105088000E98A0651098E0651398206612986066DF
:105098000F98A0661598E0661498009920671B98E9
:1050A80001F1C00E606301F160021D9801F5907C6A
:1050B800A0631C98C4E9273104F1A403E0631A989B
:1050C80083E806400B9B2064199803F16002606432
:1050D80003F1C0011898C4E9255603F59075A0643A
:1050E8001798E0641698C4E921151FA9206504F1F2
:1050F800E4000D9EC4E91F324822C4E92D99C4F882
:10510800B0C0C4E91D630AF069F831AB04F5967CB8
:105118000FCB8CE80F000DF5357DBDE8000FF0BD15
:10512800F0B503AF4DF804BD054648F24010C4F28F
:105138001F000C464168032363F303014160416883
:1051480041F0100141600021C0F8E813066863F3DC
:1051580003060660066846F010060660C0F8E41309
:10516800866863F303068660836843F010038360F0
:10517800C0F8E0130221206961F301002061206971
:10518800C00709D02069C0071CBF20695FEAC0704A
:1051980002D02069C007F2D12069012120F0020065
:1051A8002061206940F440702061032060626068DB
:1051B80000F01F0001FA00F0C0F34300A065216170
:1051C8002669206920F0010020612069C00709D004
:1051D8002069C0071CBF20695FEAC07002D020693F
:1051E800C007F2D142F600101146C0F2DE7004F09A
:1051F80055F901BA21644FF6FF71884321690022ED
:10520800C5E90024A86066F3000121615DF804BBCC
:10521800F0BD80B56F468A680068930105D45201D5
:1052280007D4BDE8804007F05AB9BDE8804007F0D0
:1052380065BABDE8804007F0EFBAB0B502AF88B0F4
:10524800006840F6337340F610740DF11C0E0A46E0
:1052580005210068C2F220030790C2F2200408303A
:1052680040F6207C0325CDE9024340F63073CDE9B2
:10527800041E40F64461C2F2200CCDE900501046ED
:10528800C2F22001C2F220030422CDF818C007F0B0
:10529800CFFE08B0B0BD80B56F468A68006893013C
:1052A80005D4520107D4BDE8804007F039B8BDE8FD
:1052B800804007F08AB9BDE8804007F0AFB9B0B5C3
:1052C80002AF88B0006840F6337340F610740DF1F1
:1052D8001C0E0A4607900521C2F22003C2F22004E0
:1052E800083040F6207C0325CDE9024340F63073B0
:1052F800CDE9041E40F64461C2F2200CCDE900500D
:105308001046C2F22001C2F220030422CDF818C0D0
:1053180007F08EFE08B0B0BD80B56F468A68006899
:10532800930105D4520107D4BDE8804007F02AB89C
:10533800BDE8804007F09BB9BDE8804007F025BA7A
:1053480080B56F460068BDE88040FFF7B9BA80B500
:105358006F460068BDE8804007F014B880B56F4616
:105368000A46D0E90001BDE8804006F0C5BF80B517
:105378006F468A68930105D4520107D4BDE880407E
:1053880006F0CEBFBDE8804007F01FB9BDE88040F9
:1053980007F044B980B56F468A68930105D4520175
:1053A80007D4BDE8804006F0EDBFBDE8804007F0B7
:1053B8005EB9BDE8804007F0E8B90A46016899B1CE
:1053C80080B56F4682B0019040F6786040F654612F
:1053D800C2F2200001AB00901046C2F22001042264
:1053E80007F09DFD02B080BD40F664611046C2F230
:1053F8002001042207F0FEBFF0B503AF4DF8048D7D
:105408009EB0024632F8023B0BB3012B47D10F92F4
:10541800021D06301092119043F29F0011AAC0F2AB
:1054280000001790CDE9150210AAD1E90031CDE9A5
:1054380013020FA81290002012AA1C9003201B90A0
:10544800CDE9190240F69460C2F220001EE00F92E6
:10545800021D06301092119043F29F0011AAC0F26B
:1054680000001790CDE9150210AAD1E90031CDE965
:1054780013020FA81290002012AA1C9003201B9060
:10548800CDE9190240F6F860C2F2200018AA189077
:10549800184607F013FA1EB05DF8048BF0BD00F152
:1054A8000803861D1893072340F6BC6C40F6DF649A
:1054B80040F6AC65CDE908360323C2F2200CCDE9ED
:1054C800003240F6CC62C2F22004C2F22005043059
:1054D80040F6D563CDE90A5440F64064CDF838C0AB
:1054E80040F6D86C04260DF1600EC2F220024FF08F
:1054F8000508C2F2200CC2F22004CDE90460084677
:105508001146C2F220030922CDE90C8ECDE90254DE
:10551800CDE9065C07F02AFE1EB05DF8048BF0BDED
:10552800F0B503AF4DF804BD8CB00A4600F1080190
:1055380040F6587C0B9104210BAB0DF1200EC2F202
:10554800200C8EE80A10031D022440F6706C40F609
:10555800487E40F66D7540F63876CDE9001040F685
:105568006871CDE9044340F64C631046C2F2200C42
:10557800C2F2200EC2F22005C2F22006C2F22001B9
:10558800C2F220030522CDE90265CDE906EC07F059
:105598009BFD0CB05DF804BBF0BD80B56F4682B0D2
:1055A800019040F670700A4640F68071C2F2200001
:1055B80001AB00901046C2F22001052207F0AFFCB3
:1055C80002B080BD80B56F4682B0019040F6707021
:1055D8000A4640F68571C2F2200001AB00901046E1
:1055E800C2F22001072207F09AFC02B080BDF0B594
:1055F80003AF4DF8048D98B00A68D30271D49202B3
:105608002CD44A6801F10803920CB2F58E6F7DD054
:1056180040F27144A2426AD0B2F5906F40F0938094
:105628000A7C092A80F0CE8002F00E020C2A58D19A
:1056380002234A898C89038012BACB8924BA098942
:105648001BBA09BAC3EA2443C0F80630C2EA2141AA
:10565800C0F8021018B05DF8048BF0BD48F690222F
:10566800C2F200021268022A3BD943F27122804634
:10567800C0F20002CDE904121431029140F6DC7147
:105688004AF27102C2F22001C0F2000208460392F7
:1056980006F064FC02AD0226D0E9001200238068FF
:1056A8000324CDE9126540F6AC75149640F6CC7625
:1056B800C2F22006C2F22005119614261593109600
:1056C8000F95CDE90D24CDE90B31CDE909560790A9
:1056D80001200690A7F1110006A9089306F05DFCC9
:1056E80040460321018018B05DF8048BF0BD0A7CA8
:1056F800092A67D2022A6ED302F00E04022C7AD04D
:10570800052A40F288801A8800230DE00A7C092ABD
:1057180058D2022A67D302F00E04022C73D0052A4D
:1057280040F281801A88012352BA42808A894989C5
:1057380012BA038009BA120CC280090C818018B011
:105748005DF8048BF0BD48F69021C2F200010968AB
:105758000229C6D943F20B118046C0F2000127F88E
:105768006E2C059101A904914AF28D11C0F2000135
:1057780001930391A7F16E01029140F69C71C2F268
:105788002001084606F0EAFB02AD0224D0E9001227
:10579800002380680326CDE9124540F68C751494E1
:1057A80040F6AC74C2F22005C2F22004119514250B
:1057B800159310950F94CDE90D26CDE90B31CDE960
:1057C800094584E741F21C031146C2F22003002078
:1057D800082208F06EFD40F6EC72C2F220020020AA
:1057E800002109F057F841F22C02C2F220020020F1
:1057F800002109F04FF840F6FC72C2F220020120A5
:10580800012109F047F841F23C02C2F220020120CE
:10581800012109F03FF841F20C02C2F220020220F5
:10582800022109F037F841F24C02C2F220020220AC
:10583800022109F02FF8F0B503AF2DE9000F81B070
:10584800D0F800C0DCF800000090DCF8000040F060
:105858008040CCF80000DCF8000040F08050CCF824
:105868000000DCF80000C0010CD4DCF80000C00126
:105878005CBFDCF800005FEAC01003D4DCF800006D
:10588800C001EED5DCF800004FF0000820F0005011
:10589800CCF80000CCF82880CCF82480DCF8000094
:1058A80010F07F0278D000F0030E00244FF0000AB9
:1058B800042A41D300F07C0940F68C0B40F688039B
:1058C80040F684054FF4086000220CEB02060AF14A
:1058D800040A4032D145C6F88040C6F88440C6F86C
:1058E8008840C6F88C404CF8004000F11000C6F81B
:1058F8009040C6F89440C6F89840C6F89C404CF8CA
:10590800054005F11005C6F8A040C6F8A440C6F841
:10591800A840C6F8AC404CF8034003F11003C6F8A1
:10592800B040C6F8B440C6F8B840C6F8BC404CF819
:105938000B400BF1100BC8D1BEF1000F2CD00CF1AD
:1059480080024FEA0A1400230CF50860135102EB99
:105958000A14BEF1010F6360A360E36040F82A30C7
:105968001AD00AF10104BEF1020F4FEA041553518F
:1059780002EB04156B60AB60EB6040F824300BD091
:105988000AF1020300251E01955102EB031255602E
:105998009560D56040F82350CCF81080CCF848804A
:1059A800DCF82C00DCF83020CCF83020CCF82C00C7
:1059B800DCF800000A7800F07F08F2B1DCF800009B
:1059C80040F00050CCF80000DCF8000080000CD457
:1059D800DCF8000080005CBFDCF800005FEA8000B3
:1059E80003D4DCF800008000EED5DCF8000080006D
:1059F8005FD4002242456DD3A0E0B8F1000F00F05B
:105A08009D800CF508620CF180034FEA980E4FEA6E
:105A1800580B4FF000094FF080414FF0006400260A
:105A280010E04FF08C60764538BF4FF08860186002
:105A3800DCF8340001EA803010600136103304329B
:105A4800B0457BD05E45ECD31C60C3F80490C3F826
:105A58000890C3F80C90DCF8000080000FD5DCF843
:105A680000001E25DCF834A000F07F0005EADA55B6
:105A7800451B083D451BA8BFE8B28642DDD3202E52
:105A880007D2DCF828000125B5402843CCF82800C7
:105A9800D3E7DCF824A006F01F0520460C460121B8
:105AA80001FA05F5214604464AEA0500CCF8240027
:105AB800C3E7DCF800001E23DCF8342003EAD253E5
:105AC80000F07F02D01A08388242A4BF101AC2B26E
:105AD800424533D20CEB02104FF0006380300126B0
:105AE8004FF01E0E0AE0DCF8284006FA02F52C43B7
:105AF800CCF828400132103090451FD00360DCF804
:105B08000040A4000ED5DCF80040DCF8345004F066
:105B18007F040EEAD555651B083D651BA8BFECB28E
:105B2800A242E7D3202ADED302F01F05DCF8244086
:105B380006FA05F52C43CCF82440DBE70098C001B1
:105B480016D4DCF8000020F08050CCF80000DCF817
:105B58000000C0010CD5DCF80000C00144BFDCF82F
:105B680000005FEAC01003D5DCF80000C001EED4E5
:105B780001B0BDE8000FF0BDF0B503AF2DE9000F8F
:105B880081B0D0F804800446894608460022414680
:105B980003F0FFFB0546484641462A46002303F02A
:105BA800E6FB2668824630680090306840F0804006
:105BB8003060306840F0805030603068C00109D4EF
:105BC8003068C0015CBF30685FEAC01002D430683A
:105BD800C001F2D54FF0000B062D24D3012502E0B9
:105BE8000135052C1FD9484641462A4603F0D1FB0A
:105BF80004461A28F4D24846414622462B4603F06A
:105C0800B6FB82450146A4F10C0238BF5146072A6B
:105C18005A4638BF2A46504588BF5A468A4638BF32
:105C28002A469346DCE7B9F1000F44D01BF1010086
:105C380041D2B8FBF9F1B1FBF0F00538142898BF50
:105C4800BAF5967F03D90098C0011FD52FE041F21D
:105C58007C0241F2D001C2F22002C2F2200152F8C5
:105C6800202041F2241351F82010C2F2200353F8E7
:105C7800200042EA0B621143736808434BF6F07147
:105C88001940084370600098C00110D4306820F0B3
:105C9800805030603068C00109D53068C00144BF09
:105CA80030685FEAC01002D53068C001F2D401B094
:105CB800BDE8000FF0BD41F26C00C2F2200008F010
:105CC800C2FDF0B503AF2DE9000F89B00E688A4612
:105CD80031680290890002D44FF000080DE0336863
:105CE8001E22716B03F07F0802EAD151A8EB010173
:105CF80008398845A8BFA8EB010830689AF808B0A9
:105D080000F07F05AB4506D902990020086009B06C
:105D1800BDE8000FF0BD4FF0030906F180000390C5
:105D280015E030681E22716B00F07F0B02EAD1513A
:105D3800ABEB010008388345A8BFABEB000BA9F11A
:105D480001098AF808B05FEA09604BD1DCE7F06A1C
:105D5800316B51EA000229D0B1FA81F1002801F132
:105D6800200118BFB0FA80F1C1F140005FFA8BF151
:105D7800C0B281421AD33068800002D44FF0000BC1
:105D88000DE030681E22716B00F07F0B02EAD151E2
:105D9800ABEB010008388345A8BFABEB000BA9F1BA
:105DA80001098AF808B05FEA0960ADD03068800060
:105DB80008D55FFA88F05FFA8BF181423CBF8AF818
:105DC8000880C3465FFA8BF0A8420BD33068800086
:105DD800A7D44FF0000BA9F101098AF808B05FEACF
:105DE800096091D00BF03F01726AC1F120004FF0B9
:105DF800010EB36AB1F120042EFA00F00EFA01F197
:105E080058BF0EFA04F058BF002102400B404FF073
:105E1800010C1A4308D00BF1010B8AF808B05FFA9D
:105E28008BF0A84293D96FE7726AB36A10401940A1
:105E38000843F0D1039A5FFA8BF0010152F801E0B0
:105E48000B2101EA1E6104310629E4D103990EF4FD
:105E58007023B3F5802F01EB00114A6801928A681C
:105E68008CBFCB68002307F8273C20284FEA124450
:105E780007F82D4C4FEA126412BA07F82E4C4FEA75
:105E880013244FEA124207F8284C4FEA13444FEA0A
:105E9800136327F82C2C4FF0806207F8294C07F879
:105EA8002A3C0A60B16805D2316B0CFA00F008434D
:105EB800306306E00BF01F01F06A0CFA01F10843A9
:105EC800F0624FEA1E4000F00F02092A25D2A7F11E
:105ED8002600A7F12E015446CDF800E0C24603F093
:105EE80068FA17F8260C10B9D046A24693E7029C28
:105EF80057F8250C57F8211CE06001202060009815
:105F080017F81D2C606001982275216184F818B07B
:105F1800A06009B0BDE8000FF0BD41F25C03114676
:105F2800C2F220030020082208F0C3F9B0B502AF7E
:105F380084B0044648F2C400C4F21F000D4601684C
:105F480021F00F010160016841F010010160416812
:105F580021F00F014160416841F0100141600121C9
:105F6800C0F88C13286820F000402860286840F0AA
:105F780080402860286840F0805028600020CDE9E3
:105F880000528DF808002868C00109D42868C001AB
:105F98005CBF28685FEAC01002D42868C001F2D547
:105FA800686840F008006860286840F08040286011
:105FB8002868C00209D52868C00244BF28685FEA7B
:105FC800C02002D52868C002F2D4286840F00070CA
:105FD80028602868800109D52868800144BF28689E
:105FE8005FEA801002D528688001F2D42868C001D1
:105FF80009D42868C0015CBF28685FEAC01002D4D1
:106008002868C001F2D52868A7F1090140F08C6022
:1060180040F433202860286820F408402860686B22
:1060280040F4E0206863002007F8090C6846FFF791
:1060380002FC286820F0805028602868C00109D533
:106048002868C00144BF28685FEAC01002D52868E4
:10605800C001F2D49DE8070007C404B0B0BD002A0F
:1060680004BF03207047F0B503AF2DE9000F97B0C8
:10607800D3000026B6EB134F04D0022017B0BDE8BA
:10608800000FF0BD06460AA889461946904603F057
:10609800EBF90A98022805D19DF82C0017B0BDE845
:1060A800000FF0BD9DF83600717A02900391D6E991
:1060B80000E49DF838209DF837309DF834B0BDF8DD
:1060C8003250DDF82CC096F808A06169090500F186
:1060D8009780CDE9003230466268E36D03F01F0314
:1060E800D2B2934261D26FF31F35029B45EA0C612D
:1060F8005FEA887541EA8B5106AD41EA8341009B0E
:1061080041EA4351019B41EA0351039B41EACE51C5
:1061180041EACA7141EA837141F23023C2F2200395
:1061280041F4002121664FF00001049304AB0AAC4E
:106138000591CDE906334FEA980308918DF8581078
:106148004FF0010118BF01EB980309EB08010D930B
:106158000C91CDE90A092046294600F09AFBC1B204
:106168000429F8D0DDE904200D46D2689047032DB4
:106178004BD171684A69D0040AD5012017B0BDE82F
:10618800000FF0BD4A69D0044FF001003FF576AF2B
:10619800100535D4D001F5D44868C86DC006F1D1D2
:1061A800032017B0BDE8000FF0BD63691B0527D4B5
:1061B8006368E16D01F01F01DBB2994293D3616915
:1061C80009051DD46168E36D03F01F03C9B28B4252
:1061D800FFF489AF6169090512D46168E36D03F0C2
:1061E8001F03C9B28B42FFF47EAF6169090507D46A
:1061F8006168E36D03F01F03C9B28B42D5D272E721
:10620800002017B0BDE8000FF0BD746806F10A0061
:10621800A1690391D4F81C90D4F820A0D4F824B034
:10622800216B02912146D4F8348003F052F9A26D13
:106238000221D4F810C0236961F3010323612169A5
:10624800C90709D02169C9071CBF21695FEAC17163
:1062580002D02169C907F2D1216900BA21F00201EF
:106268002161216941F4407121610399A161C4F858
:106278001C90C4F820A0C4F824B0029921634FF4FC
:10628800C051C4F834802064A26520696CF3000012
:10629800206170684161284617B0BDE8000FF0BD65
:1062A800F0B503AF2DE9000FABB0002B00F0A780CD
:1062B800DD000026B6EB154F01D002261CE183460F
:1062C8000FA88846294691469A4603F0CDF80F98BC
:1062D800022803D19DF8406058460DE19DF84A0018
:1062E80008909DF8490007909DF84800049098F898
:1062F80008000690D8E9000505909DF84C309DF8F7
:106308004B40BDF846C0DDF840E098F80960686980
:106318000005584600F1A480CDE901644146039385
:106328004A466B68EC6D04F01F04DBB29C4253468E
:106338006BD2049E6FF31F3C4CEA0E600DF1740C97
:106348009C0740EA8650079E0FAC40EAC640089E6C
:1063580040EA8640029E40EA4650039E40EA0650C4
:10636800059E40EAC650069E40EAC670019E40EA75
:10637800867041F23026C2F220062866099609AED8
:106388004FF000004FEA9305CDE90B664FF0010688
:106398000A900D908DF8A80018BF06EB93051344DA
:1063A8008CE80F000DF13C0C21958CE82F000BAD0B
:1063B8008DF8700020462946FEF71DFAC6B2042E55
:1063C800F8D0DDE90910C9688847032E4AD1D8F802
:1063D80004104D69E804584600F18D8053464A463A
:1063E80005E04D69EE044FF0010600F185802E05A9
:1063F80036D4EE01F5D44E68CE6DF606F1D1C0E97B
:1064080000232BB0BDE8000FF0BD6C69240527D42C
:106418006C68EE6D06F01F06E4B2A64289D36C697B
:1064280024051DD46C68EE6D06F01F06E4B2A64282
:10643800FFF47FAF6C69240512D46C68EE6D06F02A
:106448001F06E4B2A642FFF474AF6C69240507D4B2
:106458006C68EE6D06F01F06E4B2A642D5D268E776
:10646800002649E0D8F8044008F10A00A16908911B
:10647800E1690791D4F820A0616A0691216B059122
:106488002146D4F8349003F024F8A26D022521693E
:10649800236965F3010323612369DB0709D02369B5
:1064A800DB071CBF23695FEAC37302D02369DB07DC
:1064B800F2D1236900BA23F002032361236943F46C
:1064C80040732361089BA361079BE361C4F820A084
:1064D800069B6362059B2363C4F834902064A2651D
:1064E800206961F300002061D8F804004FF4C0511E
:1064F8004161584600E001260021067101602BB079
:10650800BDE8000FF0BD00680A460178022907D1EE
:1065180041F27C111046C2F22001092206F06ABF3E
:1065280080B56F4682B0019041F2881040F66861EC
:10653800C2F2200001AB00901046C2F220010422F2
:1065480006F0EDFC02B080BD80B56F4600680A46D3
:1065580041F2781141F27A13C2F22001C2F220030B
:1065680000780028104618BF19460222BDE880406E
:1065780006F040BFF0B503AF2DE9000F89B0016800
:1065880031B1012929D1032009B0BDE8000FF0BDC0
:1065980090F83410054641B1032929D195F83010F7
:1065A800C9B103292AD1E96A2FE0D5E901360021CA
:1065B800D5E90302C5E9053605F11C0307C3914275
:1065C800C0F01B8101210320296085F8341009B02F
:1065D800BDE8000FF0BDA96A16E041F2C81041F20B
:1065E800F012C2F22000C2F22002252108F070F950
:1065F80041F20030C2F2200008F038F941F21030C0
:10660800C2F2200008F032F9E96249684A69D20406
:1066180000F10A814A68CA6D12F4F81F00F00F8170
:1066280005F114044B6F012616CC85F830600E680E
:106638001821089110210791082106910021059140
:10664800A11A0429894628BF4FF004090EB9022966
:1066580034D2944200F0CC8005A96FF0030000EB1F
:10666800890601EB890CF04310F00C0F00F08E80C6
:1066780001F1040EA2421FBF059800F01F0023FA83
:1066880000F002F8010B18BFAA6116F00C0F7CD0BD
:10669800A2421FBF069800F01F0023FA00F002F87C
:1066A800010B01F1080E06F00C0018BFAA610428BE
:1066B80040F0AB8071460C2E6AD299E005A94FEAEA
:1066C800590601EB890C701E4FF00008032841D3CE
:1066D800CDE90069ACF104060495A1F11005CDE9F6
:1066E8000243012455F8109F4FF6FE70631E05F112
:1066F800040EC3F6FF7083EA0001D6F800804FF657
:10670800FD7046F81099C3F6FF709EE8004A5CF8E1
:1067180021A04CF8219083EA00015CF821004CF894
:1067280021B04FF6FC71C3F6FF71C5E9008A5940E4
:1067380014F103085CF821304CF821E0C5E90203A4
:1067480004F104000446CDD1DDE9033505A9DDE9EE
:106758000194009E6FEA080051F828A05CF820E038
:10676800012E41F828E04CF820A03FF475AF6FF0F7
:10677800010001EB8801A0EB08004E685CF820E0FE
:106788004CF82060C1F804E066E771460C2E2FD360
:10679800A2421FBF086800F01F0023FA00F002F8A9
:1067A800010B18BFAA61A2421FBF486800F01F0072
:1067B80023FA00F002F8010B18BFAA61A2421FBF1A
:1067C800886800F01F0023FA00F002F8010B18BFD8
:1067D800AA61A2421FBFC86800F01F0023FA00F098
:1067E80002F8010B01F1100118BFAA616145CFD170
:1067F800D5E908129142BFF4E5AE481C28626969E0
:10680800002085F83000A962FEE60C31A2421FBFC5
:10681800079800F01F0023FA00F002F8010B18BFD8
:10682800AA610C2EB4D2E3E70120022185F83400D6
:1068380085F83000296009B0BDE8000FF0BD0321DC
:10684800042085F8341085F8301009B0BDE8000F31
:10685800F0BD80B56F4641F230200021C2F2200021
:1068680080BD80B56F4680BD80B56F46007840F624
:1068780040520B4641F24C31C2F22001C2F22002D2
:1068880051F8201052F820201846BDE8804006F044
:10689800B1BDD0B502AF90F8301049B103291BD172
:1068A800024612F82C1FA9B103291BD1816A20E0E6
:1068B80090E8141000F1100E0023C1688EE814103F
:1068C800C0E907318B4279D30321012380F83030A6
:1068D8000846D0BD416A0BE041F22030C2F22000E8
:1068E80007F0C4FF41F23030C2F2200007F0BEFFCB
:1068F800816249684B691B056CD44B68C96D01F00E
:106908001F01DBB299426CD2D0E904C3012180F89F
:106918002C10D0F818E0DCF80010F1B10021734514
:106928001CBF13F8011B4361002273451EBF13F8F7
:10693800012B436112021143002273451EBF13F855
:10694800012B436112041143002273451EBF13F843
:10695800012B43611206114328E0002173451CBF37
:1069680013F8011B4361002473451A461EBF1A46DB
:1069780012F8014B4261734518BF44EA0121002413
:10698800724513461EBF134613F8014B4361724507
:1069980018BF44EA0121002273451EBF1C4614F8A3
:1069A800012B4461734518BF42EA0121DCF8042039
:1069B8005166D0E907318B42BFF486AF0021024609
:1069C80002F82C1F013352F81C1C42F8103C42F804
:1069D800081C8DE700210123137080F83030084629
:1069E800D0BD04210323137080F830300846D0BD91
:1069F800F0B503AF2DE9000F9FB0884648F64C214B
:106A0800C2F20001D0F800C0D0F808E046F2000059
:106A18000A60C2F2000041F23811461807F8898C62
:106A2800BFF35F8F56E8001F41F0004546E8005469
:106A3800002CF7D10029BFF35F8F00F1F28148F2F3
:106A480000060125C2F2000606F5A062BFF35F8FBB
:106A5800D2E84F4FC2E8415F0029F9D1002CBFF3BB
:106A68005F8F40F0BB8141F23811CDE91C620144CF
:106A7800139000F5865200F580500DF14C0A1991DB
:106A880006214FF00009CDE91410504618919B4695
:106A9800CDE916120121CDE91ACEADF8789002F0B1
:106AA80016FFBAE87C1041460DF1100808F1040001
:106AB800A0E87C109AE87C1080E87C1001208DF812
:106AC80044004046CDF8109004F059F8A7F1890029
:106AD800149012A813A913904046CDF84890CDF809
:106AE80054B0FEF789F848F2045A0420C2F2000AAA
:106AF8000AF10C048AF80500CAF800902046B8E8A4
:106B08004E004EC0B8E86E006EC098E86E006EC0C9
:106B18004FF0FF300821CAF8080001208AF8040065
:106B2800FF2003220290CDE9002120468021002287
:106B3800CAF8449004F084FC8846DAF80810C007C4
:106B480001F10101CAF8081040F07681DAF8000076
:106B5800002840F04E819AF80490002909F10100BC
:106B68008AF8040040F034814FF0FF304FF4007190
:106B7800CAF80800002002220290CDE90021204630
:106B88000021002204F05CFC0D46DAF80810C0076A
:106B980001F10101CAF8081040F05581002940F0C0
:106BA80017814FF0FF304FF0000BCAF808000220A1
:106BB8004FF400768DE8410820468021002204F039
:106BC8003FFCDAF80820C00702F10102CAF80820E1
:106BD80040F03C8148F65020002AC2F2000080F8BC
:106BE800261040F2FF3180F82D900AF14409A0F8F0
:106BF8000F104FF00801818181804FF4FA51A0F8FD
:106C08002EB080F82CB0A0F827608684C0F82090B9
:106C1800A0F81B6085760683C0F8149080F80E8073
:106C2800C0F8089080F806B0016040F0D1804FF0BD
:106C3800FF304021CAF808000020CDE900010021FA
:106C4800029020460122002304F0FAFB8846DAF875
:106C58000810C00701F10101CAF8081040F00981C5
:106C6800002940F0B5804FF0FF304021CAF80800F5
:106C78000020CDE9000180210290204601228023D6
:106C880004F0DEFB8B46DAF80810C00701F10101B9
:106C9800CAF8081040F0F480DAF80000002840F044
:106CA800AE804FF0FF300029CAF8000040F0AD80F8
:106CB800CAF80800204604F092FBDAF80800013010
:106CC800CAF80800C0F0A7804FF0FF308121CAF849
:106CD80008002046BFF35F8FCAF84440BFF35F8FB8
:106CE80003F0D2FD2046012103F0CEFD204682218B
:106CF80003F0CAFD2046022103F0C6FD2046832189
:106D080003F0C2FD2046032103F0BEFD2046842186
:106D180003F0BAFD2046042103F0B6FD2046852184
:106D280003F0B2FD2046052103F0AEFD2046862182
:106D380003F0AAFD2046062103F0A6FD2046872180
:106D480003F0A2FD2046072103F09EFD48F24C55B2
:106D58004020C2F200050026A8838421288205F17C
:106D68002400C5E92B66C5F8B460A5F81F6085F84E
:106D78001EB0C5F81890A5F8136085F81280C5F8FC
:106D88000C902E8008F0B2FA4FF0806041F240314A
:106D9800C5E937403220C5F8D6000220C4F2000009
:106DA800C2F22001C5F8D2001020A5F8D00045F69F
:106DB8002400C2F2DD7085F8E460C5F8CC00092033
:106DC800C5E92F10C5F8C4601FB0BDE8000FF0BDBD
:106DD80040F6F050C2F2200007F039F940F6605052
:106DE80040F6E052C2F22000C2F22002202107F051
:106DF800D1FA40F63060C2F2200007F028F940F6D8
:106E08002060C2F2200007F022F940F61060C2F2BA
:106E1800200007F01CF940F60060C2F2200007F0DD
:106E280016F940F6F04040F61052C2F22000C2F2C5
:106E380020021F2107F0AEFA41F220208DF81080C1
:106E4800C2F2200008E08DF8105001E08DF8101013
:106E580041F21020C2F2200041F29813009041F252
:106E6800002004AAC2F22000C2F220030F2107F07A
:106E7800B7FA41F2B8108DF81080C2F2200005E090
:106E880041F2A8108DF810B0C2F2200041F2981318
:106E9800009040F6205004AAC2F22000C2F220035B
:106EA800202107F09DFA08293FBF0078C84000F06C
:106EB8000100704780B56F4641F26C3041F298325C
:106EC800C2F22000C2F220022A2107F001FDF0B52B
:106ED80003AF4DF804BD82B0044690F83400012891
:106EE8000BD12068002841D14FF0FF30224642F8EC
:106EF800200B0968CDE9001229E00E6804F019FF9B
:106F0800054604F009FF2068E90718D170BB4FF067
:106F1800FF30214641F8200B6846CDE9006103F0B7
:106F2800B9FB00281CBF684603F0DBFB2068013072
:106F3800206004F0F3FE02B05DF804BBF0BDA8B910
:106F48004FF0FF30214641F8200BCDE9006168463B
:106F580003F0A0FB00281CBF684603F0C2FB2068B2
:106F68000130206002B05DF804BBF0BD41F2A830EA
:106F7800C2F2200007F06BF8F0B503AF4DF804BD7E
:106F880082B0044690F83400012807D12068A0BBDD
:106F98004FF0FF3009682060009121E00E6804F08E
:106FA800C8FE054604F0B8FE2068E90713D120BBE7
:106FB8004FF0FF300096206004F1200001906846F1
:106FC80003F09DFB20680130206004F0A7FE02B0AA
:106FD8005DF804BBF0BD80B94FF0FF30009620602B
:106FE80004F120000190684603F089FB2068013015
:106FF800206002B05DF804BBF0BD41F2A830C2F2D7
:10700800200007F024F8F0B503AF4DF804BD82B0B6
:10701800044690F83400012819D12068002869D165
:107028004FF0FF30224642F8200B68460968CDE948
:10703800001203F008FB002841D06D46284603F0F3
:107048001BFB284603F0FFFA0028F7D135E00E684D
:1070580004F06FFE054604F05FFE2068E90717D1CB
:10706800002847D14FF0FF30214641F8200B6846F1
:10707800CDE9006103F0E7FA68B36D46284603F0EE
:10708800FBFA284603F0DFFA0028F7D1012527E0AC
:1070980080BB4FF0FF30214641F8200B6846CDE910
:1070A800006103F0D0FA50B16D46284603F0E4FAC7
:1070B800284603F0C8FA0028F7D1012004E0684602
:1070C80003F0CEFA80F0010021680131216002B09E
:1070D8005DF804BBF0BD684603F0C2FA80F0010514
:1070E80020680130206004F019FE284602B05DF8DF
:1070F80004BBF0BD41F2A830C2F2200006F0A7FFA1
:10710800F0B503AF4DF804BD8268012A2ED1C368DB
:107118004269934250D20569D0F818C0EC5C01343A
:10712800EC540CF1020494421CD80CF5807396467A
:10713800934238BF9E46A34236D3AEEB0403052BD9
:1071480010D38B7991F807E00E7A89882B552B1983
:107158009970090A5E7083F804E0D9700CF107038E
:10716800934207D902205DF804BBF0BD07205DF803
:1071780004BBF0BD944528D2072105F80C100CF18A
:10718800010191423FBF05226A54836108203CBF38
:107198005DF804BBF0BD41F2C8330846C2F22003D3
:1071A80011461A4607F076FB41F2D8332046C2F260
:1071B8002003714607F07DF841F2E8341846C2F220
:1071C80020041146224607F065FB41F2B8336046B9
:1071D800C2F2200311461A4607F05CFBD0B502AF95
:1071E80084B00188062911D181690968BFF35F8FCE
:1071F80079B10023827F009302AB0446184601232D
:1072080004F00AF80820208004B0D0BD072004B09C
:10721800D0BD41F2D04041F2F442C2F22000C2F2A5
:107228002002222107F054FBF0B503AF4DF804BD4E
:1072380086B0044608880D46411E032927D3052831
:1072480025D0072832D1D5F8AC00D5F806306989A1
:107258008028D5F80220ADF80C10CDE901236BD8B1
:10726800E9680968BFF35F8F00295AD0C0F180032D
:10727800AA7C2844009300F1240304A803F0B9FE73
:107288009DF81000C0B39DF81100D8B92EE0E86849
:107298000168BFF35F8F002943D0AA7C04A80026A9
:1072A8000123009603F0A5FE2E801FE0E868016820
:1072B800BFF35F8FA9B30020AA7C009004A8012324
:1072C80003F097FEE868092129800068BFF35F8F03
:1072D80038B3A97C012203F014FDA8690068BFF344
:1072E8005F8FF0B1A97F012203F00BFD04206072CB
:1072F80006B05DF804BBF0BD0598D5E92B1208442B
:10730800C5F8AC009042F1D3DDE901010623BDF8D0
:107318000C202B8020606160228106B05DF804BBE0
:10732800F0BD41F2D04041F2F442C2F22000C2F274
:107338002002222107F0CCFA41F2F8338021C2F270
:107348002003802206F0B5FFF0B503AF2DE9000F4A
:1073580085B00446C8680D460168BFF35F8F0029F1
:1073680000F08C8005F124068020AA7C009002A8F9
:10737800334603F03EFE9DF80800012803D19DF82E
:10738800090060B921E0039A812A80F0828002A86E
:10739800314604F067FC9DF8110004281BD1E86809
:1073A800092129800068BFF35F8F002866D0A97C77
:1073B800012203F0A6FCA8690068BFF35F8F0028CC
:1073C8005CD0A97F012203F09CFC0420607205B008
:1073D800BDE8000FF0BDE868BDF810A09DF80F608B
:1073E8009DF80E90BDF80CB0DDF808800068BFF37A
:1073F8005F8F002842D0A97C002203F082FCBEB136
:107408000420A5F80AA06E7285F80890A5F806B0C1
:10741800C5F802802880A4F808A0E67184F80690D0
:10742800A4F804B0C4F8008005B0BDE8000FF0BDB2
:10743800BBF1000F11D0BBF1800FB0D80020A5F828
:107448000AA0C5E92B0B6872072085F80890A5F8F3
:1074580006B0C5F802802880B7E70620A4F808A07F
:1074680028800020C5F8B000E07184F80690A0805C
:10747800C4F8008005B0BDE8000FF0BD41F2D0406F
:1074880041F2F442C2F22000C2F22002222107F0A7
:107498001FFA41F208431146C2F22003002080225D
:1074A80006F007FFD0B502AF84B00446D0E929C280
:1074B800D0F8AC00D4F8B010BCF1000FA38B08BF13
:1074C8008022091A994238BF0B46191828D29142CE
:1074D80026D8A1690968BFF35F8F39B3A27FBCF1D1
:1074E800000F009308BF04F1240C0CEB000302A862
:1074F80003F092FE9DF8080080B90398D4E92B1296
:107508000144C4F8AC10914208D30021A28BC4F8FE
:10751800A4100321904208BF0221218004B0D0BDED
:1075280041F21843C2F2200306F0C3FE41F2D040F4
:1075380041F2F442C2F22000C2F22002222107F0F6
:10754800C7F90000B0B502AF84B001880139072936
:1075580039D8DFE801F0041C0A3838383832FFF728
:10756800A1FF0024204604B0B0BDC1680A68BFF37B
:107578005F8F002A41D0817C0546104600220024F6
:1075880003F0BFFB05202880204604B0B0BD816908
:107598000968BFF35F8F81B3827F054602A8002484
:1075A8000123009403F038FE9DF80800002804BF6A
:1075B80003202880204604B0B0BD002101240180AA
:1075C800204604B0B0BDC168092202800A68BFF332
:1075D8005F8F92B1817C04461046012203F091FB33
:1075E800A0690068BFF35F8F38B1A17F012203F063
:1075F80088FB0024204604B0B0BD41F2D04041F2DF
:10760800F442C2F22000C2F22002222107F060F9FF
:107618000288042A1CBF07207047F0B503AF4DF855
:1076280004BD4C68802C03D902205DF804BBF0BD72
:10763800096800F12402C68805461046224607F06C
:1076480053FC0020B44238BF2646C5E92B0601206A
:1076580028802846FFF726FF08205DF804BBF0BD08
:10766800F0B503AF2DE9000B8CB004460088042860
:1076780046D100200D46079080218DF8200016463F
:1076880003900190099001A80B9009A8069104F1B4
:107698002401B4F80680059104F077FAC0B20828EE
:1076A8002AD176B105EBC6060DF12409D5E900010A
:1076B8000A6949469047C1B208291DD10835B54223
:1076C800F4D109A804F0BAFA079880281DD9E0680F
:1076D800092121800068BFF35F8F30B3A17C0122AC
:1076E80003F00FFBA0690068BFF35F8FE8B1A17FCB
:1076F800012203F006FB02200CB0BDE8000BF0BD30
