:0200000460009A
:100000004643464200000156000000000101020084
:1000100000000000000000000000000000000000E0
:1000200000000000000000000000000000000000D0
:1000300000000000000000000000000000000000C0
:1000400000000000010403000000000000000000A8
:100050000000200000000000000000000000000080
:100060000000000000000000000000000000000090
:100070000000000000000000000000000000000080
:10008000EB04180A063204260000000000000000FD
:10009000050404240000000000000000000000002F
:1000A0000000000000000000000000000000000050
:1000B0000604000000000000000000000000000036
:1000C0000000000000000000000000000000000030
:1000D00020041808000000000000000000000000DC
:1000E0000000000000000000000000000000000010
:1000F0000000000000000000000000000000000000
:1001000000000000000000000000000000000000EF
:100110000204180804200000000000000000000095
:1001200000000000000000000000000000000000CF
:10013000600400000000000000000000000000005B
:1001400000000000000000000000000000000000AF
:10015000000000000000000000000000000000009F
:10016000000000000000000000000000000000008F
:10017000000000000000000000000000000000007F
:10018000000000000000000000000000000000006F
:10019000000000000000000000000000000000005F
:1001A000000000000000000000000000000000004F
:1001B000000000000000000000000000000000003F
:1001C000000100000010000001000000000000001D
:1001D000000000000000000000000000000000001F
:1001E000000000000000000000000000000000000F
:1001F00000000000000000000000000000000000FF
:10020000D4D4D4D4D4D4D4D4D4D4D4D4D4D4D4D4AE
:10100000D10020400020006000000000000000002F
:1010100020100060001000600000000000000000D0
:1010200000000060C41E010000000000EFBEADDE45
:10103000124880F3088812481249016000F036F81F
:10104000114812490022814201D004C0FBE7104838
:101050001049114A814202D008CA08C0FAE70F4875
:101060004FF47001026842EA01020260BFF34F8F41
:10107000BFF36F8F00F014F800DE00000040002086
:1010800008ED00E00040002000500020988A002079
:10109000B84200204C440020C41E016088ED00E0EE
:1010A00041F2D33CC0F2000C6047D4D4204840F257
:1010B0009C41884219D040F24C418842CCBF1D4A25
:1010C0001D4A1E4B5360136823F0800313601C48B5
:1010D0001C49C1BF1C480A0C8264C1F30F01416462
:1010E000016C41F00401016402E0184815490160F7
:1010F0001748184A824205D01749814202D008CACF
:1011000008C0FAE71548164A824205D015498142BF
:1011100002D008CA08C0FAE71348144A824205D030
:101120001349814202D008CA08C0FAE7704700009C
:10113000240400000080034000C00B4020C528D9D3
:1011400000C00A40AAAAFAFF00400E4060004F44C7
:1011500000000000B8220060DCD400000040002045
:1011600000200060B84200200000202094F70060BA
:1011700030272020D4D4D4D4D4D4D4D4D4D4D4D4E8
:10118000D4D4D4D4D4D4D4D4D4D4D4D4D4D4D4D41F
:10119000D4D4D4D4D4D4D4D4D4D4D4D4D4D4D4D40F
:1011A000D4D4D4D4D4D4D4D4D4D4D4D4D4D4D4D4FF
:1011B000D4D4D4D4D4D4D4D4D4D4D4D4D4D4D4D4EF
:1020000000400020311000604F6E0000BDD4000081
:102010004F6E00004F6E00004F6E00000000000089
:102020000000000000000000000000004F6E0000F3
:102030004F6E0000000000004F6E0000890100009C
:102040004F6E00004F6E00004F6E00004F6E00009C
:102050004F6E00004F6E00004F6E00004F6E00008C
:102060004F6E00004F6E00004F6E00004F6E00007C
:102070004F6E00004F6E00004F6E00004F6E00006C
:102080004F6E000000000000000000000000000093
:102090004F6E00004F6E00004F6E00004F6E00004C
:1020A0004F6E00004F6E00004F6E00004F6E00003C
:1020B0004F6E00004F6E00004F6E00004F6E00002C
:1020C0004F6E00004F6E00004F6E00004F6E00001C
:1020D0004F6E00004F6E00004F6E000001000000C8
:1020E0004F6E00004F6E00004F6E00004F6E0000FC
:1020F0004F6E00004F6E00004F6E00004F6E0000EC
:102100004F6E00004F6E00004F6E00004F6E0000DB
:10211000000000004F6E0000000000004F6E000045
:102120004F6E00004F6E00004F6E00004F6E0000BB
:102130004F6E00004F6E0000000000004F6E000068
:102140004F6E00004F6E00004F6E00004F6E00009B
:102150004F6E00004F6E0000000000000000000005
:102160004F6E00004F6E00004F6E00004F6E00007B
:102170004F6E00004F6E00004F6E00004F6E00006B
:102180004F6E00004F6E00004F6E00004F6E00005B
:102190004F6E00004F6E00004F6E00004F6E00004B
:1021A0004F6E00004F6E00004F6E00004F6E00003B
:1021B0004F6E00004F6E00004F6E00004F6E00002B
:1021C0004F6E00004F6E00004F6E000000000000D8
:1021D0004F6E00004F6E00004F6E00004F6E00000B
:1021E0004F6E00004F6E00004F6E00004F6E0000FB
:1021F0004F6E00004F6E00004F6E00004F6E0000EB
:102200004F6E00009D0100004F6E00004F6E0000F9
:102210004F6E00004F6E00004F6E00004F6E0000CA
:102220004F6E00004F6E00004F6E00004F6E0000BA
:102230004F6E00004F6E00004F6E00000000000067
:10224000000000004F6E00004F6E00004F6E000057
:102250004F6E00004F6E00004F6E00004F6E00008A
:102260004F6E00004F6E00004F6E00004F6E00007A
:102270004F6E00004F6E00004F6E00004F6E00006A
:102280004F6E00004F6E00004F6E00004F6E00005A
:102290004F6E00004F6E00004F6E00004F6E00004A
:1022A0004F6E00004F6E00004F6E000000000000F7
:0822B0004F6E00004F6E0000AC
:1022B800F0B503AF4DF8048D86B009F05EFC45F229
:1022C8000001C2F200010C6894F8741049B304F1DB
:1022D80075010022D1E84F3F012B20D1C1E8432FDF
:1022E800002BF7D140F26141BFF35F8FC0F20001CC
:1022F8006A46019141F23051C2F2200180460091B4
:102308000021049194F87010CDE9022279B10329D3
:1023180034D040F65C10C2F220000CF055FABFF33E
:102328002F8F09F02EFC06B05DF8048BF0BD2068F5
:10233800016819B10021C4E9010110E0012041F24E
:10234800305184F870000020BFF35F8F84F8740068
:1023580040F26140C2F22001C0F2000038E0D0E94A
:102368000001012201F01F0102FA01F1C0F88C10EE
:10237800002084F86C004FF4FA70E06004F10C005F
:1023880002A900F071F8F0B994F86C00032807D19D
:1023980094F86800032804BF94F86500032804D063
:1023A800D4E901010131A160D9E7D4E90C500668EC
:1023B80009F0BCFBBFF35F8F2968C1B10A698E427F
:1023C8000FD12A6013E0DDE90010032284F87020A1
:1023D800C9688847404609F0D4FB06B05DF8048B0D
:1023E800F0BD22B196420ED113461A690A6109F06E
:1023F800A8FB206C002184F8641000281EBFC16867
:10240800606C8847CCE711690029F0D08E4210D063
:102418000A69002AEBD09642E6D011690029E6D075
:102428008E4206D00A69002AE1D013469642EAD1C4
:10243800DBE70B461146D8E780B56F4648F684209F
:10244800C2F20000BDE8804003F0C9BA42F27070E1
:10245800C2F22000006820B180B56F468047BDE811
:102468008040002009F08DBBF0B503AF2DE9000BCB
:1024780086B0044690F860008846C0B1032840F052
:10248800F68094F85C00E8B1032840F0F68094F8F0
:10249800591004F11400002968D0032940F0F38092
:1024A800414602F044FE002841D00321A7E02568F8
:1024B80048F684260020C2F2000684F85C00C4E9CD
:1024C800016501E0D4E901654FF0000906F0BAF9A9
:1024D800014684F8599066654219002D18BF511CB1
:1024E800C4E9030104F11400E162224642F8301FF6
:1024F800002182F828103379002B00F0A6802346AB
:10250800012543F8341F83F824501D4645F81C1F45
:1025180003F11801C3E9053343E9082143E90665D6
:1025280043E90465414602F002FE0028BDD1A16CD2
:102538000A684AB1097B00291CBF002184F8581099
:1025480094F8581009BB4EE000218046D4E90950A0
:1025580084F85810066809F0E9FABFF35F8F296814
:1025680069B10A698E4204D12A6008E0E16A666DA1
:10257800BBE722B1964217D113461A690A6109F0DE
:10258800E0FA404694F8581069B38046D4E90950F7
:10259800066809F0CBFABFF35F8F296801B30A69AF
:1025A8008E4217D12A601BE011690029E7D08E42BC
:1025B80048D00A69002AE2D09642DDD01169002984
:1025C800DDD08E423ED00A69002AD8D01346964202
:1025D800EAD1D2E722B196421BD113461A690A61A1
:1025E80009F0AFFA4046616B002284F8582029B1FF
:1025F800CA680546A16B084690472846012184F819
:10260800601084F85C1084F8591006B0BDE8000B1F
:10261800F0BD11690029E3D08E4210D00A69002A62
:10262800DED09642D9D011690029D9D08E4206D081
:102638000A69002AD4D013469642EAD1CEE70B465F
:102648001146CBE70B46114697E70120049101900C
:1026580040F62040C2F22000039140F62841009045
:102668000420C2F22001029068460CF05AF940F6A4
:102678007400C2F220000CF0A7F840F64840C2F2FD
:1026880020000CF0A1F840F63840C2F220000CF00F
:102698009BF880B56F46084640F68401C2F22001D7
:1026A8000222BDE880400AF067BD80B56F4645F25A
:1026B80000000121C2F20000C068BFF35F8F80F8FC
:1026C800691080BD80B56F4645F200000121C2F255
:1026D80000008068BFF35F8F417680BD80B56F468C
:1026E80045F200000121C2F200000069BFF35F8FCC
:1026F80080F8091180BD80B56F4645F200000121C0
:10270800C2F200004068BFF35F8F80F8691080BD97
:1027180080B56F4645F200000121C2F20000006852
:10272800BFF35F8F80F875104EF20420CEF20000E0
:102738008021016080BD80B56F4682B0019040F66F
:1027480088000A4640F69801C2F2200001AB0090CA
:102758001046C2F220010C220AF083FB02B080BDB1
:1027680080B56F4682B00A4610F8011BDFE801F019
:1027780003411F300E5240F6A4011046C2F2200158
:102788000D2202B0BDE880400AF0E2BD019040F69B
:10279800EC0040F6FC01C2F2200000901046C2F2A4
:1027A800200101AB03220AF05CFB02B080BD01905E
:1027B80040F6D40040F6E401C2F220000090104632
:1027C800C2F2200101AB02220AF04BFB02B080BD2D
:1027D800019040F6D40040F6E601C2F220000090D5
:1027E8001046C2F2200101AB05220AF03AFB02B002
:1027F80080BD019040F6B40040F6C401C2F220004A
:1028080001AB00901046C2F220010F220AF029FB0A
:1028180002B080BD40F6FF011046C2F220010C2232
:1028280002B0BDE880400AF093BD000080B56F4655
:10283800ADF5567D15A845F2000A011D05910CA9B4
:10284800C2F2000A4FF000080231013001910090F5
:1028580001E0BFF32F8FDAF80CB09BF8680030B3B3
:1028680042F240760BF16900C2F22006D0E84F1F11
:1028780001291AD1C0E8418F0029F7D140F2FB3075
:10288800BFF35F8FC0F2000006A9079041F23050F5
:10289800C2F22000CDF8288006909BF86400CDE9AC
:1028A8000811002840F0328109E0BFF32F8FDAF8D1
:1028B800049099F86800002840F039815AE109F03D
:1028C8005CF98146002009F055F9F069022829D100
:1028D80048F69020C2F200000068002800F00E813F
:1028E80040F68820C2F2200009F056FA40F680250A
:1028F800D0E90012806840F64C140423C2F2200587
:102908000DF16C0C2293012320950E25C2F22004B0
:102918008CE81E0018A9CDE9238821931F9581E82A
:102928003001E3E013A8314601221E2303F0C6FF5D
:102938009DF84C00012832D19DF84D00DFE810F0D9
:10294800DE000600C204C204AC0090009DF84E00F0
:102958008DF8580148F69020C2F20000006800285F
:1029680000F0CC8049F6B370C0F20000979056A8EA
:10297800969040F60820C2F2200009F00DFA34467D
:1029880096AE0123D0E900128068CDE9213640F6E1
:102998000026CDF89080C2F22006239396E015A871
:1029A8003146149D03F0DDFA9DF85400012800F02B
:1029B800A58096AC0099FF2220460CF0ABFAB5F53D
:1029C800807F80F0688456A821462A460BF0D9F902
:1029D80056AA07CA002840F6A410C2F2200018BF61
:1029E8000D22119218BF014648F690201091C2F2AC
:1029F80000000068022840F2818042F61D60C0F2A3
:102A080000000D9010A80C9040F6CC10C2F22000E7
:102A180009F0C2F90CAB0125D0E900124FF00E0CF9
:102A280080680DF5B87ECDE9625340F6C413C2F252
:102A380020030324619340F64C13C2F220038EE86E
:102A4800160056A9CDE95650781ECDF894816495A4
:102A5800CDF880C15F93CDE95AC8CDE958834BE0E2
:102A680048F69020C2F200000068002846D040F6E0
:102A78005820C2F2200009F08FF90423D0E900128F
:102A88008068344640F6502622930123CDE92388F6
:102A98002193C2F2200619E048F69020C2F2000005
:102AA800006858B340F62C20C2F2200009F074F9EF
:102AB800D0E900123446806840F624260423C2F286
:102AC800200622930123CDE92388219340F64C1553
:102AD80020960E26C2F220051F96199626461E95A8
:102AE8001D931C921B91CDF8688018951690781E3E
:102AF80015A9CDF85C80159309F06DF9484609F0E1
:102B080040F801208BF86080CBF8000008A95846EF
:102B1800FFF7AAFCA8B3DDE9061003228BF86420AE
:102B2800C9688847DAF8049099F8680010B309F181
:102B38006900D0E84F1F01291AD1C0E8418F002948
:102B4800F7D140F24740BFF35F8FC0F20000CDF8E5
:102B58002880079041F23050C2F22000069006A863
:102B6800CDE9080099F86400002840F0C0804AE0E8
:102B7800BFF32F8FDAF80850287E002840F0CB806A
:102B880077E19BF8600003287FF499AE9BF85C001E
:102B9800032804BF9BF8590003287FF490AEDBE9B3
:102BA8000950046808F0C2FFBFF35F8F2968E1B1DC
:102BB8000A698C4201D12A6017E0B2B113469442E7
:102BC80011D0116989B18C4209D00A696AB194425D
:102BD80008D0116949B18C4201D00A69EDE70B466A
:102BE800114600E013461A690A6108F0AAFFDBF8EB
:102BF80034008BF8588000283FF461AEC168DBF8D8
:102C0800380088475BE608F0B8FF0546002008F062
:102C1800B1FF42F2307115A8C2F2200101F021FB88
:102C2800284608F0AEFFDDF814E00DF5AC7ADDF8C3
:102C380054C052469EE87B007BC25FEACC704CD001
:102C4800D64696A99EE87D008C468CE87D000CA8A7
:102C580000F041FEBDF8300000283ED0019A10ABCC
:102C680010685168926807C348F69020C2F20000C5
:102C78000068022831D940F28740C0F20000149061
:102C880010A8139040F63C10C2F2200009F084F816
:102C9800D0E9001213AE80680123CDE9213640F651
:102CA8001C160DF16C0C40F64C15C2F220060324DC
:102CB8008CE8160015A9C2F22005CDE91530781E5A
:102CC80020960E26CDF8908023931F961E95CDE969
:102CD8001968CDE9178509F07EF845F2000A4FF426
:102CE8007A70C2F2000A89F86080C9F8000008A961
:102CF8004846FFF7B9FB002800F0C380DDE906105D
:102D0800032289F86420C9688847DAF80850287EC1
:102D1800002800F0AE8005F11900D0E84F1F012906
:102D280040F0A580C0E8418F0029F6D1BFF35F8F3E
:102D3800287DC00740F0C08268680390A8680290A8
:102D4800E868049095F810A008F017FF8346002063
:102D58004FF0000908F00EFF42F23070C2F2200076
:102D6800D0F800C0DCF80010890011D5DCF800109C
:102D78001E20DCF8342001F07F0900EAD252A9EBCA
:102D8800020108398945A4BFA9EB01015FFA81F95D
:102D9800DCF8001001F07F03994533D209F10302F2
:102DA8005B424FEA09110CEB0106D6F8804004F0AB
:102DB8007064B4F1006F00F082809C18022C21D05E
:102DC800D6F8900000F07060B0F1006F00F09880C5
:102DD800012C17D0D6F8A00000F07060B0F1006F99
:102DE80000F0938074B1D6F8B00000F07060B0F1D4
:102DF800006F00F08F800432403109F104099818FF
:102E08000328D0D148F6902045F2000AC2F200000B
:102E1800C2F2000A0068002800F0B48040F694105E
:102E2800C2F2200008F0B8FF40F68C16D0E9001274
:102E380080680423C2F2200622930123209640F6DC
:102E48004C160DF16C0CC2F220068CE84E0015A948
:102E5800CDE91530781E0E24CDE9238821931F94DF
:102E6800CDE91948CDE9178608F0B5FF8AE0BFF328
:102E78002F8FDAF8109099F80801002840F09C800C
:102E8800E9E499F8600003287FF4BDAE99F85C0086
:102E9800032804BF99F8590003287FF4B4AED9E990
:102EA8000960056808F042FEBFF35F8F31680029AA
:102EB80000F0D5810A698D4204D13260CFE15446D1
:102EC8004A4629E0002A00F0CA811346954200F0DC
:102ED800C4811169002900F0C2818D4200F0B981D6
:102EE8000A69002A00F0BB81954200F0B58111699A
:102EF800002900F0B4818D4200F0AB810A69E1E756
:102F0800544609F10102103106E0544609F1020263
:102F1800203101E03031544645F2000A42F2307661
:102F2800C2F2000AC2F22006202A08D20120DCF8E8
:102F3800303000FA02F21A43CCF8302009E002F0EF
:102F48001F020120DCF82C3000FA02F21A43CCF8F8
:102F58002C2001F180034FF00060092C43F80C008D
:102F6800306803991844416002990ABA826004994A
:102F78000ABA2146C26080F0868130680A0402F1EC
:102F880040621A50584608F0FCFD0120287541F2AD
:102F98003050BFF35F8F85F81880C2F22000C168F7
:102FA80040F21540C0F200008847DAF8109099F80E
:102FB800080100283FF44FAC09F20910D0E84F1F70
:102FC80001297FF446ACC0E8418F0029F6D1BFF350
:102FD8005F8F99F80401C00740F06E8115A8494633
:102FE8004FF482720CF010F908F0C7FD0446002077
:102FF80008F0C0FD42F24070C2F22000C069022809
:1030080037D148F69020C2F200000068002800F08E
:10301800348140F69820C2F2200008F0BDFED0E9C5
:1030280000120423806840F6802540F64C16A393CE
:1030380001230DF51C7CC2F22006C2F220058CE8A3
:103048004E0096A9CDE99630781EA1950E25CDE9BA
:10305800A488A293A095CDE99A58CDE9988608F05E
:10306800BAFE42F24070C2F22000C069022800F0A5
:10307800048156A8FF2104940CF04EF9DDF854B0F1
:10308800BBF1000F51D0059E96A856A94FF0000E2F
:1030980006EB0B0C334613F9015BB5F1FF3FEAB2BF
:1030A80021DC757802F01F03E02A05F03F0517D3ED
:1030B800B478F02A04F03F0444EA85151FD3F27867
:1030C80003F0070302F03F0242EA851242EA834214
:1030D800B2F5881F1AD0331DBEF1FF0F07D1E3E008
:1030E80045EA8312B31CBEF1FF0F00F0DD8001F842
:1030F8000E200EF1010E1E466345CCD106E045EACE
:103108000332F31CBEF1FF0FF1D1CDE0FF220CF02A
:103118007BF845F2000ABBF1100FC2F2000A08D38F
:10312800059859460AF065FB07E096A8FF210CF0C0
:10313800F3F8059859460AF0CAFD024642F2407073
:1031480096A9C2F2200003F04EF8DDF810B0C2B222
:10315800062A2CD148F69020C2F200000068032805
:1031680061D343F21D70C0F20000099015A80890C1
:1031780040F6D020C2F2200008F00EFE08AE01236F
:10318800D0E900120E2580680324CDE9A23640F666
:10319800C826C2F22006CDF89482A19640F64C16B5
:1031A800C2F22006A493A0959F969E942DE08DF8D8
:1031B800300048F690208DF83110C2F20000006807
:1031C80088B340F2B140C0F2000009900CA8089002
:1031D80040F60030C2F2200008F0DEFD08AE012300
:1031E800D0E900120E258068CDE9A23640F6F8260F
:1031F800C2F22006CDF89482A19640F64C16C2F28F
:103208002006A493A095CDE99E369C9196A9979007
:10321800781E9D92CDF86C829A959996CDF8608229
:10322800969308F0D8FD584608F0ABFC012089F8C1
:10323800040141F23050BFF35F8F89F80881C2F270
:103248002000C16840F22D40C0F200008847FFF717
:1032580002BB0B46114600E013461A690A6108F0E2
:1032680070FCD9F8340089F8588000283FF4CBACBA
:10327800C168D9F838008847C5E440F6A820C2F2EA
:1032880020000BF051F840F6BC330020C2F22003B6
:1032980008220AF0BCFF40F6DC130020C2F220032B
:1032A8002946FF220AF0B3FF40F61032FF20C2F28F
:1032B8002002FF210BF0ACFA40F65C10C2F22000AD
:1032C8000BF082FAFEDEF0B503AF2DE9000FADF288
:1032D800447D07AC204605F069FD0DF28455214672
:1032E8004FF4E07228460BF08FFF7AA8294601F0C8
:1032F800CBFA84AA77AB7E9D0DF5AA6A07CA819C92
:1033080007C34EF21000CEF200008F9E7AABDDF8B4
:10331800C0B20122016821F001010160016841F099
:103328000401016042F2BF71C0F209014160016805
:1033380041F002010160016841F00101016048F6B5
:1033480084200121C2F20000BFF35F8F01710020C9
:10335800BFF35F8F7C90042077A97B9003207A903D
:103368004FF47A60CDF850050DF22C50CDF800A03E
:1033780000F0D4FBDDF82C05002840F053810696B8
:103388000DF5A76643F20062DDF830050590C0F23E
:103398006E123046594601F099F844F2402B3046F7
:1033A800C0F20F0B594600F0B7FEDDF83865D6F8C5
:1033B8000090306840F080403060306840F08050C5
:1033C80030603068C00109D43068C0015CBF306823
:1033D8005FEAC01002D43068C001F2D50020D6F8E8
:1033E80000808DF8E8010DF5A7607AA900F0F3FCDC
:1033F800F06A316B31630F21F062306861F30600C7
:1034080030605FEA880007D501207AA98DF8E801C5
:103418000DF5A76000F0DFFC5FEAC91010D4306832
:1034280020F0805030603068C00109D53068C00194
:1034380044BF30685FEAC01002D53068C001F2D4DA
:103448000DF5A7607AA94FF000098DF8E89100F012
:10345800C2FC0DF2445606995A46304601F033FC38
:103468002868072105220DF5F47820F4B8600B23AD
:1034780040302860686861F30B00686048F26410A7
:10348800C4F21F00016862F303010160616841F43E
:1034980080616160416862F30301416060680A21EC
:1034A800224640F400606060286820F0010028602F
:1034B800A86840F02000A860E86820F02000E860D4
:1034C800286820F400702860286840F0020028600E
:1034D800A86840F00100A860E86820F00100E860F2
:1034E800A86840F00200A860E86820F00200E860E0
:1034F800A86840F00400A860E86820F00400E860CC
:1035080040F29330CDE90041CDE902094046314609
:10351800049503F048F88198022800F09C80C4467E
:103528005146BCE87D007DC19CE87D007DC145F227
:103538000000C2F20000C16801F16802D2E84F3F02
:103548004BB90123BFF35F8FC2E8463F56B1D2E8BB
:103558004F6F002EF8D040F66C30BFF32F8FC2F2B9
:1035680020001EE00022BFF35F8F81F86420012253
:10357800BFF35F8F81F86920406800F16801D1E8E6
:103588004F3F43B9BFF35F8FC1E8432FB3B1D1E8D1
:103598004F3F002BF8D040F65C30BFF32F8FC2F2BC
:1035A800200040F62033009040F63030C2F220036D
:1035B800C2F220007AAA2B210AF0C0FE0021BFF334
:1035C8005F8F80F864100121BFF35F8F80F8691066
:1035D800BAE87E0040467EC09AE87E007EC00DF5BF
:1035E800A76286AB07CA07C342F24070C2F2200046
:1035F800B8E87E007EC098E87E007EC086AB42F2C6
:103608007070C2F22000059E0ECB066042F2307048
:10361800C2F220000EC008F09FFA0DF2447DBDE80A
:10362800000FF0BDDDF82C057AABDDF83015DDF8BC
:10363800342507C340F6AC30C2F2200040F69C3374
:10364800009040F63030C2F22003C2F220007AAA7D
:103658002B210AF073FEBDF8E80140F67C33ADF883
:10366800500540F68C30C2F220000DF5AA62009099
:1036780040F63030C2F22000C2F220032B210AF0BB
:103688005DFE80B56F46ADF5247D08F063FA48F617
:103698008D200121C2F20000802201704EF22740E5
:1036A800CEF20000602101704EF20411CEF200014A
:1036B80048F698240A60F02280F84A204FF4003037
:1036C800886045F200010020C2F200016A46ADF8A8
:1036D80074000A601EAAADF88001C2F200040A61F3
:1036E80061AAADF8EC01CA607CAAADF858024A603C
:1036F800ADF8740297A8886044F20000C2F2000096
:10370800A04203D908F030FAA04203D9FFF7DBFD45
:10371800FFF78CF8012100209F9140F68441C2F206
:103728002001A290A19004209E9140F65C11A090E7
:103738009EA8C2F220010BF0F4F880B56F4690B055
:103748000A4640F6E0410068C2F220010E910FA936
:103758000D9140F6D04100F10803C2F220010DF1AD
:103768000C0C0C91CDE90A13831DCDE90813031D38
:10377800CDE90613831C8CE80B000A3003A90F90CF
:10378800062040F6A853CDE9000140F6D851029032
:103798001046C2F22001C2F220030C2209F088FC74
:1037A80010B080BD80B56F468A68930105D4520178
:1037B80007D4BDE8804008F086BDBDE8804008F029
:1037C800F7BEBDE8804008F081BF0A46016899B19C
:1037D80080B56F4682B0019040F6C04040F69C41EB
:1037E800C2F2200001AB00901046C2F22001042270
:1037F80009F037FB02B080BD40F6AC411046C2F27A
:103808002001042209F0A4BDF0B503AF4DF804BDB2
:103818008CB00A4600F1080140F6046C0B910421B3
:103828000BAB0DF1200EC2F2200C8EE80A10031D1E
:10383800022440F6B84C40F6F45E40F6196540F6AE
:10384800E456CDE9001040F61461CDE9044340F692
:1038580094431046C2F2200CC2F2200EC2F2200598
:10386800C2F22006C2F22001C2F220030522CDE9ED
:103878000265CDE906EC09F0C9FB0CB05DF804BBA4
:10388800F0BD80B56F4682B0019040F61C600A46D4
:1038980040F62C61C2F2200001AB00901046C2F243
:1038A8002001052209F0DDFA02B080BD80B56F461F
:1038B80082B0019040F61C600A4640F63161C2F2BF
:1038C800200001AB00901046C2F22001072209F047
:1038D800C8FA02B080BDF0B503AF4DF8048D98B0BA
:1038E80080460868820239D44A68920C22F00103A3
:1038F800B3F58E6F6DD1C00200F19E800A7C092A53
:1039080080F0038102F00E000C2840F0B180488A54
:103918008A8900BA4B89B1F808C0CD89000C098A98
:10392800A8F80C0008BA000CA8F80A0028BA012563
:10393800000CA8F8080010BA000CA8F8060018BA7D
:10394800000CA8F804009CFA8CF0000CA8F80200FF
:10395800A8F8005018B05DF8048BF0BD48F6902028
:103968000025C2F2000000680228F1D941F259503E
:10397800C0F20000CDE9041049F6B370C0F20000AF
:10398800039001F11400029040F6A860C2F22000F2
:1039980008F002FA02AC0223D0E90012032680687C
:1039A800CDE9123440F66464149340F64463C2F2DD
:1039B8002003C2F2200411931423159510930F9439
:1039C800CDE90D26CDE90B51CDE90943CDE9070530
:1039D8008EE048F690230025C2F200031B68022BF4
:1039E800B6D9C00227F86E2C4FF0000058BF01F17D
:1039F8000800019041F21B50C0F20000059001A898
:103A080004904AF2CF00C0F200000390A7F16E00C4
:103A1800029040F69860C2F2200008F0BDF990E8E4
:103A2800061002A80223CDE9123040F688601595E9
:103A3800C2F22000149346E048F690200025C2F216
:103A48000000006802287FF683AF41F25950C0F2A7
:103A58000000CDE9041049F6B370C0F200000390ED
:103A680001F11400029040F67860C2F220001AE0DA
:103A780048F690200025C2F2000000680328FFF4F1
:103A880067AF41F25950C0F20000CDE9041049F681
:103A9800B370C0F20000039001F11400029040F6E8
:103AA8005460C2F2200008F077F9016802234268E6
:103AB800D0F808C002A8139040F64460C2F2200073
:103AC80015951493129340F664634FF0140EC2F2E6
:103AD800200311900320CDF840E00F930E900D9233
:103AE8000C910B95CDF828E009930895CDF81CC0EA
:103AF800012006A90690A7F1110008F06CF9A8F8B2
:103B0800005018B05DF8048BF0BD40F6B86311465C
:103B1800C2F22003002008220AF079FBF0B503AFB7
:103B28002DE9000FCBB00E4648F23461C2F2000115
:103B38001C4601F2124190460123BFF35F8FD1E882
:103B48004F2FC1E8453F002DF9D1BFF35F8F32B148
:103B580096E80E000EC04BB0BDE8000FF0BD48F26D
:103B680034650290C2F200054FF4806128460BF0DC
:103B7800D3FB07F0DBFF81462846214604F03EF9D7
:103B880020B196E80700029B07C307E148F64C20DE
:103B9800D6F800C0C2F20000B268056046F2000024
:103BA800C2F2000041F23813C6188DF80F80BFF337
:103BB8005F8F56E8003F43F0004546E80054002C6C
:103BC800F7D1002BBFF35F8F00F1FA8048F20006AF
:103BD8000124C2F2000606F5A063BFF35F8FD3E8A5
:103BE8004F5FC3E8414F0029F9D1CDF80490002D6B
:103BF800BFF35F8F40F0D98041F23811CDE946C25A
:103C080001443F9000F5865200F580500DF1FC0B01
:103C1800459106214FF00009CDE9401058464491DE
:103C2800CDE942120121CDE94863ADF8289105F0AC
:103C38006CFDBBE87E000DF1100A0AF104007EC09D
:103C48009BE87E007EC0012041468DF84400504626
:103C5800CDF8109006F0B1FEB8683FA941900DF17B
:103C68000F0040903EA83F905046CDF8F890CB46C4
:103C780000F0C5FC48F204594FF48060C2F2000914
:103C88005146A9F8040009F10C00C9F808B0C9F8B0
:103C980000B05CC95CC07CC97CC091E87C00494626
:103CA8007CC050464FF40072C9F844B001F084F863
:103CB800BAE87E0048F65020C2F200000DF1100864
:103CC8007EC09AE87E007EC032203FAACDF81E0151
:103CD8000220C4F200004946CDF81A011020ADF8C0
:103CE800180145F62400C2F2DD70CDF80CB14590FC
:103CF8000920429040F6C860C2F22000CDF8FCB01E
:103D08004190404600F0F0FC3B9E8121304606F091
:103D1800D9FC3046012106F0D5FC3046822106F058
:103D2800D1FC3046022106F0CDFC3046832106F056
:103D3800C9FC3046032106F0C5FC3046842106F054
:103D4800C1FC3046042106F0BDFC3046852106F052
:103D5800B9FC3046052106F0B5FC3046862106F050
:103D6800B1FC3046062106F0ADFC3046872106F04E
:103D7800A9FC3046072106F0A5FC48F24C50414604
:103D8800C2F20000E8220BF03FFA029846F2B111A5
:103D9800C0F20001DDF80490C0E900B1484607F020
:103DA800D0FE4BB0BDE8000FF0BD41F2A00041F2DB
:103DB8008822C2F22000C2F2200220210AF098FADA
:103DC80041F2582041F27822C2F22000C2F22002C9
:103DD8001F210AF08DFAF0B503AF2DE9000F81B06D
:103DE800D0F800C0DCF800000090DCF8000040F0DB
:103DF8008040CCF80000DCF8000040F08050CCF89F
:103E08000000DCF80000C0010CD4DCF80000C001A0
:103E18005CBFDCF800005FEAC01003D4DCF80000E7
:103E2800C001EED5DCF800004FF0000820F000508B
:103E3800CCF80000CCF82880CCF82480DCF800000E
:103E480010F07F0278D000F0030E00244FF0000A33
:103E5800042A41D300F07C0940F68C0B40F6880315
:103E680040F684054FF4086000220CEB02060AF1C4
:103E7800040A4032D145C6F88040C6F88440C6F8E6
:103E88008840C6F88C404CF8004000F11000C6F895
:103E98009040C6F89440C6F89840C6F89C404CF844
:103EA800054005F11005C6F8A040C6F8A440C6F8BC
:103EB800A840C6F8AC404CF8034003F11003C6F81C
:103EC800B040C6F8B440C6F8B840C6F8BC404CF894
:103ED8000B400BF1100BC8D1BEF1000F2CD00CF128
:103EE80080024FEA0A1400230CF50860135102EB14
:103EF8000A14BEF1010F6360A360E36040F82A3042
:103F08001AD00AF10104BEF1020F4FEA0415535109
:103F180002EB04156B60AB60EB6040F824300BD00B
:103F28000AF1020300251E01955102EB03125560A8
:103F38009560D56040F82350CCF81080CCF84880C4
:103F4800DCF82C00DCF83020CCF83020CCF82C0041
:103F5800DCF800000A7800F07F08F2B1DCF8000015
:103F680040F00050CCF80000DCF8000080000CD4D1
:103F7800DCF8000080005CBFDCF800005FEA80002D
:103F880003D4DCF800008000EED5DCF800008000E7
:103F98005FD4002242456DD3A0E0B8F1000F00F0D5
:103FA8009D800CF508620CF180034FEA980E4FEAE9
:103FB800580B4FF000094FF080414FF00064002685
:103FC80010E04FF08C60764538BF4FF0886018607D
:103FD800DCF8340001EA8030106001361033043216
:103FE800B0457BD05E45ECD31C60C3F80490C3F8A1
:103FF8000890C3F80C90DCF8000080000FD5DCF8BE
:1040080000001E25DCF834A000F07F0005EADA5530
:10401800451B083D451BA8BFE8B28642DDD3202ECC
:1040280007D2DCF828000125B5402843CCF8280041
:10403800D3E7DCF824A006F01F0520460C46012132
:1040480001FA05F5214604464AEA0500CCF82400A1
:10405800C3E7DCF800001E23DCF8342003EAD2535F
:1040680000F07F02D01A08388242A4BF101AC2B2E8
:10407800424533D20CEB02104FF00063803001262A
:104088004FF01E0E0AE0DCF8284006FA02F52C4331
:10409800CCF828400132103090451FD00360DCF87E
:1040A8000040A4000ED5DCF80040DCF8345004F0E1
:1040B8007F040EEAD555651B083D651BA8BFECB209
:1040C800A242E7D3202ADED302F01F05DCF8244001
:1040D80006FA05F52C43CCF82440DBE70098C0012C
:1040E80016D4DCF8000020F08050CCF80000DCF892
:1040F8000000C0010CD5DCF80000C00144BFDCF8AA
:1041080000005FEAC01003D5DCF80000C001EED45F
:1041180001B0BDE8000FF0BDF0B503AF2DE9000F09
:1041280081B0D0F8048004468946084600224146FA
:1041380005F04DF80546484641462A46002305F055
:1041480034F82668824630680090306840F0804035
:104158003060306840F0805030603068C00109D469
:104168003068C0015CBF30685FEAC01002D43068B4
:10417800C001F2D54FF0000B062D24D3012502E033
:104188000135052C1FD9484641462A4605F01FF837
:1041980004461A28F4D24846414622462B4605F0E2
:1041A80004F882450146A4F10C0238BF5146072A9B
:1041B8005A4638BF2A46504588BF5A468A4638BFAD
:1041C8002A469346DCE7B9F1000F44D01BF1010001
:1041D80041D2B8FBF9F1B1FBF0F00538142898BFCB
:1041E800BAF5967F03D90098C0011FD52FE040F695
:1041F800F46240F64871C2F22002C2F2200152F87D
:10420800202040F69C7351F82010C2F2200353F886
:10421800200042EA0B621143736808434BF6F071C1
:104228001940084370600098C00110D4306820F02D
:10423800805030603068C00109D53068C00144BF83
:1042480030685FEAC01002D53068C001F2D401B00E
:10425800BDE8000FF0BD40F6E460C2F220000AF0AD
:10426800A0FAF0B503AF2DE9000F89B00E688A46B1
:1042780031680290890002D44FF000080DE03368DD
:104288001E22716B03F07F0802EAD151A8EB0101ED
:1042980008398845A8BFA8EB010830689AF808B023
:1042A80000F07F05AB4506D902990020086009B0E7
:1042B800BDE8000FF0BD4FF0030906F18000039040
:1042C80015E030681E22716B00F07F0B02EAD151B5
:1042D800ABEB010008388345A8BFABEB000BA9F195
:1042E80001098AF808B05FEA09604BD1DCE7F06A97
:1042F800316B51EA000229D0B1FA81F1002801F1AD
:10430800200118BFB0FA80F1C1F140005FFA8BF1CB
:10431800C0B281421AD33068800002D44FF0000B3B
:104328000DE030681E22716B00F07F0B02EAD1515C
:10433800ABEB010008388345A8BFABEB000BA9F134
:1043480001098AF808B05FEA0960ADD030688000DA
:1043580008D55FFA88F05FFA8BF181423CBF8AF892
:104368000880C3465FFA8BF0A8420BD33068800000
:10437800A7D44FF0000BA9F101098AF808B05FEA49
:10438800096091D00BF03F01726AC1F120004FF033
:10439800010EB36AB1F120042EFA00F00EFA01F111
:1043A80058BF0EFA04F058BF002102400B404FF0EE
:1043B800010C1A4308D00BF1010B8AF808B05FFA18
:1043C8008BF0A84293D96FE7726AB36A104019401C
:1043D8000843F0D1039A5FFA8BF0010152F801E02B
:1043E8000B2101EA1E6104310629E4D103990EF478
:1043F8007023B3F5802F01EB00114A6801928A6897
:104408008CBFCB68002307F8273C20284FEA1244CA
:1044180007F82D4C4FEA126412BA07F82E4C4FEAEF
:1044280013244FEA124207F8284C4FEA13444FEA84
:10443800136327F82C2C4FF0806207F8294C07F8F3
:104448002A3C0A60B16805D2316B0CFA00F00843C7
:10445800306306E00BF01F01F06A0CFA01F1084323
:10446800F0624FEA1E4000F00F02092A25D2A7F198
:104478002600A7F12E015446CDF800E0C24604F00C
:10448800B6FE17F8260C10B9D046A24693E7029C50
:1044980057F8250C57F8211CE0600120206000988F
:1044A80017F81D2C606001982275216184F818B0F6
:1044B800A06009B0BDE8000FF0BD40F6D463114616
:1044C800C2F220030020082209F0A1FEB0B502AF15
:1044D80084B0044648F2C400C4F21F000D460168C7
:1044E80021F00F010160016841F01001016041688D
:1044F80021F00F014160416841F010014160012144
:10450800C0F88C13286820F000402860286840F024
:1045180080402860286840F0805028600020CDE95D
:1045280000528DF808002868C00109D42868C00125
:104538005CBF28685FEAC01002D42868C001F2D5C1
:10454800686840F008006860286840F0804028608B
:104558002868C00209D52868C00244BF28685FEAF5
:10456800C02002D52868C002F2D4286840F0007044
:1045780028602868800109D52868800144BF286818
:104588005FEA801002D528688001F2D42868C0014B
:1045980009D42868C0015CBF28685FEAC01002D44B
:1045A8002868C001F2D52868A7F1090140F08C609D
:1045B80040F433202860286820F408402860686B9D
:1045C80040F4E0206863002007F8090C6846FFF70C
:1045D80002FC286820F0805028602868C00109D5AE
:1045E8002868C00144BF28685FEAC01002D528685F
:1045F800C001F2D49DE8070007C404B0B0BDF0B50F
:1046080003AF2DE9000B82B0D1E900690446D1F867
:10461800088090F83400012801D1206834E007F0C0
:10462800A6FA054607F096FA2068E9072CD1002873
:1046380054D14FF0FF306D4620603068009004F18F
:10464800200001902846D8F8008099F8006005F00D
:1046580074FF284605F02EFF2846314605F045FF31
:104668002846012105F09AFF2846414605F081FFBA
:10467800284605F070FF20680130206007F06CFACA
:1046880002B0BDE8000BF0BD40BB4FF0FF306D46F7
:1046980020603068009004F1200001902846D8F886
:1046A800008099F8006005F048FF284605F002FFF1
:1046B8002846314605F019FF2846012105F06EFF0E
:1046C8002846414605F055FF284605F044FF206876
:1046D8000130206002B0BDE8000BF0BD40F6F0707C
:1046E800C2F2200009F061FCF0B503AF2DE9000F1C
:1046F80085B004468868002840F0868092F821B08A
:104708004FF0FF3001F10C06886000209146884682
:10471800CDE9000B0290304600210122002306F06B
:10472800ADFD0D46D8F80810C00701F10101C8F821
:10473800081040F08180002966D14FF0FF308021B9
:10474800C8F808000020CDE9000B0122029030468D
:10475800802306F093FD8A46D8F80810C00701F1B7
:104768000101C8F808107BD1D8F80000002851D101
:104778004FF0FF300029C8F8000051D1C8F80800F0
:10478800304606F04AFDD8F808000130C8F808009D
:104798004CD34FF0FF308021C8F8080004F1240002
:1047A800BFF35F8FC8F84460BFF35F8F0AF0B4FDB2
:1047B800C4F8DC60AC46B9E86E0004F1B4006EC021
:1047C80099E86E006EC008F144010020A161E16023
:1047D800042184F8E200C4E92B00C4F8A400A4F87A
:1047E8001F0084F81EA0A4F81CB0A4F8130084F8D5
:1047F80012C0A4F810B02080A4F8E310A4F8E000D8
:1048080005B0BDE8000FF0BD41F20000C2F2200083
:1048180009F0CBFB41F23000C2F2200009F0C5FBE1
:1048280041F22000C2F2200009F0BFFB41F2100063
:10483800C2F2200009F0B9FB41F2301041F25003F6
:10484800C2F22000A7F11E02009041F26000C2F2FD
:104858002000C2F22003202107F81E5C09F06EFD3B
:1048680041F2201041F25003C2F22000A7F11D02CC
:10487800009041F26000C2F22000C2F22003202121
:1048880007F81DAC09F05AFDF0B503AF2DE9000F8C
:10489800ADF5357D8B46044601F1340038310BF116
:1048A800540203F0FBFFDBF8C80004F07BFCDBF8E4
:1048B8002801016841F001010160DBF82801016865
:1048C80021F0020101600021C0F80811C0F8181198
:1048D800C0F82811C0F83811DBF8C0A0C4E90000FE
:1048E800C4E90200DAF8000020F00100CAF800006C
:1048F800DAF8000040F40040CAF80000DAF80000D6
:1049080000040CD5DAF80000000444BFDAF800000F
:104918005FEA004003D5DAF800000004EED43F2037
:10492800CAF80800DAF8000020F00100CAF8000010
:10493800DBF8C460306820F001003060306840F473
:10494800004030603068000409D53068000444BF76
:1049580030685FEA004002D530680004F2D43F2096
:1049680040F26341B060306820F001003060DBF84D
:104978000050DBF85C011E90A86C40F00100A864B0
:10498800686C08436864686C012161F3830068649B
:10499800686C20F080006864A86C40F02000A8646F
:1049A800686C40F440406864686C40F44470686423
:1049B800A86C40F08000A864A86D000709D0A86D15
:1049C80000071CBFA86D5FEA007002D0A86D000741
:1049D800F2D1A86C40F2634140F02000A864686CF2
:1049E80020F440406864686C20F4447000F58870D6
:1049F8006864DBF80480D8F8480040F00100C8F883
:104A08004800D8F844000843C8F84400D8F84400DF
:104A1800012161F38300C8F84400D8F8440020F06D
:104A28008000C8F84400D8F8480040F02000C8F8D2
:104A38004800D8F8440040F44040C8F84400D8F88A
:104A4800440040F44470C8F84400D8F8480040F0E6
:104A58008000C8F84800D8F8580000070CD0D8F8EB
:104A6800580000071CBFD8F858005FEA007003D050
:104A7800D8F858000007EED1D8F8480002220F23D2
:104A880040F02000C8F84800D8F8440020F440401E
:104A9800C8F84400D8F8440020F4447000F5887041
:104AA800C8F84400DBF87C111FA804F02BFBDBF8E6
:104AB800681131A84FF4805204F039FCDBF89C00EF
:104AC8000A90DBF8A4000990DBF8A8000890DBF84E
:104AD800AC000790DBF884010690DBF890010590A4
:104AE800DBF89801DBE91712019035A804F057FCB0
:104AF800DBE90D10DBF830211D90DBF854001C9029
:104B0800DBF880000C90DBF8E0001A90DBF8E80096
:104B18001990DBF8F0001890DBF8F4001790DBF838
:104B2800F8001690DBF8FC001190DBF800011590F6
:104B3800DBF804011390DBF808011290DBF80C0194
:104B48001090DBF810011490DBF814010E90DBF8DC
:104B580018010D90DBF81C010F90DBF8840004901D
:104B6800DBF8880003904FF470401B9111460B92BC
:104B7800A2F88C010F22A1F88E21DBF834110291E2
:104B8800A1F88C01A1F88E21DBF838110091A1F869
:104B98008C01A1F88E210F21DBF83C914FF40072B3
:104BA800A9F88C01A9F88E1135A9019820630A98F3
:104BB800A0610998E06108982062079860620698E9
:104BC800A0620598E06204F59E70C4E904A6DBE9DA
:104BD8000A6A0AF019FB1E9909F16002C4E9356AEC
:104BE80001F134005031C4E93758C4E9CF1009F550
:104BF8009070C4F8C40009F1C0010C98C4F8C8004A
:104C08000498C4F8CC000398C4F8D0000298C4E90A
:104C18002F2100F5907300F1C00600F16005C4E98A
:104C28002300119860650E98A0651098E0651398A8
:104C38002066129860660F98A0661598E06614982A
:104C4800009920671B9801F1C00E606301F16002B2
:104C58001D9801F5907CA0631C98C4E9273104F1E4
:104C6800A403E0631A9883E806400B9B2064199814
:104C780003F16002606403F1C0011898C4E9255685
:104C880003F59075A0641798E0641698C4E9211597
:104C98001FA9206504F1E4000D9EC4E91F324822D3
:104CA800C4E92D99C4F8B0C0C4E91D630AF0ACFA90
:104CB80031AB04F5967C0FCB8CE80F000DF5357DF4
:104CC800BDE8000FF0BDF0B503AF4DF804BD0546D3
:104CD80048F24010C4F21F000C464168032363F3F6
:104CE80003014160416841F0100141600021C0F8B2
:104CF800E813066863F303060660066846F01006C4
:104D08000660C0F8E413866863F303068660836868
:104D180043F010038360C0F8E0130221206961F3B7
:104D2800010020612069C00709D02069C0071CBFA5
:104D380020695FEAC07002D02069C007F2D12069FB
:104D4800012120F002002061206940F440702061B8
:104D580003206062606800F01F0001FA00F0C0F3F1
:104D68004300A06521612669206920F001002061C7
:104D78002069C00709D02069C0071CBF20695FEA05
:104D8800C07002D02069C007F2D142F60010114667
:104D9800C0F2DE7004F0A0FA01BA21644FF6FF7188
:104DA800884321690022C5E90024A86066F3000150
:104DB80021615DF804BBF0BDF0B503AF2DE9000F2C
:104DC80085B005460868002840F0A68091F804B030
:104DD8000C4688680BF101012171002840F096808B
:104DE8004FF0FF3004F10C069146A060FF20082127
:104DF80003220290CDE90021304680210022802341
:104E080006F03CFA8A46A168C00701F10101A160D9
:104E180040F08880206800287ED194F8048000291A
:104E280008F10100207171D14FF0FF300221A0601C
:104E38000020CDE90019002102903046002200230D
:104E480006F01CFAA268C00702F10102A2607DD137
:104E5800002A5BD14FF0FF300391A06000210220AF
:104E68000291CDE90009304680210022802306F016
:104E780005FAC00701BF85F82CB085F82D8040F2EF
:104E8800FF30A5F80F0001BF85F80EA00820A88103
:104E980004F1440201BFAA604FF40073A5F827305B
:104EA80085F8261001BFA5F824902A62A5F81B30C2
:104EB800039901BFA976A5F818906A614FF4FA51D1
:104EC80001BF2960A1680022AA7101BFA880EA85F4
:104ED800481CA06002BF05B0BDE8000FF0BDA06887
:104EE80041F25003A7F11D0207F81D1C0130A06014
:104EF80041F25010C2F22003C2F220000F210090AC
:104F080041F24010C2F2200009F018FA41F2000004
:104F1800C2F2200009F049F841F24000C2F2200034
:104F280009F043F841F2601041F25003C2F2200048
:104F3800A7F11F02009041F24010C2F22000C2F215
:104F480020030F2107F81FAC09F0F8F941F25010BF
:104F580041F25003C2F22000A7F11E02009041F274
:104F6800401007F81E1CC2F22000C2F220030F21D5
:104F780009F0E4F980B56F4641F270100021C2F2E1
:104F8800200080BD80B56F4680BD80B56F468A68B9
:104F98000068930105D4520107D4BDE8804007F0AA
:104FA8003FBABDE8804007F04ABBBDE8804007F043
:104FB800D4BBB0B502AF88B0006841F2032341F218
:104FC800E0140DF11C0E0A4605210068C2F2200308
:104FD8000790C2F22004083041F2F01C0325CDE905
:104FE800024341F20023CDE9041E40F68C41C2F28F
:104FF800200CCDE900501046C2F22001C2F2200375
:105008000422CDF818C007F0B5FF08B0B0BD80B5D0
:105018006F468A680068930105D4520107D4BDE839
:10502800804007F01EB9BDE8804007F06FBABDE8C0
:10503800804007F094BA80B56F46FEDEB0B502AF87
:1050480088B0006841F2032341F2E0140DF11C0E10
:105058000A4607900521C2F22003C2F22004083054
:1050680041F2F01C0325CDE9024341F20023CDE9CA
:10507800041E40F68C41C2F2200CCDE900501046C7
:10508800C2F22001C2F220030422CDF818C007F0B2
:1050980071FF08B0B0BD80B56F468A68006893019B
:1050A80005D4520107D4BDE8804007F00CB9BDE82B
:1050B800804007F07DBABDE8804007F007BB80B5A7
:1050C8006F460068BDE8804000F027BC80B56F4699
:1050D8000A46D0E90001BDE8804007F0AEB880B5C7
:1050E8006F468A68930105D4520107D4BDE8804011
:1050F80007F0B7B8BDE8804007F008BABDE88040BF
:1051080007F02DBA80B56F46007841F280020B4651
:1051180041F22821C2F22001C2F2200251F82010E7
:1051280052F820201846BDE8804008F011B9F0B5C3
:1051380003AF2DE9000F81B080460C6803F082FBB5
:10514800D8F800603168451AB5F1FF3F04DDE80F73
:1051580001B0BDE8000FF0BDD8F80400D0F800B0E9
:10516800DBF800000028F2D1D4E90010096888476C
:105178000446DBF800008946366800281EBFC1686F
:10518800DBF8040088470020D8F808A0CBF8100006
:105198008BF80C00CBE90049CBF8086006F0C6FC98
:1051A800BFF35F8FDAF8001009B3DBF808208B68CB
:1051B800D31A1AD40B698BB39E68961B26D4196927
:1051C80031B38E68961B25D40B693BB39E68961B3A
:1051D8001CD41969E1B18E68961B1BD40B69EBB11D
:1051E8009E68961B1E46EAD516E0CBF81010CAF842
:1051F80000B006F0A6FCD8F80C00C0F800B003F028
:1052080017FBE80F01B0BDE8000FF0BD1E4603E034
:10521800194603E00E461946CBF81060C1F810B0E5
:1052280006F08FFCD8F80C00C0F800B0E80F01B009
:10523800BDE8000FF0BDF0B503AF4DF804BD90F820
:10524800301071B1032916D100F1180C90F82C40D8
:10525800D0E904E19CE80C105CB1032C11D1846AFC
:105268001BE0D0E900E10023D0E9022C634512D30A
:105278000DE0446A11E041F20820C2F2200009F072
:10528800A3FA41F21820C2F2200009F09DFA032087
:105298005DF804BBF0BD01337446606845692D05AF
:1052A80000F1D5804568C06D00F01F00EDB2A8423E
:1052B80049D2DEF80000D0B10020914218BF11F8A1
:1052C800010B002491421CBF11F8014B240220431A
:1052D800002491421CBF11F8014B240420430024F0
:1052E80091421CBF11F8014B2406204325E0002001
:1052F800914218BF11F8010B002591420C461CBFC2
:105308000C4614F8015B914218BF45EA00200021C1
:10531800944225461CBF254615F8011B944218BF28
:1053280041EA00200024954229461CBF294611F86D
:10533800014B954218BF44EA0020DEF8044060663D
:105348006345A8D3A3E765687DE06868ED6D05F05F
:105358001F05C0B285421ED365686869000576D40A
:105368006868EE6D06F01F06C0B2864213D36869FE
:1053780000056CD46868EE6D06F01F06C0B2864260
:1053880009D36869000562D46868EE6D06F01F06E7
:10539800C0B2864257D2DEF80000D0B1914214BFA5
:1053A80011F8010B002091421ABF11F8014B240299
:1053B8000024204391421ABF11F8015B2D040025F7
:1053C800284391421ABF11F8016B36060026304374
:1053D80028E0914214BF11F8010B0020914203D03C
:1053E8000C4614F8015B01E000250C46914218BFF9
:1053F80045EA0020944203D0254615F8011B01E038
:1054080000212546944218BF41EA0020954203D066
:10541800294611F8014B01E000242946954218BF9E
:1054280044EA0020DEF8044063456066BFF42FAF0D
:10543800DEF8045001337446686900054FF0000037
:105448007FF583AF24E7686900057FF57EAF00200C
:105458005DF804BBF0BDF0B503AF2DE9000F8BB0CC
:105468000168814631B101293FD10120D9F83810AE
:1054780029BBE9E099F8341049B1032946D199F8D4
:10548800301079B3032947D1D9F82C104CE0D9E969
:1054980003520021D9E90136C9E90536C9E907519E
:1054A800C9F824209142C0F0AC800120C9F800005E
:1054B80089F83400D9F83810002900F0C58001298E
:1054C80013D1002800F0E580D9F80000012817D191
:1054D8000220C9F83800C9F8000003200BB0BDE865
:1054E800000FF0BDD9F828101CE041F2982041F2D5
:1054F800C022C2F22000C2F22002252109F0FEF9E2
:1055080041F24820C2F2200008F00EFF41F21430A8
:10551800C2F2200009F058F941F22430C2F220000A
:1055280009F052F9C9F82C1049684A69120573D470
:105538004A68C96D01F01F01D2B2914279D2D9E906
:1055480005C3012689F83060D9F81C20DCF8006012
:1055580016B3002693421CBF13F8016BC9F8183024
:10556800002593421EBF13F8011BC9F818300D021D
:105578002E43002593421EBF13F8011BC9F81830AB
:105588000D042E43002593421EBF13F8011BC9F8D2
:1055980018300D0635432CE0002593421CBF13F844
:1055A800015BC9F81830002493421E461EBF1E46F0
:1055B80016F8014BC9F81860934218BF44EA05254C
:1055C8000024964231461EBF314611F8014BC9F8F6
:1055D8001810964218BF44EA0525002691421EBFBE
:1055E8000B4613F8016BC9F81830914218BF46EA08
:1055F8000525DCF804104D66D9E908129142BFF47C
:1056080054AF0131C9F82010D9F81410002289F8D4
:105618003020C9F8281085E70121002089F83410C6
:1056280089F830100221C9F800100BB0BDE8000F4E
:10563800F0BD0321002089F8341089F83010D9F81A
:10564800381000297FF43BAF99F86C10009049B1ED
:10565800032926D199F8681001B3032927D1D9F86D
:1056680064102CE0D9E911520021D9E90F36C9E9B3
:105678001336C9E91551C9F85C209142C0F01C8164
:1056880000980121C9F8381089F86C1000287FF4B7
:105698001BAF04200BB0BDE8000FF0BDD9F86010B7
:1056A8000BE041F2F420C2F2200009F08DF841F23B
:1056B8000430C2F2200009F087F8C9F8641049687C
:1056C8004A69D20400F113814A68CA6D12F4F81FBE
:1056D80000F01981D1F874C00125D9E9136389F85C
:1056E8006850D9F85420306818260A96102609966A
:1056F8000826089600260796D61A042E354628BF8F
:10570800042508B9022E35D29A4200F0D08007ACA1
:105718006FF0030004EB850E00EB8505E84310F0FD
:105728000C0F00F08E80261D93421FBF079800F0D3
:105738001F002CFA00F003F8010B18BFC9F850300D
:1057480015F00C0F7CD093421FBF089800F01F0083
:105758002CFA00F003F8010B04F1080605F00C0020
:1057680018BFC9F85030042840F0B18034460C2DD9
:1057780069D29CE007AC6E0804EB8508711E002016
:10578800032944D3CDE90165A8F10406A4F1100565
:10579800CDE9032C4FF0010CCDF8149055F8102FDB
:1057A8004FF6FD713068C3F6FF7106904FF6FE7034
:1057B80046F81029ACF10102C3F6FF7082EA000B2B
:1057C800D5E901E9514058F82B0048F82BE058F882
:1057D800214048F821904FF6FC71C3F6FF71D5F8C7
:1057E8000CA0514058F8212048F821A00699C5E995
:1057F80000100CF104011CF10300C5E902428C46BB
:10580800CCD1DDE904C907ACDDE90252019EC143F0
:1058180054F820A058F821E0012E44F820E048F878
:1058280021A03FF474AF6FF00101091A04EB800066
:1058380058F821E0466848F82160C0F804E066E7B7
:1058480034460C2D33D393421FBF206800F01F004D
:105858002CFA00F003F8010B18BFC9F85030934236
:105868001FBF606800F01F002CFA00F003F8010B5E
:1058780018BFC9F8503093421FBFA06800F01F003E
:105888002CFA00F003F8010B18BFC9F85030934206
:105898001FBFE06800F01F002CFA00F003F8010BAE
:1058A80004F1100418BFC9F850307445CBD1D9E9B8
:1058B80016129142BFF4E4AE481CC9F85800D9F852
:1058C8004C10002089F86800C9F86010F5E60C341F
:1058D80093421FBF099800F01F002CFA00F003F84C
:1058E800010B18BFC9F850300C2DACD2DFE70120EE
:1058F800022189F86C0089F86800C9F838100BB0E3
:10590800BDE8000FF0BD0321042089F86C1089F868
:1059180068100BB0BDE8000FF0BDF0B503AF4DF84F
:10592800048D84B001AC0546204607F033F941F2F6
:10593800D02803AEC2F220082046314642460395DD
:1059480007F0A4F8681C039020463146424607F049
:105958009DF8A81C039020463146424607F096F869
:10596800E81C039020463146424607F08FF8281D70
:10597800039020463146424607F088F8681D039098
:1059880020463146424607F081F8A81D039020467C
:105998003146424607F07AF8E81D03902046314622
:1059A800424607F073F8204607F0E0F804B05DF8C7
:1059B800048BF0BD80B56F46084641F2E021C2F283
:1059C80020011222BDE8804007F0C2BC80B56F46B6
:1059D8000A4650F8041BBDE8804006F01CBAF0B532
:1059E80003AF2DE90007804602F006FF02E0616878
:1059F8005046884706F09AF8BFF35F8F0546D8F8F7
:105A080000609EB3D6F8089002F01CFFB168401AF7
:105A1800B0F1FF3F6FEA00014FEAD171317317DD32
:105A28003069C8F80000D6E90010096888470446BC
:105A3800307B05F001008A4606F083F8002CD6D1A9
:105A480002F000FFA0EB0900B0F1FF3FD2DC0AE052
:105A580005F0010006F075F802F0F4FEA0EB09006D
:105A6800B0F1FF3FC6DCBDE80007F0BD2846BDE841
:105A78000007BDE8F04006F064B8002A04BF032020
:105A88007047F0B503AF2DE9000F91B0D3000026A1
:105A9800B6EB134F04D0022011B0BDE8000FF0BDE3
:105AA800054604A889461946904603F0FBFB04986E
:105AB800022805D19DF8140011B0BDE8000FF0BD13
:105AC8009DF81E00697A02900391D5E900E49DF8DB
:105AD80020209DF81F309DF81CB0BDF81A60DDF835
:105AE80014C095F808A06169090500F18080CDE926
:105AF800003228466368E26D02F01F02DBB29A4268
:105B08004CD26FF31F36029A46EA0C615FEA887638
:105B180041EA8B5141EA8241009A41EA4251019A95
:105B280041EA0251039A41EACE5141EACA7141EA77
:105B380082714FEA980241F4002121664FF000017A
:105B48008DF840104FF0010118BF01EB9802CDE924
:105B5800040904A809EB080107920691FFF76BFBFB
:105B6800C0B2032848D169684A69D00409D5012020
:105B780011B0BDE8000FF0BD4A69D0044FF0010034
:105B88008AD4100533D4D001F6D44868C86DC0064D
:105B9800F2D1032011B0BDE8000FF0BD6269120513
:105BA80025D46268E16D01F01F01D2B29142A8D3F9
:105BB800616909051BD46168E26D02F01F02C9B270
:105BC8008A429ED36169090511D46168E26D02F0C9
:105BD8001F02C9B28A4294D36169090507D4616872
:105BE800E26D02F01F02C9B28A42D7D289E70020CB
:105BF80011B0BDE8000FF0BD6C68039005F10A0014
:105C0800A1690291D4F81C90D4F820A0D4F824B04B
:105C1800216B01912146D4F8348003F078FBA26D02
:105C280002262169236966F3010323612369DB07DF
:105C380009D02369DB071CBF23695FEAC37302D05D
:105C48002369DB07F2D1236900BA23F00203236139
:105C5800236943F440732361029BA361C4F81C9039
:105C6800C4F820A0C4F824B0019B2363C4F834808E
:105C78002064A265206961F30000206168684FF420
:105C8800C0514161039811B0BDE8000FF0BDF0B5F7
:105C980003AF2DE9000FABB0002B00F0A780DD00AB
:105CA8000026B6EB154F01D002261CE183460FA84B
:105CB8008846294691469A4603F0F4FA0F98022836
:105CC80003D19DF8406058460DE19DF84A000890C0
:105CD8009DF8490007909DF84800049098F808003E
:105CE8000690D8E9000505909DF84C309DF84B408A
:105CF800BDF846C0DDF840E098F80960686900051D
:105D0800584600F1A480CDE90164414603934A4610
:105D18006B68EC6D04F01F04DBB29C4253466BD2F7
:105D2800049E6FF31F3C4CEA0E600DF1740C9C0747
:105D380040EA8650079E0FAC40EAC640089E40EAFB
:105D48008640029E40EA4650039E40EA0650059E61
:105D580040EAC650069E40EAC670019E40EA867038
:105D680041F27016C2F220062866099609AE4FF075
:105D780000004FEA9305CDE90B664FF001060A9043
:105D88000D908DF8A80018BF06EB930513448CE816
:105D98000F000DF13C0C21958CE82F000BAD8DF810
:105DA800700020462946FFF756FBC6B2042EF8D0ED
:105DB800DDE90910C9688847032E4AD1D8F80410CC
:105DC8004D69E804584600F18D8053464A4605E07F
:105DD8004D69EE044FF0010600F185802E0536D49A
:105DE800EE01F5D44E68CE6DF606F1D1C0E9002378
:105DF8002BB0BDE8000FF0BD6C69240527D46C6892
:105E0800EE6D06F01F06E4B2A64289D36C6924053C
:105E18001DD46C68EE6D06F01F06E4B2A642FFF4CE
:105E28007FAF6C69240512D46C68EE6D06F01F060E
:105E3800E4B2A642FFF474AF6C69240507D46C6819
:105E4800EE6D06F01F06E4B2A642D5D268E700263A
:105E580049E0D8F8044008F10A00A1690891E1690D
:105E68000791D4F820A0616A0691216B059121461B
:105E7800D4F8349003F04BFAA26D02252169236906
:105E880065F3010323612369DB0709D02369DB0775
:105E98001CBF23695FEAC37302D02369DB07F2D111
:105EA800236900BA23F002032361236943F4407392
:105EB8002361089BA361079BE361C4F820A0069BAC
:105EC8006362059B2363C4F834902064A26520694B
:105ED80061F300002061D8F804004FF4C05141611B
:105EE800584600E001260021067101602BB0BDE88C
:105EF800000FF0BD00680A460178022907D141F277
:105F080038311046C2F22001092207F021BA80B5C3
:105F18006F4682B0019041F2443040F6B041C2F27F
:105F2800200001AB00901046C2F22001042206F0C6
:105F380098FF02B080BD80B56F4600680A4641F2FE
:105F4800343141F23633C2F22001C2F22003007824
:105F58000028104618BF19460222BDE8804007F005
:105F6800F7B9F0B503AF2DE9000FC3B00D4682466F
:105F78006846FF2109F0D0F9284600F058FEC2B261
:105F8800062A40F0BA80D5E90201012401F01F0178
:105F980005F11C0BA7F12602022304FA01F1C0F84F
:105FA8008810132027F8260C41A85946FFF76FFEE2
:105FB8004198002800F09E80D5E9022303F01F03D2
:105FC800429904FA03F30129C2F8843040F2A08010
:105FD80044780126D5E90201A7F1260201F01F0144
:105FE800022306FA01F1C0F88810102027F8260CC1
:105FF80041A85946FFF74BFE419800287AD0D5E9C9
:10600800022303F01F03429906FA03F30129C2F899
:1060180084307DD9D5E9021202F01F02407806FAD1
:1060280002F2C1F8882041A98DF805018D208DF86C
:10603800040158460222FFF720FDC1B203295BD1B3
:10604800D5E9020101F01F0106FA01F1C0F8841038
:106058003CB3A7F126096E464FF00108D5E90201C5
:106068004A4601F01F01022308FA01F1C0F888101E
:10607800002027F8260C41A85946FFF708FE41984A
:10608800C0B3D5E9022303F01F03429908FA03F3CA
:106098000129C2F884303BD94078013C06F8010B4D
:1060A800DCD1D5E90201012401F01F01022204FA22
:1060B80001F1C0F888108D2041A9ADF804015846B7
:1060C800FFF7DBFCC1B2032916D1D5E90201FF2293
:1060D80001F01F0104FA01F1C0F884100AF101006F
:1060E800694608F017FF00208AF8000043B0BDE8B1
:1060F800000FF0BD9DF8081104208AF80100012066
:106108008AF802108AF8000043B0BDE8000FF0BD1D
:1061180041F254320120C2F2200208F079FBB0B5F6
:1061280002AF84B00446D0E9020101F01F01012545
:10613800A7F11202022305FA01F1C0F888100C2019
:1061480027F8120C04F11C0102A8FFF7A0FD029821
:1061580080B1D4E9022303F01F03039905FA03F37E
:106168000229C2F884300CD34078062141EA002085
:1061780004B0B0BD9DF80C00042141EA002004B031
:10618800B0BD41F254320120C2F2200208F040FBB7
:10619800B0B502AF82B00446D0E9020303F01F0392
:1061A800012505FA03F3C0F8883041F0800007F8AC
:1061B8000A0C04F11C00A7F10A0107F8092C0222B5
:1061C800FFF75BFCC1B203290AD1D4E9020202F04D
:1061D8001F0205FA02F2C0F88420062002B0B0BD02
:1061E800042002B0B0BDF0B503AF2DE9000F83B0B5
:1061F80004468B46D0E90201012601F01F0104F193
:106208001C059046A7F1260206FA01F10223C0F800
:10621800881001A8294627F8266CFFF738FD019851
:1062280000283ED0D4E9022303F01F03029906FA9E
:1062380003F30129C2F8843040F2F1804078C0436A
:10624800800704D1052003B0BDE8000FF0BDD4E9F4
:106258000201A7F1260201F01F01022306FA01F14B
:10626800C0F88810122027F8260C01A82946FFF745
:106278000EFD0198A8B1D4E9020202F01F020299AA
:1062880006FA02F20129C0F8842040F2C88094F886
:10629800290068B1204600F0C9F8C2B2062AD2D156
:1062A8000CE09DF80810042003B0BDE8000FF0BD15
:1062B800204600F019F9C2B2062AC4D1D4E9020175
:1062C8004FF0010901F01F01022209FA01F1C0F89B
:1062D800881048F2811001A9ADF804002846FFF79C
:1062E800CCFBC1B2032940F09580D4E9020101F04A
:1062F8001F0109FA01F1C0F8841094F8290084F804
:10630800289018B1204600F091F802E0204600F0ED
:10631800EBF8C2B2062A96D1D4E90201022201F0B2
:106328001F0109FA01F1C0F88810922001A9ADF8FF
:1063380004002846FFF7A1FBC1B203296AD1D4E9BA
:106348000201022201F01F0109FA01F1C0F88410CC
:10635800D4E9020101F01F0109FA01F1C0F888101F
:106368008D2001A9ADF804002846FFF786FBC1B2CD
:1063780003294FD1D4E90201012201F01F0102FAD9
:1063880001F10022C0F8841020462221FFF700FF07
:10639800C2B2062A7FF457AFB8F1000F29D00DF129
:1063A80004094FF0000ABAF1FF0F22D0D4E9020124
:1063B80001F01F011BF80A2006FA01F1C0F8881045
:1063C80080208DF8052049468DF8040028460222D1
:1063D800FFF753FBC1B203291CD1D4E902010AF12A
:1063E800010A01F01F01D04506FA01F1C0F8841036
:1063F800D9D1204622214246FFF7CAFEC2B2062A58
:106408007FF421AF2046032100F0C9FB03B0BDE8AB
:10641800000FF0BD042003B0BDE8000FF0BD41F24D
:1064280054320120C2F2200208F0F2F9F0B503AFAD
:106438004DF804BD84B00446D0E9020101F01F0103
:10644800012604F11C05A7F11E0206FA01F1022338
:10645800C0F888101D2027F81E0C01A82946FFF750
:1064680016FC019890B3D4E9022303F01F030299A4
:1064780006FA03F30129C2F884302ED9D4E90212AE
:10648800407802F01F0206FA02F200F0FE00C1F89E
:106498008820A7F1120107F8110C9D2007F8120CAB
:1064A80028460222FFF7E9FAC1B2032910D1D4E93C
:1064B800020101F01F0106FA01F1C0F8841006205C
:1064C80084F8296004B05DF804BBF0BD9DF808109D
:1064D800042004B05DF804BBF0BD41F25432012041
:1064E800C2F2200208F094F9F0B503AF4DF804BDEC
:1064F80084B00446D0E9020101F01F01012604F12D
:106508001C05A7F11E0206FA01F10223C0F8881043
:106518001D2027F81E0C01A82946FFF7B8FB019893
:1065280098B3D4E9022303F01F03029906FA03F390
:106538000129C2F884302FD9D4E90212407802F038
:106548001F0206FA02F200F00100C1F88820A7F144
:10655800120107F8110C9D2007F8120C2846022298
:10656800FFF78BFAC1B2032911D1D4E9020101F076
:106578001F0106FA01F1C0F88410002084F82900F0
:10658800062004B05DF804BBF0BD9DF80810042097
:1065980004B05DF804BBF0BD41F254320120C2F2F0
:1065A800200208F035F9F0B503AF2DE9000F8FB0E0
:1065B8008246B869D7E902CE0124D1E900B68D68D0
:1065C8000EF01F01D7F8149004FA01F140F2E244EA
:1065D800CCF8881004610468D7F8108044F00104EE
:1065E8000460CDE908656E4606F11C054FF4807419
:1065F800CDF814E0CDE90223ADF82840CDE90089B3
:10660800CDF810C0CDE9060B8668F60709D1866873
:10661800F60704BF86685FEAC67602D18668F60781
:10662800F2D0866846F001068660066826F0010604
:106638000660CCF8841040F2E2410161016841F043
:10664800010101608168C90709D18168C90704BFD0
:1066580081685FEAC17102D18168C907F2D0816897
:10666800012641F001018160016821F0010101600A
:1066780003F01F002946022306FA00F0C2F888003A
:10668800422027F8260C0DA8A7F12602FFF7FFFAEB
:106698000D98C0B1DDE9022303F01F030E9906FA35
:1066A80003F30129C2F8843040F2018140781228AE
:1066B80017D19DF8290000B36846FFF7B7FEC2B2AC
:1066C800062A03D11FE09DF83810042002228AF818
:1066D8000110CAF81C208AF800000FB0BDE8000FAE
:1066E800F0BD02218AF801000120CAF81C108AF8BE
:1066F80000000FB0BDE8000FF0BD6846FFF7F4FEDC
:10670800C2B2062AE2D1DDE90201022201F01F012C
:1067180006FA01F1C0F8881048F281000DA9ADF819
:1067280034002846FFF7A9F9C1B20329CDD1DDE924
:106738000201022201F01F0106FA01F1C0F88410DB
:10674800C0F8881000208DF828004FEA98008DF8CE
:10675800350086200DA98DF834002846CDF8008034
:10676800CDF80490FFF789F9C1B20329ADD14FEAFA
:106778005830DDE90212C00602F01F0268F39A30B1
:1067880006FA02F2000AC1F88420C1F888200DA98F
:106798008DF8350087208DF8340028460222FFF74F
:1067A8006CF9C1B2032990D1DDE90201022201F09E
:1067B8001F0106FA01F1C0F88410C0F8881088207B
:1067C8000DA9ADF834002846FFF757F9C1B20329DF
:1067D8007FF47BAFDDE90201022201F01F0106FA16
:1067E80001F1C0F88410C0F888108E200DA9ADF80A
:1067F80034002846FFF741F9C1B203297FF465AF99
:10680800DDE90201022201F01F0106FA01F1C0F8D8
:106818008410C0F888108F200DA9ADF834002846E0
:10682800FFF72BF9C1B203297FF44FAFDDE902016D
:10683800012201F01F0102FA01F1C0F88410684634
:10684800FFF76DFCC0F30721C2B2062A7FF43EAF02
:1068580041F0030268460C21FFF79AFCC2B2062AEF
:106868007FF434AF684626210422FFF791FCC2B2B8
:10687800062A7FF42BAF6D460121284600F08FF9D8
:10688800C2B2062A7FF422AFDDE9020101F01F013E
:1068980006FA01F1C0F884105FCDAAE85F0095E818
:1068A8005F008AE85F000FB0BDE8000FF0BD41F25D
:1068B80054320120C2F2200207F0AAFFF0B503AF5C
:1068C8002DE9000F85B0834691F8290099461446B2
:1068D8000D4630B12846FFF7A9FDC2B2062A07D0F7
:1068E80098E02846FFF700FEC2B2062A40F09280E0
:1068F800D5E90201012601F01F0105F11C08022259
:1069080006FA01F1C0F8881048F2815003A9ADF8E1
:106918000C004046FFF7B1F8C1B2032979D1D5E997
:10692800020101F01F0106FA01F1C0F884100520E8
:1069380085F82800E00778D0D5E902014FF0010A70
:1069480001F01F01CDF80490A7F1260202230AFAEC
:1069580001F11226C0F88810122027F8260C03A887
:106968004146FFF794F90398002800F0F380019955
:10697800002421EAE1791DE08168A7F126020223BB
:1069880041F001018160016821F001010160D5E950
:10699800020101F01F010AFA01F1C0F8881003A8EA
:1069A800414627F8266CFFF772F90398013400284E
:1069B80000F0D080D5E9022303F01F0304990AFAF6
:1069C80003F30129C2F8843040F2E28040780621BE
:1069D80007F8270CA7F1270000F083F9002840F0FA
:1069E80086804C4500F0C280A8697D21016101685C
:1069F80041F0010101608168C907BDD18168C907FB
:106A080004BF81685FEAC171B6D18168C907F2D055
:106A1800B2E704208BF8010001208BF802108BF8F4
:106A2800000005B0BDE8000FF0BDD5E90201012462
:106A380001F01F01A7F12602022304FA01F1C0F8B0
:106A48008810122027F8260C03A84146FFF71FF9E3
:106A5800039800287ED0A7F127060DF10C09A7F1AD
:106A6800260A1BE081685246022341F00101816039
:106A7800016821F001010160D5E9020101F01F015F
:106A880004FA01F1C0F88810122027F8260C4846AD
:106A98004146FFF7FCF8039800285BD0D5E90223AC
:106AA80003F01F03049904FA03F30129C2F88430A0
:106AB8006ED94078062107F8270C304600F011F906
:106AC800C0B9A86943F2D4010161016841F001012C
:106AD80001608168C907C5D18168C90704BF816899
:106AE8005FEAC171BED18168C907F2D0BAE70198DF
:106AF80084423BDA284600F09AF8C2B2062A3CD112
:106B0800D5E90201012401F01F01A7F126020223A1
:106B180004FA01F1C0F88810132027F8260C03A8FE
:106B28004146FFF7B4F80398A0B1D5E9022303F072
:106B38001F03049904FA03F30129C2F8843027D902
:106B4800407800218BF80010CBF8040005B0BDE8B0
:106B5800000FF0BD9DF810008BF8020040F20140D4
:106B6800ABF8000005B0BDE8000FF0BD0120ABF8A0
:106B7800000005B0BDE8000FF0BD8BF80100012052
:106B88008BF800008BF8021005B0BDE8000FF0BDCF
:106B980041F254320120C2F2200207F039FEF0B56A
:106BA80003AF4DF804BD82B0054690F829000C46A5
:106BB80048B12846FFF73AFCC2B2062A09D002B00B
:106BC8005DF804BBF0BD2846FFF78EFCC2B2062A6A
:106BD800F5D1D5E90201012601F01F01022206FACA
:106BE80001F1C0F8881044F0800007F8110C8120EA
:106BF80007F8120C05F11C00A7F11201FEF73DFF82
:106C0800C1B203290ED1D5E9020101F01F0106FA2C
:106C180001F1C0F88410062085F8284002B05DF81C
:106C280004BBF0BD042002B05DF804BBF0BDF0B5B4
:106C380003AF4DF804BD84B00446D0E9020101F069
:106C48001F01012604F11C05A7F11E0206FA01F135
:106C58000223C0F88810122027F81E0C01A8294624
:106C6800FFF715F8019870B3D4E9022303F01F0366
:106C7800029906FA03F30129C2F884302AD9D4E923
:106C8800021202F01F02407806FA02F2C1F88820C8
:106C9800A7F1120107F8110C922007F8120C2846E8
:106CA8000222FEF7EAFEC1B203290ED1D4E902029C
:106CB80002F01F0206FA02F2C0F88420062004B08F
:106CC8005DF804BBF0BD9DF80810042004B05DF821
:106CD80004BBF0BD41F254320120C2F2200207F099
:106CE80097FD08293FBF0078C84000F001007047B1
:106CF80080B56F4641F2643041F29032C2F2200012
:106D0800C2F220022A2107F0F9FDF0B503AF4DF8D1
:106D180004BD82B0044690F8340001280BD12068E5
:106D2800002841D14FF0FF30224642F8200B096875
:106D3800CDE9001229E00E6804F019FF054604F0B9
:106D480009FF2068E90718D170BB4FF0FF302146D2
:106D580041F8200B6846CDE9006103F0B9FB002833
:106D68001CBF684603F0DBFB20680130206004F09C
:106D7800F3FE02B05DF804BBF0BDA8B94FF0FF30D8
:106D8800214641F8200BCDE90061684603F0A0FBDD
:106D980000281CBF684603F0C2FB20680130206051
:106DA80002B05DF804BBF0BD41F2A030C2F2200091
:106DB80007F0FBF8F0B503AF4DF804BD82B0044608
:106DC80090F83400012807D12068A0BB4FF0FF30AD
:106DD80009682060009121E00E6804F0C8FE0546AD
:106DE80004F0B8FE2068E90713D120BB4FF0FF304C
:106DF8000096206004F120000190684603F09DFB96
:106E080020680130206004F0A7FE02B05DF804BBE2
:106E1800F0BD80B94FF0FF300096206004F12000EB
:106E28000190684603F089FB20680130206002B0B9
:106E38005DF804BBF0BD41F2A030C2F2200007F0BB
:106E4800B4F8F0B503AF4DF804BD82B0044690F82D
:106E58003400012819D12068002869D14FF0FF308B
:106E6800224642F8200B68460968CDE9001203F073
:106E780008FB002841D06D46284603F01BFB284636
:106E880003F0FFFA0028F7D135E00E6804F06FFE32
:106E9800054604F05FFE2068E90717D1002847D1AE
:106EA8004FF0FF30214641F8200B6846CDE90061DC
:106EB80003F0E7FA68B36D46284603F0FBFA284664
:106EC80003F0DFFA0028F7D1012527E080BB4FF057
:106ED800FF30214641F8200B6846CDE9006103F0F8
:106EE800D0FA50B16D46284603F0E4FA284603F07C
:106EF800C8FA0028F7D1012004E0684603F0CEFA6A
:106F080080F0010021680131216002B05DF804BB06
:106F1800F0BD684603F0C2FA80F001052068013030
:106F2800206004F019FE284602B05DF804BBF0BDED
:106F380041F2A030C2F2200007F037F8F0B503AFF5
:106F48004DF804BD8268012A2ED1C3684269934274
:106F580050D20569D0F818C0EC5C0134EC540CF13F
:106F6800020494421CD80CF580739646934238BFAD
:106F78009E46A34236D3AEEB0403052B10D38B7980
:106F880091F807E00E7A89882B552B199970090A10
:106F98005E7083F804E0D9700CF10703934207D9B7
:106FA80002205DF804BBF0BD07205DF804BBF0BD0E
:106FB800944528D2072105F80C100CF101019142E3
:106FC8003FBF05226A54836108203CBF5DF804BBBB
:106FD800F0BD41F2C0330846C2F2200311461A46FA
:106FE80007F016FC41F2D0332046C2F22003714666
:106FF80007F00DF941F2E0341846C2F220041146B8
:10700800224607F005FC41F2B0336046C2F2200385
:1070180011461A4607F0FCFBD0B502AF84B00188D0
:10702800062911D181690968BFF35F8F79B10023FF
:10703800827F009302AB04461846012304F00AF845
:107048000820208004B0D0BD072004B0D0BD41F294
:10705800C84041F2EC42C2F22000C2F220022221D2
:1070680007F04CFCF0B503AF4DF804BD86B00446FC
:1070780008880D46411E032927D3052825D007284F
:1070880032D1D5F8AC00D5F8063069898028D5F812
:107098000220ADF80C10CDE901236BD8E968096826
:1070A800BFF35F8F00295AD0C0F18003AA7C28441F
:1070B800009300F1240304A803F0B9FE9DF8100022
:1070C800C0B39DF81100D8B92EE0E8680168BFF395
:1070D8005F8F002943D0AA7C04A8002601230096CC
:1070E80003F0A5FE2E801FE0E8680168BFF35F8FFC
:1070F800A9B30020AA7C009004A8012303F097FEFE
:10710800E868092129800068BFF35F8F38B3A97C3C
:10711800012203F014FDA8690068BFF35F8FF0B186
:10712800A97F012203F00BFD0420607206B05DF810
:1071380004BBF0BD0598D5E92B120844C5F8AC008E
:107148009042F1D3DDE901010623BDF80C202B8024
:1071580020606160228106B05DF804BBF0BD41F299
:10716800C84041F2EC42C2F22000C2F220022221C1
:1071780007F0C4FB41F2F0338021C2F220038022E1
:1071880007F045F8F0B503AF2DE9000F85B00446C8
:10719800C8680D460168BFF35F8F002900F08C8036
:1071A80005F124068020AA7C009002A8334603F04B
:1071B8003EFE9DF80800012803D19DF8090060B93A
:1071C80021E0039A812A80F0828002A8314604F0E7
:1071D80067FC9DF8110004281BD1E8680921298063
:1071E8000068BFF35F8F002866D0A97C012203F0F6
:1071F800A6FCA8690068BFF35F8F00285CD0A97F50
:10720800012203F09CFC0420607205B0BDE8000F69
:10721800F0BDE868BDF810A09DF80F609DF80E90CD
:10722800BDF80CB0DDF808800068BFF35F8F002858
:1072380042D0A97C002203F082FCBEB10420A5F84C
:107248000AA06E7285F80890A5F806B0C5F8028005
:107258002880A4F808A0E67184F80690A4F804B081
:10726800C4F8008005B0BDE8000FF0BDBBF1000F09
:1072780011D0BBF1800FB0D80020A5F80AA0C5E94D
:107288002B0B6872072085F80890A5F806B0C5F89A
:1072980002802880B7E70620A4F808A028800020EC
:1072A800C5F8B000E07184F80690A080C4F80080AA
:1072B80005B0BDE8000FF0BD41F2C84041F2EC4214
:1072C800C2F22000C2F22002222107F017FB41F28D
:1072D80000431146C2F220030020802206F097FFE7
:1072E800D0B502AF84B00446D0E929C2D0F8AC00CA
:1072F800D4F8B010BCF1000FA38B08BF8022091A84
:10730800994238BF0B46191828D2914226D8A1694C
:107318000968BFF35F8F39B3A27FBCF1000F0093F8
:1073280008BF04F1240C0CEB000302A803F092FE42
:107338009DF8080080B90398D4E92B120144C4F8D9
:10734800AC10914208D30021A28BC4F8A4100321E9
:10735800904208BF0221218004B0D0BD41F2104301
:10736800C2F2200306F053FF41F2C84041F2EC425A
:10737800C2F22000C2F22002222107F0BFFA000068
:10738800B0B502AF84B001880139072939D8DFE8E0
:1073980001F0041C0A3838383832FFF7A1FF0024FE
:1073A800204604B0B0BDC1680A68BFF35F8F002AE9
:1073B80041D0817C054610460022002403F0BFFB23
:1073C80005202880204604B0B0BD81690968BFF354
:1073D8005F8F81B3827F054602A8002401230094B1
:1073E80003F038FE9DF80800002804BF0320288019
:1073F800204604B0B0BD002101240180204604B01D
:10740800B0BDC168092202800A68BFF35F8F92B1DC
:10741800817C04461046012203F091FBA0690068B4
:10742800BFF35F8F38B1A17F012203F088FB0024EE
:10743800204604B0B0BD41F2C84041F2EC42C2F26D
:107448002000C2F22002222107F058FA0288042AFA
:107458001CBF07207047F0B503AF4DF804BD4C685A
:10746800802C03D902205DF804BBF0BD096800F147
:107478002402C68805461046224607F04BFD002028
:10748800B44238BF2646C5E92B0601202880284685
:10749800FFF726FF08205DF804BBF0BDF0B503AF89
:1074A8002DE9000B8CB004460088042846D1002042
:1074B8000D46079080218DF8200016460390019014
:1074C800099001A80B9009A8069104F12401B4F8C9
:1074D8000680059104F077FAC0B208282AD176B15F
:1074E80005EBC6060DF12409D5E900010A694946EC
:1074F8009047C1B208291DD10835B542F4D109A871
:1075080004F0BAFA079880281DD9E068092121807B
:107518000068BFF35F8F30B3A17C012203F00FFB3B
:10752800A0690068BFF35F8FE8B1A17F012203F073
:1075380006FB02200CB0BDE8000BF0BD07200CB024
:10754800BDE8000BF0BD012200212280404538BF74
:1075580080462046C4E92B18FFF7C2FE08200CB06D
:10756800BDE8000BF0BD41F2C84041F2EC42C2F266
:107578002000C2F22002222107F0C0F9B0B502AF04
:1075880088B00446008804282DD1D1E900120020D3
:10759800802306908DF81C000290009068460593A1
:1075A80004F12403E588049304F0DFF8C0B2082846
:1075B80017D10698802819D9E06809212180006828
:1075C800BFF35F8F00B3A17C012203F0B8FAA06972
:1075D8000068BFF35F8FB8B1A17F012203F0AFFA53
:1075E800022008B0B0BD072008B0B0BD01220021BC
:1075F8002280A84238BF05462046C4E92B15FFF76C
:107608006FFE082008B0B0BD41F2C84041F2EC421C
:10761800C2F22000C2F22002222107F06FF9B0B5B1
:1076280002AF8AB004460088042833D100208021A4
:107638000790A7F10A028DF8200002230390019019
:1076480040F20940069104F1240127F80A0C01A828
:1076580005910321E58803F09CFFC0B2082817D1E3
:107668000798802819D9E068092121800068BFF3AC
:107678005F8F00B3A17C012203F061FAA069006862
:10768800BFF35F8FB8B1A17F012203F058FA02203F
:107698000AB0B0BD07200AB0B0BD01220021228087
:1076A800A84238BF05462046C4E92B15FFF718FE47
:1076B80008200AB0B0BD41F2C84041F2EC42C2F223
:1076C8002000C2F22002222107F018F9F0B503AF1A
:1076D8002DE9000788B004460088042848D1D1E97C
:1076E800000680228D680021059204F1240206918B
:1076F80004928DF81C100291009101686846B4F854
